{"address":"0xE5F5D0a68A215110Fc0803d87D44253Ee5382f6c","bytecode":"0x60806040523480156200001157600080fd5b50604051620025d3380380620025d3833981016040819052620000349162000077565b600180546001600160a01b039485166001600160a01b031991821617909155600080549385169382169390931790925560048054919093169116179055620000e3565b6000806000606084860312156200008c578283fd5b83516200009981620000ca565b6020850151909350620000ac81620000ca565b6040850151909250620000bf81620000ca565b809150509250925092565b6001600160a01b0381168114620000e057600080fd5b50565b6124e080620000f36000396000f3fe608060405234801561001057600080fd5b50600436106100a95760003560e01c8063af57513f11610071578063af57513f1461016e578063c0857ba014610181578063c8509ec214610194578063d928a252146101a7578063de9b771f146101ba578063f953cec7146101cd57600080fd5b80630e387de6146100ae5780632131c68c146100e8578063607f2d4214610113578063972c492814610146578063aea4e49e14610159575b600080fd5b6100d57f8c5261668696ce22758910d05bab8f186d6eb247ceac2af2e82c7dc17669b03681565b6040519081526020015b60405180910390f35b6004546100fb906001600160a01b031681565b6040516001600160a01b0390911681526020016100df565b610136610121366004611fbb565b60036020526000908152604090205460ff1681565b60405190151581526020016100df565b6002546100fb906001600160a01b031681565b61016c610167366004611f69565b6101e0565b005b61016c61017c366004611fbb565b610273565b6001546100fb906001600160a01b031681565b61016c6101a2366004611f69565b61057a565b6005546100fb906001600160a01b031681565b6000546100fb906001600160a01b031681565b61016c6101db36600461201f565b6105f6565b6002546001600160a01b0316156102515760405162461bcd60e51b815260206004820152602a60248201527f467842617365526f6f7454756e6e656c3a204348494c445f54554e4e454c5f4160448201526913149150511657d4d15560b21b60648201526084015b60405180910390fd5b600280546001600160a01b0319166001600160a01b0392909216919091179055565b6005546040516331a9108f60e11b815260048101839052829133916001600160a01b0390911690636352211e9060240160206040518083038186803b1580156102bb57600080fd5b505afa1580156102cf573d6000803e3d6000fd5b505050506040513d601f19601f820116820180604052508101906102f39190611f85565b6001600160a01b0316146103495760405162461bcd60e51b815260206004820152601d60248201527f4f6e6c79206f776e65722063616e206d6f766520706f6c796d6f7270680000006044820152606401610248565b6005546040516323b872dd60e01b8152336004820152306024820152604481018490526001600160a01b03909116906323b872dd90606401600060405180830381600087803b15801561039b57600080fd5b505af11580156103af573d6000803e3d6000fd5b505060055460405163352df34360e11b815260048101869052610576935085925033916001600160a01b031690636a5be6869060240160206040518083038186803b1580156103fd57600080fd5b505afa158015610411573d6000803e3d6000fd5b505050506040513d601f19601f82011682018060405250810190610435919061210b565b6005546040516326fbba0b60e11b8152600481018890526001600160a01b0390911690634df774169060240160206040518083038186803b15801561047957600080fd5b505afa15801561048d573d6000803e3d6000fd5b505050506040513d601f19601f820116820180604052508101906104b19190611fa1565b6005546040516311e4683d60e11b8152600481018990526001600160a01b03909116906323c8d07a9060240160206040518083038186803b1580156104f557600080fd5b505afa158015610509573d6000803e3d6000fd5b505050506040513d601f19601f8201168201806040525081019061052d919061210b565b6040805160208101969096526001600160a01b039094169385019390935260608401919091521515608083015260a082015260c00160405160208183030381529060405261060c565b5050565b6004546001600160a01b031633146105d45760405162461bcd60e51b815260206004820152601760248201527f4e6f742063616c6c65642066726f6d207468652064616f0000000000000000006044820152606401610248565b600580546001600160a01b0319166001600160a01b0392909216919091179055565b600061060182610677565b90506105768161095d565b60005460025460405163b472047760e01b81526001600160a01b039283169263b4720477926106429291169085906004016121a2565b600060405180830381600087803b15801561065c57600080fd5b505af1158015610670573d6000803e3d6000fd5b5050505050565b6060600061068483610acc565b9050600061069182610b2b565b9050600061069e83610b68565b90506000816106ac84610b9f565b6106b586610d95565b6040516020016106c793929190612175565b60408051601f1981840301815291815281516020928301206000818152600390935291205490915060ff161561074b5760405162461bcd60e51b8152602060048201526024808201527f4678526f6f7454756e6e656c3a20455849545f414c52454144595f50524f434560448201526314d4d15160e21b6064820152608401610248565b6000818152600360205260408120805460ff1916600117905561076d85610dbf565b9050600061077a82610f25565b905061078581610fd1565b6002546001600160a01b039081169116146107f05760405162461bcd60e51b815260206004820152602560248201527f4678526f6f7454756e6e656c3a20494e56414c49445f46585f4348494c445f54604482015264155393915360da1b6064820152608401610248565b60006107fb87611008565b905061081b61080b846020015190565b876108158a611032565b8461105c565b6108735760405162461bcd60e51b815260206004820152602360248201527f4678526f6f7454756e6e656c3a20494e56414c49445f524543454950545f505260448201526227a7a360e91b6064820152608401610248565b6108a18561088089611383565b6108898a6113ad565b846108938c6113d7565b61089c8d611401565b61142b565b5060006108ad83611560565b90507f8c5261668696ce22758910d05bab8f186d6eb247ceac2af2e82c7dc17669b0366108e36108de8360006115aa565b6115f0565b146109305760405162461bcd60e51b815260206004820152601f60248201527f4678526f6f7454756e6e656c3a20494e56414c49445f5349474e4154555245006044820152606401610248565b600061093b8461166b565b80602001905181019061094e9190612098565b9b9a5050505050505050505050565b6005546001600160a01b03166109c45760405162461bcd60e51b815260206004820152602660248201527f506f6c796d6f72706820636f6e7472616374206861736e2774206265656e2073604482015265195d081e595d60d21b6064820152608401610248565b60008060008060006109d586611695565b6005546040516323b872dd60e01b81523060048201526001600160a01b03808716602483015260448201889052969b50949950929750909550935091909116906323b872dd90606401600060405180830381600087803b158015610a3857600080fd5b505af1158015610a4c573d6000803e3d6000fd5b5050600554604051631a8700f760e21b815260048101899052602481018790528515156044820152606481018590526001600160a01b039091169250636a1c03dc9150608401600060405180830381600087803b158015610aac57600080fd5b505af1158015610ac0573d6000803e3d6000fd5b50505050505050505050565b6040805160208101909152606081526000610b16610b118460408051808201825260008082526020918201528151808301909252825182529182019181019190915290565b6116c3565b60408051602081019091529081529392505050565b6060610b628260000151600881518110610b5557634e487b7160e01b600052603260045260246000fd5b60200260200101516117f5565b92915050565b6000610b628260000151600281518110610b9257634e487b7160e01b600052603260045260246000fd5b60200260200101516115f0565b60408051602081019091526000815281516060919015610b6257600080610bc76000866118a0565b60f81c90506001811480610bde57508060ff166003145b15610ca257600185516002610bf39190612376565b610bfd9190612395565b67ffffffffffffffff811115610c2357634e487b7160e01b600052604160045260246000fd5b6040519080825280601f01601f191660200182016040528015610c4d576020820181803683370190505b5092506000610c5d6001876118a0565b90508084600081518110610c8157634e487b7160e01b600052603260045260246000fd5b60200101906001600160f81b031916908160001a9053506001925050610d14565b600285516002610cb29190612376565b610cbc9190612395565b67ffffffffffffffff811115610ce257634e487b7160e01b600052604160045260246000fd5b6040519080825280601f01601f191660200182016040528015610d0c576020820181803683370190505b509250600091505b60ff82165b8351811015610d8c57610d43610d3260ff851683612395565b610d3d90600261223d565b876118a0565b848281518110610d6357634e487b7160e01b600052603260045260246000fd5b60200101906001600160f81b031916908160001a90535080610d84816123ff565b915050610d19565b50505092915050565b6000610b628260000151600981518110610b9257634e487b7160e01b600052603260045260246000fd5b610de360405180606001604052806060815260200160608152602001600081525090565b610e0b8260000151600681518110610b5557634e487b7160e01b600052603260045260246000fd5b602082810182905260408051808201825260008082529083015280518082019091528251815291810190820152610e418161193d565b15610e5657610e4f816116c3565b8252610f11565b60208201518051600090610e6c90600190612395565b67ffffffffffffffff811115610e9257634e487b7160e01b600052604160045260246000fd5b6040519080825280601f01601f191660200182016040528015610ebc576020820181803683370190505b509050600080836021019150826020019050610eda82828551611976565b604080518082018252600080825260209182015281518083019092528451825280850190820152610f0a906116c3565b8652505050505b610f1a83610d95565b604083015250919050565b604080516080810182526000918101828152606080830193909352815260208101919091526000610f818360000151600381518110610f7457634e487b7160e01b600052603260045260246000fd5b60200260200101516116c3565b836040015181518110610fa457634e487b7160e01b600052603260045260246000fd5b602002602001015190506040518060400160405280828152602001610fc8836116c3565b90529392505050565b6000610b628260200151600081518110610ffb57634e487b7160e01b600052603260045260246000fd5b60200260200101516119f1565b6000610b628260000151600581518110610b9257634e487b7160e01b600052603260045260246000fd5b6060610b628260000151600781518110610b5557634e487b7160e01b600052603260045260246000fd5b6000806110908460408051808201825260008082526020918201528151808301909252825182529182019181019190915290565b9050600061109d826116c3565b9050606080856000806110af8b610b9f565b90508051600014156110cb57600097505050505050505061137b565b60005b86518110156113725781518311156110f15760009850505050505050505061137b565b61112187828151811061111457634e487b7160e01b600052603260045260246000fd5b6020026020010151611a0b565b9550858051906020012084146111425760009850505050505050505061137b565b611165878281518110610f7457634e487b7160e01b600052603260045260246000fd5b94508451601114156112645781518314156111d5578c805190602001206111a686601081518110610b5557634e487b7160e01b600052603260045260246000fd5b8051906020012014156111c45760019850505050505050505061137b565b60009850505050505050505061137b565b60008284815181106111f757634e487b7160e01b600052603260045260246000fd5b016020015160f81c9050601081111561121c576000995050505050505050505061137b565b61124f868260ff168151811061124257634e487b7160e01b600052603260045260246000fd5b6020026020010151611a99565b945061125c60018561223d565b935050611360565b8451600214156111c457600061129e61129787600081518110610b5557634e487b7160e01b600052603260045260246000fd5b8486611ac7565b83519091506112ad828661223d565b1415611310578d805190602001206112df87600181518110610b5557634e487b7160e01b600052603260045260246000fd5b8051906020012014156112fe576001995050505050505050505061137b565b6000995050505050505050505061137b565b80611327576000995050505050505050505061137b565b611331818561223d565b93506113578660018151811061124257634e487b7160e01b600052603260045260246000fd5b94506113609050565b8061136a816123ff565b9150506110ce565b50505050505050505b949350505050565b6000610b628260000151600381518110610b9257634e487b7160e01b600052603260045260246000fd5b6000610b628260000151600481518110610b9257634e487b7160e01b600052603260045260246000fd5b6000610b628260000151600081518110610b9257634e487b7160e01b600052603260045260246000fd5b6060610b628260000151600181518110610b5557634e487b7160e01b600052603260045260246000fd5b6001546040516320a9cea560e11b8152600481018490526000918291829182916001600160a01b03909116906341539d4a9060240160a06040518083038186803b15801561147857600080fd5b505afa15801561148c573d6000803e3d6000fd5b505050506040513d601f19601f820116820180604052508101906114b09190611fd3565b5093505092509250611507828b6114c79190612395565b6040805160208082018f90528183018e9052606082018d905260808083018d90528351808403909101815260a09092019092528051910120908588611bfa565b6115535760405162461bcd60e51b815260206004820152601c60248201527f4678526f6f7454756e6e656c3a20494e56414c49445f484541444552000000006044820152606401610248565b9998505050505050505050565b60408051602081019091526060815260405180602001604052806115a28460200151600181518110610f7457634e487b7160e01b600052603260045260246000fd5b905292915050565b604080518082019091526000808252602082015282518051839081106115e057634e487b7160e01b600052603260045260246000fd5b6020026020010151905092915050565b80516000901580159061160557508151602110155b61160e57600080fd5b600061161d8360200151611d5f565b905060008184600001516116319190612395565b9050600080838660200151611646919061223d565b905080519150602083101561166257826020036101000a820491505b50949350505050565b6060610b628260200151600281518110610b5557634e487b7160e01b600052603260045260246000fd5b6000806000806000858060200190518101906116b19190612123565b939a9299509097509550909350915050565b60606116ce8261193d565b6116d757600080fd5b60006116e283611de1565b905060008167ffffffffffffffff81111561170d57634e487b7160e01b600052604160045260246000fd5b60405190808252806020026020018201604052801561175257816020015b604080518082019091526000808252602082015281526020019060019003908161172b5790505b50905060006117648560200151611d5f565b8560200151611773919061223d565b90506000805b848110156117ea5761178a83611e64565b91506040518060400160405280838152602001848152508482815181106117c157634e487b7160e01b600052603260045260246000fd5b60209081029190910101526117d6828461223d565b9250806117e2816123ff565b915050611779565b509195945050505050565b805160609061180357600080fd5b60006118128360200151611d5f565b905060008184600001516118269190612395565b905060008167ffffffffffffffff81111561185157634e487b7160e01b600052604160045260246000fd5b6040519080825280601f01601f19166020018201604052801561187b576020820181803683370190505b5090506000816020019050611662848760200151611899919061223d565b8285611f08565b60006118ad60028461241a565b156118f5576010826118c0600286612255565b815181106118de57634e487b7160e01b600052603260045260246000fd5b01602001516118f0919060f81c61242e565b611933565b601082611903600286612255565b8151811061192157634e487b7160e01b600052603260045260246000fd5b0160200151611933919060f81c612269565b60f81b9392505050565b805160009061194e57506000919050565b6020820151805160001a9060c082101561196c575060009392505050565b5060019392505050565b8061198057505050565b602081106119b8578251825261199760208461223d565b92506119a460208361223d565b91506119b1602082612395565b9050611980565b600060016119c7836020612395565b6119d3906101006122ce565b6119dd9190612395565b935183518516941916939093179091525050565b8051600090601514611a0257600080fd5b610b62826115f0565b60606000826000015167ffffffffffffffff811115611a3a57634e487b7160e01b600052604160045260246000fd5b6040519080825280601f01601f191660200182016040528015611a64576020820181803683370190505b509050805160001415611a775792915050565b6000816020019050611a928460200151828660000151611f08565b5092915050565b8051600090602114611aaa57600080fd5b60008083602001516001611abe919061223d565b51949350505050565b60008080611ad486610b9f565b90506000815167ffffffffffffffff811115611b0057634e487b7160e01b600052604160045260246000fd5b6040519080825280601f01601f191660200182016040528015611b2a576020820181803683370190505b509050845b8251611b3b908761223d565b811015611bca576000878281518110611b6457634e487b7160e01b600052603260045260246000fd5b01602001516001600160f81b03191690508083611b818985612395565b81518110611b9f57634e487b7160e01b600052603260045260246000fd5b60200101906001600160f81b031916908160001a905350508080611bc2906123ff565b915050611b2f565b50808051906020012082805190602001201415611bea5781519250611bef565b600092505b509095945050505050565b600060208251611c0a919061241a565b15611c4e5760405162461bcd60e51b8152602060048201526014602482015273092dcecc2d8d2c840e0e4dedecc40d8cadccee8d60631b6044820152606401610248565b600060208351611c5e9190612255565b9050611c6b8160026122ce565b8510611cb15760405162461bcd60e51b81526020600482015260156024820152744c65616620696e64657820697320746f6f2062696760581b6044820152606401610248565b60008660205b85518111611d5157858101519250611cd060028961241a565b611d05576040805160208101849052908101849052606001604051602081830303815290604052805190602001209150611d32565b60408051602081018590529081018390526060016040516020818303038152906040528051906020012091505b611d3d600289612255565b9750611d4a60208261223d565b9050611cb7565b509094149695505050505050565b8051600090811a6080811015611d785750600092915050565b60b8811080611d93575060c08110801590611d93575060f881105b15611da15750600192915050565b60c0811015611dd557611db6600160b86123ac565b611dc39060ff1682612395565b611dce90600161223d565b9392505050565b611db6600160f86123ac565b8051600090611df257506000919050565b600080611e028460200151611d5f565b8460200151611e11919061223d565b9050600084600001518560200151611e29919061223d565b90505b80821015611e5b57611e3d82611e64565b611e47908361223d565b915082611e53816123ff565b935050611e2c565b50909392505050565b80516000908190811a6080811015611e7f5760019150611a92565b60b8811015611ea557611e93608082612395565b611e9e90600161223d565b9150611a92565b60c0811015611ed25760b78103600185019450806020036101000a85510460018201810193505050611a92565b60f8811015611ee657611e9360c082612395565b60019390930151602084900360f7016101000a900490920160f5190192915050565b80611f1257505050565b60208110611f4a5782518252611f2960208461223d565b9250611f3660208361223d565b9150611f43602082612395565b9050611f12565b806119b857505050565b80518015158114611f6457600080fd5b919050565b600060208284031215611f7a578081fd5b8135611dce81612492565b600060208284031215611f96578081fd5b8151611dce81612492565b600060208284031215611fb2578081fd5b611dce82611f54565b600060208284031215611fcc578081fd5b5035919050565b600080600080600060a08688031215611fea578081fd5b85519450602086015193506040860151925060608601519150608086015161201181612492565b809150509295509295909350565b600060208284031215612030578081fd5b813567ffffffffffffffff811115612046578182fd5b8201601f81018413612056578182fd5b803561206961206482612215565b6121e4565b81815285602083850101111561207d578384fd5b81602084016020830137908101602001929092525092915050565b6000602082840312156120a9578081fd5b815167ffffffffffffffff8111156120bf578182fd5b8201601f810184136120cf578182fd5b80516120dd61206482612215565b8181528560208385010111156120f1578384fd5b6121028260208301602086016123cf565b95945050505050565b60006020828403121561211c578081fd5b5051919050565b600080600080600060a0868803121561213a578081fd5b85519450602086015161214c81612492565b6040870151909450925061216260608701611f54565b9150608086015190509295509295909350565b8381526000835161218d8160208501602088016123cf565b60209201918201929092526040019392505050565b60018060a01b038316815260406020820152600082518060408401526121cf8160608501602087016123cf565b601f01601f1916919091016060019392505050565b604051601f8201601f1916810167ffffffffffffffff8111828210171561220d5761220d61247c565b604052919050565b600067ffffffffffffffff82111561222f5761222f61247c565b50601f01601f191660200190565b6000821982111561225057612250612450565b500190565b60008261226457612264612466565b500490565b600060ff83168061227c5761227c612466565b8060ff84160491505092915050565b600181815b808511156122c65781600019048211156122ac576122ac612450565b808516156122b957918102915b93841c9390800290612290565b509250929050565b6000611dce83836000826122e457506001610b62565b816122f157506000610b62565b816001811461230757600281146123115761232d565b6001915050610b62565b60ff84111561232257612322612450565b50506001821b610b62565b5060208310610133831016604e8410600b8410161715612350575081810a610b62565b61235a838361228b565b806000190482111561236e5761236e612450565b029392505050565b600081600019048311821515161561239057612390612450565b500290565b6000828210156123a7576123a7612450565b500390565b600060ff821660ff8416808210156123c6576123c6612450565b90039392505050565b60005b838110156123ea5781810151838201526020016123d2565b838111156123f9576000848401525b50505050565b600060001982141561241357612413612450565b5060010190565b60008261242957612429612466565b500690565b600060ff83168061244157612441612466565b8060ff84160691505092915050565b634e487b7160e01b600052601160045260246000fd5b634e487b7160e01b600052601260045260246000fd5b634e487b7160e01b600052604160045260246000fd5b6001600160a01b03811681146124a757600080fd5b5056fea26469706673582212202fc7a9ec7cdd4d7373ead3154a338aada30e1d5d2fdb1f4fa90205816e64b32264736f6c63430008040033","abi":[{"inputs":[{"internalType":"address","name":"_checkpointManager","type":"address"},{"internalType":"address","name":"_fxRoot","type":"address"},{"internalType":"address payable","name":"_daoAddress","type":"address"}],"stateMutability":"nonpayable","type":"constructor"},{"inputs":[],"name":"SEND_MESSAGE_EVENT_SIG","outputs":[{"internalType":"bytes32","name":"","type":"bytes32"}],"stateMutability":"view","type":"function"},{"inputs":[],"name":"checkpointManager","outputs":[{"internalType":"contract ICheckpointManager","name":"","type":"address"}],"stateMutability":"view","type":"function"},{"inputs":[],"name":"daoAddress","outputs":[{"internalType":"address payable","name":"","type":"address"}],"stateMutability":"view","type":"function"},{"inputs":[],"name":"fxChildTunnel","outputs":[{"internalType":"address","name":"","type":"address"}],"stateMutability":"view","type":"function"},{"inputs":[],"name":"fxRoot","outputs":[{"internalType":"contract IFxStateSender","name":"","type":"address"}],"stateMutability":"view","type":"function"},{"inputs":[{"internalType":"uint256","name":"tokenId","type":"uint256"}],"name":"moveThroughWormhole","outputs":[],"stateMutability":"nonpayable","type":"function"},{"inputs":[],"name":"polymorphContract","outputs":[{"internalType":"contract PolymorphRoot","name":"","type":"address"}],"stateMutability":"view","type":"function"},{"inputs":[{"internalType":"bytes32","name":"","type":"bytes32"}],"name":"processedExits","outputs":[{"internalType":"bool","name":"","type":"bool"}],"stateMutability":"view","type":"function"},{"inputs":[{"internalType":"bytes","name":"inputData","type":"bytes"}],"name":"receiveMessage","outputs":[],"stateMutability":"nonpayable","type":"function"},{"inputs":[{"internalType":"address","name":"_fxChildTunnel","type":"address"}],"name":"setFxChildTunnel","outputs":[],"stateMutability":"nonpayable","type":"function"},{"inputs":[{"internalType":"address payable","name":"contractAddress","type":"address"}],"name":"setPolymorphContract","outputs":[],"stateMutability":"nonpayable","type":"function"}]}