{"address":"0xD43e3ecCe4430dE35bb01461dB8474CBf3CCd917","bytecode":"0x60806040523480156200001157600080fd5b50604051620055ba380380620055ba833981016040819052620000349162000c62565b80600001518160200151826040015183606001518460a00151856101000151866101400151868686868481858585828281600290805190602001906200007c92919062000a95565b5080516200009290600390602084019062000a95565b5050600e805460ff19169055508051620000b490601090602084019062000a95565b50620000c2600033620001fc565b620000ee7f9f2df0fed2c77648de5860a4cc508cd0818c85b8b8a1ab4ceeef8d981c8956a633620001fc565b6200011a7f65d7a28e3265b37a6474929f336521b332c1681b933f6cb9f3376673440d862a33620001fc565b5050600160115550601280546001600160a01b0319166001600160a01b039290921691909117905580516200015790601590602084019062000a95565b505050601995909555505050601a5550505060c0830151601b55505060e0810151601c55610120810151601d556101408101518051620001a09160159160209091019062000a95565b50806101600151601e60006101000a8154816001600160a01b0302191690836001600160a01b03160217905550620001e460136200020c60201b6200274c1760201c565b506080810151620001f590620002ae565b5062000ece565b62000208828262000334565b5050565b600033325a8454424380406200022460648362000dcf565b6040516001600160601b03196060998a1b811660208301529790981b909616603488015260488701949094526068860192909252608885015260a884015260c88301524060e88201526101080160408051601f198184030181528282528051602091820120908301520160408051601f198184030181529190528051602090910120918290555090565b60005b818110156200020857620002d1600f6200037760201b620027f11760201c565b6000620002ea600f6200038060201b620027fa1760201c565b90506200030360136200020c60201b6200274c1760201c565b6000828152601460205260409020556200031e338262000384565b50806200032b8162000de9565b915050620002b1565b6200034b8282620004de60201b620027fe1760201c565b600082815260016020908152604090912062000372918390620028826200057e821b17901c565b505050565b80546001019055565b5490565b6001600160a01b038216620003e05760405162461bcd60e51b815260206004820181905260248201527f4552433732313a206d696e7420746f20746865207a65726f206164647265737360448201526064015b60405180910390fd5b6000818152600460205260409020546001600160a01b031615620004475760405162461bcd60e51b815260206004820152601c60248201527f4552433732313a20746f6b656e20616c7265616479206d696e746564000000006044820152606401620003d7565b62000455600083836200059e565b6001600160a01b03821660009081526005602052604081208054600192906200048090849062000e07565b909155505060008181526004602052604080822080546001600160a01b0319166001600160a01b03861690811790915590518392907fddf252ad1be2c89b69c2b068fc378daa952ba7f163c4a11628f55a4df523b3ef908290a45050565b6000828152602081815260408083206001600160a01b038516845290915290205460ff1662000208576000828152602081815260408083206001600160a01b03851684529091529020805460ff191660011790556200053a3390565b6001600160a01b0316816001600160a01b0316837f2f8788117e7eff1d82e926ec794901d17c78024a50270940304540a733656f0d60405160405180910390a45050565b600062000595836001600160a01b0384166200060b565b90505b92915050565b620005b68383836200065d60201b620028971760201c565b60008181526014602052604080822054905183927f8c0bdd7bca83c4e0c810cbecf44bc544a9dc0b9f265664e31ce0ce85f07a052b92620005fe929091829160029062000e22565b60405180910390a2505050565b6000818152600183016020526040812054620006545750815460018181018455600084815260208082209093018490558454848252828601909352604090209190915562000598565b50600062000598565b620003728383836200067560201b6200289e1760201c565b6200068d838383620006f660201b620029101760201c565b600e5460ff1615620003725760405162461bcd60e51b815260206004820152602b60248201527f4552433732315061757361626c653a20746f6b656e207472616e73666572207760448201526a1a1a5b19481c185d5cd95960aa1b6064820152608401620003d7565b6200070e838383620007d260201b620029d31760201c565b6001600160a01b0383166200076c576200076681600c80546000838152600d60205260408120829055600182018355919091527fdf6966c971051c3d54ec59162606531493a51404a002842f56009d7e5cf4a8c70155565b62000792565b816001600160a01b0316836001600160a01b0316146200079257620007928382620007f8565b6001600160a01b038216620007ac576200037281620008a5565b826001600160a01b0316826001600160a01b03161462000372576200037282826200095f565b620007ea8383836200037260201b620010801760201c565b6200037283600083620009b0565b60006001620008128462000a0c60201b620019be1760201c565b6200081e919062000dcf565b6000838152600b602052604090205490915080821462000872576001600160a01b0384166000908152600a602090815260408083208584528252808320548484528184208190558352600b90915290208190555b506000918252600b602090815260408084208490556001600160a01b039094168352600a81528383209183525290812055565b600c54600090620008b99060019062000dcf565b6000838152600d6020526040812054600c8054939450909284908110620008e457620008e462000e65565b9060005260206000200154905080600c838154811062000908576200090862000e65565b6000918252602080832090910192909255828152600d9091526040808220849055858252812055600c80548062000943576200094362000e7b565b6001900381819060005260206000200160009055905550505050565b6000620009778362000a0c60201b620019be1760201c565b6001600160a01b039093166000908152600a602090815260408083208684528252808320859055938252600b9052919091209190915550565b60008181526009602052604080822080546001600160a01b0319166001600160a01b0386811691821790925591518493918716917f42ef856c2602f37ce625d252830bed486c5c8e9a4de8aa36cc3d15f304eb662b91a4505050565b60006001600160a01b03821662000a795760405162461bcd60e51b815260206004820152602a60248201527f4552433732313a2062616c616e636520717565727920666f7220746865207a65604482015269726f206164647265737360b01b6064820152608401620003d7565b506001600160a01b031660009081526005602052604090205490565b82805462000aa39062000e91565b90600052602060002090601f01602090048101928262000ac7576000855562000b12565b82601f1062000ae257805160ff191683800117855562000b12565b8280016001018555821562000b12579182015b8281111562000b1257825182559160200191906001019062000af5565b5062000b2092915062000b24565b5090565b5b8082111562000b20576000815560010162000b25565b634e487b7160e01b600052604160045260246000fd5b60405161018081016001600160401b038111828210171562000b775762000b7762000b3b565b60405290565b604051601f8201601f191681016001600160401b038111828210171562000ba85762000ba862000b3b565b604052919050565b600082601f83011262000bc257600080fd5b81516001600160401b0381111562000bde5762000bde62000b3b565b602062000bf4601f8301601f1916820162000b7d565b828152858284870101111562000c0957600080fd5b60005b8381101562000c2957858101830151828201840152820162000c0c565b8381111562000c3b5760008385840101525b5095945050505050565b80516001600160a01b038116811462000c5d57600080fd5b919050565b60006020828403121562000c7557600080fd5b81516001600160401b038082111562000c8d57600080fd5b90830190610180828603121562000ca357600080fd5b62000cad62000b51565b82518281111562000cbd57600080fd5b62000ccb8782860162000bb0565b82525060208301518281111562000ce157600080fd5b62000cef8782860162000bb0565b60208301525060408301518281111562000d0857600080fd5b62000d168782860162000bb0565b60408301525062000d2a6060840162000c45565b60608201526080830151608082015260a083015160a082015260c083015160c082015260e083015160e0820152610100808401518183015250610120808401518183015250610140808401518381111562000d8457600080fd5b62000d928882870162000bb0565b828401525050610160915062000daa82840162000c45565b91810191909152949350505050565b634e487b7160e01b600052601160045260246000fd5b60008282101562000de45762000de462000db9565b500390565b600060001982141562000e005762000e0062000db9565b5060010190565b6000821982111562000e1d5762000e1d62000db9565b500190565b8481526020810184905260408101839052608081016003831062000e5657634e487b7160e01b600052602160045260246000fd5b82606083015295945050505050565b634e487b7160e01b600052603260045260246000fd5b634e487b7160e01b600052603160045260246000fd5b600181811c9082168062000ea657607f821691505b6020821081141562000ec857634e487b7160e01b600052602260045260246000fd5b50919050565b6146dc8062000ede6000396000f3fe6080604052600436106103bc5760003560e01c80636c0360eb116101f2578063b88d4fde1161010d578063d5a83d3e116100a0578063e985e9c51161006f578063e985e9c514610b24578063ec9c074c14610b44578063f528a62714610b5a578063f84ddf0b14610b6f57600080fd5b8063d5a83d3e14610aa7578063d5abeb0114610aba578063e589233114610ad0578063e63ab1e914610af057600080fd5b8063ce14617d116100dc578063ce14617d14610a1d578063d45351e514610a33578063d539139314610a53578063d547741f14610a8757600080fd5b8063b88d4fde1461098d578063c87b56dd146109ad578063ca15c873146109cd578063cccb6d0d146109ed57600080fd5b806391d1485411610185578063a217fddf11610154578063a217fddf14610922578063a22cb46514610937578063a49bccca14610957578063ab39a3c81461096d57600080fd5b806391d14854146108ba57806395d89b41146108da57806398c5c078146108ef5780639e7bb4671461090f57600080fd5b806370b5aecb116101c157806370b5aecb14610845578063784996a0146108655780638456cb59146108855780639010d07c1461089a57600080fd5b80636c0360eb146107da5780636f8b44b0146107ef578063704ec0361461080f57806370a082311461082557600080fd5b80632f745c59116102e257806356a5c926116102755780636352211e116102445780636352211e1461074d5780636a1c03dc1461076d5780636a5be6861461078d5780636a627842146107ba57600080fd5b806356a5c926146106e257806356b1b300146106f55780635c975abb146107155780635e468dfd1461072d57600080fd5b806342966c68116102b157806342966c68146106525780634df77416146106725780634f6ccce7146106a257806355f804b3146106c257600080fd5b80632f745c59146105dd57806336568abe146105fd5780633f4ba83a1461061d57806342842e0e1461063257600080fd5b806318160ddd1161035a578063248a9ca311610329578063248a9ca31461054d57806325b081ff1461057d578063289ea0a91461059d5780632f2ff15d146105bd57600080fd5b806318160ddd146104cb5780632131c68c146104e057806323b872dd1461050057806323c8d07a1461052057600080fd5b8063081812fc11610396578063081812fc14610447578063095ea7b31461047f5780630a727edf1461049f5780631249c58b146104c357600080fd5b8063017f1e34146103d057806301ffc9a7146103f057806306fdde031461042557600080fd5b366103cb576103c9610b84565b005b600080fd5b3480156103dc57600080fd5b506103c96103eb366004613d83565b610dd1565b3480156103fc57600080fd5b5061041061040b366004613db2565b610e37565b60405190151581526020015b60405180910390f35b34801561043157600080fd5b5061043a610e48565b60405161041c9190613e27565b34801561045357600080fd5b50610467610462366004613d83565b610eda565b6040516001600160a01b03909116815260200161041c565b34801561048b57600080fd5b506103c961049a366004613e4f565b610f6f565b3480156104ab57600080fd5b506104b5601f5481565b60405190815260200161041c565b6103c9610b84565b3480156104d757600080fd5b50600c546104b5565b3480156104ec57600080fd5b50601254610467906001600160a01b031681565b34801561050c57600080fd5b506103c961051b366004613e7b565b611085565b34801561052c57600080fd5b506104b561053b366004613d83565b60009081526017602052604090205490565b34801561055957600080fd5b506104b5610568366004613d83565b60009081526020819052604090206001015490565b34801561058957600080fd5b50601e54610467906001600160a01b031681565b3480156105a957600080fd5b506103c96105b8366004613d83565b6110b7565b3480156105c957600080fd5b506103c96105d8366004613ebc565b611116565b3480156105e957600080fd5b506104b56105f8366004613e4f565b61113c565b34801561060957600080fd5b506103c9610618366004613ebc565b6111d2565b34801561062957600080fd5b506103c9611250565b34801561063e57600080fd5b506103c961064d366004613e7b565b6112f8565b34801561065e57600080fd5b506103c961066d366004613d83565b611313565b34801561067e57600080fd5b5061041061068d366004613d83565b60186020526000908152604090205460ff1681565b3480156106ae57600080fd5b506104b56106bd366004613d83565b61138d565b3480156106ce57600080fd5b506103c96106dd366004613f78565b611420565b6103c96106f0366004613fc1565b611482565b34801561070157600080fd5b506103c9610710366004613f78565b6116c2565b34801561072157600080fd5b50600e5460ff16610410565b34801561073957600080fd5b506103c9610748366004613d83565b61172f565b34801561075957600080fd5b50610467610768366004613d83565b61178e565b34801561077957600080fd5b506103c9610788366004613ff8565b611805565b34801561079957600080fd5b506104b56107a8366004613d83565b60009081526014602052604090205490565b3480156107c657600080fd5b506103c96107d5366004614035565b611908565b3480156107e657600080fd5b5061043a611950565b3480156107fb57600080fd5b506103c961080a366004613d83565b61195f565b34801561081b57600080fd5b506104b5601b5481565b34801561083157600080fd5b506104b5610840366004614035565b6119be565b34801561085157600080fd5b506103c9610860366004613e4f565b611a45565b34801561087157600080fd5b506103c9610880366004613d83565b611b80565b34801561089157600080fd5b506103c9611e1c565b3480156108a657600080fd5b506104676108b5366004613fc1565b611ec0565b3480156108c657600080fd5b506104106108d5366004613ebc565b611edf565b3480156108e657600080fd5b5061043a611f08565b3480156108fb57600080fd5b506103c961090a366004613d83565b611f17565b6103c961091d366004613d83565b611f76565b34801561092e57600080fd5b506104b5600081565b34801561094357600080fd5b506103c9610952366004614052565b61212f565b34801561096357600080fd5b506104b5601d5481565b34801561097957600080fd5b506103c9610988366004614052565b61213a565b34801561099957600080fd5b506103c96109a8366004614087565b61218f565b3480156109b957600080fd5b5061043a6109c8366004613d83565b6121c7565b3480156109d957600080fd5b506104b56109e8366004613d83565b6122a1565b3480156109f957600080fd5b50610410610a08366004614035565b60166020526000908152604090205460ff1681565b348015610a2957600080fd5b506104b560195481565b348015610a3f57600080fd5b506104b5610a4e366004613d83565b6122b8565b348015610a5f57600080fd5b506104b57f9f2df0fed2c77648de5860a4cc508cd0818c85b8b8a1ab4ceeef8d981c8956a681565b348015610a9357600080fd5b506103c9610aa2366004613ebc565b6122d7565b6103c9610ab5366004613d83565b6122fd565b348015610ac657600080fd5b506104b5601c5481565b348015610adc57600080fd5b50610467610aeb366004613d83565b6125e6565b348015610afc57600080fd5b506104b57f65d7a28e3265b37a6474929f336521b332c1681b933f6cb9f3376673440d862a81565b348015610b3057600080fd5b50610410610b3f366004614107565b612685565b348015610b5057600080fd5b506104b5601a5481565b348015610b6657600080fd5b5061043a6126b3565b348015610b7b57600080fd5b506104b5612741565b60026011541415610bb05760405162461bcd60e51b8152600401610ba790614135565b60405180910390fd5b6002601155601c54600f5410610bff5760405162461bcd60e51b8152602060048201526014602482015273151bdd185b081cdd5c1c1b1e481c995858da195960621b6044820152606401610ba7565b610c0d600f80546001019055565b6000610c18600f5490565b9050610c24601361274c565b60008281526014602052604080822092909255601254601b54925191926001600160a01b03909116918381818185875af1925050503d8060008114610c85576040519150601f19603f3d011682016040523d82523d6000602084013e610c8a565b606091505b5050905080610cab5760405162461bcd60e51b8152600401610ba79061416c565b6000610cc2601b54346129df90919063ffffffff16565b90508015610d3457604051600090339083908381818185875af1925050503d8060008114610d0c576040519150601f19603f3d011682016040523d82523d6000602084013e610d11565b606091505b5050905080610d325760405162461bcd60e51b8152600401610ba7906141c9565b505b610d3e33846129eb565b827f5f7666687319b40936f33c188908d86aea154abd3f4127b4fa0a3f04f303c7da6014600086815260200190815260200160002054604051610d8391815260200190565b60405180910390a260008381526014602052604080822054601b549151869360008051602061468783398151915293610dbf9391928390614222565b60405180910390a25050600160115550565b6012546001600160a01b03163314610dfb5760405162461bcd60e51b8152600401610ba79061424d565b601b8190556040518181527f6a08b3bba14e54ee218389c7c7444e619f3897465dc06757938cfd01a6957f6c906020015b60405180910390a150565b6000610e4282612b39565b92915050565b606060028054610e5790614284565b80601f0160208091040260200160405190810160405280929190818152602001828054610e8390614284565b8015610ed05780601f10610ea557610100808354040283529160200191610ed0565b820191906000526020600020905b815481529060010190602001808311610eb357829003601f168201915b5050505050905090565b6000818152600460205260408120546001600160a01b0316610f535760405162461bcd60e51b815260206004820152602c60248201527f4552433732313a20617070726f76656420717565727920666f72206e6f6e657860448201526b34b9ba32b73a103a37b5b2b760a11b6064820152608401610ba7565b506000908152600660205260409020546001600160a01b031690565b6000610f7a8261178e565b9050806001600160a01b0316836001600160a01b03161415610fe85760405162461bcd60e51b815260206004820152602160248201527f4552433732313a20617070726f76616c20746f2063757272656e74206f776e656044820152603960f91b6064820152608401610ba7565b336001600160a01b038216148061100457506110048133612685565b6110765760405162461bcd60e51b815260206004820152603860248201527f4552433732313a20617070726f76652063616c6c6572206973206e6f74206f7760448201527f6e6572206e6f7220617070726f76656420666f7220616c6c00000000000000006064820152608401610ba7565b6110808383612b5e565b505050565b611090335b82612bcc565b6110ac5760405162461bcd60e51b8152600401610ba7906142bf565b611080838383612ca3565b6012546001600160a01b031633146110e15760405162461bcd60e51b8152600401610ba79061424d565b60198190556040518181527fb1d78271daba9a366098d40b64d642a1399cabaa22c5234bacc87e92cef82ae690602001610e2c565b6000828152602081905260409020600101546111328133612e4a565b6110808383612eae565b6000611147836119be565b82106111a95760405162461bcd60e51b815260206004820152602b60248201527f455243373231456e756d657261626c653a206f776e657220696e646578206f7560448201526a74206f6620626f756e647360a81b6064820152608401610ba7565b506001600160a01b03919091166000908152600a60209081526040808320938352929052205490565b6001600160a01b03811633146112425760405162461bcd60e51b815260206004820152602f60248201527f416363657373436f6e74726f6c3a2063616e206f6e6c792072656e6f756e636560448201526e103937b632b9903337b91039b2b63360891b6064820152608401610ba7565b61124c8282612ed0565b5050565b61127a7f65d7a28e3265b37a6474929f336521b332c1681b933f6cb9f3376673440d862a33611edf565b6112ee576040805162461bcd60e51b81526020600482015260248101919091527f4552433732315072657365744d696e7465725061757365724175746f49643a2060448201527f6d75737420686176652070617573657220726f6c6520746f20756e70617573656064820152608401610ba7565b6112f6612ef2565b565b6110808383836040518060200160405280600081525061218f565b61131c3361108a565b6113815760405162461bcd60e51b815260206004820152603060248201527f4552433732314275726e61626c653a2063616c6c6572206973206e6f74206f7760448201526f1b995c881b9bdc88185c1c1c9bdd995960821b6064820152608401610ba7565b61138a81612f85565b50565b6000611398600c5490565b82106113fb5760405162461bcd60e51b815260206004820152602c60248201527f455243373231456e756d657261626c653a20676c6f62616c20696e646578206f60448201526b7574206f6620626f756e647360a01b6064820152608401610ba7565b600c828154811061140e5761140e614310565b90600052602060002001549050919050565b6012546001600160a01b0316331461144a5760405162461bcd60e51b8152600401610ba79061424d565b6114538161302c565b7f5411e8ebf1636d9e83d5fc4900bf80cbac82e8790da2a4c94db4895e889eedf681604051610e2c9190613e27565b600260115414156114a55760405162461bcd60e51b8152600401610ba790614135565b6002601155806114f75760405162461bcd60e51b815260206004820152601c60248201527f4261736520636861726163746572206e6f74206d6f72706861626c65000000006044820152606401610ba7565b6115008261303f565b600061150b836122b8565b6012546040519192506000916001600160a01b039091169083908381818185875af1925050503d806000811461155d576040519150601f19603f3d011682016040523d82523d6000602084013e611562565b606091505b50509050806115835760405162461bcd60e51b8152600401610ba79061416c565b600061158f34846129df565b9050801561160157604051600090339083908381818185875af1925050503d80600081146115d9576040519150601f19603f3d011682016040523d82523d6000602084013e6115de565b606091505b50509050806115ff5760405162461bcd60e51b8152600401610ba7906141c9565b505b60008581526014602052604081205490606461161d601361274c565b611627919061433c565b90506116348282886130f3565b6000888152601460209081526040808320939093556017905290812080549161165c83614366565b90915550506000878152601860209081526040808320805460ff191660019081179091556014909252918290205491518992600080516020614687833981519152926116ac928792918b91614222565b60405180910390a2505060016011555050505050565b6012546001600160a01b031633146116ec5760405162461bcd60e51b8152600401610ba79061424d565b80516116ff906015906020840190613cea565b507f4a826ca029d05af64e411551e15f7ee1e70af0b9bc43a31154ace86a863397b481604051610e2c9190613e27565b6012546001600160a01b031633146117595760405162461bcd60e51b8152600401610ba79061424d565b601d8190556040518181527fa0e0113404674c6f545b966e8ec54db3066a6c720a0054f0bc4b0c900cfff24390602001610e2c565b6000818152600460205260408120546001600160a01b031680610e425760405162461bcd60e51b815260206004820152602960248201527f4552433732313a206f776e657220717565727920666f72206e6f6e657869737460448201526832b73a103a37b5b2b760b91b6064820152608401610ba7565b600260115414156118285760405162461bcd60e51b8152600401610ba790614135565b60026011553360009081526016602052604090205460ff1661188c5760405162461bcd60e51b815260206004820152601a60248201527f4e6f742063616c6c65642066726f6d207468652074756e6e656c0000000000006044820152606401610ba7565b6000848152601460208181526040808420805488825560188452828620805460ff19168915151790556017845291909420859055919052905485906000805160206146878339815191529083906118e2846122b8565b60016040516118f49493929190614222565b60405180910390a250506001601155505050565b60405162461bcd60e51b815260206004820152601760248201527f53686f756c64206e6f74207573652074686973206f6e650000000000000000006044820152606401610ba7565b606061195a6131fa565b905090565b6012546001600160a01b031633146119895760405162461bcd60e51b8152600401610ba79061424d565b601c8190556040518181527f28a10a2e0b5582da7164754cb994f6214b8af6aa7f7e003305fbc09e7106c51390602001610e2c565b60006001600160a01b038216611a295760405162461bcd60e51b815260206004820152602a60248201527f4552433732313a2062616c616e636520717565727920666f7220746865207a65604482015269726f206164647265737360b01b6064820152608401610ba7565b506001600160a01b031660009081526005602052604090205490565b6040516331a9108f60e11b8152600481018290526000903090636352211e9060240160206040518083038186803b158015611a7f57600080fd5b505afa158015611a93573d6000803e3d6000fd5b505050506040513d601f19601f82011682018060405250810190611ab79190614381565b9050336001600160a01b0382161480611ae95750611ad482610eda565b6001600160a01b0316336001600160a01b0316145b80611af95750611af98133612685565b611b755760405162461bcd60e51b815260206004820152604160248201527f455243373231436f6e73756d61626c653a206368616e6765436f6e73756d657260448201527f2063616c6c6572206973206e6f74206f776e6572206e6f7220617070726f76656064820152601960fa1b608482015260a401610ba7565b611080818484613209565b60026011541415611ba35760405162461bcd60e51b8152600401610ba790614135565b6002601155601e546040516331a9108f60e11b8152600481018390526001600160a01b0390911690636352211e9060240160206040518083038186803b158015611bec57600080fd5b505afa158015611c00573d6000803e3d6000fd5b505050506040513d601f19601f82011682018060405250810190611c249190614381565b6001600160a01b0316336001600160a01b031614611c4157600080fd5b601e5460405163352df34360e11b8152600481018390526000916001600160a01b031690636a5be6869060240160206040518083038186803b158015611c8657600080fd5b505afa158015611c9a573d6000803e3d6000fd5b505050506040513d601f19601f82011682018060405250810190611cbe919061439e565b601e54604051630852cd8d60e31b8152600481018590529192506001600160a01b0316906342966c6890602401600060405180830381600087803b158015611d0557600080fd5b505af1158015611d19573d6000803e3d6000fd5b5050601f54611d2c925090506001613265565b601f55601c54611d3d906001613265565b601c55611d4e600f80546001019055565b6000611d59600f5490565b60008181526014602052604090208390559050611d77335b826129eb565b807f5f7666687319b40936f33c188908d86aea154abd3f4127b4fa0a3f04f303c7da6014600084815260200190815260200160002054604051611dbc91815260200190565b60405180910390a280837f5bc298e251bf2d0dbbd7881e135ad8526c53dab8acd7e9777aea2c809fdf47e06014600085815260200190815260200160002054604051611e0a91815260200190565b60405180910390a35050600160115550565b611e467f65d7a28e3265b37a6474929f336521b332c1681b933f6cb9f3376673440d862a33611edf565b611eb85760405162461bcd60e51b815260206004820152603e60248201527f4552433732315072657365744d696e7465725061757365724175746f49643a2060448201527f6d75737420686176652070617573657220726f6c6520746f20706175736500006064820152608401610ba7565b6112f6613271565b6000828152600160205260408120611ed890836132ec565b9392505050565b6000918252602082815260408084206001600160a01b0393909316845291905290205460ff1690565b606060038054610e5790614284565b6012546001600160a01b03163314611f415760405162461bcd60e51b8152600401610ba79061424d565b601a8190556040518181527fff4da8d01e7184cc8c9d6c57d64b336b1de6d676b6215408967bd071c8da7e3d90602001610e2c565b60026011541415611f995760405162461bcd60e51b8152600401610ba790614135565b6002601155611fa78161303f565b601254601a546040516000926001600160a01b031691908381818185875af1925050503d8060008114611ff6576040519150601f19603f3d011682016040523d82523d6000602084013e611ffb565b606091505b505090508061201c5760405162461bcd60e51b8152600401610ba79061416c565b6000612033601a54346129df90919063ffffffff16565b905080156120a557604051600090339083908381818185875af1925050503d806000811461207d576040519150601f19603f3d011682016040523d82523d6000602084013e612082565b606091505b50509050806120a35760405162461bcd60e51b8152600401610ba7906141c9565b505b6000838152601460205260409020546120be601361274c565b6000858152601460208181526040808420948555601782528084208490556018825292839020805460ff191660019081179091559190529154601a54915187936000805160206146878339815191529361211c938793909290614222565b60405180910390a2505060016011555050565b61124c3383836132f8565b6012546001600160a01b031633146121645760405162461bcd60e51b8152600401610ba79061424d565b6001600160a01b03919091166000908152601660205260409020805460ff1916911515919091179055565b6121993383612bcc565b6121b55760405162461bcd60e51b8152600401610ba7906142bf565b6121c1848484846133c7565b50505050565b6000818152600460205260409020546060906001600160a01b03166122465760405162461bcd60e51b815260206004820152602f60248201527f4552433732314d657461646174613a2055524920717565727920666f72206e6f60448201526e3732bc34b9ba32b73a103a37b5b2b760891b6064820152608401610ba7565b60006122506131fa565b905060008151116122705760405180602001604052806000815250611ed8565b8061227a846133fa565b60405160200161228b9291906143b7565b6040516020818303038152906040529392505050565b6000818152600160205260408120610e42906134f8565b600081815260176020526040812054601954611ed8906001831b613502565b6000828152602081905260409020600101546122f38133612e4a565b6110808383612ed0565b600260115414156123205760405162461bcd60e51b8152600401610ba790614135565b6002601155601d5481111561238a5760405162461bcd60e51b815260206004820152602a60248201527f43616e6e6f742062756c6b20627579206d6f7265207468616e20746865207072604482015269195cd95d081b1a5b5a5d60b21b6064820152608401610ba7565b601c546123a08261239a600f5490565b90613265565b11156123e55760405162461bcd60e51b8152602060048201526014602482015273151bdd185b081cdd5c1c1b1e481c995858da195960621b6044820152606401610ba7565b601254601b546000916001600160a01b0316906124029084613502565b604051600081818185875af1925050503d806000811461243e576040519150601f19603f3d011682016040523d82523d6000602084013e612443565b606091505b50509050806124645760405162461bcd60e51b8152600401610ba79061416c565b600061248561247e84601b5461350290919063ffffffff16565b34906129df565b905080156124f757604051600090339083908381818185875af1925050503d80600081146124cf576040519150601f19603f3d011682016040523d82523d6000602084013e6124d4565b606091505b50509050806124f55760405162461bcd60e51b8152600401610ba7906141c9565b505b60005b838110156125db57612510600f80546001019055565b600061251b600f5490565b9050612527601361274c565b60008281526014602052604090205561253f33611d71565b807f5f7666687319b40936f33c188908d86aea154abd3f4127b4fa0a3f04f303c7da601460008481526020019081526020016000205460405161258491815260200190565b60405180910390a260008181526014602052604080822054601b5491518493600080516020614687833981519152936125c09391928390614222565b60405180910390a250806125d381614366565b9150506124fa565b505060016011555050565b6000818152600460205260408120546001600160a01b03166126695760405162461bcd60e51b815260206004820152603660248201527f455243373231436f6e73756d61626c653a20636f6e73756d6572207175657279604482015275103337b9103737b732bc34b9ba32b73a103a37b5b2b760511b6064820152608401610ba7565b506000908152600960205260409020546001600160a01b031690565b6001600160a01b03918216600090815260076020908152604080832093909416825291909152205460ff1690565b601580546126c090614284565b80601f01602080910402602001604051908101604052809291908181526020018280546126ec90614284565b80156127395780601f1061270e57610100808354040283529160200191612739565b820191906000526020600020905b81548152906001019060200180831161271c57829003601f168201915b505050505081565b600061195a600f5490565b600033325a8454424380406127626064836143e6565b6040516bffffffffffffffffffffffff196060998a1b811660208301529790981b909616603488015260488701949094526068860192909252608885015260a884015260c88301524060e88201526101080160408051601f198184030181528282528051602091820120908301520160408051601f198184030181529190528051602090910120918290555090565b80546001019055565b5490565b6128088282611edf565b61124c576000828152602081815260408083206001600160a01b03851684529091529020805460ff1916600117905561283e3390565b6001600160a01b0316816001600160a01b0316837f2f8788117e7eff1d82e926ec794901d17c78024a50270940304540a733656f0d60405160405180910390a45050565b6000611ed8836001600160a01b03841661350e565b6110808383835b6128a9838383612910565b600e5460ff16156110805760405162461bcd60e51b815260206004820152602b60248201527f4552433732315061757361626c653a20746f6b656e207472616e73666572207760448201526a1a1a5b19481c185d5cd95960aa1b6064820152608401610ba7565b61291b8383836129d3565b6001600160a01b0383166129765761297181600c80546000838152600d60205260408120829055600182018355919091527fdf6966c971051c3d54ec59162606531493a51404a002842f56009d7e5cf4a8c70155565b612999565b816001600160a01b0316836001600160a01b03161461299957612999838261355d565b6001600160a01b0382166129b057611080816135fa565b826001600160a01b0316826001600160a01b0316146110805761108082826136a9565b61108083600083613209565b6000611ed882846143e6565b6001600160a01b038216612a415760405162461bcd60e51b815260206004820181905260248201527f4552433732313a206d696e7420746f20746865207a65726f20616464726573736044820152606401610ba7565b6000818152600460205260409020546001600160a01b031615612aa65760405162461bcd60e51b815260206004820152601c60248201527f4552433732313a20746f6b656e20616c7265616479206d696e746564000000006044820152606401610ba7565b612ab2600083836136ed565b6001600160a01b0382166000908152600560205260408120805460019290612adb9084906143fd565b909155505060008181526004602052604080822080546001600160a01b0319166001600160a01b03861690811790915590518392907fddf252ad1be2c89b69c2b068fc378daa952ba7f163c4a11628f55a4df523b3ef908290a45050565b60006001600160e01b0319821663780e9d6360e01b1480610e425750610e4282613739565b600081815260066020526040902080546001600160a01b0319166001600160a01b0384169081179091558190612b938261178e565b6001600160a01b03167f8c5be1e5ebec7d5bd14f71427d1e84f3dd0314c0f7b2291e5b200ac8c7c3b92560405160405180910390a45050565b6000818152600460205260408120546001600160a01b0316612c455760405162461bcd60e51b815260206004820152602c60248201527f4552433732313a206f70657261746f7220717565727920666f72206e6f6e657860448201526b34b9ba32b73a103a37b5b2b760a11b6064820152608401610ba7565b6000612c508361178e565b9050806001600160a01b0316846001600160a01b03161480612c8b5750836001600160a01b0316612c8084610eda565b6001600160a01b0316145b80612c9b5750612c9b8185612685565b949350505050565b826001600160a01b0316612cb68261178e565b6001600160a01b031614612d1a5760405162461bcd60e51b815260206004820152602560248201527f4552433732313a207472616e736665722066726f6d20696e636f72726563742060448201526437bbb732b960d91b6064820152608401610ba7565b6001600160a01b038216612d7c5760405162461bcd60e51b8152602060048201526024808201527f4552433732313a207472616e7366657220746f20746865207a65726f206164646044820152637265737360e01b6064820152608401610ba7565b612d878383836136ed565b612d92600082612b5e565b6001600160a01b0383166000908152600560205260408120805460019290612dbb9084906143e6565b90915550506001600160a01b0382166000908152600560205260408120805460019290612de99084906143fd565b909155505060008181526004602052604080822080546001600160a01b0319166001600160a01b0386811691821790925591518493918716917fddf252ad1be2c89b69c2b068fc378daa952ba7f163c4a11628f55a4df523b3ef91a4505050565b612e548282611edf565b61124c57612e6c816001600160a01b0316601461375e565b612e7783602061375e565b604051602001612e88929190614415565b60408051601f198184030181529082905262461bcd60e51b8252610ba791600401613e27565b612eb882826127fe565b60008281526001602052604090206110809082612882565b612eda82826138fa565b6000828152600160205260409020611080908261395f565b600e5460ff16612f3b5760405162461bcd60e51b815260206004820152601460248201527314185d5cd8589b194e881b9bdd081c185d5cd95960621b6044820152606401610ba7565b600e805460ff191690557f5db9ee0a495bf2e6ff9c91a7834c1ba4fdd244a5e8aa4e537bd38aeae4b073aa335b6040516001600160a01b03909116815260200160405180910390a1565b6000612f908261178e565b9050612f9e816000846136ed565b612fa9600083612b5e565b6001600160a01b0381166000908152600560205260408120805460019290612fd29084906143e6565b909155505060008281526004602052604080822080546001600160a01b0319169055518391906001600160a01b038416907fddf252ad1be2c89b69c2b068fc378daa952ba7f163c4a11628f55a4df523b3ef908390a45050565b805161124c906010906020840190613cea565b333b1561308e5760405162461bcd60e51b815260206004820152601b60248201527f43616c6c65722063616e6e6f74206265206120636f6e747261637400000000006044820152606401610ba7565b3332146130e95760405162461bcd60e51b8152602060048201526024808201527f4d73672073656e6465722073686f756c64206265206f726967696e616c206361604482015263363632b960e11b6064820152608401610ba7565b61138a8133613974565b6000602682106131395760405162461bcd60e51b81526020600482015260116024820152702130b21033b2b732903837b9b4ba34b7b760791b6044820152606401610ba7565b600082156131645761316161314f84600261448a565b61315a90600a61458d565b8690613a13565b90505b60006131bb6131748560016143fd565b61317f90600261448a565b61318a90600a61458d565b6131b56131988760016143fd565b6131a390600261448a565b6131ae90600a61458d565b8990613a1f565b90613502565b905060006131ca85600261448a565b6131d590600a61458d565b6131df908761448a565b90506131ef8361239a8484613265565b979650505050505050565b606060108054610e5790614284565b60008181526009602052604080822080546001600160a01b0319166001600160a01b0386811691821790925591518493918716917f42ef856c2602f37ce625d252830bed486c5c8e9a4de8aa36cc3d15f304eb662b91a4505050565b6000611ed882846143fd565b600e5460ff16156132b75760405162461bcd60e51b815260206004820152601060248201526f14185d5cd8589b194e881c185d5cd95960821b6044820152606401610ba7565b600e805460ff191660011790557f62e78cea01bee320cd4e420270b5ea74000d11b0c9f74754ebdbfc544b05a258612f683390565b6000611ed88383613a2b565b816001600160a01b0316836001600160a01b0316141561335a5760405162461bcd60e51b815260206004820152601960248201527f4552433732313a20617070726f766520746f2063616c6c6572000000000000006044820152606401610ba7565b6001600160a01b03838116600081815260076020908152604080832094871680845294825291829020805460ff191686151590811790915591519182527f17307eab39ab6107e8899845ad3d59bd9653f200f220920489ca2b5937696c31910160405180910390a3505050565b6133d2848484612ca3565b6133de84848484613a55565b6121c15760405162461bcd60e51b8152600401610ba790614599565b60608161341e5750506040805180820190915260018152600360fc1b602082015290565b8160005b8115613448578061343281614366565b91506134419050600a836145eb565b9150613422565b60008167ffffffffffffffff81111561346357613463613eec565b6040519080825280601f01601f19166020018201604052801561348d576020820181803683370190505b5090505b8415612c9b576134a26001836143e6565b91506134af600a8661433c565b6134ba9060306143fd565b60f81b8183815181106134cf576134cf614310565b60200101906001600160f81b031916908160001a9053506134f1600a866145eb565b9450613491565b6000610e42825490565b6000611ed8828461448a565b600081815260018301602052604081205461355557508154600181810184556000848152602080822090930184905584548482528286019093526040902091909155610e42565b506000610e42565b6000600161356a846119be565b61357491906143e6565b6000838152600b60205260409020549091508082146135c7576001600160a01b0384166000908152600a602090815260408083208584528252808320548484528184208190558352600b90915290208190555b506000918252600b602090815260408084208490556001600160a01b039094168352600a81528383209183525290812055565b600c5460009061360c906001906143e6565b6000838152600d6020526040812054600c805493945090928490811061363457613634614310565b9060005260206000200154905080600c838154811061365557613655614310565b6000918252602080832090910192909255828152600d9091526040808220849055858252812055600c80548061368d5761368d6145ff565b6001900381819060005260206000200160009055905550505050565b60006136b4836119be565b6001600160a01b039093166000908152600a602090815260408083208684528252808320859055938252600b9052919091209190915550565b6136f8838383612897565b60008181526014602052604080822054905183926000805160206146878339815191529261372c9290918291600290614222565b60405180910390a2505050565b60006001600160e01b03198216634a9e46fd60e11b1480610e425750610e4282613b62565b6060600061376d83600261448a565b6137789060026143fd565b67ffffffffffffffff81111561379057613790613eec565b6040519080825280601f01601f1916602001820160405280156137ba576020820181803683370190505b509050600360fc1b816000815181106137d5576137d5614310565b60200101906001600160f81b031916908160001a905350600f60fb1b8160018151811061380457613804614310565b60200101906001600160f81b031916908160001a905350600061382884600261448a565b6138339060016143fd565b90505b60018111156138ab576f181899199a1a9b1b9c1cb0b131b232b360811b85600f166010811061386757613867614310565b1a60f81b82828151811061387d5761387d614310565b60200101906001600160f81b031916908160001a90535060049490941c936138a481614615565b9050613836565b508315611ed85760405162461bcd60e51b815260206004820181905260248201527f537472696e67733a20686578206c656e67746820696e73756666696369656e746044820152606401610ba7565b6139048282611edf565b1561124c576000828152602081815260408083206001600160a01b0385168085529252808320805460ff1916905551339285917ff6391f5c32d9c69d2a47ea670b442974b53935d1edc7fd64eb21e047a839171b9190a45050565b6000611ed8836001600160a01b038416613ba2565b806001600160a01b03166139878361178e565b6001600160a01b03161461124c5760405162461bcd60e51b815260206004820152604760248201527f506f6c796d6f7270685769746847656e654368616e6765723a2063616e6e6f7460448201527f206368616e67652067656e6f6d65206f6620746f6b656e2074686174206973206064820152663737ba1037bbb760c91b608482015260a401610ba7565b6000611ed8828461433c565b6000611ed882846145eb565b6000826000018281548110613a4257613a42614310565b9060005260206000200154905092915050565b60006001600160a01b0384163b15613b5757604051630a85bd0160e11b81526001600160a01b0385169063150b7a0290613a9990339089908890889060040161462c565b602060405180830381600087803b158015613ab357600080fd5b505af1925050508015613ae3575060408051601f3d908101601f19168201909252613ae091810190614669565b60015b613b3d573d808015613b11576040519150601f19603f3d011682016040523d82523d6000602084013e613b16565b606091505b508051613b355760405162461bcd60e51b8152600401610ba790614599565b805181602001fd5b6001600160e01b031916630a85bd0160e11b149050612c9b565b506001949350505050565b60006001600160e01b031982166380ac58cd60e01b1480613b9357506001600160e01b03198216635b5e139f60e01b145b80610e425750610e4282613c95565b60008181526001830160205260408120548015613c8b576000613bc66001836143e6565b8554909150600090613bda906001906143e6565b9050818114613c3f576000866000018281548110613bfa57613bfa614310565b9060005260206000200154905080876000018481548110613c1d57613c1d614310565b6000918252602080832090910192909255918252600188019052604090208390555b8554869080613c5057613c506145ff565b600190038181906000526020600020016000905590558560010160008681526020019081526020016000206000905560019350505050610e42565b6000915050610e42565b60006001600160e01b03198216635a05180f60e01b1480610e425750610e428260006001600160e01b03198216637965db0b60e01b1480610e4257506301ffc9a760e01b6001600160e01b0319831614610e42565b828054613cf690614284565b90600052602060002090601f016020900481019282613d185760008555613d5e565b82601f10613d3157805160ff1916838001178555613d5e565b82800160010185558215613d5e579182015b82811115613d5e578251825591602001919060010190613d43565b50613d6a929150613d6e565b5090565b5b80821115613d6a5760008155600101613d6f565b600060208284031215613d9557600080fd5b5035919050565b6001600160e01b03198116811461138a57600080fd5b600060208284031215613dc457600080fd5b8135611ed881613d9c565b60005b83811015613dea578181015183820152602001613dd2565b838111156121c15750506000910152565b60008151808452613e13816020860160208601613dcf565b601f01601f19169290920160200192915050565b602081526000611ed86020830184613dfb565b6001600160a01b038116811461138a57600080fd5b60008060408385031215613e6257600080fd5b8235613e6d81613e3a565b946020939093013593505050565b600080600060608486031215613e9057600080fd5b8335613e9b81613e3a565b92506020840135613eab81613e3a565b929592945050506040919091013590565b60008060408385031215613ecf57600080fd5b823591506020830135613ee181613e3a565b809150509250929050565b634e487b7160e01b600052604160045260246000fd5b600067ffffffffffffffff80841115613f1d57613f1d613eec565b604051601f8501601f19908116603f01168101908282118183101715613f4557613f45613eec565b81604052809350858152868686011115613f5e57600080fd5b858560208301376000602087830101525050509392505050565b600060208284031215613f8a57600080fd5b813567ffffffffffffffff811115613fa157600080fd5b8201601f81018413613fb257600080fd5b612c9b84823560208401613f02565b60008060408385031215613fd457600080fd5b50508035926020909101359150565b80358015158114613ff357600080fd5b919050565b6000806000806080858703121561400e57600080fd5b843593506020850135925061402560408601613fe3565b9396929550929360600135925050565b60006020828403121561404757600080fd5b8135611ed881613e3a565b6000806040838503121561406557600080fd5b823561407081613e3a565b915061407e60208401613fe3565b90509250929050565b6000806000806080858703121561409d57600080fd5b84356140a881613e3a565b935060208501356140b881613e3a565b925060408501359150606085013567ffffffffffffffff8111156140db57600080fd5b8501601f810187136140ec57600080fd5b6140fb87823560208401613f02565b91505092959194509250565b6000806040838503121561411a57600080fd5b823561412581613e3a565b91506020830135613ee181613e3a565b6020808252601f908201527f5265656e7472616e637947756172643a207265656e7472616e742063616c6c00604082015260600190565b6020808252603a908201527f416464726573733a20756e61626c6520746f2073656e642076616c75652c207260408201527f6563697069656e74206d61792068617665207265766572746564000000000000606082015260800190565b60208082526018908201527f4661696c656420746f2072657475726e206578636573732e0000000000000000604082015260600190565b6003811061421e57634e487b7160e01b600052602160045260246000fd5b9052565b8481526020810184905260408101839052608081016142446060830184614200565b95945050505050565b60208082526017908201527f4e6f742063616c6c65642066726f6d207468652064616f000000000000000000604082015260600190565b600181811c9082168061429857607f821691505b602082108114156142b957634e487b7160e01b600052602260045260246000fd5b50919050565b60208082526031908201527f4552433732313a207472616e736665722063616c6c6572206973206e6f74206f6040820152701ddb995c881b9bdc88185c1c1c9bdd9959607a1b606082015260800190565b634e487b7160e01b600052603260045260246000fd5b634e487b7160e01b600052601260045260246000fd5b60008261434b5761434b614326565b500690565b634e487b7160e01b600052601160045260246000fd5b600060001982141561437a5761437a614350565b5060010190565b60006020828403121561439357600080fd5b8151611ed881613e3a565b6000602082840312156143b057600080fd5b5051919050565b600083516143c9818460208801613dcf565b8351908301906143dd818360208801613dcf565b01949350505050565b6000828210156143f8576143f8614350565b500390565b6000821982111561441057614410614350565b500190565b7f416363657373436f6e74726f6c3a206163636f756e742000000000000000000081526000835161444d816017850160208801613dcf565b7001034b99036b4b9b9b4b733903937b6329607d1b601791840191820152835161447e816028840160208801613dcf565b01602801949350505050565b60008160001904831182151516156144a4576144a4614350565b500290565b600181815b808511156144e45781600019048211156144ca576144ca614350565b808516156144d757918102915b93841c93908002906144ae565b509250929050565b6000826144fb57506001610e42565b8161450857506000610e42565b816001811461451e576002811461452857614544565b6001915050610e42565b60ff84111561453957614539614350565b50506001821b610e42565b5060208310610133831016604e8410600b8410161715614567575081810a610e42565b61457183836144a9565b806000190482111561458557614585614350565b029392505050565b6000611ed883836144ec565b60208082526032908201527f4552433732313a207472616e7366657220746f206e6f6e20455243373231526560408201527131b2b4bb32b91034b6b83632b6b2b73a32b960711b606082015260800190565b6000826145fa576145fa614326565b500490565b634e487b7160e01b600052603160045260246000fd5b60008161462457614624614350565b506000190190565b6001600160a01b038581168252841660208201526040810183905260806060820181905260009061465f90830184613dfb565b9695505050505050565b60006020828403121561467b57600080fd5b8151611ed881613d9c56fe8c0bdd7bca83c4e0c810cbecf44bc544a9dc0b9f265664e31ce0ce85f07a052ba264697066735822122027a94e0f9d3bd7099408f3a95547854114fd88c78556ff8cf928fb59c61ba5ed64736f6c63430008090033","abi":[{"inputs":[{"components":[{"internalType":"string","name":"name","type":"string"},{"internalType":"string","name":"symbol","type":"string"},{"internalType":"string","name":"baseURI","type":"string"},{"internalType":"address payable","name":"_daoAddress","type":"address"},{"internalType":"uint256","name":"premintedTokensCount","type":"uint256"},{"internalType":"uint256","name":"_baseGenomeChangePrice","type":"uint256"},{"internalType":"uint256","name":"_polymorphPrice","type":"uint256"},{"internalType":"uint256","name":"_maxSupply","type":"uint256"},{"internalType":"uint256","name":"_randomizeGenomePrice","type":"uint256"},{"internalType":"uint256","name":"_bulkBuyLimit","type":"uint256"},{"internalType":"string","name":"_arweaveAssetsJSON","type":"string"},{"internalType":"address","name":"_polymorphV1Address","type":"address"}],"internalType":"struct PolymorphRoot.Params","name":"params","type":"tuple"}],"stateMutability":"nonpayable","type":"constructor"},{"anonymous":false,"inputs":[{"indexed":true,"internalType":"address","name":"owner","type":"address"},{"indexed":true,"internalType":"address","name":"approved","type":"address"},{"indexed":true,"internalType":"uint256","name":"tokenId","type":"uint256"}],"name":"Approval","type":"event"},{"anonymous":false,"inputs":[{"indexed":true,"internalType":"address","name":"owner","type":"address"},{"indexed":true,"internalType":"address","name":"operator","type":"address"},{"indexed":false,"internalType":"bool","name":"approved","type":"bool"}],"name":"ApprovalForAll","type":"event"},{"anonymous":false,"inputs":[{"indexed":false,"internalType":"string","name":"arweaveAssetsJSON","type":"string"}],"name":"ArweaveAssetsJSONChanged","type":"event"},{"anonymous":false,"inputs":[{"indexed":false,"internalType":"uint256","name":"newGenomeChange","type":"uint256"}],"name":"BaseGenomeChangePriceChanged","type":"event"},{"anonymous":false,"inputs":[{"indexed":false,"internalType":"string","name":"baseURI","type":"string"}],"name":"BaseURIChanged","type":"event"},{"anonymous":false,"inputs":[{"indexed":false,"internalType":"uint256","name":"newBulkBuyLimit","type":"uint256"}],"name":"BulkBuyLimitChanged","type":"event"},{"anonymous":false,"inputs":[{"indexed":true,"internalType":"address","name":"owner","type":"address"},{"indexed":true,"internalType":"address","name":"consumer","type":"address"},{"indexed":true,"internalType":"uint256","name":"tokenId","type":"uint256"}],"name":"ConsumerChanged","type":"event"},{"anonymous":false,"inputs":[{"indexed":false,"internalType":"uint256","name":"newMaxSupply","type":"uint256"}],"name":"MaxSupplyChanged","type":"event"},{"anonymous":false,"inputs":[{"indexed":false,"internalType":"address","name":"account","type":"address"}],"name":"Paused","type":"event"},{"anonymous":false,"inputs":[{"indexed":false,"internalType":"uint256","name":"newPolymorphPrice","type":"uint256"}],"name":"PolymorphPriceChanged","type":"event"},{"anonymous":false,"inputs":[{"indexed":false,"internalType":"uint256","name":"newRandomizeGenomePriceChange","type":"uint256"}],"name":"RandomizeGenomePriceChanged","type":"event"},{"anonymous":false,"inputs":[{"indexed":true,"internalType":"bytes32","name":"role","type":"bytes32"},{"indexed":true,"internalType":"bytes32","name":"previousAdminRole","type":"bytes32"},{"indexed":true,"internalType":"bytes32","name":"newAdminRole","type":"bytes32"}],"name":"RoleAdminChanged","type":"event"},{"anonymous":false,"inputs":[{"indexed":true,"internalType":"bytes32","name":"role","type":"bytes32"},{"indexed":true,"internalType":"address","name":"account","type":"address"},{"indexed":true,"internalType":"address","name":"sender","type":"address"}],"name":"RoleGranted","type":"event"},{"anonymous":false,"inputs":[{"indexed":true,"internalType":"bytes32","name":"role","type":"bytes32"},{"indexed":true,"internalType":"address","name":"account","type":"address"},{"indexed":true,"internalType":"address","name":"sender","type":"address"}],"name":"RoleRevoked","type":"event"},{"anonymous":false,"inputs":[{"indexed":true,"internalType":"uint256","name":"oldTokenId","type":"uint256"},{"indexed":true,"internalType":"uint256","name":"newTokenId","type":"uint256"},{"indexed":false,"internalType":"uint256","name":"gene","type":"uint256"}],"name":"TokenBurnedAndMinted","type":"event"},{"anonymous":false,"inputs":[{"indexed":true,"internalType":"uint256","name":"tokenId","type":"uint256"},{"indexed":false,"internalType":"uint256","name":"newGene","type":"uint256"}],"name":"TokenMinted","type":"event"},{"anonymous":false,"inputs":[{"indexed":true,"internalType":"uint256","name":"tokenId","type":"uint256"},{"indexed":false,"internalType":"uint256","name":"oldGene","type":"uint256"},{"indexed":false,"internalType":"uint256","name":"newGene","type":"uint256"},{"indexed":false,"internalType":"uint256","name":"price","type":"uint256"},{"indexed":false,"internalType":"enum Polymorph.PolymorphEventType","name":"eventType","type":"uint8"}],"name":"TokenMorphed","type":"event"},{"anonymous":false,"inputs":[{"indexed":true,"internalType":"address","name":"from","type":"address"},{"indexed":true,"internalType":"address","name":"to","type":"address"},{"indexed":true,"internalType":"uint256","name":"tokenId","type":"uint256"}],"name":"Transfer","type":"event"},{"anonymous":false,"inputs":[{"indexed":false,"internalType":"address","name":"account","type":"address"}],"name":"Unpaused","type":"event"},{"inputs":[],"name":"DEFAULT_ADMIN_ROLE","outputs":[{"internalType":"bytes32","name":"","type":"bytes32"}],"stateMutability":"view","type":"function"},{"inputs":[],"name":"MINTER_ROLE","outputs":[{"internalType":"bytes32","name":"","type":"bytes32"}],"stateMutability":"view","type":"function"},{"inputs":[],"name":"PAUSER_ROLE","outputs":[{"internalType":"bytes32","name":"","type":"bytes32"}],"stateMutability":"view","type":"function"},{"inputs":[{"internalType":"address","name":"to","type":"address"},{"internalType":"uint256","name":"tokenId","type":"uint256"}],"name":"approve","outputs":[],"stateMutability":"nonpayable","type":"function"},{"inputs":[],"name":"arweaveAssetsJSON","outputs":[{"internalType":"string","name":"","type":"string"}],"stateMutability":"view","type":"function"},{"inputs":[{"internalType":"address","name":"owner","type":"address"}],"name":"balanceOf","outputs":[{"internalType":"uint256","name":"","type":"uint256"}],"stateMutability":"view","type":"function"},{"inputs":[],"name":"baseGenomeChangePrice","outputs":[{"internalType":"uint256","name":"","type":"uint256"}],"stateMutability":"view","type":"function"},{"inputs":[],"name":"baseURI","outputs":[{"internalType":"string","name":"","type":"string"}],"stateMutability":"view","type":"function"},{"inputs":[{"internalType":"uint256","name":"amount","type":"uint256"}],"name":"bulkBuy","outputs":[],"stateMutability":"payable","type":"function"},{"inputs":[],"name":"bulkBuyLimit","outputs":[{"internalType":"uint256","name":"","type":"uint256"}],"stateMutability":"view","type":"function"},{"inputs":[{"internalType":"uint256","name":"tokenId","type":"uint256"}],"name":"burn","outputs":[],"stateMutability":"nonpayable","type":"function"},{"inputs":[{"internalType":"uint256","name":"tokenId","type":"uint256"}],"name":"burnAndMintNewPolymorph","outputs":[],"stateMutability":"nonpayable","type":"function"},{"inputs":[{"internalType":"uint256","name":"newGenomeChangePrice","type":"uint256"}],"name":"changeBaseGenomeChangePrice","outputs":[],"stateMutability":"nonpayable","type":"function"},{"inputs":[{"internalType":"address","name":"_consumer","type":"address"},{"internalType":"uint256","name":"_tokenId","type":"uint256"}],"name":"changeConsumer","outputs":[],"stateMutability":"nonpayable","type":"function"},{"inputs":[{"internalType":"uint256","name":"newRandomizeGenomePrice","type":"uint256"}],"name":"changeRandomizeGenomePrice","outputs":[],"stateMutability":"nonpayable","type":"function"},{"inputs":[{"internalType":"uint256","name":"_tokenId","type":"uint256"}],"name":"consumerOf","outputs":[{"internalType":"address","name":"","type":"address"}],"stateMutability":"view","type":"function"},{"inputs":[],"name":"daoAddress","outputs":[{"internalType":"address payable","name":"","type":"address"}],"stateMutability":"view","type":"function"},{"inputs":[{"internalType":"uint256","name":"tokenId","type":"uint256"}],"name":"geneOf","outputs":[{"internalType":"uint256","name":"gene","type":"uint256"}],"stateMutability":"view","type":"function"},{"inputs":[{"internalType":"uint256","name":"tokenId","type":"uint256"}],"name":"genomeChanges","outputs":[{"internalType":"uint256","name":"genomeChnages","type":"uint256"}],"stateMutability":"view","type":"function"},{"inputs":[{"internalType":"uint256","name":"tokenId","type":"uint256"}],"name":"getApproved","outputs":[{"internalType":"address","name":"","type":"address"}],"stateMutability":"view","type":"function"},{"inputs":[{"internalType":"bytes32","name":"role","type":"bytes32"}],"name":"getRoleAdmin","outputs":[{"internalType":"bytes32","name":"","type":"bytes32"}],"stateMutability":"view","type":"function"},{"inputs":[{"internalType":"bytes32","name":"role","type":"bytes32"},{"internalType":"uint256","name":"index","type":"uint256"}],"name":"getRoleMember","outputs":[{"internalType":"address","name":"","type":"address"}],"stateMutability":"view","type":"function"},{"inputs":[{"internalType":"bytes32","name":"role","type":"bytes32"}],"name":"getRoleMemberCount","outputs":[{"internalType":"uint256","name":"","type":"uint256"}],"stateMutability":"view","type":"function"},{"inputs":[{"internalType":"bytes32","name":"role","type":"bytes32"},{"internalType":"address","name":"account","type":"address"}],"name":"grantRole","outputs":[],"stateMutability":"nonpayable","type":"function"},{"inputs":[{"internalType":"bytes32","name":"role","type":"bytes32"},{"internalType":"address","name":"account","type":"address"}],"name":"hasRole","outputs":[{"internalType":"bool","name":"","type":"bool"}],"stateMutability":"view","type":"function"},{"inputs":[{"internalType":"address","name":"owner","type":"address"},{"internalType":"address","name":"operator","type":"address"}],"name":"isApprovedForAll","outputs":[{"internalType":"bool","name":"","type":"bool"}],"stateMutability":"view","type":"function"},{"inputs":[{"internalType":"uint256","name":"","type":"uint256"}],"name":"isNotVirgin","outputs":[{"internalType":"bool","name":"","type":"bool"}],"stateMutability":"view","type":"function"},{"inputs":[],"name":"lastTokenId","outputs":[{"internalType":"uint256","name":"tokenId","type":"uint256"}],"stateMutability":"view","type":"function"},{"inputs":[],"name":"maxSupply","outputs":[{"internalType":"uint256","name":"","type":"uint256"}],"stateMutability":"view","type":"function"},{"inputs":[],"name":"mint","outputs":[],"stateMutability":"payable","type":"function"},{"inputs":[{"internalType":"address","name":"to","type":"address"}],"name":"mint","outputs":[],"stateMutability":"pure","type":"function"},{"inputs":[{"internalType":"uint256","name":"tokenId","type":"uint256"},{"internalType":"uint256","name":"genePosition","type":"uint256"}],"name":"morphGene","outputs":[],"stateMutability":"payable","type":"function"},{"inputs":[],"name":"name","outputs":[{"internalType":"string","name":"","type":"string"}],"stateMutability":"view","type":"function"},{"inputs":[{"internalType":"uint256","name":"tokenId","type":"uint256"}],"name":"ownerOf","outputs":[{"internalType":"address","name":"","type":"address"}],"stateMutability":"view","type":"function"},{"inputs":[],"name":"pause","outputs":[],"stateMutability":"nonpayable","type":"function"},{"inputs":[],"name":"paused","outputs":[{"internalType":"bool","name":"","type":"bool"}],"stateMutability":"view","type":"function"},{"inputs":[],"name":"polymorphPrice","outputs":[{"internalType":"uint256","name":"","type":"uint256"}],"stateMutability":"view","type":"function"},{"inputs":[],"name":"polymorphV1Contract","outputs":[{"internalType":"contract Polymorph","name":"","type":"address"}],"stateMutability":"view","type":"function"},{"inputs":[{"internalType":"uint256","name":"tokenId","type":"uint256"}],"name":"priceForGenomeChange","outputs":[{"internalType":"uint256","name":"price","type":"uint256"}],"stateMutability":"view","type":"function"},{"inputs":[{"internalType":"uint256","name":"tokenId","type":"uint256"}],"name":"randomizeGenome","outputs":[],"stateMutability":"payable","type":"function"},{"inputs":[],"name":"randomizeGenomePrice","outputs":[{"internalType":"uint256","name":"","type":"uint256"}],"stateMutability":"view","type":"function"},{"inputs":[{"internalType":"bytes32","name":"role","type":"bytes32"},{"internalType":"address","name":"account","type":"address"}],"name":"renounceRole","outputs":[],"stateMutability":"nonpayable","type":"function"},{"inputs":[{"internalType":"bytes32","name":"role","type":"bytes32"},{"internalType":"address","name":"account","type":"address"}],"name":"revokeRole","outputs":[],"stateMutability":"nonpayable","type":"function"},{"inputs":[{"internalType":"address","name":"from","type":"address"},{"internalType":"address","name":"to","type":"address"},{"internalType":"uint256","name":"tokenId","type":"uint256"}],"name":"safeTransferFrom","outputs":[],"stateMutability":"nonpayable","type":"function"},{"inputs":[{"internalType":"address","name":"from","type":"address"},{"internalType":"address","name":"to","type":"address"},{"internalType":"uint256","name":"tokenId","type":"uint256"},{"internalType":"bytes","name":"_data","type":"bytes"}],"name":"safeTransferFrom","outputs":[],"stateMutability":"nonpayable","type":"function"},{"inputs":[{"internalType":"address","name":"operator","type":"address"},{"internalType":"bool","name":"approved","type":"bool"}],"name":"setApprovalForAll","outputs":[],"stateMutability":"nonpayable","type":"function"},{"inputs":[{"internalType":"string","name":"_arweaveAssetsJSON","type":"string"}],"name":"setArweaveAssetsJSON","outputs":[],"stateMutability":"nonpayable","type":"function"},{"inputs":[{"internalType":"string","name":"_baseURI","type":"string"}],"name":"setBaseURI","outputs":[],"stateMutability":"nonpayable","type":"function"},{"inputs":[{"internalType":"uint256","name":"_bulkBuyLimit","type":"uint256"}],"name":"setBulkBuyLimit","outputs":[],"stateMutability":"nonpayable","type":"function"},{"inputs":[{"internalType":"uint256","name":"_maxSupply","type":"uint256"}],"name":"setMaxSupply","outputs":[],"stateMutability":"nonpayable","type":"function"},{"inputs":[{"internalType":"uint256","name":"newPolymorphPrice","type":"uint256"}],"name":"setPolymorphPrice","outputs":[],"stateMutability":"nonpayable","type":"function"},{"inputs":[{"internalType":"bytes4","name":"interfaceId","type":"bytes4"}],"name":"supportsInterface","outputs":[{"internalType":"bool","name":"","type":"bool"}],"stateMutability":"view","type":"function"},{"inputs":[],"name":"symbol","outputs":[{"internalType":"string","name":"","type":"string"}],"stateMutability":"view","type":"function"},{"inputs":[{"internalType":"uint256","name":"index","type":"uint256"}],"name":"tokenByIndex","outputs":[{"internalType":"uint256","name":"","type":"uint256"}],"stateMutability":"view","type":"function"},{"inputs":[{"internalType":"address","name":"owner","type":"address"},{"internalType":"uint256","name":"index","type":"uint256"}],"name":"tokenOfOwnerByIndex","outputs":[{"internalType":"uint256","name":"","type":"uint256"}],"stateMutability":"view","type":"function"},{"inputs":[{"internalType":"uint256","name":"tokenId","type":"uint256"}],"name":"tokenURI","outputs":[{"internalType":"string","name":"","type":"string"}],"stateMutability":"view","type":"function"},{"inputs":[],"name":"totalBurnedV1","outputs":[{"internalType":"uint256","name":"","type":"uint256"}],"stateMutability":"view","type":"function"},{"inputs":[],"name":"totalSupply","outputs":[{"internalType":"uint256","name":"","type":"uint256"}],"stateMutability":"view","type":"function"},{"inputs":[{"internalType":"address","name":"from","type":"address"},{"internalType":"address","name":"to","type":"address"},{"internalType":"uint256","name":"tokenId","type":"uint256"}],"name":"transferFrom","outputs":[],"stateMutability":"nonpayable","type":"function"},{"inputs":[],"name":"unpause","outputs":[],"stateMutability":"nonpayable","type":"function"},{"inputs":[{"internalType":"address","name":"bridgeAddress","type":"address"},{"internalType":"bool","name":"status","type":"bool"}],"name":"whitelistBridgeAddress","outputs":[],"stateMutability":"nonpayable","type":"function"},{"inputs":[{"internalType":"address","name":"","type":"address"}],"name":"whitelistTunnelAddresses","outputs":[{"internalType":"bool","name":"","type":"bool"}],"stateMutability":"view","type":"function"},{"inputs":[{"internalType":"uint256","name":"tokenId","type":"uint256"},{"internalType":"uint256","name":"gene","type":"uint256"},{"internalType":"bool","name":"isVirgin","type":"bool"},{"internalType":"uint256","name":"genomeChangesCount","type":"uint256"}],"name":"wormholeUpdateGene","outputs":[],"stateMutability":"nonpayable","type":"function"},{"stateMutability":"payable","type":"receive"}]}