{
  "_format": "hh-sol-artifact-1",
  "contractName": "PolymorphWithGeneChanger",
  "sourceName": "contracts/PolymorphWithGeneChanger.sol",
  "abi": [
    {
      "inputs": [
        {
          "internalType": "string",
          "name": "name",
          "type": "string"
        },
        {
          "internalType": "string",
          "name": "symbol",
          "type": "string"
        },
        {
          "internalType": "string",
          "name": "baseURI",
          "type": "string"
        },
        {
          "internalType": "address payable",
          "name": "_daoAddress",
          "type": "address"
        },
        {
          "internalType": "uint256",
          "name": "premintedTokensCount",
          "type": "uint256"
        },
        {
          "internalType": "uint256",
          "name": "_baseGenomeChangePrice",
          "type": "uint256"
        },
        {
          "internalType": "uint256",
          "name": "_polymorphPrice",
          "type": "uint256"
        },
        {
          "internalType": "uint256",
          "name": "totalSupply",
          "type": "uint256"
        },
        {
          "internalType": "uint256",
          "name": "_randomizeGenomePrice",
          "type": "uint256"
        },
        {
          "internalType": "uint256",
          "name": "_bulkBuyLimit",
          "type": "uint256"
        },
        {
          "internalType": "string",
          "name": "_arweaveAssetsJSON",
          "type": "string"
        }
      ],
      "stateMutability": "nonpayable",
      "type": "constructor"
    },
    {
      "anonymous": false,
      "inputs": [
        {
          "indexed": true,
          "internalType": "address",
          "name": "owner",
          "type": "address"
        },
        {
          "indexed": true,
          "internalType": "address",
          "name": "approved",
          "type": "address"
        },
        {
          "indexed": true,
          "internalType": "uint256",
          "name": "tokenId",
          "type": "uint256"
        }
      ],
      "name": "Approval",
      "type": "event"
    },
    {
      "anonymous": false,
      "inputs": [
        {
          "indexed": true,
          "internalType": "address",
          "name": "owner",
          "type": "address"
        },
        {
          "indexed": true,
          "internalType": "address",
          "name": "operator",
          "type": "address"
        },
        {
          "indexed": false,
          "internalType": "bool",
          "name": "approved",
          "type": "bool"
        }
      ],
      "name": "ApprovalForAll",
      "type": "event"
    },
    {
      "anonymous": false,
      "inputs": [
        {
          "indexed": false,
          "internalType": "uint256",
          "name": "newGenomeChange",
          "type": "uint256"
        }
      ],
      "name": "BaseGenomeChangePriceChanged",
      "type": "event"
    },
    {
      "anonymous": false,
      "inputs": [
        {
          "indexed": false,
          "internalType": "string",
          "name": "baseURI",
          "type": "string"
        }
      ],
      "name": "BaseURIChanged",
      "type": "event"
    },
    {
      "anonymous": false,
      "inputs": [
        {
          "indexed": false,
          "internalType": "uint256",
          "name": "newBulkBuyLimit",
          "type": "uint256"
        }
      ],
      "name": "BulkBuyLimitChanged",
      "type": "event"
    },
    {
      "anonymous": false,
      "inputs": [
        {
          "indexed": false,
          "internalType": "address",
          "name": "account",
          "type": "address"
        }
      ],
      "name": "Paused",
      "type": "event"
    },
    {
      "anonymous": false,
      "inputs": [
        {
          "indexed": false,
          "internalType": "uint256",
          "name": "newPolymorphPrice",
          "type": "uint256"
        }
      ],
      "name": "PolymorphPriceChanged",
      "type": "event"
    },
    {
      "anonymous": false,
      "inputs": [
        {
          "indexed": false,
          "internalType": "uint256",
          "name": "newRandomizeGenomePriceChange",
          "type": "uint256"
        }
      ],
      "name": "RandomizeGenomePriceChanged",
      "type": "event"
    },
    {
      "anonymous": false,
      "inputs": [
        {
          "indexed": true,
          "internalType": "bytes32",
          "name": "role",
          "type": "bytes32"
        },
        {
          "indexed": true,
          "internalType": "bytes32",
          "name": "previousAdminRole",
          "type": "bytes32"
        },
        {
          "indexed": true,
          "internalType": "bytes32",
          "name": "newAdminRole",
          "type": "bytes32"
        }
      ],
      "name": "RoleAdminChanged",
      "type": "event"
    },
    {
      "anonymous": false,
      "inputs": [
        {
          "indexed": true,
          "internalType": "bytes32",
          "name": "role",
          "type": "bytes32"
        },
        {
          "indexed": true,
          "internalType": "address",
          "name": "account",
          "type": "address"
        },
        {
          "indexed": true,
          "internalType": "address",
          "name": "sender",
          "type": "address"
        }
      ],
      "name": "RoleGranted",
      "type": "event"
    },
    {
      "anonymous": false,
      "inputs": [
        {
          "indexed": true,
          "internalType": "bytes32",
          "name": "role",
          "type": "bytes32"
        },
        {
          "indexed": true,
          "internalType": "address",
          "name": "account",
          "type": "address"
        },
        {
          "indexed": true,
          "internalType": "address",
          "name": "sender",
          "type": "address"
        }
      ],
      "name": "RoleRevoked",
      "type": "event"
    },
    {
      "anonymous": false,
      "inputs": [
        {
          "indexed": true,
          "internalType": "uint256",
          "name": "tokenId",
          "type": "uint256"
        },
        {
          "indexed": false,
          "internalType": "uint256",
          "name": "newGene",
          "type": "uint256"
        }
      ],
      "name": "TokenMinted",
      "type": "event"
    },
    {
      "anonymous": false,
      "inputs": [
        {
          "indexed": true,
          "internalType": "uint256",
          "name": "tokenId",
          "type": "uint256"
        },
        {
          "indexed": false,
          "internalType": "uint256",
          "name": "oldGene",
          "type": "uint256"
        },
        {
          "indexed": false,
          "internalType": "uint256",
          "name": "newGene",
          "type": "uint256"
        },
        {
          "indexed": false,
          "internalType": "uint256",
          "name": "price",
          "type": "uint256"
        },
        {
          "indexed": false,
          "internalType": "enum Polymorph.PolymorphEventType",
          "name": "eventType",
          "type": "uint8"
        }
      ],
      "name": "TokenMorphed",
      "type": "event"
    },
    {
      "anonymous": false,
      "inputs": [
        {
          "indexed": false,
          "internalType": "uint256",
          "name": "newTotalSupply",
          "type": "uint256"
        }
      ],
      "name": "TotalSupplyChanged",
      "type": "event"
    },
    {
      "anonymous": false,
      "inputs": [
        {
          "indexed": true,
          "internalType": "address",
          "name": "from",
          "type": "address"
        },
        {
          "indexed": true,
          "internalType": "address",
          "name": "to",
          "type": "address"
        },
        {
          "indexed": true,
          "internalType": "uint256",
          "name": "tokenId",
          "type": "uint256"
        }
      ],
      "name": "Transfer",
      "type": "event"
    },
    {
      "anonymous": false,
      "inputs": [
        {
          "indexed": false,
          "internalType": "address",
          "name": "account",
          "type": "address"
        }
      ],
      "name": "Unpaused",
      "type": "event"
    },
    {
      "anonymous": false,
      "inputs": [
        {
          "indexed": false,
          "internalType": "string",
          "name": "arweaveAssetsJSON",
          "type": "string"
        }
      ],
      "name": "arweaveAssetsJSONChanged",
      "type": "event"
    },
    {
      "inputs": [],
      "name": "DEFAULT_ADMIN_ROLE",
      "outputs": [
        {
          "internalType": "bytes32",
          "name": "",
          "type": "bytes32"
        }
      ],
      "stateMutability": "view",
      "type": "function"
    },
    {
      "inputs": [],
      "name": "MINTER_ROLE",
      "outputs": [
        {
          "internalType": "bytes32",
          "name": "",
          "type": "bytes32"
        }
      ],
      "stateMutability": "view",
      "type": "function"
    },
    {
      "inputs": [],
      "name": "PAUSER_ROLE",
      "outputs": [
        {
          "internalType": "bytes32",
          "name": "",
          "type": "bytes32"
        }
      ],
      "stateMutability": "view",
      "type": "function"
    },
    {
      "inputs": [
        {
          "internalType": "address",
          "name": "to",
          "type": "address"
        },
        {
          "internalType": "uint256",
          "name": "tokenId",
          "type": "uint256"
        }
      ],
      "name": "approve",
      "outputs": [],
      "stateMutability": "nonpayable",
      "type": "function"
    },
    {
      "inputs": [],
      "name": "arweaveAssetsJSON",
      "outputs": [
        {
          "internalType": "string",
          "name": "",
          "type": "string"
        }
      ],
      "stateMutability": "view",
      "type": "function"
    },
    {
      "inputs": [
        {
          "internalType": "address",
          "name": "owner",
          "type": "address"
        }
      ],
      "name": "balanceOf",
      "outputs": [
        {
          "internalType": "uint256",
          "name": "",
          "type": "uint256"
        }
      ],
      "stateMutability": "view",
      "type": "function"
    },
    {
      "inputs": [],
      "name": "baseGenomeChangePrice",
      "outputs": [
        {
          "internalType": "uint256",
          "name": "",
          "type": "uint256"
        }
      ],
      "stateMutability": "view",
      "type": "function"
    },
    {
      "inputs": [],
      "name": "baseURI",
      "outputs": [
        {
          "internalType": "string",
          "name": "",
          "type": "string"
        }
      ],
      "stateMutability": "view",
      "type": "function"
    },
    {
      "inputs": [
        {
          "internalType": "uint256",
          "name": "amount",
          "type": "uint256"
        }
      ],
      "name": "bulkBuy",
      "outputs": [],
      "stateMutability": "payable",
      "type": "function"
    },
    {
      "inputs": [],
      "name": "bulkBuyLimit",
      "outputs": [
        {
          "internalType": "uint256",
          "name": "",
          "type": "uint256"
        }
      ],
      "stateMutability": "view",
      "type": "function"
    },
    {
      "inputs": [
        {
          "internalType": "uint256",
          "name": "tokenId",
          "type": "uint256"
        }
      ],
      "name": "burn",
      "outputs": [],
      "stateMutability": "nonpayable",
      "type": "function"
    },
    {
      "inputs": [
        {
          "internalType": "uint256",
          "name": "newGenomeChangePrice",
          "type": "uint256"
        }
      ],
      "name": "changeBaseGenomeChangePrice",
      "outputs": [],
      "stateMutability": "nonpayable",
      "type": "function"
    },
    {
      "inputs": [
        {
          "internalType": "uint256",
          "name": "newRandomizeGenomePrice",
          "type": "uint256"
        }
      ],
      "name": "changeRandomizeGenomePrice",
      "outputs": [],
      "stateMutability": "nonpayable",
      "type": "function"
    },
    {
      "inputs": [],
      "name": "daoAddress",
      "outputs": [
        {
          "internalType": "address payable",
          "name": "",
          "type": "address"
        }
      ],
      "stateMutability": "view",
      "type": "function"
    },
    {
      "inputs": [
        {
          "internalType": "uint256",
          "name": "tokenId",
          "type": "uint256"
        }
      ],
      "name": "geneOf",
      "outputs": [
        {
          "internalType": "uint256",
          "name": "gene",
          "type": "uint256"
        }
      ],
      "stateMutability": "view",
      "type": "function"
    },
    {
      "inputs": [
        {
          "internalType": "uint256",
          "name": "tokenId",
          "type": "uint256"
        }
      ],
      "name": "getApproved",
      "outputs": [
        {
          "internalType": "address",
          "name": "",
          "type": "address"
        }
      ],
      "stateMutability": "view",
      "type": "function"
    },
    {
      "inputs": [
        {
          "internalType": "bytes32",
          "name": "role",
          "type": "bytes32"
        }
      ],
      "name": "getRoleAdmin",
      "outputs": [
        {
          "internalType": "bytes32",
          "name": "",
          "type": "bytes32"
        }
      ],
      "stateMutability": "view",
      "type": "function"
    },
    {
      "inputs": [
        {
          "internalType": "bytes32",
          "name": "role",
          "type": "bytes32"
        },
        {
          "internalType": "uint256",
          "name": "index",
          "type": "uint256"
        }
      ],
      "name": "getRoleMember",
      "outputs": [
        {
          "internalType": "address",
          "name": "",
          "type": "address"
        }
      ],
      "stateMutability": "view",
      "type": "function"
    },
    {
      "inputs": [
        {
          "internalType": "bytes32",
          "name": "role",
          "type": "bytes32"
        }
      ],
      "name": "getRoleMemberCount",
      "outputs": [
        {
          "internalType": "uint256",
          "name": "",
          "type": "uint256"
        }
      ],
      "stateMutability": "view",
      "type": "function"
    },
    {
      "inputs": [
        {
          "internalType": "bytes32",
          "name": "role",
          "type": "bytes32"
        },
        {
          "internalType": "address",
          "name": "account",
          "type": "address"
        }
      ],
      "name": "grantRole",
      "outputs": [],
      "stateMutability": "nonpayable",
      "type": "function"
    },
    {
      "inputs": [
        {
          "internalType": "bytes32",
          "name": "role",
          "type": "bytes32"
        },
        {
          "internalType": "address",
          "name": "account",
          "type": "address"
        }
      ],
      "name": "hasRole",
      "outputs": [
        {
          "internalType": "bool",
          "name": "",
          "type": "bool"
        }
      ],
      "stateMutability": "view",
      "type": "function"
    },
    {
      "inputs": [
        {
          "internalType": "address",
          "name": "owner",
          "type": "address"
        },
        {
          "internalType": "address",
          "name": "operator",
          "type": "address"
        }
      ],
      "name": "isApprovedForAll",
      "outputs": [
        {
          "internalType": "bool",
          "name": "",
          "type": "bool"
        }
      ],
      "stateMutability": "view",
      "type": "function"
    },
    {
      "inputs": [],
      "name": "lastTokenId",
      "outputs": [
        {
          "internalType": "uint256",
          "name": "tokenId",
          "type": "uint256"
        }
      ],
      "stateMutability": "view",
      "type": "function"
    },
    {
      "inputs": [],
      "name": "mint",
      "outputs": [],
      "stateMutability": "payable",
      "type": "function"
    },
    {
      "inputs": [
        {
          "internalType": "address",
          "name": "to",
          "type": "address"
        }
      ],
      "name": "mint",
      "outputs": [],
      "stateMutability": "nonpayable",
      "type": "function"
    },
    {
      "inputs": [
        {
          "internalType": "uint256",
          "name": "tokenId",
          "type": "uint256"
        },
        {
          "internalType": "uint256",
          "name": "genePosition",
          "type": "uint256"
        }
      ],
      "name": "morphGene",
      "outputs": [],
      "stateMutability": "payable",
      "type": "function"
    },
    {
      "inputs": [],
      "name": "name",
      "outputs": [
        {
          "internalType": "string",
          "name": "",
          "type": "string"
        }
      ],
      "stateMutability": "view",
      "type": "function"
    },
    {
      "inputs": [
        {
          "internalType": "uint256",
          "name": "tokenId",
          "type": "uint256"
        }
      ],
      "name": "ownerOf",
      "outputs": [
        {
          "internalType": "address",
          "name": "",
          "type": "address"
        }
      ],
      "stateMutability": "view",
      "type": "function"
    },
    {
      "inputs": [],
      "name": "pause",
      "outputs": [],
      "stateMutability": "nonpayable",
      "type": "function"
    },
    {
      "inputs": [],
      "name": "paused",
      "outputs": [
        {
          "internalType": "bool",
          "name": "",
          "type": "bool"
        }
      ],
      "stateMutability": "view",
      "type": "function"
    },
    {
      "inputs": [],
      "name": "polymorphPrice",
      "outputs": [
        {
          "internalType": "uint256",
          "name": "",
          "type": "uint256"
        }
      ],
      "stateMutability": "view",
      "type": "function"
    },
    {
      "inputs": [
        {
          "internalType": "uint256",
          "name": "tokenId",
          "type": "uint256"
        }
      ],
      "name": "priceForGenomeChange",
      "outputs": [
        {
          "internalType": "uint256",
          "name": "price",
          "type": "uint256"
        }
      ],
      "stateMutability": "view",
      "type": "function"
    },
    {
      "inputs": [
        {
          "internalType": "uint256",
          "name": "tokenId",
          "type": "uint256"
        }
      ],
      "name": "randomizeGenome",
      "outputs": [],
      "stateMutability": "payable",
      "type": "function"
    },
    {
      "inputs": [],
      "name": "randomizeGenomePrice",
      "outputs": [
        {
          "internalType": "uint256",
          "name": "",
          "type": "uint256"
        }
      ],
      "stateMutability": "view",
      "type": "function"
    },
    {
      "inputs": [
        {
          "internalType": "bytes32",
          "name": "role",
          "type": "bytes32"
        },
        {
          "internalType": "address",
          "name": "account",
          "type": "address"
        }
      ],
      "name": "renounceRole",
      "outputs": [],
      "stateMutability": "nonpayable",
      "type": "function"
    },
    {
      "inputs": [
        {
          "internalType": "bytes32",
          "name": "role",
          "type": "bytes32"
        },
        {
          "internalType": "address",
          "name": "account",
          "type": "address"
        }
      ],
      "name": "revokeRole",
      "outputs": [],
      "stateMutability": "nonpayable",
      "type": "function"
    },
    {
      "inputs": [
        {
          "internalType": "address",
          "name": "from",
          "type": "address"
        },
        {
          "internalType": "address",
          "name": "to",
          "type": "address"
        },
        {
          "internalType": "uint256",
          "name": "tokenId",
          "type": "uint256"
        }
      ],
      "name": "safeTransferFrom",
      "outputs": [],
      "stateMutability": "nonpayable",
      "type": "function"
    },
    {
      "inputs": [
        {
          "internalType": "address",
          "name": "from",
          "type": "address"
        },
        {
          "internalType": "address",
          "name": "to",
          "type": "address"
        },
        {
          "internalType": "uint256",
          "name": "tokenId",
          "type": "uint256"
        },
        {
          "internalType": "bytes",
          "name": "_data",
          "type": "bytes"
        }
      ],
      "name": "safeTransferFrom",
      "outputs": [],
      "stateMutability": "nonpayable",
      "type": "function"
    },
    {
      "inputs": [
        {
          "internalType": "address",
          "name": "operator",
          "type": "address"
        },
        {
          "internalType": "bool",
          "name": "approved",
          "type": "bool"
        }
      ],
      "name": "setApprovalForAll",
      "outputs": [],
      "stateMutability": "nonpayable",
      "type": "function"
    },
    {
      "inputs": [
        {
          "internalType": "string",
          "name": "_arweaveAssetsJSON",
          "type": "string"
        }
      ],
      "name": "setArweaveAssetsJSON",
      "outputs": [],
      "stateMutability": "nonpayable",
      "type": "function"
    },
    {
      "inputs": [
        {
          "internalType": "string",
          "name": "_baseURI",
          "type": "string"
        }
      ],
      "name": "setBaseURI",
      "outputs": [],
      "stateMutability": "nonpayable",
      "type": "function"
    },
    {
      "inputs": [
        {
          "internalType": "uint256",
          "name": "_bulkBuyLimit",
          "type": "uint256"
        }
      ],
      "name": "setBulkBuyLimit",
      "outputs": [],
      "stateMutability": "nonpayable",
      "type": "function"
    },
    {
      "inputs": [
        {
          "internalType": "uint256",
          "name": "newPolymorphPrice",
          "type": "uint256"
        }
      ],
      "name": "setPolymorphPrice",
      "outputs": [],
      "stateMutability": "nonpayable",
      "type": "function"
    },
    {
      "inputs": [
        {
          "internalType": "uint256",
          "name": "totalSupply",
          "type": "uint256"
        }
      ],
      "name": "setTotalSupply",
      "outputs": [],
      "stateMutability": "nonpayable",
      "type": "function"
    },
    {
      "inputs": [
        {
          "internalType": "bytes4",
          "name": "interfaceId",
          "type": "bytes4"
        }
      ],
      "name": "supportsInterface",
      "outputs": [
        {
          "internalType": "bool",
          "name": "",
          "type": "bool"
        }
      ],
      "stateMutability": "view",
      "type": "function"
    },
    {
      "inputs": [],
      "name": "symbol",
      "outputs": [
        {
          "internalType": "string",
          "name": "",
          "type": "string"
        }
      ],
      "stateMutability": "view",
      "type": "function"
    },
    {
      "inputs": [
        {
          "internalType": "uint256",
          "name": "index",
          "type": "uint256"
        }
      ],
      "name": "tokenByIndex",
      "outputs": [
        {
          "internalType": "uint256",
          "name": "",
          "type": "uint256"
        }
      ],
      "stateMutability": "view",
      "type": "function"
    },
    {
      "inputs": [
        {
          "internalType": "address",
          "name": "owner",
          "type": "address"
        },
        {
          "internalType": "uint256",
          "name": "index",
          "type": "uint256"
        }
      ],
      "name": "tokenOfOwnerByIndex",
      "outputs": [
        {
          "internalType": "uint256",
          "name": "",
          "type": "uint256"
        }
      ],
      "stateMutability": "view",
      "type": "function"
    },
    {
      "inputs": [
        {
          "internalType": "uint256",
          "name": "tokenId",
          "type": "uint256"
        }
      ],
      "name": "tokenURI",
      "outputs": [
        {
          "internalType": "string",
          "name": "",
          "type": "string"
        }
      ],
      "stateMutability": "view",
      "type": "function"
    },
    {
      "inputs": [],
      "name": "totalSupply",
      "outputs": [
        {
          "internalType": "uint256",
          "name": "",
          "type": "uint256"
        }
      ],
      "stateMutability": "view",
      "type": "function"
    },
    {
      "inputs": [
        {
          "internalType": "address",
          "name": "from",
          "type": "address"
        },
        {
          "internalType": "address",
          "name": "to",
          "type": "address"
        },
        {
          "internalType": "uint256",
          "name": "tokenId",
          "type": "uint256"
        }
      ],
      "name": "transferFrom",
      "outputs": [],
      "stateMutability": "nonpayable",
      "type": "function"
    },
    {
      "inputs": [],
      "name": "unpause",
      "outputs": [],
      "stateMutability": "nonpayable",
      "type": "function"
    },
    {
      "stateMutability": "payable",
      "type": "receive"
    }
  ],
  "bytecode": "0x60806040523480156200001157600080fd5b50604051620072dc380380620072dc83398181016040526101608110156200003857600080fd5b81019080805160405193929190846401000000008211156200005957600080fd5b838201915060208201858111156200007057600080fd5b82518660018202830111640100000000821117156200008e57600080fd5b8083526020830192505050908051906020019080838360005b83811015620000c4578082015181840152602081019050620000a7565b50505050905090810190601f168015620000f25780820380516001836020036101000a031916815260200191505b50604052602001805160405193929190846401000000008211156200011657600080fd5b838201915060208201858111156200012d57600080fd5b82518660018202830111640100000000821117156200014b57600080fd5b8083526020830192505050908051906020019080838360005b838110156200018157808201518184015260208101905062000164565b50505050905090810190601f168015620001af5780820380516001836020036101000a031916815260200191505b5060405260200180516040519392919084640100000000821115620001d357600080fd5b83820191506020820185811115620001ea57600080fd5b82518660018202830111640100000000821117156200020857600080fd5b8083526020830192505050908051906020019080838360005b838110156200023e57808201518184015260208101905062000221565b50505050905090810190601f1680156200026c5780820380516001836020036101000a031916815260200191505b506040526020018051906020019092919080519060200190929190805190602001909291908051906020019092919080519060200190929190805190602001909291908051906020019092919080516040519392919084640100000000821115620002d657600080fd5b83820191506020820185811115620002ed57600080fd5b82518660018202830111640100000000821117156200030b57600080fd5b8083526020830192505050908051906020019080838360005b838110156200034157808201518184015260208101905062000324565b50505050905090810190601f1680156200036f5780820380516001836020036101000a031916815260200191505b506040525050508a8a8a8a8a8989888888888882826200039c6301ffc9a760e01b620005b560201b60201c565b8160079080519060200190620003b492919062000f27565b508060089080519060200190620003cd92919062000f27565b50620003e66380ac58cd60e01b620005b560201b60201c565b620003fe635b5e139f60e01b620005b560201b60201c565b6200041663780e9d6360e01b620005b560201b60201c565b50506000600b60006101000a81548160ff021916908315150217905550620004576000801b6200044b620006be60201b60201c565b620006c660201b60201c565b620004987f9f2df0fed2c77648de5860a4cc508cd0818c85b8b8a1ab4ceeef8d981c8956a66200048c620006be60201b60201c565b620006c660201b60201c565b620004d97f65d7a28e3265b37a6474929f336521b332c1681b933f6cb9f3376673440d862a620004cd620006be60201b60201c565b620006c660201b60201c565b620004ea81620006dc60201b60201c565b5050506001600d8190555085600f60006101000a81548173ffffffffffffffffffffffffffffffffffffffff021916908373ffffffffffffffffffffffffffffffffffffffff16021790555083601081905550826011819055508160128190555080601390805190602001906200056392919062000f27565b506200057b600e620006f860201b62003e7e1760201c565b506200058d85620007d160201b60201c565b5050505050505050508560168190555082601781905550505050505050505050505062000fcd565b63ffffffff60e01b817bffffffffffffffffffffffffffffffffffffffffffffffffffffffff1916141562000652576040517f08c379a000000000000000000000000000000000000000000000000000000000815260040180806020018281038252601c8152602001807f4552433136353a20696e76616c696420696e746572666163652069640000000081525060200191505060405180910390fd5b6001806000837bffffffffffffffffffffffffffffffffffffffffffffffffffffffff19167bffffffffffffffffffffffffffffffffffffffffffffffffffffffff1916815260200190815260200160002060006101000a81548160ff02191690831515021790555050565b600033905090565b620006d882826200087160201b60201c565b5050565b80600a9080519060200190620006f492919062000f27565b5050565b600033325a8460000154424343406064430340604051602001808973ffffffffffffffffffffffffffffffffffffffff1660601b81526014018873ffffffffffffffffffffffffffffffffffffffff1660601b81526014018781526020018681526020018581526020018481526020018381526020018281526020019850505050505050505060405160208183030381529060405280519060200120604051602001808281526020019150506040516020818303038152906040528051906020012060001c826000018190555081600001549050919050565b60005b818110156200086d57620007f4600c6200091460201b62003f571760201c565b60006200080d600c6200092a60201b62003f6d1760201c565b905062000826600e620006f860201b62003e7e1760201c565b60146000838152602001908152602001600020819055506200085e62000851620006be60201b60201c565b826200093860201b60201c565b508080600101915050620007d4565b5050565b6200089f8160008085815260200190815260200160002060000162000b4c60201b62003f7b1790919060201c565b156200091057620008b5620006be60201b60201c565b73ffffffffffffffffffffffffffffffffffffffff168173ffffffffffffffffffffffffffffffffffffffff16837f2f8788117e7eff1d82e926ec794901d17c78024a50270940304540a733656f0d60405160405180910390a45b5050565b6001816000016000828254019250508190555050565b600081600001549050919050565b600073ffffffffffffffffffffffffffffffffffffffff168273ffffffffffffffffffffffffffffffffffffffff161415620009dc576040517f08c379a00000000000000000000000000000000000000000000000000000000081526004018080602001828103825260208152602001807f4552433732313a206d696e7420746f20746865207a65726f206164647265737381525060200191505060405180910390fd5b620009ed8162000b8460201b60201c565b1562000a61576040517f08c379a000000000000000000000000000000000000000000000000000000000815260040180806020018281038252601c8152602001807f4552433732313a20746f6b656e20616c7265616479206d696e7465640000000081525060200191505060405180910390fd5b62000a756000838362000ba860201b60201c565b62000acd81600260008573ffffffffffffffffffffffffffffffffffffffff1673ffffffffffffffffffffffffffffffffffffffff16815260200190815260200160002062000c4960201b62003fab1790919060201c565b5062000aeb8183600362000c6b60201b62003fc5179092919060201c565b50808273ffffffffffffffffffffffffffffffffffffffff16600073ffffffffffffffffffffffffffffffffffffffff167fddf252ad1be2c89b69c2b068fc378daa952ba7f163c4a11628f55a4df523b3ef60405160405180910390a45050565b600062000b7c836000018373ffffffffffffffffffffffffffffffffffffffff1660001b62000ca860201b60201c565b905092915050565b600062000ba182600362000d2260201b62003ffa1790919060201c565b9050919050565b62000bc083838362000d4460201b620040141760201c565b807f8c0bdd7bca83c4e0c810cbecf44bc544a9dc0b9f265664e31ce0ce85f07a052b60146000848152602001908152602001600020546014600085815260200190815260200160002054600060026040518085815260200184815260200183815260200182600281111562000c3157fe5b815260200194505050505060405180910390a2505050565b600062000c63836000018360001b62000ca860201b60201c565b905092915050565b600062000c9f846000018460001b8473ffffffffffffffffffffffffffffffffffffffff1660001b62000d6160201b60201c565b90509392505050565b600062000cbc838362000e4060201b60201c565b62000d1757826000018290806001815401808255809150506001900390600052602060002001600090919091909150558260000180549050836001016000848152602001908152602001600020819055506001905062000d1c565b600090505b92915050565b600062000d3c836000018360001b62000e6360201b60201c565b905092915050565b62000d5c83838362000e8660201b620040241760201c565b505050565b600080846001016000858152602001908152602001600020549050600081141562000e0a5784600001604051806040016040528086815260200185815250908060018154018082558091505060019003906000526020600020906002020160009091909190915060008201518160000155602082015181600101555050846000018054905085600101600086815260200190815260200160002081905550600191505062000e39565b8285600001600183038154811062000e1e57fe5b90600052602060002090600202016001018190555060009150505b9392505050565b600080836001016000848152602001908152602001600020541415905092915050565b600080836001016000848152602001908152602001600020541415905092915050565b62000e9e83838362000f0b60201b620040921760201c565b62000eae62000f1060201b60201c565b1562000f06576040517f08c379a000000000000000000000000000000000000000000000000000000000815260040180806020018281038252602b815260200180620072b1602b913960400191505060405180910390fd5b505050565b505050565b6000600b60009054906101000a900460ff16905090565b828054600181600116156101000203166002900490600052602060002090601f016020900481019282601f1062000f6a57805160ff191683800117855562000f9b565b8280016001018555821562000f9b579182015b8281111562000f9a57825182559160200191906001019062000f7d565b5b50905062000faa919062000fae565b5090565b5b8082111562000fc957600081600090555060010162000faf565b5090565b6162d48062000fdd6000396000f3fe6080604052600436106103035760003560e01c80636c0360eb11610190578063c87b56dd116100dc578063d5a83d3e11610095578063ec9c074c1161006f578063ec9c074c146113bb578063f528a627146113e6578063f7ea7a3d14611476578063f84ddf0b146114b157610312565b8063d5a83d3e146112db578063e63ab1e914611309578063e985e9c51461133457610312565b8063c87b56dd146110d8578063ca15c8731461118c578063ce14617d146111db578063d45351e514611206578063d539139314611255578063d547741f1461128057610312565b806395d89b4111610149578063a217fddf11610123578063a217fddf14610f13578063a22cb46514610f3e578063a49bccca14610f9b578063b88d4fde14610fc657610312565b806395d89b4114610e1a57806398c5c07814610eaa5780639e7bb46714610ee557610312565b80636c0360eb14610c03578063704ec03614610c9357806370a0823114610cbe5780638456cb5914610d235780639010d07c14610d3a57806391d1485414610da957610312565b806336568abe1161024f57806356a5c926116102085780635e468dfd116101e25780635e468dfd14610ac35780636352211e14610afe5780636a5be68614610b635780636a62784214610bb257610312565b806356a5c9261461099657806356b1b300146109ce5780635c975abb14610a9657610312565b806336568abe146107575780633f4ba83a146107b257806342842e0e146107c957806342966c68146108445780634f6ccce71461087f57806355f804b3146108ce57610312565b806318160ddd116102bc578063248a9ca311610296578063248a9ca314610603578063289ea0a9146106525780632f2ff15d1461068d5780632f745c59146106e857610312565b806318160ddd1461051c5780632131c68c1461054757806323b872dd1461058857610312565b8063017f1e341461031757806301ffc9a71461035257806306fdde03146103c2578063081812fc14610452578063095ea7b3146104b75780631249c58b1461051257610312565b36610312576103106114dc565b005b600080fd5b34801561032357600080fd5b506103506004803603602081101561033a57600080fd5b81019080803590602001909291905050506118db565b005b34801561035e57600080fd5b506103aa6004803603602081101561037557600080fd5b8101908080357bffffffffffffffffffffffffffffffffffffffffffffffffffffffff191690602001909291905050506119df565b60405180821515815260200191505060405180910390f35b3480156103ce57600080fd5b506103d7611a47565b6040518080602001828103825283818151815260200191508051906020019080838360005b838110156104175780820151818401526020810190506103fc565b50505050905090810190601f1680156104445780820380516001836020036101000a031916815260200191505b509250505060405180910390f35b34801561045e57600080fd5b5061048b6004803603602081101561047557600080fd5b8101908080359060200190929190505050611ae9565b604051808273ffffffffffffffffffffffffffffffffffffffff16815260200191505060405180910390f35b3480156104c357600080fd5b50610510600480360360408110156104da57600080fd5b81019080803573ffffffffffffffffffffffffffffffffffffffff16906020019092919080359060200190929190505050611b84565b005b61051a6114dc565b005b34801561052857600080fd5b50610531611cc8565b6040518082815260200191505060405180910390f35b34801561055357600080fd5b5061055c611cd2565b604051808273ffffffffffffffffffffffffffffffffffffffff16815260200191505060405180910390f35b34801561059457600080fd5b50610601600480360360608110156105ab57600080fd5b81019080803573ffffffffffffffffffffffffffffffffffffffff169060200190929190803573ffffffffffffffffffffffffffffffffffffffff16906020019092919080359060200190929190505050611cf8565b005b34801561060f57600080fd5b5061063c6004803603602081101561062657600080fd5b8101908080359060200190929190505050611d6e565b6040518082815260200191505060405180910390f35b34801561065e57600080fd5b5061068b6004803603602081101561067557600080fd5b8101908080359060200190929190505050611d8d565b005b34801561069957600080fd5b506106e6600480360360408110156106b057600080fd5b8101908080359060200190929190803573ffffffffffffffffffffffffffffffffffffffff169060200190929190505050611e91565b005b3480156106f457600080fd5b506107416004803603604081101561070b57600080fd5b81019080803573ffffffffffffffffffffffffffffffffffffffff16906020019092919080359060200190929190505050611f1a565b6040518082815260200191505060405180910390f35b34801561076357600080fd5b506107b06004803603604081101561077a57600080fd5b8101908080359060200190929190803573ffffffffffffffffffffffffffffffffffffffff169060200190929190505050611f75565b005b3480156107be57600080fd5b506107c761200e565b005b3480156107d557600080fd5b50610842600480360360608110156107ec57600080fd5b81019080803573ffffffffffffffffffffffffffffffffffffffff169060200190929190803573ffffffffffffffffffffffffffffffffffffffff1690602001909291908035906020019092919050505061209e565b005b34801561085057600080fd5b5061087d6004803603602081101561086757600080fd5b81019080803590602001909291905050506120be565b005b34801561088b57600080fd5b506108b8600480360360208110156108a257600080fd5b8101908080359060200190929190505050612130565b6040518082815260200191505060405180910390f35b3480156108da57600080fd5b50610994600480360360208110156108f157600080fd5b810190808035906020019064010000000081111561090e57600080fd5b82018360208201111561092057600080fd5b8035906020019184600183028401116401000000008311171561094257600080fd5b91908080601f016020809104026020016040519081016040528093929190818152602001838380828437600081840152601f19601f820116905080830192505050505050509192919290505050612153565b005b6109cc600480360360408110156109ac57600080fd5b8101908080359060200190929190803590602001909291905050506122be565b005b3480156109da57600080fd5b50610a94600480360360208110156109f157600080fd5b8101908080359060200190640100000000811115610a0e57600080fd5b820183602082011115610a2057600080fd5b80359060200191846001830284011164010000000083111715610a4257600080fd5b91908080601f016020809104026020016040519081016040528093929190818152602001838380828437600081840152601f19601f820116905080830192505050505050509192919290505050612693565b005b348015610aa257600080fd5b50610aab61280c565b60405180821515815260200191505060405180910390f35b348015610acf57600080fd5b50610afc60048036036020811015610ae657600080fd5b8101908080359060200190929190505050612823565b005b348015610b0a57600080fd5b50610b3760048036036020811015610b2157600080fd5b8101908080359060200190929190505050612927565b604051808273ffffffffffffffffffffffffffffffffffffffff16815260200191505060405180910390f35b348015610b6f57600080fd5b50610b9c60048036036020811015610b8657600080fd5b810190808035906020019092919050505061295e565b6040518082815260200191505060405180910390f35b348015610bbe57600080fd5b50610c0160048036036020811015610bd557600080fd5b81019080803573ffffffffffffffffffffffffffffffffffffffff16906020019092919050505061297b565b005b348015610c0f57600080fd5b50610c186129e9565b6040518080602001828103825283818151815260200191508051906020019080838360005b83811015610c58578082015181840152602081019050610c3d565b50505050905090810190601f168015610c855780820380516001836020036101000a031916815260200191505b509250505060405180910390f35b348015610c9f57600080fd5b50610ca8612a8b565b6040518082815260200191505060405180910390f35b348015610cca57600080fd5b50610d0d60048036036020811015610ce157600080fd5b81019080803573ffffffffffffffffffffffffffffffffffffffff169060200190929190505050612a91565b6040518082815260200191505060405180910390f35b348015610d2f57600080fd5b50610d38612b66565b005b348015610d4657600080fd5b50610d7d60048036036040811015610d5d57600080fd5b810190808035906020019092919080359060200190929190505050612bf6565b604051808273ffffffffffffffffffffffffffffffffffffffff16815260200191505060405180910390f35b348015610db557600080fd5b50610e0260048036036040811015610dcc57600080fd5b8101908080359060200190929190803573ffffffffffffffffffffffffffffffffffffffff169060200190929190505050612c27565b60405180821515815260200191505060405180910390f35b348015610e2657600080fd5b50610e2f612c58565b6040518080602001828103825283818151815260200191508051906020019080838360005b83811015610e6f578082015181840152602081019050610e54565b50505050905090810190601f168015610e9c5780820380516001836020036101000a031916815260200191505b509250505060405180910390f35b348015610eb657600080fd5b50610ee360048036036020811015610ecd57600080fd5b8101908080359060200190929190505050612cfa565b005b610f1160048036036020811015610efb57600080fd5b8101908080359060200190929190505050612dfe565b005b348015610f1f57600080fd5b50610f28613143565b6040518082815260200191505060405180910390f35b348015610f4a57600080fd5b50610f9960048036036040811015610f6157600080fd5b81019080803573ffffffffffffffffffffffffffffffffffffffff16906020019092919080351515906020019092919050505061314a565b005b348015610fa757600080fd5b50610fb0613300565b6040518082815260200191505060405180910390f35b348015610fd257600080fd5b506110d660048036036080811015610fe957600080fd5b81019080803573ffffffffffffffffffffffffffffffffffffffff169060200190929190803573ffffffffffffffffffffffffffffffffffffffff169060200190929190803590602001909291908035906020019064010000000081111561105057600080fd5b82018360208201111561106257600080fd5b8035906020019184600183028401116401000000008311171561108457600080fd5b91908080601f016020809104026020016040519081016040528093929190818152602001838380828437600081840152601f19601f820116905080830192505050505050509192919290505050613306565b005b3480156110e457600080fd5b50611111600480360360208110156110fb57600080fd5b810190808035906020019092919050505061337e565b6040518080602001828103825283818151815260200191508051906020019080838360005b83811015611151578082015181840152602081019050611136565b50505050905090810190601f16801561117e5780820380516001836020036101000a031916815260200191505b509250505060405180910390f35b34801561119857600080fd5b506111c5600480360360208110156111af57600080fd5b810190808035906020019092919050505061364f565b6040518082815260200191505060405180910390f35b3480156111e757600080fd5b506111f0613675565b6040518082815260200191505060405180910390f35b34801561121257600080fd5b5061123f6004803603602081101561122957600080fd5b810190808035906020019092919050505061367b565b6040518082815260200191505060405180910390f35b34801561126157600080fd5b5061126a6136b5565b6040518082815260200191505060405180910390f35b34801561128c57600080fd5b506112d9600480360360408110156112a357600080fd5b8101908080359060200190929190803573ffffffffffffffffffffffffffffffffffffffff1690602001909291905050506136d9565b005b611307600480360360208110156112f157600080fd5b8101908080359060200190929190505050613762565b005b34801561131557600080fd5b5061131e613c0d565b6040518082815260200191505060405180910390f35b34801561134057600080fd5b506113a36004803603604081101561135757600080fd5b81019080803573ffffffffffffffffffffffffffffffffffffffff169060200190929190803573ffffffffffffffffffffffffffffffffffffffff169060200190929190505050613c31565b60405180821515815260200191505060405180910390f35b3480156113c757600080fd5b506113d0613cc5565b6040518082815260200191505060405180910390f35b3480156113f257600080fd5b506113fb613ccb565b6040518080602001828103825283818151815260200191508051906020019080838360005b8381101561143b578082015181840152602081019050611420565b50505050905090810190601f1680156114685780820380516001836020036101000a031916815260200191505b509250505060405180910390f35b34801561148257600080fd5b506114af6004803603602081101561149957600080fd5b8101908080359060200190929190505050613d69565b005b3480156114bd57600080fd5b506114c6613e6d565b6040518082815260200191505060405180910390f35b6002600d541415611555576040517f08c379a000000000000000000000000000000000000000000000000000000000815260040180806020018281038252601f8152602001807f5265656e7472616e637947756172643a207265656e7472616e742063616c6c0081525060200191505060405180910390fd5b6002600d8190555060115461156a600c613f6d565b106115dd576040517f08c379a00000000000000000000000000000000000000000000000000000000081526004018080602001828103825260148152602001807f546f74616c20737570706c79207265616368656400000000000000000000000081525060200191505060405180910390fd5b6115e7600c613f57565b60006115f3600c613f6d565b90506115ff600e613e7e565b60146000838152602001908152602001600020819055506000600f60009054906101000a900473ffffffffffffffffffffffffffffffffffffffff1673ffffffffffffffffffffffffffffffffffffffff1660105460405180600001905060006040518083038185875af1925050503d806000811461169a576040519150601f19603f3d011682016040523d82523d6000602084013e61169f565b606091505b50509050806116f9576040517f08c379a000000000000000000000000000000000000000000000000000000000815260040180806020018281038252603a815260200180615fa0603a913960400191505060405180910390fd5b60006117106010543461409790919063ffffffff16565b9050600081111561180057600061172561411a565b73ffffffffffffffffffffffffffffffffffffffff168260405180600001905060006040518083038185875af1925050503d8060008114611782576040519150601f19603f3d011682016040523d82523d6000602084013e611787565b606091505b50509050806117fe576040517f08c379a00000000000000000000000000000000000000000000000000000000081526004018080602001828103825260188152602001807f4661696c656420746f2072657475726e206578636573732e000000000000000081525060200191505060405180910390fd5b505b61181161180b61411a565b84614122565b827f5f7666687319b40936f33c188908d86aea154abd3f4127b4fa0a3f04f303c7da60146000868152602001908152602001600020546040518082815260200191505060405180910390a2827f8c0bdd7bca83c4e0c810cbecf44bc544a9dc0b9f265664e31ce0ce85f07a052b600060146000878152602001908152602001600020546010546000604051808581526020018481526020018381526020018260028111156118bb57fe5b815260200194505050505060405180910390a25050506001600d81905550565b600f60009054906101000a900473ffffffffffffffffffffffffffffffffffffffff1673ffffffffffffffffffffffffffffffffffffffff163373ffffffffffffffffffffffffffffffffffffffff161461199e576040517f08c379a00000000000000000000000000000000000000000000000000000000081526004018080602001828103825260178152602001807f4e6f742063616c6c65642066726f6d207468652064616f00000000000000000081525060200191505060405180910390fd5b806010819055507f6a08b3bba14e54ee218389c7c7444e619f3897465dc06757938cfd01a6957f6c816040518082815260200191505060405180910390a150565b600060016000837bffffffffffffffffffffffffffffffffffffffffffffffffffffffff19167bffffffffffffffffffffffffffffffffffffffffffffffffffffffff1916815260200190815260200160002060009054906101000a900460ff169050919050565b606060078054600181600116156101000203166002900480601f016020809104026020016040519081016040528092919081815260200182805460018160011615610100020316600290048015611adf5780601f10611ab457610100808354040283529160200191611adf565b820191906000526020600020905b815481529060010190602001808311611ac257829003601f168201915b5050505050905090565b6000611af482614316565b611b49576040517f08c379a000000000000000000000000000000000000000000000000000000000815260040180806020018281038252602c81526020018061612a602c913960400191505060405180910390fd5b6005600083815260200190815260200160002060009054906101000a900473ffffffffffffffffffffffffffffffffffffffff169050919050565b6000611b8f82612927565b90508073ffffffffffffffffffffffffffffffffffffffff168373ffffffffffffffffffffffffffffffffffffffff161415611c16576040517f08c379a00000000000000000000000000000000000000000000000000000000081526004018080602001828103825260218152602001806161ae6021913960400191505060405180910390fd5b8073ffffffffffffffffffffffffffffffffffffffff16611c3561411a565b73ffffffffffffffffffffffffffffffffffffffff161480611c645750611c6381611c5e61411a565b613c31565b5b611cb9576040517f08c379a000000000000000000000000000000000000000000000000000000000815260040180806020018281038252603881526020018061605c6038913960400191505060405180910390fd5b611cc38383614333565b505050565b6000601154905090565b600f60009054906101000a900473ffffffffffffffffffffffffffffffffffffffff1681565b611d09611d0361411a565b826143ec565b611d5e576040517f08c379a00000000000000000000000000000000000000000000000000000000081526004018080602001828103825260318152602001806161cf6031913960400191505060405180910390fd5b611d698383836144e0565b505050565b6000806000838152602001908152602001600020600201549050919050565b600f60009054906101000a900473ffffffffffffffffffffffffffffffffffffffff1673ffffffffffffffffffffffffffffffffffffffff163373ffffffffffffffffffffffffffffffffffffffff1614611e50576040517f08c379a00000000000000000000000000000000000000000000000000000000081526004018080602001828103825260178152602001807f4e6f742063616c6c65642066726f6d207468652064616f00000000000000000081525060200191505060405180910390fd5b806016819055507fb1d78271daba9a366098d40b64d642a1399cabaa22c5234bacc87e92cef82ae6816040518082815260200191505060405180910390a150565b611eb760008084815260200190815260200160002060020154611eb261411a565b612c27565b611f0c576040517f08c379a000000000000000000000000000000000000000000000000000000000815260040180806020018281038252602f815260200180615e6c602f913960400191505060405180910390fd5b611f168282614723565b5050565b6000611f6d82600260008673ffffffffffffffffffffffffffffffffffffffff1673ffffffffffffffffffffffffffffffffffffffff1681526020019081526020016000206147b690919063ffffffff16565b905092915050565b611f7d61411a565b73ffffffffffffffffffffffffffffffffffffffff168173ffffffffffffffffffffffffffffffffffffffff1614612000576040517f08c379a000000000000000000000000000000000000000000000000000000000815260040180806020018281038252602f815260200180616270602f913960400191505060405180910390fd5b61200a82826147d0565b5050565b61203f7f65d7a28e3265b37a6474929f336521b332c1681b933f6cb9f3376673440d862a61203a61411a565b612c27565b612094576040517f08c379a00000000000000000000000000000000000000000000000000000000081526004018080602001828103825260408152602001806162306040913960400191505060405180910390fd5b61209c614863565b565b6120b983838360405180602001604052806000815250613306565b505050565b6120cf6120c961411a565b826143ec565b612124576040517f08c379a00000000000000000000000000000000000000000000000000000000081526004018080602001828103825260308152602001806162006030913960400191505060405180910390fd5b61212d8161494e565b50565b600080612147836003614a8890919063ffffffff16565b50905080915050919050565b600f60009054906101000a900473ffffffffffffffffffffffffffffffffffffffff1673ffffffffffffffffffffffffffffffffffffffff163373ffffffffffffffffffffffffffffffffffffffff1614612216576040517f08c379a00000000000000000000000000000000000000000000000000000000081526004018080602001828103825260178152602001807f4e6f742063616c6c65642066726f6d207468652064616f00000000000000000081525060200191505060405180910390fd5b61221f81614ab4565b7f5411e8ebf1636d9e83d5fc4900bf80cbac82e8790da2a4c94db4895e889eedf6816040518080602001828103825283818151815260200191508051906020019080838360005b83811015612281578082015181840152602081019050612266565b50505050905090810190601f1680156122ae5780820380516001836020036101000a031916815260200191505b509250505060405180910390a150565b6002600d541415612337576040517f08c379a000000000000000000000000000000000000000000000000000000000815260040180806020018281038252601f8152602001807f5265656e7472616e637947756172643a207265656e7472616e742063616c6c0081525060200191505060405180910390fd5b6002600d81905550600081116123b5576040517f08c379a000000000000000000000000000000000000000000000000000000000815260040180806020018281038252601c8152602001807f4261736520636861726163746572206e6f74206d6f72706861626c650000000081525060200191505060405180910390fd5b6123be82614ace565b60006123c98361367b565b90506000600f60009054906101000a900473ffffffffffffffffffffffffffffffffffffffff1673ffffffffffffffffffffffffffffffffffffffff168260405180600001905060006040518083038185875af1925050503d806000811461244d576040519150601f19603f3d011682016040523d82523d6000602084013e612452565b606091505b50509050806124ac576040517f08c379a000000000000000000000000000000000000000000000000000000000815260040180806020018281038252603a815260200180615fa0603a913960400191505060405180910390fd5b60006124c1833461409790919063ffffffff16565b905060008111156125b15760006124d661411a565b73ffffffffffffffffffffffffffffffffffffffff168260405180600001905060006040518083038185875af1925050503d8060008114612533576040519150601f19603f3d011682016040523d82523d6000602084013e612538565b606091505b50509050806125af576040517f08c379a00000000000000000000000000000000000000000000000000000000081526004018080602001828103825260188152602001807f4661696c656420746f2072657475726e206578636573732e000000000000000081525060200191505060405180910390fd5b505b600060146000878152602001908152602001600020549050600060646125d7600e613e7e565b816125de57fe5b0690506125ec828288614b64565b60146000898152602001908152602001600020819055506015600088815260200190815260200160002060008154809291906001019190505550867f8c0bdd7bca83c4e0c810cbecf44bc544a9dc0b9f265664e31ce0ce85f07a052b83848860016040518085815260200184815260200183815260200182600281111561266f57fe5b815260200194505050505060405180910390a250505050506001600d819055505050565b600f60009054906101000a900473ffffffffffffffffffffffffffffffffffffffff1673ffffffffffffffffffffffffffffffffffffffff163373ffffffffffffffffffffffffffffffffffffffff1614612756576040517f08c379a00000000000000000000000000000000000000000000000000000000081526004018080602001828103825260178152602001807f4e6f742063616c6c65642066726f6d207468652064616f00000000000000000081525060200191505060405180910390fd5b806013908051906020019061276c929190615d39565b507fe1ea6e62a0b360acc613f2021ab3c5d36492a25bce6d0d9940a6b497c87363df816040518080602001828103825283818151815260200191508051906020019080838360005b838110156127cf5780820151818401526020810190506127b4565b50505050905090810190601f1680156127fc5780820380516001836020036101000a031916815260200191505b509250505060405180910390a150565b6000600b60009054906101000a900460ff16905090565b600f60009054906101000a900473ffffffffffffffffffffffffffffffffffffffff1673ffffffffffffffffffffffffffffffffffffffff163373ffffffffffffffffffffffffffffffffffffffff16146128e6576040517f08c379a00000000000000000000000000000000000000000000000000000000081526004018080602001828103825260178152602001807f4e6f742063616c6c65642066726f6d207468652064616f00000000000000000081525060200191505060405180910390fd5b806012819055507fa0e0113404674c6f545b966e8ec54db3066a6c720a0054f0bc4b0c900cfff243816040518082815260200191505060405180910390a150565b6000612957826040518060600160405280602981526020016160be602991396003614c7b9092919063ffffffff16565b9050919050565b600060146000838152602001908152602001600020549050919050565b6040517f08c379a00000000000000000000000000000000000000000000000000000000081526004018080602001828103825260178152602001807f53686f756c64206e6f74207573652074686973206f6e6500000000000000000081525060200191505060405180910390fd5b6060600a8054600181600116156101000203166002900480601f016020809104026020016040519081016040528092919081815260200182805460018160011615610100020316600290048015612a815780601f10612a5657610100808354040283529160200191612a81565b820191906000526020600020905b815481529060010190602001808311612a6457829003601f168201915b5050505050905090565b60105481565b60008073ffffffffffffffffffffffffffffffffffffffff168273ffffffffffffffffffffffffffffffffffffffff161415612b18576040517f08c379a000000000000000000000000000000000000000000000000000000000815260040180806020018281038252602a815260200180616094602a913960400191505060405180910390fd5b612b5f600260008473ffffffffffffffffffffffffffffffffffffffff1673ffffffffffffffffffffffffffffffffffffffff168152602001908152602001600020614c9a565b9050919050565b612b977f65d7a28e3265b37a6474929f336521b332c1681b933f6cb9f3376673440d862a612b9261411a565b612c27565b612bec576040517f08c379a000000000000000000000000000000000000000000000000000000000815260040180806020018281038252603e815260200180615f14603e913960400191505060405180910390fd5b612bf4614caf565b565b6000612c1f82600080868152602001908152602001600020600001614d9b90919063ffffffff16565b905092915050565b6000612c5082600080868152602001908152602001600020600001614db590919063ffffffff16565b905092915050565b606060088054600181600116156101000203166002900480601f016020809104026020016040519081016040528092919081815260200182805460018160011615610100020316600290048015612cf05780601f10612cc557610100808354040283529160200191612cf0565b820191906000526020600020905b815481529060010190602001808311612cd357829003601f168201915b5050505050905090565b600f60009054906101000a900473ffffffffffffffffffffffffffffffffffffffff1673ffffffffffffffffffffffffffffffffffffffff163373ffffffffffffffffffffffffffffffffffffffff1614612dbd576040517f08c379a00000000000000000000000000000000000000000000000000000000081526004018080602001828103825260178152602001807f4e6f742063616c6c65642066726f6d207468652064616f00000000000000000081525060200191505060405180910390fd5b806017819055507fff4da8d01e7184cc8c9d6c57d64b336b1de6d676b6215408967bd071c8da7e3d816040518082815260200191505060405180910390a150565b6002600d541415612e77576040517f08c379a000000000000000000000000000000000000000000000000000000000815260040180806020018281038252601f8152602001807f5265656e7472616e637947756172643a207265656e7472616e742063616c6c0081525060200191505060405180910390fd5b6002600d81905550612e8881614ace565b6000600f60009054906101000a900473ffffffffffffffffffffffffffffffffffffffff1673ffffffffffffffffffffffffffffffffffffffff1660175460405180600001905060006040518083038185875af1925050503d8060008114612f0c576040519150601f19603f3d011682016040523d82523d6000602084013e612f11565b606091505b5050905080612f6b576040517f08c379a000000000000000000000000000000000000000000000000000000000815260040180806020018281038252603a815260200180615fa0603a913960400191505060405180910390fd5b6000612f826017543461409790919063ffffffff16565b90506000811115613072576000612f9761411a565b73ffffffffffffffffffffffffffffffffffffffff168260405180600001905060006040518083038185875af1925050503d8060008114612ff4576040519150601f19603f3d011682016040523d82523d6000602084013e612ff9565b606091505b5050905080613070576040517f08c379a00000000000000000000000000000000000000000000000000000000081526004018080602001828103825260188152602001807f4661696c656420746f2072657475726e206578636573732e000000000000000081525060200191505060405180910390fd5b505b600060146000858152602001908152602001600020549050613094600e613e7e565b601460008681526020019081526020016000208190555060006015600086815260200190815260200160002081905550837f8c0bdd7bca83c4e0c810cbecf44bc544a9dc0b9f265664e31ce0ce85f07a052b82601460008881526020019081526020016000205460175460016040518085815260200184815260200183815260200182600281111561312257fe5b815260200194505050505060405180910390a25050506001600d8190555050565b6000801b81565b61315261411a565b73ffffffffffffffffffffffffffffffffffffffff168273ffffffffffffffffffffffffffffffffffffffff1614156131f3576040517f08c379a00000000000000000000000000000000000000000000000000000000081526004018080602001828103825260198152602001807f4552433732313a20617070726f766520746f2063616c6c65720000000000000081525060200191505060405180910390fd5b806006600061320061411a565b73ffffffffffffffffffffffffffffffffffffffff1673ffffffffffffffffffffffffffffffffffffffff16815260200190815260200160002060008473ffffffffffffffffffffffffffffffffffffffff1673ffffffffffffffffffffffffffffffffffffffff16815260200190815260200160002060006101000a81548160ff0219169083151502179055508173ffffffffffffffffffffffffffffffffffffffff166132ad61411a565b73ffffffffffffffffffffffffffffffffffffffff167f17307eab39ab6107e8899845ad3d59bd9653f200f220920489ca2b5937696c318360405180821515815260200191505060405180910390a35050565b60125481565b61331761331161411a565b836143ec565b61336c576040517f08c379a00000000000000000000000000000000000000000000000000000000081526004018080602001828103825260318152602001806161cf6031913960400191505060405180910390fd5b61337884848484614de5565b50505050565b606061338982614316565b6133de576040517f08c379a000000000000000000000000000000000000000000000000000000000815260040180806020018281038252602f81526020018061617f602f913960400191505060405180910390fd5b6060600960008481526020019081526020016000208054600181600116156101000203166002900480601f0160208091040260200160405190810160405280929190818152602001828054600181600116156101000203166002900480156134875780601f1061345c57610100808354040283529160200191613487565b820191906000526020600020905b81548152906001019060200180831161346a57829003601f168201915b5050505050905060606134986129e9565b90506000815114156134ae57819250505061364a565b60008251111561357f5780826040516020018083805190602001908083835b602083106134f057805182526020820191506020810190506020830392506134cd565b6001836020036101000a03801982511681845116808217855250505050505090500182805190602001908083835b60208310613541578051825260208201915060208101905060208303925061351e565b6001836020036101000a038019825116818451168082178552505050505050905001925050506040516020818303038152906040529250505061364a565b8061358985614e57565b6040516020018083805190602001908083835b602083106135bf578051825260208201915060208101905060208303925061359c565b6001836020036101000a03801982511681845116808217855250505050505090500182805190602001908083835b6020831061361057805182526020820191506020810190506020830392506135ed565b6001836020036101000a03801982511681845116808217855250505050505090500192505050604051602081830303815290604052925050505b919050565b600061366e600080848152602001908152602001600020600001614f9e565b9050919050565b60165481565b600080601560008481526020019081526020016000205490506136ad816001901b601654614fb390919063ffffffff16565b915050919050565b7f9f2df0fed2c77648de5860a4cc508cd0818c85b8b8a1ab4ceeef8d981c8956a681565b6136ff600080848152602001908152602001600020600201546136fa61411a565b612c27565b613754576040517f08c379a000000000000000000000000000000000000000000000000000000000815260040180806020018281038252603081526020018061602c6030913960400191505060405180910390fd5b61375e82826147d0565b5050565b6002600d5414156137db576040517f08c379a000000000000000000000000000000000000000000000000000000000815260040180806020018281038252601f8152602001807f5265656e7472616e637947756172643a207265656e7472616e742063616c6c0081525060200191505060405180910390fd5b6002600d8190555060125481111561383e576040517f08c379a000000000000000000000000000000000000000000000000000000000815260040180806020018281038252602a815260200180615f76602a913960400191505060405180910390fd5b60115461385d8261384f600c613f6d565b61503990919063ffffffff16565b11156138d1576040517f08c379a00000000000000000000000000000000000000000000000000000000081526004018080602001828103825260148152602001807f546f74616c20737570706c79207265616368656400000000000000000000000081525060200191505060405180910390fd5b6000600f60009054906101000a900473ffffffffffffffffffffffffffffffffffffffff1673ffffffffffffffffffffffffffffffffffffffff1661392183601054614fb390919063ffffffff16565b60405180600001905060006040518083038185875af1925050503d8060008114613967576040519150601f19603f3d011682016040523d82523d6000602084013e61396c565b606091505b50509050806139c6576040517f08c379a000000000000000000000000000000000000000000000000000000000815260040180806020018281038252603a815260200180615fa0603a913960400191505060405180910390fd5b60006139ef6139e084601054614fb390919063ffffffff16565b3461409790919063ffffffff16565b90506000811115613adf576000613a0461411a565b73ffffffffffffffffffffffffffffffffffffffff168260405180600001905060006040518083038185875af1925050503d8060008114613a61576040519150601f19603f3d011682016040523d82523d6000602084013e613a66565b606091505b5050905080613add576040517f08c379a00000000000000000000000000000000000000000000000000000000081526004018080602001828103825260188152602001807f4661696c656420746f2072657475726e206578636573732e000000000000000081525060200191505060405180910390fd5b505b60005b83811015613bff57613af4600c613f57565b6000613b00600c613f6d565b9050613b0c600e613e7e565b6014600083815260200190815260200160002081905550613b34613b2e61411a565b82614122565b807f5f7666687319b40936f33c188908d86aea154abd3f4127b4fa0a3f04f303c7da60146000848152602001908152602001600020546040518082815260200191505060405180910390a2807f8c0bdd7bca83c4e0c810cbecf44bc544a9dc0b9f265664e31ce0ce85f07a052b60006014600085815260200190815260200160002054601054600060405180858152602001848152602001838152602001826002811115613bde57fe5b815260200194505050505060405180910390a2508080600101915050613ae2565b5050506001600d8190555050565b7f65d7a28e3265b37a6474929f336521b332c1681b933f6cb9f3376673440d862a81565b6000600660008473ffffffffffffffffffffffffffffffffffffffff1673ffffffffffffffffffffffffffffffffffffffff16815260200190815260200160002060008373ffffffffffffffffffffffffffffffffffffffff1673ffffffffffffffffffffffffffffffffffffffff16815260200190815260200160002060009054906101000a900460ff16905092915050565b60175481565b60138054600181600116156101000203166002900480601f016020809104026020016040519081016040528092919081815260200182805460018160011615610100020316600290048015613d615780601f10613d3657610100808354040283529160200191613d61565b820191906000526020600020905b815481529060010190602001808311613d4457829003601f168201915b505050505081565b600f60009054906101000a900473ffffffffffffffffffffffffffffffffffffffff1673ffffffffffffffffffffffffffffffffffffffff163373ffffffffffffffffffffffffffffffffffffffff1614613e2c576040517f08c379a00000000000000000000000000000000000000000000000000000000081526004018080602001828103825260178152602001807f4e6f742063616c6c65642066726f6d207468652064616f00000000000000000081525060200191505060405180910390fd5b806011819055507fc8b17f75f53401f272e9ee7fa431e81ba33779363238896180425a422420c8f7816040518082815260200191505060405180910390a150565b6000613e79600c613f6d565b905090565b600033325a8460000154424343406064430340604051602001808973ffffffffffffffffffffffffffffffffffffffff1660601b81526014018873ffffffffffffffffffffffffffffffffffffffff1660601b81526014018781526020018681526020018581526020018481526020018381526020018281526020019850505050505050505060405160208183030381529060405280519060200120604051602001808281526020019150506040516020818303038152906040528051906020012060001c826000018190555081600001549050919050565b6001816000016000828254019250508190555050565b600081600001549050919050565b6000613fa3836000018373ffffffffffffffffffffffffffffffffffffffff1660001b6150c1565b905092915050565b6000613fbd836000018360001b6150c1565b905092915050565b6000613ff1846000018460001b8473ffffffffffffffffffffffffffffffffffffffff1660001b615131565b90509392505050565b600061400c836000018360001b61520d565b905092915050565b61401f838383614024565b505050565b61402f838383614092565b61403761280c565b1561408d576040517f08c379a000000000000000000000000000000000000000000000000000000000815260040180806020018281038252602b815260200180615e41602b913960400191505060405180910390fd5b505050565b505050565b60008282111561410f576040517f08c379a000000000000000000000000000000000000000000000000000000000815260040180806020018281038252601e8152602001807f536166654d6174683a207375627472616374696f6e206f766572666c6f77000081525060200191505060405180910390fd5b818303905092915050565b600033905090565b600073ffffffffffffffffffffffffffffffffffffffff168273ffffffffffffffffffffffffffffffffffffffff1614156141c5576040517f08c379a00000000000000000000000000000000000000000000000000000000081526004018080602001828103825260208152602001807f4552433732313a206d696e7420746f20746865207a65726f206164647265737381525060200191505060405180910390fd5b6141ce81614316565b15614241576040517f08c379a000000000000000000000000000000000000000000000000000000000815260040180806020018281038252601c8152602001807f4552433732313a20746f6b656e20616c7265616479206d696e7465640000000081525060200191505060405180910390fd5b61424d60008383615230565b61429e81600260008573ffffffffffffffffffffffffffffffffffffffff1673ffffffffffffffffffffffffffffffffffffffff168152602001908152602001600020613fab90919063ffffffff16565b506142b581836003613fc59092919063ffffffff16565b50808273ffffffffffffffffffffffffffffffffffffffff16600073ffffffffffffffffffffffffffffffffffffffff167fddf252ad1be2c89b69c2b068fc378daa952ba7f163c4a11628f55a4df523b3ef60405160405180910390a45050565b600061432c826003613ffa90919063ffffffff16565b9050919050565b816005600083815260200190815260200160002060006101000a81548173ffffffffffffffffffffffffffffffffffffffff021916908373ffffffffffffffffffffffffffffffffffffffff160217905550808273ffffffffffffffffffffffffffffffffffffffff166143a683612927565b73ffffffffffffffffffffffffffffffffffffffff167f8c5be1e5ebec7d5bd14f71427d1e84f3dd0314c0f7b2291e5b200ac8c7c3b92560405160405180910390a45050565b60006143f782614316565b61444c576040517f08c379a000000000000000000000000000000000000000000000000000000000815260040180806020018281038252602c815260200180616000602c913960400191505060405180910390fd5b600061445783612927565b90508073ffffffffffffffffffffffffffffffffffffffff168473ffffffffffffffffffffffffffffffffffffffff1614806144c657508373ffffffffffffffffffffffffffffffffffffffff166144ae84611ae9565b73ffffffffffffffffffffffffffffffffffffffff16145b806144d757506144d68185613c31565b5b91505092915050565b8273ffffffffffffffffffffffffffffffffffffffff1661450082612927565b73ffffffffffffffffffffffffffffffffffffffff161461456c576040517f08c379a00000000000000000000000000000000000000000000000000000000081526004018080602001828103825260298152602001806161566029913960400191505060405180910390fd5b600073ffffffffffffffffffffffffffffffffffffffff168273ffffffffffffffffffffffffffffffffffffffff1614156145f2576040517f08c379a0000000000000000000000000000000000000000000000000000000008152600401808060200182810382526024815260200180615f526024913960400191505060405180910390fd5b6145fd838383615230565b614608600082614333565b61465981600260008673ffffffffffffffffffffffffffffffffffffffff1673ffffffffffffffffffffffffffffffffffffffff1681526020019081526020016000206152c390919063ffffffff16565b506146ab81600260008573ffffffffffffffffffffffffffffffffffffffff1673ffffffffffffffffffffffffffffffffffffffff168152602001908152602001600020613fab90919063ffffffff16565b506146c281836003613fc59092919063ffffffff16565b50808273ffffffffffffffffffffffffffffffffffffffff168473ffffffffffffffffffffffffffffffffffffffff167fddf252ad1be2c89b69c2b068fc378daa952ba7f163c4a11628f55a4df523b3ef60405160405180910390a4505050565b61474a81600080858152602001908152602001600020600001613f7b90919063ffffffff16565b156147b25761475761411a565b73ffffffffffffffffffffffffffffffffffffffff168173ffffffffffffffffffffffffffffffffffffffff16837f2f8788117e7eff1d82e926ec794901d17c78024a50270940304540a733656f0d60405160405180910390a45b5050565b60006147c583600001836152dd565b60001c905092915050565b6147f78160008085815260200190815260200160002060000161536090919063ffffffff16565b1561485f5761480461411a565b73ffffffffffffffffffffffffffffffffffffffff168173ffffffffffffffffffffffffffffffffffffffff16837ff6391f5c32d9c69d2a47ea670b442974b53935d1edc7fd64eb21e047a839171b60405160405180910390a45b5050565b61486b61280c565b6148dd576040517f08c379a00000000000000000000000000000000000000000000000000000000081526004018080602001828103825260148152602001807f5061757361626c653a206e6f742070617573656400000000000000000000000081525060200191505060405180910390fd5b6000600b60006101000a81548160ff0219169083151502179055507f5db9ee0a495bf2e6ff9c91a7834c1ba4fdd244a5e8aa4e537bd38aeae4b073aa61492161411a565b604051808273ffffffffffffffffffffffffffffffffffffffff16815260200191505060405180910390a1565b600061495982612927565b905061496781600084615230565b614972600083614333565b600060096000848152602001908152602001600020805460018160011615610100020316600290049050146149c1576009600083815260200190815260200160002060006149c09190615db9565b5b614a1282600260008473ffffffffffffffffffffffffffffffffffffffff1673ffffffffffffffffffffffffffffffffffffffff1681526020019081526020016000206152c390919063ffffffff16565b50614a2782600361539090919063ffffffff16565b5081600073ffffffffffffffffffffffffffffffffffffffff168273ffffffffffffffffffffffffffffffffffffffff167fddf252ad1be2c89b69c2b068fc378daa952ba7f163c4a11628f55a4df523b3ef60405160405180910390a45050565b600080600080614a9b86600001866153aa565b915091508160001c8160001c9350935050509250929050565b80600a9080519060200190614aca929190615d39565b5050565b614ad661411a565b73ffffffffffffffffffffffffffffffffffffffff16614af582612927565b73ffffffffffffffffffffffffffffffffffffffff1614614b61576040517f08c379a0000000000000000000000000000000000000000000000000000000008152600401808060200182810382526047815260200180615ecd6047913960600191505060405180910390fd5b50565b600060268210614bdc576040517f08c379a00000000000000000000000000000000000000000000000000000000081526004018080602001828103825260118152602001807f4261642067656e6520706f736974696f6e00000000000000000000000000000081525060200191505060405180910390fd5b600080831115614c0257614bff60028402600a0a8661544390919063ffffffff16565b90505b6000614c3b60026001860102600a0a614c2d60026001880102600a0a896154cc90919063ffffffff16565b614fb390919063ffffffff16565b9050600060028502600a0a86029050614c6f83614c61838561503990919063ffffffff16565b61503990919063ffffffff16565b93505050509392505050565b6000614c8e846000018460001b84615555565b60001c90509392505050565b6000614ca88260000161564b565b9050919050565b614cb761280c565b15614d2a576040517f08c379a00000000000000000000000000000000000000000000000000000000081526004018080602001828103825260108152602001807f5061757361626c653a207061757365640000000000000000000000000000000081525060200191505060405180910390fd5b6001600b60006101000a81548160ff0219169083151502179055507f62e78cea01bee320cd4e420270b5ea74000d11b0c9f74754ebdbfc544b05a258614d6e61411a565b604051808273ffffffffffffffffffffffffffffffffffffffff16815260200191505060405180910390a1565b6000614daa83600001836152dd565b60001c905092915050565b6000614ddd836000018373ffffffffffffffffffffffffffffffffffffffff1660001b61565c565b905092915050565b614df08484846144e0565b614dfc8484848461567f565b614e51576040517f08c379a0000000000000000000000000000000000000000000000000000000008152600401808060200182810382526032815260200180615e9b6032913960400191505060405180910390fd5b50505050565b60606000821415614e9f576040518060400160405280600181526020017f30000000000000000000000000000000000000000000000000000000000000008152509050614f99565b600082905060005b60008214614ec9578080600101915050600a8281614ec157fe5b049150614ea7565b60608167ffffffffffffffff81118015614ee257600080fd5b506040519080825280601f01601f191660200182016040528015614f155781602001600182028036833780820191505090505b50905060006001830390508593505b60008414614f9157600a8481614f3657fe5b0660300160f81b82828060019003935081518110614f5057fe5b60200101907effffffffffffffffffffffffffffffffffffffffffffffffffffffffffffff1916908160001a905350600a8481614f8957fe5b049350614f24565b819450505050505b919050565b6000614fac8260000161564b565b9050919050565b600080831415614fc65760009050615033565b6000828402905082848281614fd757fe5b041461502e576040517f08c379a00000000000000000000000000000000000000000000000000000000081526004018080602001828103825260218152602001806161096021913960400191505060405180910390fd5b809150505b92915050565b6000808284019050838110156150b7576040517f08c379a000000000000000000000000000000000000000000000000000000000815260040180806020018281038252601b8152602001807f536166654d6174683a206164646974696f6e206f766572666c6f77000000000081525060200191505060405180910390fd5b8091505092915050565b60006150cd838361565c565b61512657826000018290806001815401808255809150506001900390600052602060002001600090919091909150558260000180549050836001016000848152602001908152602001600020819055506001905061512b565b600090505b92915050565b60008084600101600085815260200190815260200160002054905060008114156151d857846000016040518060400160405280868152602001858152509080600181540180825580915050600190039060005260206000209060020201600090919091909150600082015181600001556020820151816001015550508460000180549050856001016000868152602001908152602001600020819055506001915050615206565b828560000160018303815481106151eb57fe5b90600052602060002090600202016001018190555060009150505b9392505050565b600080836001016000848152602001908152602001600020541415905092915050565b61523b838383614014565b807f8c0bdd7bca83c4e0c810cbecf44bc544a9dc0b9f265664e31ce0ce85f07a052b6014600084815260200190815260200160002054601460008581526020019081526020016000205460006002604051808581526020018481526020018381526020018260028111156152ab57fe5b815260200194505050505060405180910390a2505050565b60006152d5836000018360001b615898565b905092915050565b60008183600001805490501161533e576040517f08c379a0000000000000000000000000000000000000000000000000000000008152600401808060200182810382526022815260200180615e1f6022913960400191505060405180910390fd5b82600001828154811061534d57fe5b9060005260206000200154905092915050565b6000615388836000018373ffffffffffffffffffffffffffffffffffffffff1660001b615898565b905092915050565b60006153a2836000018360001b615980565b905092915050565b6000808284600001805490501161540c576040517f08c379a00000000000000000000000000000000000000000000000000000000081526004018080602001828103825260228152602001806160e76022913960400191505060405180910390fd5b600084600001848154811061541d57fe5b906000526020600020906002020190508060000154816001015492509250509250929050565b60008082116154ba576040517f08c379a00000000000000000000000000000000000000000000000000000000081526004018080602001828103825260188152602001807f536166654d6174683a206d6f64756c6f206279207a65726f000000000000000081525060200191505060405180910390fd5b8183816154c357fe5b06905092915050565b6000808211615543576040517f08c379a000000000000000000000000000000000000000000000000000000000815260040180806020018281038252601a8152602001807f536166654d6174683a206469766973696f6e206279207a65726f00000000000081525060200191505060405180910390fd5b81838161554c57fe5b04905092915050565b6000808460010160008581526020019081526020016000205490506000811415839061561c576040517f08c379a00000000000000000000000000000000000000000000000000000000081526004018080602001828103825283818151815260200191508051906020019080838360005b838110156155e15780820151818401526020810190506155c6565b50505050905090810190601f16801561560e5780820380516001836020036101000a031916815260200191505b509250505060405180910390fd5b5084600001600182038154811061562f57fe5b9060005260206000209060020201600101549150509392505050565b600081600001805490509050919050565b600080836001016000848152602001908152602001600020541415905092915050565b60006156a08473ffffffffffffffffffffffffffffffffffffffff16615a99565b6156ad5760019050615890565b606061581763150b7a0260e01b6156c261411a565b888787604051602401808573ffffffffffffffffffffffffffffffffffffffff1681526020018473ffffffffffffffffffffffffffffffffffffffff16815260200183815260200180602001828103825283818151815260200191508051906020019080838360005b8381101561574657808201518184015260208101905061572b565b50505050905090810190601f1680156157735780820380516001836020036101000a031916815260200191505b5095505050505050604051602081830303815290604052907bffffffffffffffffffffffffffffffffffffffffffffffffffffffff19166020820180517bffffffffffffffffffffffffffffffffffffffffffffffffffffffff8381831617835250505050604051806060016040528060328152602001615e9b603291398773ffffffffffffffffffffffffffffffffffffffff16615aac9092919063ffffffff16565b9050600081806020019051602081101561583057600080fd5b8101908080519060200190929190505050905063150b7a0260e01b7bffffffffffffffffffffffffffffffffffffffffffffffffffffffff1916817bffffffffffffffffffffffffffffffffffffffffffffffffffffffff191614925050505b949350505050565b6000808360010160008481526020019081526020016000205490506000811461597457600060018203905060006001866000018054905003905060008660000182815481106158e357fe5b906000526020600020015490508087600001848154811061590057fe5b906000526020600020018190555060018301876001016000838152602001908152602001600020819055508660000180548061593857fe5b6001900381819060005260206000200160009055905586600101600087815260200190815260200160002060009055600194505050505061597a565b60009150505b92915050565b60008083600101600084815260200190815260200160002054905060008114615a8d57600060018203905060006001866000018054905003905060008660000182815481106159cb57fe5b90600052602060002090600202019050808760000184815481106159eb57fe5b9060005260206000209060020201600082015481600001556001820154816001015590505060018301876001016000836000015481526020019081526020016000208190555086600001805480615a3e57fe5b6001900381819060005260206000209060020201600080820160009055600182016000905550509055866001016000878152602001908152602001600020600090556001945050505050615a93565b60009150505b92915050565b600080823b905060008111915050919050565b6060615abb8484600085615ac4565b90509392505050565b606082471015615b1f576040517f08c379a0000000000000000000000000000000000000000000000000000000008152600401808060200182810382526026815260200180615fda6026913960400191505060405180910390fd5b615b2885615a99565b615b9a576040517f08c379a000000000000000000000000000000000000000000000000000000000815260040180806020018281038252601d8152602001807f416464726573733a2063616c6c20746f206e6f6e2d636f6e747261637400000081525060200191505060405180910390fd5b600060608673ffffffffffffffffffffffffffffffffffffffff1685876040518082805190602001908083835b60208310615bea5780518252602082019150602081019050602083039250615bc7565b6001836020036101000a03801982511681845116808217855250505050505090500191505060006040518083038185875af1925050503d8060008114615c4c576040519150601f19603f3d011682016040523d82523d6000602084013e615c51565b606091505b5091509150615c61828286615c6d565b92505050949350505050565b60608315615c7d57829050615d32565b600083511115615c905782518084602001fd5b816040517f08c379a00000000000000000000000000000000000000000000000000000000081526004018080602001828103825283818151815260200191508051906020019080838360005b83811015615cf7578082015181840152602081019050615cdc565b50505050905090810190601f168015615d245780820380516001836020036101000a031916815260200191505b509250505060405180910390fd5b9392505050565b828054600181600116156101000203166002900490600052602060002090601f016020900481019282601f10615d7a57805160ff1916838001178555615da8565b82800160010185558215615da8579182015b82811115615da7578251825591602001919060010190615d8c565b5b509050615db59190615e01565b5090565b50805460018160011615610100020316600290046000825580601f10615ddf5750615dfe565b601f016020900490600052602060002090810190615dfd9190615e01565b5b50565b5b80821115615e1a576000816000905550600101615e02565b509056fe456e756d657261626c655365743a20696e646578206f7574206f6620626f756e64734552433732315061757361626c653a20746f6b656e207472616e73666572207768696c6520706175736564416363657373436f6e74726f6c3a2073656e646572206d75737420626520616e2061646d696e20746f206772616e744552433732313a207472616e7366657220746f206e6f6e20455243373231526563656976657220696d706c656d656e746572506f6c796d6f7270685769746847656e654368616e6765723a2063616e6e6f74206368616e67652067656e6f6d65206f6620746f6b656e2074686174206973206e6f74206f776e4552433732315072657365744d696e7465725061757365724175746f49643a206d75737420686176652070617573657220726f6c6520746f2070617573654552433732313a207472616e7366657220746f20746865207a65726f206164647265737343616e6e6f742062756c6b20627579206d6f7265207468616e2074686520707265736574206c696d6974416464726573733a20756e61626c6520746f2073656e642076616c75652c20726563697069656e74206d61792068617665207265766572746564416464726573733a20696e73756666696369656e742062616c616e636520666f722063616c6c4552433732313a206f70657261746f7220717565727920666f72206e6f6e6578697374656e7420746f6b656e416363657373436f6e74726f6c3a2073656e646572206d75737420626520616e2061646d696e20746f207265766f6b654552433732313a20617070726f76652063616c6c6572206973206e6f74206f776e6572206e6f7220617070726f76656420666f7220616c6c4552433732313a2062616c616e636520717565727920666f7220746865207a65726f20616464726573734552433732313a206f776e657220717565727920666f72206e6f6e6578697374656e7420746f6b656e456e756d657261626c654d61703a20696e646578206f7574206f6620626f756e6473536166654d6174683a206d756c7469706c69636174696f6e206f766572666c6f774552433732313a20617070726f76656420717565727920666f72206e6f6e6578697374656e7420746f6b656e4552433732313a207472616e73666572206f6620746f6b656e2074686174206973206e6f74206f776e4552433732314d657461646174613a2055524920717565727920666f72206e6f6e6578697374656e7420746f6b656e4552433732313a20617070726f76616c20746f2063757272656e74206f776e65724552433732313a207472616e736665722063616c6c6572206973206e6f74206f776e6572206e6f7220617070726f7665644552433732314275726e61626c653a2063616c6c6572206973206e6f74206f776e6572206e6f7220617070726f7665644552433732315072657365744d696e7465725061757365724175746f49643a206d75737420686176652070617573657220726f6c6520746f20756e7061757365416363657373436f6e74726f6c3a2063616e206f6e6c792072656e6f756e636520726f6c657320666f722073656c66a2646970667358221220b02e97a84db87011fd69cd2594dbdf66cf11dedd250ab53a2d25380459bb103864736f6c634300070300334552433732315061757361626c653a20746f6b656e207472616e73666572207768696c6520706175736564",
  "linkReferences": {},
  "deployedLinkReferences": {}
}