{"address":"0xAB28a90EF37a397baAE3c5B78F6EAA8e511d0847","bytecode":"0x60806040523480156200001157600080fd5b506040516200529038038062005290833981016040819052620000349162000be0565b80600001518160200151826040015183606001518460a00151856101000151866101400151868686868481858585828281600290805190602001906200007c92919062000a13565b5080516200009290600390602084019062000a13565b5050600c805460ff19169055508051620000b490600e90602084019062000a13565b50620000c2600033620001fc565b620000ee7f9f2df0fed2c77648de5860a4cc508cd0818c85b8b8a1ab4ceeef8d981c8956a633620001fc565b6200011a7f65d7a28e3265b37a6474929f336521b332c1681b933f6cb9f3376673440d862a33620001fc565b50506001600f5550601080546001600160a01b0319166001600160a01b039290921691909117905580516200015790601390602084019062000a13565b50505060179590955550505060185550505060c0830151601955505060e0810151601a55610120810151601b556101408101518051620001a09160139160209091019062000a13565b50806101600151601c60006101000a8154816001600160a01b0302191690836001600160a01b03160217905550620001e460116200020c60201b620025171760201c565b506080810151620001f590620002ae565b5062000e4c565b62000208828262000334565b5050565b600033325a8454424380406200022460648362000d4d565b6040516001600160601b03196060998a1b811660208301529790981b909616603488015260488701949094526068860192909252608885015260a884015260c88301524060e88201526101080160408051601f198184030181528282528051602091820120908301520160408051601f198184030181529190528051602090910120918290555090565b60005b818110156200020857620002d1600d6200037760201b620025bc1760201c565b6000620002ea600d6200038060201b620025c51760201c565b90506200030360116200020c60201b620025171760201c565b6000828152601260205260409020556200031e338262000384565b50806200032b8162000d67565b915050620002b1565b6200034b8282620004de60201b620025c91760201c565b6000828152600160209081526040909120620003729183906200264d6200057e821b17901c565b505050565b80546001019055565b5490565b6001600160a01b038216620003e05760405162461bcd60e51b815260206004820181905260248201527f4552433732313a206d696e7420746f20746865207a65726f206164647265737360448201526064015b60405180910390fd5b6000818152600460205260409020546001600160a01b031615620004475760405162461bcd60e51b815260206004820152601c60248201527f4552433732313a20746f6b656e20616c7265616479206d696e746564000000006044820152606401620003d7565b62000455600083836200059e565b6001600160a01b03821660009081526005602052604081208054600192906200048090849062000d85565b909155505060008181526004602052604080822080546001600160a01b0319166001600160a01b03861690811790915590518392907fddf252ad1be2c89b69c2b068fc378daa952ba7f163c4a11628f55a4df523b3ef908290a45050565b6000828152602081815260408083206001600160a01b038516845290915290205460ff1662000208576000828152602081815260408083206001600160a01b03851684529091529020805460ff191660011790556200053a3390565b6001600160a01b0316816001600160a01b0316837f2f8788117e7eff1d82e926ec794901d17c78024a50270940304540a733656f0d60405160405180910390a45050565b600062000595836001600160a01b0384166200060b565b90505b92915050565b620005b68383836200065d60201b620026621760201c565b60008181526012602052604080822054905183927f8c0bdd7bca83c4e0c810cbecf44bc544a9dc0b9f265664e31ce0ce85f07a052b92620005fe929091829160029062000da0565b60405180910390a2505050565b6000818152600183016020526040812054620006545750815460018181018455600084815260208082209093018490558454848252828601909352604090209190915562000598565b50600062000598565b620003728383836200067560201b620026691760201c565b6200068d838383620006f660201b620026db1760201c565b600c5460ff1615620003725760405162461bcd60e51b815260206004820152602b60248201527f4552433732315061757361626c653a20746f6b656e207472616e73666572207760448201526a1a1a5b19481c185d5cd95960aa1b6064820152608401620003d7565b6200070e8383836200037260201b620010531760201c565b6001600160a01b0383166200076c576200076681600a80546000838152600b60205260408120829055600182018355919091527fc65a7bb8d6351c1cf70c95a316cc6a92839c986682d98bc35f958f4883f9d2a80155565b62000792565b816001600160a01b0316836001600160a01b0316146200079257620007928382620007d2565b6001600160a01b038216620007ac5762000372816200087f565b826001600160a01b0316826001600160a01b031614620003725762000372828262000939565b60006001620007ec846200098a60201b620019911760201c565b620007f8919062000d4d565b6000838152600960205260409020549091508082146200084c576001600160a01b03841660009081526008602090815260408083208584528252808320548484528184208190558352600990915290208190555b5060009182526009602090815260408084208490556001600160a01b039094168352600881528383209183525290812055565b600a54600090620008939060019062000d4d565b6000838152600b6020526040812054600a8054939450909284908110620008be57620008be62000de3565b9060005260206000200154905080600a8381548110620008e257620008e262000de3565b6000918252602080832090910192909255828152600b9091526040808220849055858252812055600a8054806200091d576200091d62000df9565b6001900381819060005260206000200160009055905550505050565b600062000951836200098a60201b620019911760201c565b6001600160a01b039093166000908152600860209081526040808320868452825280832085905593825260099052919091209190915550565b60006001600160a01b038216620009f75760405162461bcd60e51b815260206004820152602a60248201527f4552433732313a2062616c616e636520717565727920666f7220746865207a65604482015269726f206164647265737360b01b6064820152608401620003d7565b506001600160a01b031660009081526005602052604090205490565b82805462000a219062000e0f565b90600052602060002090601f01602090048101928262000a45576000855562000a90565b82601f1062000a6057805160ff191683800117855562000a90565b8280016001018555821562000a90579182015b8281111562000a9057825182559160200191906001019062000a73565b5062000a9e92915062000aa2565b5090565b5b8082111562000a9e576000815560010162000aa3565b634e487b7160e01b600052604160045260246000fd5b60405161018081016001600160401b038111828210171562000af55762000af562000ab9565b60405290565b604051601f8201601f191681016001600160401b038111828210171562000b265762000b2662000ab9565b604052919050565b600082601f83011262000b4057600080fd5b81516001600160401b0381111562000b5c5762000b5c62000ab9565b602062000b72601f8301601f1916820162000afb565b828152858284870101111562000b8757600080fd5b60005b8381101562000ba757858101830151828201840152820162000b8a565b8381111562000bb95760008385840101525b5095945050505050565b80516001600160a01b038116811462000bdb57600080fd5b919050565b60006020828403121562000bf357600080fd5b81516001600160401b038082111562000c0b57600080fd5b90830190610180828603121562000c2157600080fd5b62000c2b62000acf565b82518281111562000c3b57600080fd5b62000c498782860162000b2e565b82525060208301518281111562000c5f57600080fd5b62000c6d8782860162000b2e565b60208301525060408301518281111562000c8657600080fd5b62000c948782860162000b2e565b60408301525062000ca86060840162000bc3565b60608201526080830151608082015260a083015160a082015260c083015160c082015260e083015160e0820152610100808401518183015250610120808401518183015250610140808401518381111562000d0257600080fd5b62000d108882870162000b2e565b828401525050610160915062000d2882840162000bc3565b91810191909152949350505050565b634e487b7160e01b600052601160045260246000fd5b60008282101562000d625762000d6262000d37565b500390565b600060001982141562000d7e5762000d7e62000d37565b5060010190565b6000821982111562000d9b5762000d9b62000d37565b500190565b8481526020810184905260408101839052608081016003831062000dd457634e487b7160e01b600052602160045260246000fd5b82606083015295945050505050565b634e487b7160e01b600052603260045260246000fd5b634e487b7160e01b600052603160045260246000fd5b600181811c9082168062000e2457607f821691505b6020821081141562000e4657634e487b7160e01b600052602260045260246000fd5b50919050565b6144348062000e5c6000396000f3fe6080604052600436106103a65760003560e01c80636a627842116101e7578063ab39a3c81161010d578063d547741f116100a0578063e985e9c51161006f578063e985e9c514610ace578063ec9c074c14610b17578063f528a62714610b2d578063f84ddf0b14610b4257600080fd5b8063d547741f14610a51578063d5a83d3e14610a71578063d5abeb0114610a84578063e63ab1e914610a9a57600080fd5b8063cccb6d0d116100dc578063cccb6d0d146109b7578063ce14617d146109e7578063d45351e5146109fd578063d539139314610a1d57600080fd5b8063ab39a3c814610937578063b88d4fde14610957578063c87b56dd14610977578063ca15c8731461099757600080fd5b80639010d07c116101855780639e7bb467116101545780639e7bb467146108d9578063a217fddf146108ec578063a22cb46514610901578063a49bccca1461092157600080fd5b80639010d07c1461086457806391d148541461088457806395d89b41146108a457806398c5c078146108b957600080fd5b8063704ec036116101c1578063704ec036146107f957806370a082311461080f578063784996a01461082f5780638456cb591461084f57600080fd5b80636a627842146107a45780636c0360eb146107c45780636f8b44b0146107d957600080fd5b80632f745c59116102cc57806355f804b31161026a5780635e468dfd116102395780635e468dfd146107175780636352211e146107375780636a1c03dc146107575780636a5be6861461077757600080fd5b806355f804b3146106ac57806356a5c926146106cc57806356b1b300146106df5780635c975abb146106ff57600080fd5b806342842e0e116102a657806342842e0e1461061c57806342966c681461063c5780634df774161461065c5780634f6ccce71461068c57600080fd5b80632f745c59146105c757806336568abe146105e75780633f4ba83a1461060757600080fd5b806318160ddd11610344578063248a9ca311610313578063248a9ca31461053757806325b081ff14610567578063289ea0a9146105875780632f2ff15d146105a757600080fd5b806318160ddd146104b55780632131c68c146104ca57806323b872dd146104ea57806323c8d07a1461050a57600080fd5b8063081812fc11610380578063081812fc14610431578063095ea7b3146104695780630a727edf146104895780631249c58b146104ad57600080fd5b8063017f1e34146103ba57806301ffc9a7146103da57806306fdde031461040f57600080fd5b366103b5576103b3610b57565b005b600080fd5b3480156103c657600080fd5b506103b36103d5366004613adb565b610da4565b3480156103e657600080fd5b506103fa6103f5366004613b0a565b610e0a565b60405190151581526020015b60405180910390f35b34801561041b57600080fd5b50610424610e1b565b6040516104069190613b7f565b34801561043d57600080fd5b5061045161044c366004613adb565b610ead565b6040516001600160a01b039091168152602001610406565b34801561047557600080fd5b506103b3610484366004613ba7565b610f42565b34801561049557600080fd5b5061049f601d5481565b604051908152602001610406565b6103b3610b57565b3480156104c157600080fd5b50600a5461049f565b3480156104d657600080fd5b50601054610451906001600160a01b031681565b3480156104f657600080fd5b506103b3610505366004613bd3565b611058565b34801561051657600080fd5b5061049f610525366004613adb565b60009081526015602052604090205490565b34801561054357600080fd5b5061049f610552366004613adb565b60009081526020819052604090206001015490565b34801561057357600080fd5b50601c54610451906001600160a01b031681565b34801561059357600080fd5b506103b36105a2366004613adb565b61108a565b3480156105b357600080fd5b506103b36105c2366004613c14565b6110e9565b3480156105d357600080fd5b5061049f6105e2366004613ba7565b61110f565b3480156105f357600080fd5b506103b3610602366004613c14565b6111a5565b34801561061357600080fd5b506103b3611223565b34801561062857600080fd5b506103b3610637366004613bd3565b6112cb565b34801561064857600080fd5b506103b3610657366004613adb565b6112e6565b34801561066857600080fd5b506103fa610677366004613adb565b60166020526000908152604090205460ff1681565b34801561069857600080fd5b5061049f6106a7366004613adb565b611360565b3480156106b857600080fd5b506103b36106c7366004613cd0565b6113f3565b6103b36106da366004613d19565b611455565b3480156106eb57600080fd5b506103b36106fa366004613cd0565b611695565b34801561070b57600080fd5b50600c5460ff166103fa565b34801561072357600080fd5b506103b3610732366004613adb565b611702565b34801561074357600080fd5b50610451610752366004613adb565b611761565b34801561076357600080fd5b506103b3610772366004613d50565b6117d8565b34801561078357600080fd5b5061049f610792366004613adb565b60009081526012602052604090205490565b3480156107b057600080fd5b506103b36107bf366004613d8d565b6118db565b3480156107d057600080fd5b50610424611923565b3480156107e557600080fd5b506103b36107f4366004613adb565b611932565b34801561080557600080fd5b5061049f60195481565b34801561081b57600080fd5b5061049f61082a366004613d8d565b611991565b34801561083b57600080fd5b506103b361084a366004613adb565b611a18565b34801561085b57600080fd5b506103b3611cb4565b34801561087057600080fd5b5061045161087f366004613d19565b611d58565b34801561089057600080fd5b506103fa61089f366004613c14565b611d77565b3480156108b057600080fd5b50610424611da0565b3480156108c557600080fd5b506103b36108d4366004613adb565b611daf565b6103b36108e7366004613adb565b611e0e565b3480156108f857600080fd5b5061049f600081565b34801561090d57600080fd5b506103b361091c366004613daa565b611fc7565b34801561092d57600080fd5b5061049f601b5481565b34801561094357600080fd5b506103b3610952366004613daa565b611fd2565b34801561096357600080fd5b506103b3610972366004613ddf565b612027565b34801561098357600080fd5b50610424610992366004613adb565b61205f565b3480156109a357600080fd5b5061049f6109b2366004613adb565b612139565b3480156109c357600080fd5b506103fa6109d2366004613d8d565b60146020526000908152604090205460ff1681565b3480156109f357600080fd5b5061049f60175481565b348015610a0957600080fd5b5061049f610a18366004613adb565b612150565b348015610a2957600080fd5b5061049f7f9f2df0fed2c77648de5860a4cc508cd0818c85b8b8a1ab4ceeef8d981c8956a681565b348015610a5d57600080fd5b506103b3610a6c366004613c14565b61216f565b6103b3610a7f366004613adb565b612195565b348015610a9057600080fd5b5061049f601a5481565b348015610aa657600080fd5b5061049f7f65d7a28e3265b37a6474929f336521b332c1681b933f6cb9f3376673440d862a81565b348015610ada57600080fd5b506103fa610ae9366004613e5f565b6001600160a01b03918216600090815260076020908152604080832093909416825291909152205460ff1690565b348015610b2357600080fd5b5061049f60185481565b348015610b3957600080fd5b5061042461247e565b348015610b4e57600080fd5b5061049f61250c565b6002600f541415610b835760405162461bcd60e51b8152600401610b7a90613e8d565b60405180910390fd5b6002600f55601a54600d5410610bd25760405162461bcd60e51b8152602060048201526014602482015273151bdd185b081cdd5c1c1b1e481c995858da195960621b6044820152606401610b7a565b610be0600d80546001019055565b6000610beb600d5490565b9050610bf76011612517565b60008281526012602052604080822092909255601054601954925191926001600160a01b03909116918381818185875af1925050503d8060008114610c58576040519150601f19603f3d011682016040523d82523d6000602084013e610c5d565b606091505b5050905080610c7e5760405162461bcd60e51b8152600401610b7a90613ec4565b6000610c956019543461279390919063ffffffff16565b90508015610d0757604051600090339083908381818185875af1925050503d8060008114610cdf576040519150601f19603f3d011682016040523d82523d6000602084013e610ce4565b606091505b5050905080610d055760405162461bcd60e51b8152600401610b7a90613f21565b505b610d11338461279f565b827f5f7666687319b40936f33c188908d86aea154abd3f4127b4fa0a3f04f303c7da6012600086815260200190815260200160002054604051610d5691815260200190565b60405180910390a260008381526012602052604080822054601954915186936000805160206143df83398151915293610d929391928390613f7a565b60405180910390a250506001600f5550565b6010546001600160a01b03163314610dce5760405162461bcd60e51b8152600401610b7a90613fa5565b60198190556040518181527f6a08b3bba14e54ee218389c7c7444e619f3897465dc06757938cfd01a6957f6c906020015b60405180910390a150565b6000610e15826128ed565b92915050565b606060028054610e2a90613fdc565b80601f0160208091040260200160405190810160405280929190818152602001828054610e5690613fdc565b8015610ea35780601f10610e7857610100808354040283529160200191610ea3565b820191906000526020600020905b815481529060010190602001808311610e8657829003601f168201915b5050505050905090565b6000818152600460205260408120546001600160a01b0316610f265760405162461bcd60e51b815260206004820152602c60248201527f4552433732313a20617070726f76656420717565727920666f72206e6f6e657860448201526b34b9ba32b73a103a37b5b2b760a11b6064820152608401610b7a565b506000908152600660205260409020546001600160a01b031690565b6000610f4d82611761565b9050806001600160a01b0316836001600160a01b03161415610fbb5760405162461bcd60e51b815260206004820152602160248201527f4552433732313a20617070726f76616c20746f2063757272656e74206f776e656044820152603960f91b6064820152608401610b7a565b336001600160a01b0382161480610fd75750610fd78133610ae9565b6110495760405162461bcd60e51b815260206004820152603860248201527f4552433732313a20617070726f76652063616c6c6572206973206e6f74206f7760448201527f6e6572206e6f7220617070726f76656420666f7220616c6c00000000000000006064820152608401610b7a565b6110538383612912565b505050565b611063335b82612980565b61107f5760405162461bcd60e51b8152600401610b7a90614017565b611053838383612a77565b6010546001600160a01b031633146110b45760405162461bcd60e51b8152600401610b7a90613fa5565b60178190556040518181527fb1d78271daba9a366098d40b64d642a1399cabaa22c5234bacc87e92cef82ae690602001610dff565b6000828152602081905260409020600101546111058133612c1e565b6110538383612c82565b600061111a83611991565b821061117c5760405162461bcd60e51b815260206004820152602b60248201527f455243373231456e756d657261626c653a206f776e657220696e646578206f7560448201526a74206f6620626f756e647360a81b6064820152608401610b7a565b506001600160a01b03919091166000908152600860209081526040808320938352929052205490565b6001600160a01b03811633146112155760405162461bcd60e51b815260206004820152602f60248201527f416363657373436f6e74726f6c3a2063616e206f6e6c792072656e6f756e636560448201526e103937b632b9903337b91039b2b63360891b6064820152608401610b7a565b61121f8282612ca4565b5050565b61124d7f65d7a28e3265b37a6474929f336521b332c1681b933f6cb9f3376673440d862a33611d77565b6112c1576040805162461bcd60e51b81526020600482015260248101919091527f4552433732315072657365744d696e7465725061757365724175746f49643a2060448201527f6d75737420686176652070617573657220726f6c6520746f20756e70617573656064820152608401610b7a565b6112c9612cc6565b565b61105383838360405180602001604052806000815250612027565b6112ef3361105d565b6113545760405162461bcd60e51b815260206004820152603060248201527f4552433732314275726e61626c653a2063616c6c6572206973206e6f74206f7760448201526f1b995c881b9bdc88185c1c1c9bdd995960821b6064820152608401610b7a565b61135d81612d59565b50565b600061136b600a5490565b82106113ce5760405162461bcd60e51b815260206004820152602c60248201527f455243373231456e756d657261626c653a20676c6f62616c20696e646578206f60448201526b7574206f6620626f756e647360a01b6064820152608401610b7a565b600a82815481106113e1576113e1614068565b90600052602060002001549050919050565b6010546001600160a01b0316331461141d5760405162461bcd60e51b8152600401610b7a90613fa5565b61142681612e00565b7f5411e8ebf1636d9e83d5fc4900bf80cbac82e8790da2a4c94db4895e889eedf681604051610dff9190613b7f565b6002600f5414156114785760405162461bcd60e51b8152600401610b7a90613e8d565b6002600f55806114ca5760405162461bcd60e51b815260206004820152601c60248201527f4261736520636861726163746572206e6f74206d6f72706861626c65000000006044820152606401610b7a565b6114d382612e13565b60006114de83612150565b6010546040519192506000916001600160a01b039091169083908381818185875af1925050503d8060008114611530576040519150601f19603f3d011682016040523d82523d6000602084013e611535565b606091505b50509050806115565760405162461bcd60e51b8152600401610b7a90613ec4565b60006115623484612793565b905080156115d457604051600090339083908381818185875af1925050503d80600081146115ac576040519150601f19603f3d011682016040523d82523d6000602084013e6115b1565b606091505b50509050806115d25760405162461bcd60e51b8152600401610b7a90613f21565b505b6000858152601260205260408120549060646115f06011612517565b6115fa9190614094565b9050611607828288612ec7565b6000888152601260209081526040808320939093556015905290812080549161162f836140be565b90915550506000878152601660209081526040808320805460ff1916600190811790915560129092529182902054915189926000805160206143df8339815191529261167f928792918b91613f7a565b60405180910390a250506001600f555050505050565b6010546001600160a01b031633146116bf5760405162461bcd60e51b8152600401610b7a90613fa5565b80516116d2906013906020840190613a42565b507f4a826ca029d05af64e411551e15f7ee1e70af0b9bc43a31154ace86a863397b481604051610dff9190613b7f565b6010546001600160a01b0316331461172c5760405162461bcd60e51b8152600401610b7a90613fa5565b601b8190556040518181527fa0e0113404674c6f545b966e8ec54db3066a6c720a0054f0bc4b0c900cfff24390602001610dff565b6000818152600460205260408120546001600160a01b031680610e155760405162461bcd60e51b815260206004820152602960248201527f4552433732313a206f776e657220717565727920666f72206e6f6e657869737460448201526832b73a103a37b5b2b760b91b6064820152608401610b7a565b6002600f5414156117fb5760405162461bcd60e51b8152600401610b7a90613e8d565b6002600f553360009081526014602052604090205460ff1661185f5760405162461bcd60e51b815260206004820152601a60248201527f4e6f742063616c6c65642066726f6d207468652074756e6e656c0000000000006044820152606401610b7a565b6000848152601260208181526040808420805488825560168452828620805460ff19168915151790556015845291909420859055919052905485906000805160206143df8339815191529083906118b584612150565b60016040516118c79493929190613f7a565b60405180910390a250506001600f55505050565b60405162461bcd60e51b815260206004820152601760248201527f53686f756c64206e6f74207573652074686973206f6e650000000000000000006044820152606401610b7a565b606061192d612fce565b905090565b6010546001600160a01b0316331461195c5760405162461bcd60e51b8152600401610b7a90613fa5565b601a8190556040518181527f28a10a2e0b5582da7164754cb994f6214b8af6aa7f7e003305fbc09e7106c51390602001610dff565b60006001600160a01b0382166119fc5760405162461bcd60e51b815260206004820152602a60248201527f4552433732313a2062616c616e636520717565727920666f7220746865207a65604482015269726f206164647265737360b01b6064820152608401610b7a565b506001600160a01b031660009081526005602052604090205490565b6002600f541415611a3b5760405162461bcd60e51b8152600401610b7a90613e8d565b6002600f55601c546040516331a9108f60e11b8152600481018390526001600160a01b0390911690636352211e9060240160206040518083038186803b158015611a8457600080fd5b505afa158015611a98573d6000803e3d6000fd5b505050506040513d601f19601f82011682018060405250810190611abc91906140d9565b6001600160a01b0316336001600160a01b031614611ad957600080fd5b601c5460405163352df34360e11b8152600481018390526000916001600160a01b031690636a5be6869060240160206040518083038186803b158015611b1e57600080fd5b505afa158015611b32573d6000803e3d6000fd5b505050506040513d601f19601f82011682018060405250810190611b5691906140f6565b601c54604051630852cd8d60e31b8152600481018590529192506001600160a01b0316906342966c6890602401600060405180830381600087803b158015611b9d57600080fd5b505af1158015611bb1573d6000803e3d6000fd5b5050601d54611bc4925090506001612fdd565b601d55601a54611bd5906001612fdd565b601a55611be6600d80546001019055565b6000611bf1600d5490565b60008181526012602052604090208390559050611c0f335b8261279f565b807f5f7666687319b40936f33c188908d86aea154abd3f4127b4fa0a3f04f303c7da6012600084815260200190815260200160002054604051611c5491815260200190565b60405180910390a280837f5bc298e251bf2d0dbbd7881e135ad8526c53dab8acd7e9777aea2c809fdf47e06012600085815260200190815260200160002054604051611ca291815260200190565b60405180910390a350506001600f5550565b611cde7f65d7a28e3265b37a6474929f336521b332c1681b933f6cb9f3376673440d862a33611d77565b611d505760405162461bcd60e51b815260206004820152603e60248201527f4552433732315072657365744d696e7465725061757365724175746f49643a2060448201527f6d75737420686176652070617573657220726f6c6520746f20706175736500006064820152608401610b7a565b6112c9612fe9565b6000828152600160205260408120611d709083613064565b9392505050565b6000918252602082815260408084206001600160a01b0393909316845291905290205460ff1690565b606060038054610e2a90613fdc565b6010546001600160a01b03163314611dd95760405162461bcd60e51b8152600401610b7a90613fa5565b60188190556040518181527fff4da8d01e7184cc8c9d6c57d64b336b1de6d676b6215408967bd071c8da7e3d90602001610dff565b6002600f541415611e315760405162461bcd60e51b8152600401610b7a90613e8d565b6002600f55611e3f81612e13565b6010546018546040516000926001600160a01b031691908381818185875af1925050503d8060008114611e8e576040519150601f19603f3d011682016040523d82523d6000602084013e611e93565b606091505b5050905080611eb45760405162461bcd60e51b8152600401610b7a90613ec4565b6000611ecb6018543461279390919063ffffffff16565b90508015611f3d57604051600090339083908381818185875af1925050503d8060008114611f15576040519150601f19603f3d011682016040523d82523d6000602084013e611f1a565b606091505b5050905080611f3b5760405162461bcd60e51b8152600401610b7a90613f21565b505b600083815260126020526040902054611f566011612517565b6000858152601260208181526040808420948555601582528084208490556016825292839020805460ff191660019081179091559190529154601854915187936000805160206143df83398151915293611fb4938793909290613f7a565b60405180910390a250506001600f555050565b61121f338383613070565b6010546001600160a01b03163314611ffc5760405162461bcd60e51b8152600401610b7a90613fa5565b6001600160a01b03919091166000908152601460205260409020805460ff1916911515919091179055565b6120313383612980565b61204d5760405162461bcd60e51b8152600401610b7a90614017565b6120598484848461313f565b50505050565b6000818152600460205260409020546060906001600160a01b03166120de5760405162461bcd60e51b815260206004820152602f60248201527f4552433732314d657461646174613a2055524920717565727920666f72206e6f60448201526e3732bc34b9ba32b73a103a37b5b2b760891b6064820152608401610b7a565b60006120e8612fce565b905060008151116121085760405180602001604052806000815250611d70565b8061211284613172565b60405160200161212392919061410f565b6040516020818303038152906040529392505050565b6000818152600160205260408120610e1590613270565b600081815260156020526040812054601754611d70906001831b61327a565b60008281526020819052604090206001015461218b8133612c1e565b6110538383612ca4565b6002600f5414156121b85760405162461bcd60e51b8152600401610b7a90613e8d565b6002600f55601b548111156122225760405162461bcd60e51b815260206004820152602a60248201527f43616e6e6f742062756c6b20627579206d6f7265207468616e20746865207072604482015269195cd95d081b1a5b5a5d60b21b6064820152608401610b7a565b601a5461223882612232600d5490565b90612fdd565b111561227d5760405162461bcd60e51b8152602060048201526014602482015273151bdd185b081cdd5c1c1b1e481c995858da195960621b6044820152606401610b7a565b6010546019546000916001600160a01b03169061229a908461327a565b604051600081818185875af1925050503d80600081146122d6576040519150601f19603f3d011682016040523d82523d6000602084013e6122db565b606091505b50509050806122fc5760405162461bcd60e51b8152600401610b7a90613ec4565b600061231d6123168460195461327a90919063ffffffff16565b3490612793565b9050801561238f57604051600090339083908381818185875af1925050503d8060008114612367576040519150601f19603f3d011682016040523d82523d6000602084013e61236c565b606091505b505090508061238d5760405162461bcd60e51b8152600401610b7a90613f21565b505b60005b83811015612473576123a8600d80546001019055565b60006123b3600d5490565b90506123bf6011612517565b6000828152601260205260409020556123d733611c09565b807f5f7666687319b40936f33c188908d86aea154abd3f4127b4fa0a3f04f303c7da601260008481526020019081526020016000205460405161241c91815260200190565b60405180910390a260008181526012602052604080822054601954915184936000805160206143df833981519152936124589391928390613f7a565b60405180910390a2508061246b816140be565b915050612392565b50506001600f555050565b6013805461248b90613fdc565b80601f01602080910402602001604051908101604052809291908181526020018280546124b790613fdc565b80156125045780601f106124d957610100808354040283529160200191612504565b820191906000526020600020905b8154815290600101906020018083116124e757829003601f168201915b505050505081565b600061192d600d5490565b600033325a84544243804061252d60648361413e565b6040516bffffffffffffffffffffffff196060998a1b811660208301529790981b909616603488015260488701949094526068860192909252608885015260a884015260c88301524060e88201526101080160408051601f198184030181528282528051602091820120908301520160408051601f198184030181529190528051602090910120918290555090565b80546001019055565b5490565b6125d38282611d77565b61121f576000828152602081815260408083206001600160a01b03851684529091529020805460ff191660011790556126093390565b6001600160a01b0316816001600160a01b0316837f2f8788117e7eff1d82e926ec794901d17c78024a50270940304540a733656f0d60405160405180910390a45050565b6000611d70836001600160a01b038416613286565b6110538383835b6126748383836126db565b600c5460ff16156110535760405162461bcd60e51b815260206004820152602b60248201527f4552433732315061757361626c653a20746f6b656e207472616e73666572207760448201526a1a1a5b19481c185d5cd95960aa1b6064820152608401610b7a565b6001600160a01b0383166127365761273181600a80546000838152600b60205260408120829055600182018355919091527fc65a7bb8d6351c1cf70c95a316cc6a92839c986682d98bc35f958f4883f9d2a80155565b612759565b816001600160a01b0316836001600160a01b0316146127595761275983826132d5565b6001600160a01b0382166127705761105381613372565b826001600160a01b0316826001600160a01b031614611053576110538282613421565b6000611d70828461413e565b6001600160a01b0382166127f55760405162461bcd60e51b815260206004820181905260248201527f4552433732313a206d696e7420746f20746865207a65726f20616464726573736044820152606401610b7a565b6000818152600460205260409020546001600160a01b03161561285a5760405162461bcd60e51b815260206004820152601c60248201527f4552433732313a20746f6b656e20616c7265616479206d696e746564000000006044820152606401610b7a565b61286660008383613465565b6001600160a01b038216600090815260056020526040812080546001929061288f908490614155565b909155505060008181526004602052604080822080546001600160a01b0319166001600160a01b03861690811790915590518392907fddf252ad1be2c89b69c2b068fc378daa952ba7f163c4a11628f55a4df523b3ef908290a45050565b60006001600160e01b0319821663780e9d6360e01b1480610e155750610e15826134b1565b600081815260066020526040902080546001600160a01b0319166001600160a01b038416908117909155819061294782611761565b6001600160a01b03167f8c5be1e5ebec7d5bd14f71427d1e84f3dd0314c0f7b2291e5b200ac8c7c3b92560405160405180910390a45050565b6000818152600460205260408120546001600160a01b03166129f95760405162461bcd60e51b815260206004820152602c60248201527f4552433732313a206f70657261746f7220717565727920666f72206e6f6e657860448201526b34b9ba32b73a103a37b5b2b760a11b6064820152608401610b7a565b6000612a0483611761565b9050806001600160a01b0316846001600160a01b03161480612a3f5750836001600160a01b0316612a3484610ead565b6001600160a01b0316145b80612a6f57506001600160a01b0380821660009081526007602090815260408083209388168352929052205460ff165b949350505050565b826001600160a01b0316612a8a82611761565b6001600160a01b031614612aee5760405162461bcd60e51b815260206004820152602560248201527f4552433732313a207472616e736665722066726f6d20696e636f72726563742060448201526437bbb732b960d91b6064820152608401610b7a565b6001600160a01b038216612b505760405162461bcd60e51b8152602060048201526024808201527f4552433732313a207472616e7366657220746f20746865207a65726f206164646044820152637265737360e01b6064820152608401610b7a565b612b5b838383613465565b612b66600082612912565b6001600160a01b0383166000908152600560205260408120805460019290612b8f90849061413e565b90915550506001600160a01b0382166000908152600560205260408120805460019290612bbd908490614155565b909155505060008181526004602052604080822080546001600160a01b0319166001600160a01b0386811691821790925591518493918716917fddf252ad1be2c89b69c2b068fc378daa952ba7f163c4a11628f55a4df523b3ef91a4505050565b612c288282611d77565b61121f57612c40816001600160a01b031660146134f1565b612c4b8360206134f1565b604051602001612c5c92919061416d565b60408051601f198184030181529082905262461bcd60e51b8252610b7a91600401613b7f565b612c8c82826125c9565b6000828152600160205260409020611053908261264d565b612cae828261368d565b600082815260016020526040902061105390826136f2565b600c5460ff16612d0f5760405162461bcd60e51b815260206004820152601460248201527314185d5cd8589b194e881b9bdd081c185d5cd95960621b6044820152606401610b7a565b600c805460ff191690557f5db9ee0a495bf2e6ff9c91a7834c1ba4fdd244a5e8aa4e537bd38aeae4b073aa335b6040516001600160a01b03909116815260200160405180910390a1565b6000612d6482611761565b9050612d7281600084613465565b612d7d600083612912565b6001600160a01b0381166000908152600560205260408120805460019290612da690849061413e565b909155505060008281526004602052604080822080546001600160a01b0319169055518391906001600160a01b038416907fddf252ad1be2c89b69c2b068fc378daa952ba7f163c4a11628f55a4df523b3ef908390a45050565b805161121f90600e906020840190613a42565b333b15612e625760405162461bcd60e51b815260206004820152601b60248201527f43616c6c65722063616e6e6f74206265206120636f6e747261637400000000006044820152606401610b7a565b333214612ebd5760405162461bcd60e51b8152602060048201526024808201527f4d73672073656e6465722073686f756c64206265206f726967696e616c206361604482015263363632b960e11b6064820152608401610b7a565b61135d8133613707565b600060268210612f0d5760405162461bcd60e51b81526020600482015260116024820152702130b21033b2b732903837b9b4ba34b7b760791b6044820152606401610b7a565b60008215612f3857612f35612f238460026141e2565b612f2e90600a6142e5565b86906137a6565b90505b6000612f8f612f48856001614155565b612f539060026141e2565b612f5e90600a6142e5565b612f89612f6c876001614155565b612f779060026141e2565b612f8290600a6142e5565b89906137b2565b9061327a565b90506000612f9e8560026141e2565b612fa990600a6142e5565b612fb390876141e2565b9050612fc3836122328484612fdd565b979650505050505050565b6060600e8054610e2a90613fdc565b6000611d708284614155565b600c5460ff161561302f5760405162461bcd60e51b815260206004820152601060248201526f14185d5cd8589b194e881c185d5cd95960821b6044820152606401610b7a565b600c805460ff191660011790557f62e78cea01bee320cd4e420270b5ea74000d11b0c9f74754ebdbfc544b05a258612d3c3390565b6000611d7083836137be565b816001600160a01b0316836001600160a01b031614156130d25760405162461bcd60e51b815260206004820152601960248201527f4552433732313a20617070726f766520746f2063616c6c6572000000000000006044820152606401610b7a565b6001600160a01b03838116600081815260076020908152604080832094871680845294825291829020805460ff191686151590811790915591519182527f17307eab39ab6107e8899845ad3d59bd9653f200f220920489ca2b5937696c31910160405180910390a3505050565b61314a848484612a77565b613156848484846137e8565b6120595760405162461bcd60e51b8152600401610b7a906142f1565b6060816131965750506040805180820190915260018152600360fc1b602082015290565b8160005b81156131c057806131aa816140be565b91506131b99050600a83614343565b915061319a565b60008167ffffffffffffffff8111156131db576131db613c44565b6040519080825280601f01601f191660200182016040528015613205576020820181803683370190505b5090505b8415612a6f5761321a60018361413e565b9150613227600a86614094565b613232906030614155565b60f81b81838151811061324757613247614068565b60200101906001600160f81b031916908160001a905350613269600a86614343565b9450613209565b6000610e15825490565b6000611d7082846141e2565b60008181526001830160205260408120546132cd57508154600181810184556000848152602080822090930184905584548482528286019093526040902091909155610e15565b506000610e15565b600060016132e284611991565b6132ec919061413e565b60008381526009602052604090205490915080821461333f576001600160a01b03841660009081526008602090815260408083208584528252808320548484528184208190558352600990915290208190555b5060009182526009602090815260408084208490556001600160a01b039094168352600881528383209183525290812055565b600a546000906133849060019061413e565b6000838152600b6020526040812054600a80549394509092849081106133ac576133ac614068565b9060005260206000200154905080600a83815481106133cd576133cd614068565b6000918252602080832090910192909255828152600b9091526040808220849055858252812055600a80548061340557613405614357565b6001900381819060005260206000200160009055905550505050565b600061342c83611991565b6001600160a01b039093166000908152600860209081526040808320868452825280832085905593825260099052919091209190915550565b613470838383612662565b60008181526012602052604080822054905183926000805160206143df833981519152926134a49290918291600290613f7a565b60405180910390a2505050565b60006001600160e01b031982166380ac58cd60e01b14806134e257506001600160e01b03198216635b5e139f60e01b145b80610e155750610e15826138f5565b606060006135008360026141e2565b61350b906002614155565b67ffffffffffffffff81111561352357613523613c44565b6040519080825280601f01601f19166020018201604052801561354d576020820181803683370190505b509050600360fc1b8160008151811061356857613568614068565b60200101906001600160f81b031916908160001a905350600f60fb1b8160018151811061359757613597614068565b60200101906001600160f81b031916908160001a90535060006135bb8460026141e2565b6135c6906001614155565b90505b600181111561363e576f181899199a1a9b1b9c1cb0b131b232b360811b85600f16601081106135fa576135fa614068565b1a60f81b82828151811061361057613610614068565b60200101906001600160f81b031916908160001a90535060049490941c936136378161436d565b90506135c9565b508315611d705760405162461bcd60e51b815260206004820181905260248201527f537472696e67733a20686578206c656e67746820696e73756666696369656e746044820152606401610b7a565b6136978282611d77565b1561121f576000828152602081815260408083206001600160a01b0385168085529252808320805460ff1916905551339285917ff6391f5c32d9c69d2a47ea670b442974b53935d1edc7fd64eb21e047a839171b9190a45050565b6000611d70836001600160a01b03841661391a565b806001600160a01b031661371a83611761565b6001600160a01b03161461121f5760405162461bcd60e51b815260206004820152604760248201527f506f6c796d6f7270685769746847656e654368616e6765723a2063616e6e6f7460448201527f206368616e67652067656e6f6d65206f6620746f6b656e2074686174206973206064820152663737ba1037bbb760c91b608482015260a401610b7a565b6000611d708284614094565b6000611d708284614343565b60008260000182815481106137d5576137d5614068565b9060005260206000200154905092915050565b60006001600160a01b0384163b156138ea57604051630a85bd0160e11b81526001600160a01b0385169063150b7a029061382c903390899088908890600401614384565b602060405180830381600087803b15801561384657600080fd5b505af1925050508015613876575060408051601f3d908101601f19168201909252613873918101906143c1565b60015b6138d0573d8080156138a4576040519150601f19603f3d011682016040523d82523d6000602084013e6138a9565b606091505b5080516138c85760405162461bcd60e51b8152600401610b7a906142f1565b805181602001fd5b6001600160e01b031916630a85bd0160e11b149050612a6f565b506001949350505050565b60006001600160e01b03198216635a05180f60e01b1480610e155750610e1582613a0d565b60008181526001830160205260408120548015613a0357600061393e60018361413e565b85549091506000906139529060019061413e565b90508181146139b757600086600001828154811061397257613972614068565b906000526020600020015490508087600001848154811061399557613995614068565b6000918252602080832090910192909255918252600188019052604090208390555b85548690806139c8576139c8614357565b600190038181906000526020600020016000905590558560010160008681526020019081526020016000206000905560019350505050610e15565b6000915050610e15565b60006001600160e01b03198216637965db0b60e01b1480610e1557506301ffc9a760e01b6001600160e01b0319831614610e15565b828054613a4e90613fdc565b90600052602060002090601f016020900481019282613a705760008555613ab6565b82601f10613a8957805160ff1916838001178555613ab6565b82800160010185558215613ab6579182015b82811115613ab6578251825591602001919060010190613a9b565b50613ac2929150613ac6565b5090565b5b80821115613ac25760008155600101613ac7565b600060208284031215613aed57600080fd5b5035919050565b6001600160e01b03198116811461135d57600080fd5b600060208284031215613b1c57600080fd5b8135611d7081613af4565b60005b83811015613b42578181015183820152602001613b2a565b838111156120595750506000910152565b60008151808452613b6b816020860160208601613b27565b601f01601f19169290920160200192915050565b602081526000611d706020830184613b53565b6001600160a01b038116811461135d57600080fd5b60008060408385031215613bba57600080fd5b8235613bc581613b92565b946020939093013593505050565b600080600060608486031215613be857600080fd5b8335613bf381613b92565b92506020840135613c0381613b92565b929592945050506040919091013590565b60008060408385031215613c2757600080fd5b823591506020830135613c3981613b92565b809150509250929050565b634e487b7160e01b600052604160045260246000fd5b600067ffffffffffffffff80841115613c7557613c75613c44565b604051601f8501601f19908116603f01168101908282118183101715613c9d57613c9d613c44565b81604052809350858152868686011115613cb657600080fd5b858560208301376000602087830101525050509392505050565b600060208284031215613ce257600080fd5b813567ffffffffffffffff811115613cf957600080fd5b8201601f81018413613d0a57600080fd5b612a6f84823560208401613c5a565b60008060408385031215613d2c57600080fd5b50508035926020909101359150565b80358015158114613d4b57600080fd5b919050565b60008060008060808587031215613d6657600080fd5b8435935060208501359250613d7d60408601613d3b565b9396929550929360600135925050565b600060208284031215613d9f57600080fd5b8135611d7081613b92565b60008060408385031215613dbd57600080fd5b8235613dc881613b92565b9150613dd660208401613d3b565b90509250929050565b60008060008060808587031215613df557600080fd5b8435613e0081613b92565b93506020850135613e1081613b92565b925060408501359150606085013567ffffffffffffffff811115613e3357600080fd5b8501601f81018713613e4457600080fd5b613e5387823560208401613c5a565b91505092959194509250565b60008060408385031215613e7257600080fd5b8235613e7d81613b92565b91506020830135613c3981613b92565b6020808252601f908201527f5265656e7472616e637947756172643a207265656e7472616e742063616c6c00604082015260600190565b6020808252603a908201527f416464726573733a20756e61626c6520746f2073656e642076616c75652c207260408201527f6563697069656e74206d61792068617665207265766572746564000000000000606082015260800190565b60208082526018908201527f4661696c656420746f2072657475726e206578636573732e0000000000000000604082015260600190565b60038110613f7657634e487b7160e01b600052602160045260246000fd5b9052565b848152602081018490526040810183905260808101613f9c6060830184613f58565b95945050505050565b60208082526017908201527f4e6f742063616c6c65642066726f6d207468652064616f000000000000000000604082015260600190565b600181811c90821680613ff057607f821691505b6020821081141561401157634e487b7160e01b600052602260045260246000fd5b50919050565b60208082526031908201527f4552433732313a207472616e736665722063616c6c6572206973206e6f74206f6040820152701ddb995c881b9bdc88185c1c1c9bdd9959607a1b606082015260800190565b634e487b7160e01b600052603260045260246000fd5b634e487b7160e01b600052601260045260246000fd5b6000826140a3576140a361407e565b500690565b634e487b7160e01b600052601160045260246000fd5b60006000198214156140d2576140d26140a8565b5060010190565b6000602082840312156140eb57600080fd5b8151611d7081613b92565b60006020828403121561410857600080fd5b5051919050565b60008351614121818460208801613b27565b835190830190614135818360208801613b27565b01949350505050565b600082821015614150576141506140a8565b500390565b60008219821115614168576141686140a8565b500190565b7f416363657373436f6e74726f6c3a206163636f756e74200000000000000000008152600083516141a5816017850160208801613b27565b7001034b99036b4b9b9b4b733903937b6329607d1b60179184019182015283516141d6816028840160208801613b27565b01602801949350505050565b60008160001904831182151516156141fc576141fc6140a8565b500290565b600181815b8085111561423c578160001904821115614222576142226140a8565b8085161561422f57918102915b93841c9390800290614206565b509250929050565b60008261425357506001610e15565b8161426057506000610e15565b816001811461427657600281146142805761429c565b6001915050610e15565b60ff841115614291576142916140a8565b50506001821b610e15565b5060208310610133831016604e8410600b84101617156142bf575081810a610e15565b6142c98383614201565b80600019048211156142dd576142dd6140a8565b029392505050565b6000611d708383614244565b60208082526032908201527f4552433732313a207472616e7366657220746f206e6f6e20455243373231526560408201527131b2b4bb32b91034b6b83632b6b2b73a32b960711b606082015260800190565b6000826143525761435261407e565b500490565b634e487b7160e01b600052603160045260246000fd5b60008161437c5761437c6140a8565b506000190190565b6001600160a01b03858116825284166020820152604081018390526080606082018190526000906143b790830184613b53565b9695505050505050565b6000602082840312156143d357600080fd5b8151611d7081613af456fe8c0bdd7bca83c4e0c810cbecf44bc544a9dc0b9f265664e31ce0ce85f07a052ba2646970667358221220f1fa7eabd8d791484bd295a817d01fd98e2ac1ba3a69e889a963200fa4c79c0f64736f6c63430008090033","abi":[{"inputs":[{"components":[{"internalType":"string","name":"name","type":"string"},{"internalType":"string","name":"symbol","type":"string"},{"internalType":"string","name":"baseURI","type":"string"},{"internalType":"address payable","name":"_daoAddress","type":"address"},{"internalType":"uint256","name":"premintedTokensCount","type":"uint256"},{"internalType":"uint256","name":"_baseGenomeChangePrice","type":"uint256"},{"internalType":"uint256","name":"_polymorphPrice","type":"uint256"},{"internalType":"uint256","name":"_maxSupply","type":"uint256"},{"internalType":"uint256","name":"_randomizeGenomePrice","type":"uint256"},{"internalType":"uint256","name":"_bulkBuyLimit","type":"uint256"},{"internalType":"string","name":"_arweaveAssetsJSON","type":"string"},{"internalType":"address","name":"_polymorphV1Address","type":"address"}],"internalType":"struct PolymorphRoot.Params","name":"params","type":"tuple"}],"stateMutability":"nonpayable","type":"constructor"},{"anonymous":false,"inputs":[{"indexed":true,"internalType":"address","name":"owner","type":"address"},{"indexed":true,"internalType":"address","name":"approved","type":"address"},{"indexed":true,"internalType":"uint256","name":"tokenId","type":"uint256"}],"name":"Approval","type":"event"},{"anonymous":false,"inputs":[{"indexed":true,"internalType":"address","name":"owner","type":"address"},{"indexed":true,"internalType":"address","name":"operator","type":"address"},{"indexed":false,"internalType":"bool","name":"approved","type":"bool"}],"name":"ApprovalForAll","type":"event"},{"anonymous":false,"inputs":[{"indexed":false,"internalType":"string","name":"arweaveAssetsJSON","type":"string"}],"name":"ArweaveAssetsJSONChanged","type":"event"},{"anonymous":false,"inputs":[{"indexed":false,"internalType":"uint256","name":"newGenomeChange","type":"uint256"}],"name":"BaseGenomeChangePriceChanged","type":"event"},{"anonymous":false,"inputs":[{"indexed":false,"internalType":"string","name":"baseURI","type":"string"}],"name":"BaseURIChanged","type":"event"},{"anonymous":false,"inputs":[{"indexed":false,"internalType":"uint256","name":"newBulkBuyLimit","type":"uint256"}],"name":"BulkBuyLimitChanged","type":"event"},{"anonymous":false,"inputs":[{"indexed":false,"internalType":"uint256","name":"newMaxSupply","type":"uint256"}],"name":"MaxSupplyChanged","type":"event"},{"anonymous":false,"inputs":[{"indexed":false,"internalType":"address","name":"account","type":"address"}],"name":"Paused","type":"event"},{"anonymous":false,"inputs":[{"indexed":false,"internalType":"uint256","name":"newPolymorphPrice","type":"uint256"}],"name":"PolymorphPriceChanged","type":"event"},{"anonymous":false,"inputs":[{"indexed":false,"internalType":"uint256","name":"newRandomizeGenomePriceChange","type":"uint256"}],"name":"RandomizeGenomePriceChanged","type":"event"},{"anonymous":false,"inputs":[{"indexed":true,"internalType":"bytes32","name":"role","type":"bytes32"},{"indexed":true,"internalType":"bytes32","name":"previousAdminRole","type":"bytes32"},{"indexed":true,"internalType":"bytes32","name":"newAdminRole","type":"bytes32"}],"name":"RoleAdminChanged","type":"event"},{"anonymous":false,"inputs":[{"indexed":true,"internalType":"bytes32","name":"role","type":"bytes32"},{"indexed":true,"internalType":"address","name":"account","type":"address"},{"indexed":true,"internalType":"address","name":"sender","type":"address"}],"name":"RoleGranted","type":"event"},{"anonymous":false,"inputs":[{"indexed":true,"internalType":"bytes32","name":"role","type":"bytes32"},{"indexed":true,"internalType":"address","name":"account","type":"address"},{"indexed":true,"internalType":"address","name":"sender","type":"address"}],"name":"RoleRevoked","type":"event"},{"anonymous":false,"inputs":[{"indexed":true,"internalType":"uint256","name":"oldTokenId","type":"uint256"},{"indexed":true,"internalType":"uint256","name":"newTokenId","type":"uint256"},{"indexed":false,"internalType":"uint256","name":"gene","type":"uint256"}],"name":"TokenBurnedAndMinted","type":"event"},{"anonymous":false,"inputs":[{"indexed":true,"internalType":"uint256","name":"tokenId","type":"uint256"},{"indexed":false,"internalType":"uint256","name":"newGene","type":"uint256"}],"name":"TokenMinted","type":"event"},{"anonymous":false,"inputs":[{"indexed":true,"internalType":"uint256","name":"tokenId","type":"uint256"},{"indexed":false,"internalType":"uint256","name":"oldGene","type":"uint256"},{"indexed":false,"internalType":"uint256","name":"newGene","type":"uint256"},{"indexed":false,"internalType":"uint256","name":"price","type":"uint256"},{"indexed":false,"internalType":"enum Polymorph.PolymorphEventType","name":"eventType","type":"uint8"}],"name":"TokenMorphed","type":"event"},{"anonymous":false,"inputs":[{"indexed":true,"internalType":"address","name":"from","type":"address"},{"indexed":true,"internalType":"address","name":"to","type":"address"},{"indexed":true,"internalType":"uint256","name":"tokenId","type":"uint256"}],"name":"Transfer","type":"event"},{"anonymous":false,"inputs":[{"indexed":false,"internalType":"address","name":"account","type":"address"}],"name":"Unpaused","type":"event"},{"inputs":[],"name":"DEFAULT_ADMIN_ROLE","outputs":[{"internalType":"bytes32","name":"","type":"bytes32"}],"stateMutability":"view","type":"function"},{"inputs":[],"name":"MINTER_ROLE","outputs":[{"internalType":"bytes32","name":"","type":"bytes32"}],"stateMutability":"view","type":"function"},{"inputs":[],"name":"PAUSER_ROLE","outputs":[{"internalType":"bytes32","name":"","type":"bytes32"}],"stateMutability":"view","type":"function"},{"inputs":[{"internalType":"address","name":"to","type":"address"},{"internalType":"uint256","name":"tokenId","type":"uint256"}],"name":"approve","outputs":[],"stateMutability":"nonpayable","type":"function"},{"inputs":[],"name":"arweaveAssetsJSON","outputs":[{"internalType":"string","name":"","type":"string"}],"stateMutability":"view","type":"function"},{"inputs":[{"internalType":"address","name":"owner","type":"address"}],"name":"balanceOf","outputs":[{"internalType":"uint256","name":"","type":"uint256"}],"stateMutability":"view","type":"function"},{"inputs":[],"name":"baseGenomeChangePrice","outputs":[{"internalType":"uint256","name":"","type":"uint256"}],"stateMutability":"view","type":"function"},{"inputs":[],"name":"baseURI","outputs":[{"internalType":"string","name":"","type":"string"}],"stateMutability":"view","type":"function"},{"inputs":[{"internalType":"uint256","name":"amount","type":"uint256"}],"name":"bulkBuy","outputs":[],"stateMutability":"payable","type":"function"},{"inputs":[],"name":"bulkBuyLimit","outputs":[{"internalType":"uint256","name":"","type":"uint256"}],"stateMutability":"view","type":"function"},{"inputs":[{"internalType":"uint256","name":"tokenId","type":"uint256"}],"name":"burn","outputs":[],"stateMutability":"nonpayable","type":"function"},{"inputs":[{"internalType":"uint256","name":"tokenId","type":"uint256"}],"name":"burnAndMintNewPolymorph","outputs":[],"stateMutability":"nonpayable","type":"function"},{"inputs":[{"internalType":"uint256","name":"newGenomeChangePrice","type":"uint256"}],"name":"changeBaseGenomeChangePrice","outputs":[],"stateMutability":"nonpayable","type":"function"},{"inputs":[{"internalType":"uint256","name":"newRandomizeGenomePrice","type":"uint256"}],"name":"changeRandomizeGenomePrice","outputs":[],"stateMutability":"nonpayable","type":"function"},{"inputs":[],"name":"daoAddress","outputs":[{"internalType":"address payable","name":"","type":"address"}],"stateMutability":"view","type":"function"},{"inputs":[{"internalType":"uint256","name":"tokenId","type":"uint256"}],"name":"geneOf","outputs":[{"internalType":"uint256","name":"gene","type":"uint256"}],"stateMutability":"view","type":"function"},{"inputs":[{"internalType":"uint256","name":"tokenId","type":"uint256"}],"name":"genomeChanges","outputs":[{"internalType":"uint256","name":"genomeChnages","type":"uint256"}],"stateMutability":"view","type":"function"},{"inputs":[{"internalType":"uint256","name":"tokenId","type":"uint256"}],"name":"getApproved","outputs":[{"internalType":"address","name":"","type":"address"}],"stateMutability":"view","type":"function"},{"inputs":[{"internalType":"bytes32","name":"role","type":"bytes32"}],"name":"getRoleAdmin","outputs":[{"internalType":"bytes32","name":"","type":"bytes32"}],"stateMutability":"view","type":"function"},{"inputs":[{"internalType":"bytes32","name":"role","type":"bytes32"},{"internalType":"uint256","name":"index","type":"uint256"}],"name":"getRoleMember","outputs":[{"internalType":"address","name":"","type":"address"}],"stateMutability":"view","type":"function"},{"inputs":[{"internalType":"bytes32","name":"role","type":"bytes32"}],"name":"getRoleMemberCount","outputs":[{"internalType":"uint256","name":"","type":"uint256"}],"stateMutability":"view","type":"function"},{"inputs":[{"internalType":"bytes32","name":"role","type":"bytes32"},{"internalType":"address","name":"account","type":"address"}],"name":"grantRole","outputs":[],"stateMutability":"nonpayable","type":"function"},{"inputs":[{"internalType":"bytes32","name":"role","type":"bytes32"},{"internalType":"address","name":"account","type":"address"}],"name":"hasRole","outputs":[{"internalType":"bool","name":"","type":"bool"}],"stateMutability":"view","type":"function"},{"inputs":[{"internalType":"address","name":"owner","type":"address"},{"internalType":"address","name":"operator","type":"address"}],"name":"isApprovedForAll","outputs":[{"internalType":"bool","name":"","type":"bool"}],"stateMutability":"view","type":"function"},{"inputs":[{"internalType":"uint256","name":"","type":"uint256"}],"name":"isNotVirgin","outputs":[{"internalType":"bool","name":"","type":"bool"}],"stateMutability":"view","type":"function"},{"inputs":[],"name":"lastTokenId","outputs":[{"internalType":"uint256","name":"tokenId","type":"uint256"}],"stateMutability":"view","type":"function"},{"inputs":[],"name":"maxSupply","outputs":[{"internalType":"uint256","name":"","type":"uint256"}],"stateMutability":"view","type":"function"},{"inputs":[],"name":"mint","outputs":[],"stateMutability":"payable","type":"function"},{"inputs":[{"internalType":"address","name":"to","type":"address"}],"name":"mint","outputs":[],"stateMutability":"pure","type":"function"},{"inputs":[{"internalType":"uint256","name":"tokenId","type":"uint256"},{"internalType":"uint256","name":"genePosition","type":"uint256"}],"name":"morphGene","outputs":[],"stateMutability":"payable","type":"function"},{"inputs":[],"name":"name","outputs":[{"internalType":"string","name":"","type":"string"}],"stateMutability":"view","type":"function"},{"inputs":[{"internalType":"uint256","name":"tokenId","type":"uint256"}],"name":"ownerOf","outputs":[{"internalType":"address","name":"","type":"address"}],"stateMutability":"view","type":"function"},{"inputs":[],"name":"pause","outputs":[],"stateMutability":"nonpayable","type":"function"},{"inputs":[],"name":"paused","outputs":[{"internalType":"bool","name":"","type":"bool"}],"stateMutability":"view","type":"function"},{"inputs":[],"name":"polymorphPrice","outputs":[{"internalType":"uint256","name":"","type":"uint256"}],"stateMutability":"view","type":"function"},{"inputs":[],"name":"polymorphV1Contract","outputs":[{"internalType":"contract Polymorph","name":"","type":"address"}],"stateMutability":"view","type":"function"},{"inputs":[{"internalType":"uint256","name":"tokenId","type":"uint256"}],"name":"priceForGenomeChange","outputs":[{"internalType":"uint256","name":"price","type":"uint256"}],"stateMutability":"view","type":"function"},{"inputs":[{"internalType":"uint256","name":"tokenId","type":"uint256"}],"name":"randomizeGenome","outputs":[],"stateMutability":"payable","type":"function"},{"inputs":[],"name":"randomizeGenomePrice","outputs":[{"internalType":"uint256","name":"","type":"uint256"}],"stateMutability":"view","type":"function"},{"inputs":[{"internalType":"bytes32","name":"role","type":"bytes32"},{"internalType":"address","name":"account","type":"address"}],"name":"renounceRole","outputs":[],"stateMutability":"nonpayable","type":"function"},{"inputs":[{"internalType":"bytes32","name":"role","type":"bytes32"},{"internalType":"address","name":"account","type":"address"}],"name":"revokeRole","outputs":[],"stateMutability":"nonpayable","type":"function"},{"inputs":[{"internalType":"address","name":"from","type":"address"},{"internalType":"address","name":"to","type":"address"},{"internalType":"uint256","name":"tokenId","type":"uint256"}],"name":"safeTransferFrom","outputs":[],"stateMutability":"nonpayable","type":"function"},{"inputs":[{"internalType":"address","name":"from","type":"address"},{"internalType":"address","name":"to","type":"address"},{"internalType":"uint256","name":"tokenId","type":"uint256"},{"internalType":"bytes","name":"_data","type":"bytes"}],"name":"safeTransferFrom","outputs":[],"stateMutability":"nonpayable","type":"function"},{"inputs":[{"internalType":"address","name":"operator","type":"address"},{"internalType":"bool","name":"approved","type":"bool"}],"name":"setApprovalForAll","outputs":[],"stateMutability":"nonpayable","type":"function"},{"inputs":[{"internalType":"string","name":"_arweaveAssetsJSON","type":"string"}],"name":"setArweaveAssetsJSON","outputs":[],"stateMutability":"nonpayable","type":"function"},{"inputs":[{"internalType":"string","name":"_baseURI","type":"string"}],"name":"setBaseURI","outputs":[],"stateMutability":"nonpayable","type":"function"},{"inputs":[{"internalType":"uint256","name":"_bulkBuyLimit","type":"uint256"}],"name":"setBulkBuyLimit","outputs":[],"stateMutability":"nonpayable","type":"function"},{"inputs":[{"internalType":"uint256","name":"_maxSupply","type":"uint256"}],"name":"setMaxSupply","outputs":[],"stateMutability":"nonpayable","type":"function"},{"inputs":[{"internalType":"uint256","name":"newPolymorphPrice","type":"uint256"}],"name":"setPolymorphPrice","outputs":[],"stateMutability":"nonpayable","type":"function"},{"inputs":[{"internalType":"bytes4","name":"interfaceId","type":"bytes4"}],"name":"supportsInterface","outputs":[{"internalType":"bool","name":"","type":"bool"}],"stateMutability":"view","type":"function"},{"inputs":[],"name":"symbol","outputs":[{"internalType":"string","name":"","type":"string"}],"stateMutability":"view","type":"function"},{"inputs":[{"internalType":"uint256","name":"index","type":"uint256"}],"name":"tokenByIndex","outputs":[{"internalType":"uint256","name":"","type":"uint256"}],"stateMutability":"view","type":"function"},{"inputs":[{"internalType":"address","name":"owner","type":"address"},{"internalType":"uint256","name":"index","type":"uint256"}],"name":"tokenOfOwnerByIndex","outputs":[{"internalType":"uint256","name":"","type":"uint256"}],"stateMutability":"view","type":"function"},{"inputs":[{"internalType":"uint256","name":"tokenId","type":"uint256"}],"name":"tokenURI","outputs":[{"internalType":"string","name":"","type":"string"}],"stateMutability":"view","type":"function"},{"inputs":[],"name":"totalBurnedV1","outputs":[{"internalType":"uint256","name":"","type":"uint256"}],"stateMutability":"view","type":"function"},{"inputs":[],"name":"totalSupply","outputs":[{"internalType":"uint256","name":"","type":"uint256"}],"stateMutability":"view","type":"function"},{"inputs":[{"internalType":"address","name":"from","type":"address"},{"internalType":"address","name":"to","type":"address"},{"internalType":"uint256","name":"tokenId","type":"uint256"}],"name":"transferFrom","outputs":[],"stateMutability":"nonpayable","type":"function"},{"inputs":[],"name":"unpause","outputs":[],"stateMutability":"nonpayable","type":"function"},{"inputs":[{"internalType":"address","name":"bridgeAddress","type":"address"},{"internalType":"bool","name":"status","type":"bool"}],"name":"whitelistBridgeAddress","outputs":[],"stateMutability":"nonpayable","type":"function"},{"inputs":[{"internalType":"address","name":"","type":"address"}],"name":"whitelistTunnelAddresses","outputs":[{"internalType":"bool","name":"","type":"bool"}],"stateMutability":"view","type":"function"},{"inputs":[{"internalType":"uint256","name":"tokenId","type":"uint256"},{"internalType":"uint256","name":"gene","type":"uint256"},{"internalType":"bool","name":"isVirgin","type":"bool"},{"internalType":"uint256","name":"genomeChangesCount","type":"uint256"}],"name":"wormholeUpdateGene","outputs":[],"stateMutability":"nonpayable","type":"function"},{"stateMutability":"payable","type":"receive"}]}