{"address":"0x515bC1357Ed5D6960120Ec1CE6b2911Cec377DE0","bytecode":"0x60806040523480156200001157600080fd5b506040516200530b3803806200530b833981016040819052620000349162000b8b565b80600001518160200151826040015183606001518460a00151856101000151866101400151868686868481858585828281600290805190602001906200007c92919062000a37565b5080516200009290600390602084019062000a37565b5050600c805460ff19169055508051620000b490600e90602084019062000a37565b50620000c2600033620001fc565b620000ee7f9f2df0fed2c77648de5860a4cc508cd0818c85b8b8a1ab4ceeef8d981c8956a633620001fc565b6200011a7f65d7a28e3265b37a6474929f336521b332c1681b933f6cb9f3376673440d862a33620001fc565b50506001600f5550601080546001600160a01b0319166001600160a01b039290921691909117905580516200015790601390602084019062000a37565b50505060179590955550505060185550505060c0830151601955505060e0810151601a55610120810151601b556101408101518051620001a09160139160209091019062000a37565b50806101600151601c60006101000a8154816001600160a01b0302191690836001600160a01b03160217905550620001e460116200020c60201b620025251760201c565b506080810151620001f590620002ae565b5062000e39565b62000208828262000334565b5050565b600033325a8454424380406200022460648362000d98565b6040516001600160601b03196060998a1b811660208301529790981b909616603488015260488701949094526068860192909252608885015260a884015260c88301524060e88201526101080160408051601f198184030181528282528051602091820120908301520160408051601f198184030181529190528051602090910120918290555090565b60005b818110156200020857620002d1600d6200037760201b620025ca1760201c565b6000620002ea600d6200038060201b620025d31760201c565b90506200030360116200020c60201b620025251760201c565b6000828152601260205260409020556200031e338262000384565b50806200032b8162000def565b915050620002b1565b6200034b8282620004de60201b620025d71760201c565b6000828152600160209081526040909120620003729183906200265b6200057e821b17901c565b505050565b80546001019055565b5490565b6001600160a01b038216620003e05760405162461bcd60e51b815260206004820181905260248201527f4552433732313a206d696e7420746f20746865207a65726f206164647265737360448201526064015b60405180910390fd5b6000818152600460205260409020546001600160a01b031615620004475760405162461bcd60e51b815260206004820152601c60248201527f4552433732313a20746f6b656e20616c7265616479206d696e746564000000006044820152606401620003d7565b62000455600083836200059e565b6001600160a01b03821660009081526005602052604081208054600192906200048090849062000d7d565b909155505060008181526004602052604080822080546001600160a01b0319166001600160a01b03861690811790915590518392907fddf252ad1be2c89b69c2b068fc378daa952ba7f163c4a11628f55a4df523b3ef908290a45050565b6000828152602081815260408083206001600160a01b038516845290915290205460ff1662000208576000828152602081815260408083206001600160a01b03851684529091529020805460ff191660011790556200053a3390565b6001600160a01b0316816001600160a01b0316837f2f8788117e7eff1d82e926ec794901d17c78024a50270940304540a733656f0d60405160405180910390a45050565b600062000595836001600160a01b0384166200060b565b90505b92915050565b620005b68383836200065d60201b620026701760201c565b60008181526012602052604080822054905183927f8c0bdd7bca83c4e0c810cbecf44bc544a9dc0b9f265664e31ce0ce85f07a052b92620005fe929091829160029062000cdb565b60405180910390a2505050565b6000818152600183016020526040812054620006545750815460018181018455600084815260208082209093018490558454848252828601909352604090209190915562000598565b50600062000598565b620003728383836200067560201b620026771760201c565b6200068d838383620006f660201b620026e91760201c565b600c5460ff1615620003725760405162461bcd60e51b815260206004820152602b60248201527f4552433732315061757361626c653a20746f6b656e207472616e73666572207760448201526a1a1a5b19481c185d5cd95960aa1b6064820152608401620003d7565b6200070e8383836200037260201b620010531760201c565b6001600160a01b0383166200076c576200076681600a80546000838152600b60205260408120829055600182018355919091527fc65a7bb8d6351c1cf70c95a316cc6a92839c986682d98bc35f958f4883f9d2a80155565b62000792565b816001600160a01b0316836001600160a01b0316146200079257620007928382620007d2565b6001600160a01b038216620007ac5762000372816200087f565b826001600160a01b0316826001600160a01b03161462000372576200037282826200095d565b60006001620007ec84620009ae60201b6200199f1760201c565b620007f8919062000d98565b6000838152600960205260409020549091508082146200084c576001600160a01b03841660009081526008602090815260408083208584528252808320548484528184208190558352600990915290208190555b5060009182526009602090815260408084208490556001600160a01b039094168352600881528383209183525290812055565b600a54600090620008939060019062000d98565b6000838152600b6020526040812054600a8054939450909284908110620008ca57634e487b7160e01b600052603260045260246000fd5b9060005260206000200154905080600a8381548110620008fa57634e487b7160e01b600052603260045260246000fd5b6000918252602080832090910192909255828152600b9091526040808220849055858252812055600a8054806200094157634e487b7160e01b600052603160045260246000fd5b6001900381819060005260206000200160009055905550505050565b60006200097583620009ae60201b6200199f1760201c565b6001600160a01b039093166000908152600860209081526040808320868452825280832085905593825260099052919091209190915550565b60006001600160a01b03821662000a1b5760405162461bcd60e51b815260206004820152602a60248201527f4552433732313a2062616c616e636520717565727920666f7220746865207a65604482015269726f206164647265737360b01b6064820152608401620003d7565b506001600160a01b031660009081526005602052604090205490565b82805462000a459062000db2565b90600052602060002090601f01602090048101928262000a69576000855562000ab4565b82601f1062000a8457805160ff191683800117855562000ab4565b8280016001018555821562000ab4579182015b8281111562000ab457825182559160200191906001019062000a97565b5062000ac292915062000ac6565b5090565b5b8082111562000ac2576000815560010162000ac7565b80516001600160a01b038116811462000af557600080fd5b919050565b600082601f83011262000b0b578081fd5b81516001600160401b0381111562000b275762000b2762000e23565b602062000b3d601f8301601f1916820162000d4a565b828152858284870101111562000b51578384fd5b835b8381101562000b7057858101830151828201840152820162000b53565b8381111562000b8157848385840101525b5095945050505050565b60006020828403121562000b9d578081fd5b81516001600160401b038082111562000bb4578283fd5b90830190610180828603121562000bc9578283fd5b62000bd362000d1e565b82518281111562000be2578485fd5b62000bf08782860162000afa565b82525060208301518281111562000c05578485fd5b62000c138782860162000afa565b60208301525060408301518281111562000c2b578485fd5b62000c398782860162000afa565b60408301525062000c4d6060840162000add565b60608201526080830151608082015260a083015160a082015260c083015160c082015260e083015160e0820152610100808401518183015250610120808401518183015250610140808401518381111562000ca6578586fd5b62000cb48882870162000afa565b828401525050610160915062000ccc82840162000add565b91810191909152949350505050565b8481526020810184905260408101839052608081016003831062000d0f57634e487b7160e01b600052602160045260246000fd5b82606083015295945050505050565b60405161018081016001600160401b038111828210171562000d445762000d4462000e23565b60405290565b604051601f8201601f191681016001600160401b038111828210171562000d755762000d7562000e23565b604052919050565b6000821982111562000d935762000d9362000e0d565b500190565b60008282101562000dad5762000dad62000e0d565b500390565b600181811c9082168062000dc757607f821691505b6020821081141562000de957634e487b7160e01b600052602260045260246000fd5b50919050565b600060001982141562000e065762000e0662000e0d565b5060010190565b634e487b7160e01b600052601160045260246000fd5b634e487b7160e01b600052604160045260246000fd5b6144c28062000e496000396000f3fe6080604052600436106103a65760003560e01c80636a627842116101e7578063ab39a3c81161010d578063d547741f116100a0578063e985e9c51161006f578063e985e9c514610ace578063ec9c074c14610b17578063f528a62714610b2d578063f84ddf0b14610b4257600080fd5b8063d547741f14610a51578063d5a83d3e14610a71578063d5abeb0114610a84578063e63ab1e914610a9a57600080fd5b8063cccb6d0d116100dc578063cccb6d0d146109b7578063ce14617d146109e7578063d45351e5146109fd578063d539139314610a1d57600080fd5b8063ab39a3c814610937578063b88d4fde14610957578063c87b56dd14610977578063ca15c8731461099757600080fd5b80639010d07c116101855780639e7bb467116101545780639e7bb467146108d9578063a217fddf146108ec578063a22cb46514610901578063a49bccca1461092157600080fd5b80639010d07c1461086457806391d148541461088457806395d89b41146108a457806398c5c078146108b957600080fd5b8063704ec036116101c1578063704ec036146107f957806370a082311461080f578063784996a01461082f5780638456cb591461084f57600080fd5b80636a627842146107a45780636c0360eb146107c45780636f8b44b0146107d957600080fd5b80632f745c59116102cc57806355f804b31161026a5780635e468dfd116102395780635e468dfd146107175780636352211e146107375780636a1c03dc146107575780636a5be6861461077757600080fd5b806355f804b3146106ac57806356a5c926146106cc57806356b1b300146106df5780635c975abb146106ff57600080fd5b806342842e0e116102a657806342842e0e1461061c57806342966c681461063c5780634df774161461065c5780634f6ccce71461068c57600080fd5b80632f745c59146105c757806336568abe146105e75780633f4ba83a1461060757600080fd5b806318160ddd11610344578063248a9ca311610313578063248a9ca31461053757806325b081ff14610567578063289ea0a9146105875780632f2ff15d146105a757600080fd5b806318160ddd146104b55780632131c68c146104ca57806323b872dd146104ea57806323c8d07a1461050a57600080fd5b8063081812fc11610380578063081812fc14610431578063095ea7b3146104695780630a727edf146104895780631249c58b146104ad57600080fd5b8063017f1e34146103ba57806301ffc9a7146103da57806306fdde031461040f57600080fd5b366103b5576103b3610b57565b005b600080fd5b3480156103c657600080fd5b506103b36103d5366004613dc4565b610da4565b3480156103e657600080fd5b506103fa6103f5366004613e21565b610e0a565b60405190151581526020015b60405180910390f35b34801561041b57600080fd5b50610424610e1b565b604051610406919061404d565b34801561043d57600080fd5b5061045161044c366004613dc4565b610ead565b6040516001600160a01b039091168152602001610406565b34801561047557600080fd5b506103b3610484366004613d99565b610f42565b34801561049557600080fd5b5061049f601d5481565b604051908152602001610406565b6103b3610b57565b3480156104c157600080fd5b50600a5461049f565b3480156104d657600080fd5b50601054610451906001600160a01b031681565b3480156104f657600080fd5b506103b3610505366004613ca8565b611058565b34801561051657600080fd5b5061049f610525366004613dc4565b60009081526015602052604090205490565b34801561054357600080fd5b5061049f610552366004613dc4565b60009081526020819052604090206001015490565b34801561057357600080fd5b50601c54610451906001600160a01b031681565b34801561059357600080fd5b506103b36105a2366004613dc4565b61108a565b3480156105b357600080fd5b506103b36105c2366004613ddc565b6110e9565b3480156105d357600080fd5b5061049f6105e2366004613d99565b61110f565b3480156105f357600080fd5b506103b3610602366004613ddc565b6111a5565b34801561061357600080fd5b506103b3611223565b34801561062857600080fd5b506103b3610637366004613ca8565b6112cb565b34801561064857600080fd5b506103b3610657366004613dc4565b6112e6565b34801561066857600080fd5b506103fa610677366004613dc4565b60166020526000908152604090205460ff1681565b34801561069857600080fd5b5061049f6106a7366004613dc4565b611360565b3480156106b857600080fd5b506103b36106c7366004613e59565b611401565b6103b36106da366004613e00565b611463565b3480156106eb57600080fd5b506103b36106fa366004613e59565b6116a3565b34801561070b57600080fd5b50600c5460ff166103fa565b34801561072357600080fd5b506103b3610732366004613dc4565b611710565b34801561074357600080fd5b50610451610752366004613dc4565b61176f565b34801561076357600080fd5b506103b3610772366004613eb7565b6117e6565b34801561078357600080fd5b5061049f610792366004613dc4565b60009081526012602052604090205490565b3480156107b057600080fd5b506103b36107bf366004613c38565b6118e9565b3480156107d057600080fd5b50610424611931565b3480156107e557600080fd5b506103b36107f4366004613dc4565b611940565b34801561080557600080fd5b5061049f60195481565b34801561081b57600080fd5b5061049f61082a366004613c38565b61199f565b34801561083b57600080fd5b506103b361084a366004613dc4565b611a26565b34801561085b57600080fd5b506103b3611cc2565b34801561087057600080fd5b5061045161087f366004613e00565b611d66565b34801561089057600080fd5b506103fa61089f366004613ddc565b611d85565b3480156108b057600080fd5b50610424611dae565b3480156108c557600080fd5b506103b36108d4366004613dc4565b611dbd565b6103b36108e7366004613dc4565b611e1c565b3480156108f857600080fd5b5061049f600081565b34801561090d57600080fd5b506103b361091c366004613d65565b611fd5565b34801561092d57600080fd5b5061049f601b5481565b34801561094357600080fd5b506103b3610952366004613d65565b611fe0565b34801561096357600080fd5b506103b3610972366004613ce8565b612035565b34801561098357600080fd5b50610424610992366004613dc4565b61206d565b3480156109a357600080fd5b5061049f6109b2366004613dc4565b612147565b3480156109c357600080fd5b506103fa6109d2366004613c38565b60146020526000908152604090205460ff1681565b3480156109f357600080fd5b5061049f60175481565b348015610a0957600080fd5b5061049f610a18366004613dc4565b61215e565b348015610a2957600080fd5b5061049f7f9f2df0fed2c77648de5860a4cc508cd0818c85b8b8a1ab4ceeef8d981c8956a681565b348015610a5d57600080fd5b506103b3610a6c366004613ddc565b61217d565b6103b3610a7f366004613dc4565b6121a3565b348015610a9057600080fd5b5061049f601a5481565b348015610aa657600080fd5b5061049f7f65d7a28e3265b37a6474929f336521b332c1681b933f6cb9f3376673440d862a81565b348015610ada57600080fd5b506103fa610ae9366004613c70565b6001600160a01b03918216600090815260076020908152604080832093909416825291909152205460ff1690565b348015610b2357600080fd5b5061049f60185481565b348015610b3957600080fd5b5061042461248c565b348015610b4e57600080fd5b5061049f61251a565b6002600f541415610b835760405162461bcd60e51b8152600401610b7a906141ce565b60405180910390fd5b6002600f55601a54600d5410610bd25760405162461bcd60e51b8152602060048201526014602482015273151bdd185b081cdd5c1c1b1e481c995858da195960621b6044820152606401610b7a565b610be0600d80546001019055565b6000610beb600d5490565b9050610bf76011612525565b60008281526012602052604080822092909255601054601954925191926001600160a01b03909116918381818185875af1925050503d8060008114610c58576040519150601f19603f3d011682016040523d82523d6000602084013e610c5d565b606091505b5050905080610c7e5760405162461bcd60e51b8152600401610b7a90614120565b6000610c95601954346127a190919063ffffffff16565b90508015610d0757604051600090339083908381818185875af1925050503d8060008114610cdf576040519150601f19603f3d011682016040523d82523d6000602084013e610ce4565b606091505b5050905080610d055760405162461bcd60e51b8152600401610b7a90614060565b505b610d1133846127ad565b827f5f7666687319b40936f33c188908d86aea154abd3f4127b4fa0a3f04f303c7da6012600086815260200190815260200160002054604051610d5691815260200190565b60405180910390a2600083815260126020526040808220546019549151869360008051602061446d83398151915293610d929391928390614022565b60405180910390a250506001600f5550565b6010546001600160a01b03163314610dce5760405162461bcd60e51b8152600401610b7a906140e9565b60198190556040518181527f6a08b3bba14e54ee218389c7c7444e619f3897465dc06757938cfd01a6957f6c906020015b60405180910390a150565b6000610e15826128fb565b92915050565b606060028054610e2a90614395565b80601f0160208091040260200160405190810160405280929190818152602001828054610e5690614395565b8015610ea35780601f10610e7857610100808354040283529160200191610ea3565b820191906000526020600020905b815481529060010190602001808311610e8657829003601f168201915b5050505050905090565b6000818152600460205260408120546001600160a01b0316610f265760405162461bcd60e51b815260206004820152602c60248201527f4552433732313a20617070726f76656420717565727920666f72206e6f6e657860448201526b34b9ba32b73a103a37b5b2b760a11b6064820152608401610b7a565b506000908152600660205260409020546001600160a01b031690565b6000610f4d8261176f565b9050806001600160a01b0316836001600160a01b03161415610fbb5760405162461bcd60e51b815260206004820152602160248201527f4552433732313a20617070726f76616c20746f2063757272656e74206f776e656044820152603960f91b6064820152608401610b7a565b336001600160a01b0382161480610fd75750610fd78133610ae9565b6110495760405162461bcd60e51b815260206004820152603860248201527f4552433732313a20617070726f76652063616c6c6572206973206e6f74206f7760448201527f6e6572206e6f7220617070726f76656420666f7220616c6c00000000000000006064820152608401610b7a565b6110538383612920565b505050565b611063335b8261298e565b61107f5760405162461bcd60e51b8152600401610b7a9061417d565b611053838383612a85565b6010546001600160a01b031633146110b45760405162461bcd60e51b8152600401610b7a906140e9565b60178190556040518181527fb1d78271daba9a366098d40b64d642a1399cabaa22c5234bacc87e92cef82ae690602001610dff565b6000828152602081905260409020600101546111058133612c2c565b6110538383612c90565b600061111a8361199f565b821061117c5760405162461bcd60e51b815260206004820152602b60248201527f455243373231456e756d657261626c653a206f776e657220696e646578206f7560448201526a74206f6620626f756e647360a81b6064820152608401610b7a565b506001600160a01b03919091166000908152600860209081526040808320938352929052205490565b6001600160a01b03811633146112155760405162461bcd60e51b815260206004820152602f60248201527f416363657373436f6e74726f6c3a2063616e206f6e6c792072656e6f756e636560448201526e103937b632b9903337b91039b2b63360891b6064820152608401610b7a565b61121f8282612cb2565b5050565b61124d7f65d7a28e3265b37a6474929f336521b332c1681b933f6cb9f3376673440d862a33611d85565b6112c1576040805162461bcd60e51b81526020600482015260248101919091527f4552433732315072657365744d696e7465725061757365724175746f49643a2060448201527f6d75737420686176652070617573657220726f6c6520746f20756e70617573656064820152608401610b7a565b6112c9612cd4565b565b61105383838360405180602001604052806000815250612035565b6112ef3361105d565b6113545760405162461bcd60e51b815260206004820152603060248201527f4552433732314275726e61626c653a2063616c6c6572206973206e6f74206f7760448201526f1b995c881b9bdc88185c1c1c9bdd995960821b6064820152608401610b7a565b61135d81612d67565b50565b600061136b600a5490565b82106113ce5760405162461bcd60e51b815260206004820152602c60248201527f455243373231456e756d657261626c653a20676c6f62616c20696e646578206f60448201526b7574206f6620626f756e647360a01b6064820152608401610b7a565b600a82815481106113ef57634e487b7160e01b600052603260045260246000fd5b90600052602060002001549050919050565b6010546001600160a01b0316331461142b5760405162461bcd60e51b8152600401610b7a906140e9565b61143481612e0e565b7f5411e8ebf1636d9e83d5fc4900bf80cbac82e8790da2a4c94db4895e889eedf681604051610dff919061404d565b6002600f5414156114865760405162461bcd60e51b8152600401610b7a906141ce565b6002600f55806114d85760405162461bcd60e51b815260206004820152601c60248201527f4261736520636861726163746572206e6f74206d6f72706861626c65000000006044820152606401610b7a565b6114e182612e21565b60006114ec8361215e565b6010546040519192506000916001600160a01b039091169083908381818185875af1925050503d806000811461153e576040519150601f19603f3d011682016040523d82523d6000602084013e611543565b606091505b50509050806115645760405162461bcd60e51b8152600401610b7a90614120565b600061157034846127a1565b905080156115e257604051600090339083908381818185875af1925050503d80600081146115ba576040519150601f19603f3d011682016040523d82523d6000602084013e6115bf565b606091505b50509050806115e05760405162461bcd60e51b8152600401610b7a90614060565b505b6000858152601260205260408120549060646115fe6011612525565b61160891906143eb565b9050611615828288612ed5565b6000888152601260209081526040808320939093556015905290812080549161163d836143d0565b90915550506000878152601660209081526040808320805460ff19166001908117909155601290925291829020549151899260008051602061446d8339815191529261168d928792918b91614022565b60405180910390a250506001600f555050505050565b6010546001600160a01b031633146116cd5760405162461bcd60e51b8152600401610b7a906140e9565b80516116e0906013906020840190613b14565b507f4a826ca029d05af64e411551e15f7ee1e70af0b9bc43a31154ace86a863397b481604051610dff919061404d565b6010546001600160a01b0316331461173a5760405162461bcd60e51b8152600401610b7a906140e9565b601b8190556040518181527fa0e0113404674c6f545b966e8ec54db3066a6c720a0054f0bc4b0c900cfff24390602001610dff565b6000818152600460205260408120546001600160a01b031680610e155760405162461bcd60e51b815260206004820152602960248201527f4552433732313a206f776e657220717565727920666f72206e6f6e657869737460448201526832b73a103a37b5b2b760b91b6064820152608401610b7a565b6002600f5414156118095760405162461bcd60e51b8152600401610b7a906141ce565b6002600f553360009081526014602052604090205460ff1661186d5760405162461bcd60e51b815260206004820152601a60248201527f4e6f742063616c6c65642066726f6d207468652074756e6e656c0000000000006044820152606401610b7a565b6000848152601260208181526040808420805488825560168452828620805460ff191689151517905560158452919094208590559190529054859060008051602061446d8339815191529083906118c38461215e565b60016040516118d59493929190614022565b60405180910390a250506001600f55505050565b60405162461bcd60e51b815260206004820152601760248201527f53686f756c64206e6f74207573652074686973206f6e650000000000000000006044820152606401610b7a565b606061193b612fdc565b905090565b6010546001600160a01b0316331461196a5760405162461bcd60e51b8152600401610b7a906140e9565b601a8190556040518181527f28a10a2e0b5582da7164754cb994f6214b8af6aa7f7e003305fbc09e7106c51390602001610dff565b60006001600160a01b038216611a0a5760405162461bcd60e51b815260206004820152602a60248201527f4552433732313a2062616c616e636520717565727920666f7220746865207a65604482015269726f206164647265737360b01b6064820152608401610b7a565b506001600160a01b031660009081526005602052604090205490565b6002600f541415611a495760405162461bcd60e51b8152600401610b7a906141ce565b6002600f55601c546040516331a9108f60e11b8152600481018390526001600160a01b0390911690636352211e9060240160206040518083038186803b158015611a9257600080fd5b505afa158015611aa6573d6000803e3d6000fd5b505050506040513d601f19601f82011682018060405250810190611aca9190613c54565b6001600160a01b0316336001600160a01b031614611ae757600080fd5b601c5460405163352df34360e11b8152600481018390526000916001600160a01b031690636a5be6869060240160206040518083038186803b158015611b2c57600080fd5b505afa158015611b40573d6000803e3d6000fd5b505050506040513d601f19601f82011682018060405250810190611b649190613e9f565b601c54604051630852cd8d60e31b8152600481018590529192506001600160a01b0316906342966c6890602401600060405180830381600087803b158015611bab57600080fd5b505af1158015611bbf573d6000803e3d6000fd5b5050601d54611bd2925090506001612feb565b601d55601a54611be3906001612feb565b601a55611bf4600d80546001019055565b6000611bff600d5490565b60008181526012602052604090208390559050611c1d335b826127ad565b807f5f7666687319b40936f33c188908d86aea154abd3f4127b4fa0a3f04f303c7da6012600084815260200190815260200160002054604051611c6291815260200190565b60405180910390a280837f5bc298e251bf2d0dbbd7881e135ad8526c53dab8acd7e9777aea2c809fdf47e06012600085815260200190815260200160002054604051611cb091815260200190565b60405180910390a350506001600f5550565b611cec7f65d7a28e3265b37a6474929f336521b332c1681b933f6cb9f3376673440d862a33611d85565b611d5e5760405162461bcd60e51b815260206004820152603e60248201527f4552433732315072657365744d696e7465725061757365724175746f49643a2060448201527f6d75737420686176652070617573657220726f6c6520746f20706175736500006064820152608401610b7a565b6112c9612ff7565b6000828152600160205260408120611d7e9083613072565b9392505050565b6000918252602082815260408084206001600160a01b0393909316845291905290205460ff1690565b606060038054610e2a90614395565b6010546001600160a01b03163314611de75760405162461bcd60e51b8152600401610b7a906140e9565b60188190556040518181527fff4da8d01e7184cc8c9d6c57d64b336b1de6d676b6215408967bd071c8da7e3d90602001610dff565b6002600f541415611e3f5760405162461bcd60e51b8152600401610b7a906141ce565b6002600f55611e4d81612e21565b6010546018546040516000926001600160a01b031691908381818185875af1925050503d8060008114611e9c576040519150601f19603f3d011682016040523d82523d6000602084013e611ea1565b606091505b5050905080611ec25760405162461bcd60e51b8152600401610b7a90614120565b6000611ed9601854346127a190919063ffffffff16565b90508015611f4b57604051600090339083908381818185875af1925050503d8060008114611f23576040519150601f19603f3d011682016040523d82523d6000602084013e611f28565b606091505b5050905080611f495760405162461bcd60e51b8152600401610b7a90614060565b505b600083815260126020526040902054611f646011612525565b6000858152601260208181526040808420948555601582528084208490556016825292839020805460ff1916600190811790915591905291546018549151879360008051602061446d83398151915293611fc2938793909290614022565b60405180910390a250506001600f555050565b61121f33838361307e565b6010546001600160a01b0316331461200a5760405162461bcd60e51b8152600401610b7a906140e9565b6001600160a01b03919091166000908152601460205260409020805460ff1916911515919091179055565b61203f338361298e565b61205b5760405162461bcd60e51b8152600401610b7a9061417d565b6120678484848461314d565b50505050565b6000818152600460205260409020546060906001600160a01b03166120ec5760405162461bcd60e51b815260206004820152602f60248201527f4552433732314d657461646174613a2055524920717565727920666f72206e6f60448201526e3732bc34b9ba32b73a103a37b5b2b760891b6064820152608401610b7a565b60006120f6612fdc565b905060008151116121165760405180602001604052806000815250611d7e565b8061212084613180565b604051602001612131929190613f41565b6040516020818303038152906040529392505050565b6000818152600160205260408120610e159061329a565b600081815260156020526040812054601754611d7e906001831b6132a4565b6000828152602081905260409020600101546121998133612c2c565b6110538383612cb2565b6002600f5414156121c65760405162461bcd60e51b8152600401610b7a906141ce565b6002600f55601b548111156122305760405162461bcd60e51b815260206004820152602a60248201527f43616e6e6f742062756c6b20627579206d6f7265207468616e20746865207072604482015269195cd95d081b1a5b5a5d60b21b6064820152608401610b7a565b601a5461224682612240600d5490565b90612feb565b111561228b5760405162461bcd60e51b8152602060048201526014602482015273151bdd185b081cdd5c1c1b1e481c995858da195960621b6044820152606401610b7a565b6010546019546000916001600160a01b0316906122a890846132a4565b604051600081818185875af1925050503d80600081146122e4576040519150601f19603f3d011682016040523d82523d6000602084013e6122e9565b606091505b505090508061230a5760405162461bcd60e51b8152600401610b7a90614120565b600061232b612324846019546132a490919063ffffffff16565b34906127a1565b9050801561239d57604051600090339083908381818185875af1925050503d8060008114612375576040519150601f19603f3d011682016040523d82523d6000602084013e61237a565b606091505b505090508061239b5760405162461bcd60e51b8152600401610b7a90614060565b505b60005b83811015612481576123b6600d80546001019055565b60006123c1600d5490565b90506123cd6011612525565b6000828152601260205260409020556123e533611c17565b807f5f7666687319b40936f33c188908d86aea154abd3f4127b4fa0a3f04f303c7da601260008481526020019081526020016000205460405161242a91815260200190565b60405180910390a2600081815260126020526040808220546019549151849360008051602061446d833981519152936124669391928390614022565b60405180910390a25080612479816143d0565b9150506123a0565b50506001600f555050565b6013805461249990614395565b80601f01602080910402602001604051908101604052809291908181526020018280546124c590614395565b80156125125780601f106124e757610100808354040283529160200191612512565b820191906000526020600020905b8154815290600101906020018083116124f557829003601f168201915b505050505081565b600061193b600d5490565b600033325a84544243804061253b60648361433b565b6040516bffffffffffffffffffffffff196060998a1b811660208301529790981b909616603488015260488701949094526068860192909252608885015260a884015260c88301524060e88201526101080160408051601f198184030181528282528051602091820120908301520160408051601f198184030181529190528051602090910120918290555090565b80546001019055565b5490565b6125e18282611d85565b61121f576000828152602081815260408083206001600160a01b03851684529091529020805460ff191660011790556126173390565b6001600160a01b0316816001600160a01b0316837f2f8788117e7eff1d82e926ec794901d17c78024a50270940304540a733656f0d60405160405180910390a45050565b6000611d7e836001600160a01b0384166132b0565b6110538383835b6126828383836126e9565b600c5460ff16156110535760405162461bcd60e51b815260206004820152602b60248201527f4552433732315061757361626c653a20746f6b656e207472616e73666572207760448201526a1a1a5b19481c185d5cd95960aa1b6064820152608401610b7a565b6001600160a01b0383166127445761273f81600a80546000838152600b60205260408120829055600182018355919091527fc65a7bb8d6351c1cf70c95a316cc6a92839c986682d98bc35f958f4883f9d2a80155565b612767565b816001600160a01b0316836001600160a01b0316146127675761276783826132ff565b6001600160a01b03821661277e576110538161339c565b826001600160a01b0316826001600160a01b031614611053576110538282613475565b6000611d7e828461433b565b6001600160a01b0382166128035760405162461bcd60e51b815260206004820181905260248201527f4552433732313a206d696e7420746f20746865207a65726f20616464726573736044820152606401610b7a565b6000818152600460205260409020546001600160a01b0316156128685760405162461bcd60e51b815260206004820152601c60248201527f4552433732313a20746f6b656e20616c7265616479206d696e746564000000006044820152606401610b7a565b612874600083836134b9565b6001600160a01b038216600090815260056020526040812080546001929061289d908490614205565b909155505060008181526004602052604080822080546001600160a01b0319166001600160a01b03861690811790915590518392907fddf252ad1be2c89b69c2b068fc378daa952ba7f163c4a11628f55a4df523b3ef908290a45050565b60006001600160e01b0319821663780e9d6360e01b1480610e155750610e1582613505565b600081815260066020526040902080546001600160a01b0319166001600160a01b03841690811790915581906129558261176f565b6001600160a01b03167f8c5be1e5ebec7d5bd14f71427d1e84f3dd0314c0f7b2291e5b200ac8c7c3b92560405160405180910390a45050565b6000818152600460205260408120546001600160a01b0316612a075760405162461bcd60e51b815260206004820152602c60248201527f4552433732313a206f70657261746f7220717565727920666f72206e6f6e657860448201526b34b9ba32b73a103a37b5b2b760a11b6064820152608401610b7a565b6000612a128361176f565b9050806001600160a01b0316846001600160a01b03161480612a4d5750836001600160a01b0316612a4284610ead565b6001600160a01b0316145b80612a7d57506001600160a01b0380821660009081526007602090815260408083209388168352929052205460ff165b949350505050565b826001600160a01b0316612a988261176f565b6001600160a01b031614612afc5760405162461bcd60e51b815260206004820152602560248201527f4552433732313a207472616e736665722066726f6d20696e636f72726563742060448201526437bbb732b960d91b6064820152608401610b7a565b6001600160a01b038216612b5e5760405162461bcd60e51b8152602060048201526024808201527f4552433732313a207472616e7366657220746f20746865207a65726f206164646044820152637265737360e01b6064820152608401610b7a565b612b698383836134b9565b612b74600082612920565b6001600160a01b0383166000908152600560205260408120805460019290612b9d90849061433b565b90915550506001600160a01b0382166000908152600560205260408120805460019290612bcb908490614205565b909155505060008181526004602052604080822080546001600160a01b0319166001600160a01b0386811691821790925591518493918716917fddf252ad1be2c89b69c2b068fc378daa952ba7f163c4a11628f55a4df523b3ef91a4505050565b612c368282611d85565b61121f57612c4e816001600160a01b03166014613545565b612c59836020613545565b604051602001612c6a929190613f70565b60408051601f198184030181529082905262461bcd60e51b8252610b7a9160040161404d565b612c9a82826125d7565b6000828152600160205260409020611053908261265b565b612cbc8282613727565b6000828152600160205260409020611053908261378c565b600c5460ff16612d1d5760405162461bcd60e51b815260206004820152601460248201527314185d5cd8589b194e881b9bdd081c185d5cd95960621b6044820152606401610b7a565b600c805460ff191690557f5db9ee0a495bf2e6ff9c91a7834c1ba4fdd244a5e8aa4e537bd38aeae4b073aa335b6040516001600160a01b03909116815260200160405180910390a1565b6000612d728261176f565b9050612d80816000846134b9565b612d8b600083612920565b6001600160a01b0381166000908152600560205260408120805460019290612db490849061433b565b909155505060008281526004602052604080822080546001600160a01b0319169055518391906001600160a01b038416907fddf252ad1be2c89b69c2b068fc378daa952ba7f163c4a11628f55a4df523b3ef908390a45050565b805161121f90600e906020840190613b14565b333b15612e705760405162461bcd60e51b815260206004820152601b60248201527f43616c6c65722063616e6e6f74206265206120636f6e747261637400000000006044820152606401610b7a565b333214612ecb5760405162461bcd60e51b8152602060048201526024808201527f4d73672073656e6465722073686f756c64206265206f726967696e616c206361604482015263363632b960e11b6064820152608401610b7a565b61135d81336137a1565b600060268210612f1b5760405162461bcd60e51b81526020600482015260116024820152702130b21033b2b732903837b9b4ba34b7b760791b6044820152606401610b7a565b60008215612f4657612f43612f3184600261431c565b612f3c90600a614274565b8690613840565b90505b6000612f9d612f56856001614205565b612f6190600261431c565b612f6c90600a614274565b612f97612f7a876001614205565b612f8590600261431c565b612f9090600a614274565b899061384c565b906132a4565b90506000612fac85600261431c565b612fb790600a614274565b612fc1908761431c565b9050612fd1836122408484612feb565b979650505050505050565b6060600e8054610e2a90614395565b6000611d7e8284614205565b600c5460ff161561303d5760405162461bcd60e51b815260206004820152601060248201526f14185d5cd8589b194e881c185d5cd95960821b6044820152606401610b7a565b600c805460ff191660011790557f62e78cea01bee320cd4e420270b5ea74000d11b0c9f74754ebdbfc544b05a258612d4a3390565b6000611d7e8383613858565b816001600160a01b0316836001600160a01b031614156130e05760405162461bcd60e51b815260206004820152601960248201527f4552433732313a20617070726f766520746f2063616c6c6572000000000000006044820152606401610b7a565b6001600160a01b03838116600081815260076020908152604080832094871680845294825291829020805460ff191686151590811790915591519182527f17307eab39ab6107e8899845ad3d59bd9653f200f220920489ca2b5937696c31910160405180910390a3505050565b613158848484612a85565b61316484848484613890565b6120675760405162461bcd60e51b8152600401610b7a90614097565b6060816131a45750506040805180820190915260018152600360fc1b602082015290565b8160005b81156131ce57806131b8816143d0565b91506131c79050600a8361421d565b91506131a8565b60008167ffffffffffffffff8111156131f757634e487b7160e01b600052604160045260246000fd5b6040519080825280601f01601f191660200182016040528015613221576020820181803683370190505b5090505b8415612a7d5761323660018361433b565b9150613243600a866143eb565b61324e906030614205565b60f81b81838151811061327157634e487b7160e01b600052603260045260246000fd5b60200101906001600160f81b031916908160001a905350613293600a8661421d565b9450613225565b6000610e15825490565b6000611d7e828461431c565b60008181526001830160205260408120546132f757508154600181810184556000848152602080822090930184905584548482528286019093526040902091909155610e15565b506000610e15565b6000600161330c8461199f565b613316919061433b565b600083815260096020526040902054909150808214613369576001600160a01b03841660009081526008602090815260408083208584528252808320548484528184208190558352600990915290208190555b5060009182526009602090815260408084208490556001600160a01b039094168352600881528383209183525290812055565b600a546000906133ae9060019061433b565b6000838152600b6020526040812054600a80549394509092849081106133e457634e487b7160e01b600052603260045260246000fd5b9060005260206000200154905080600a838154811061341357634e487b7160e01b600052603260045260246000fd5b6000918252602080832090910192909255828152600b9091526040808220849055858252812055600a80548061345957634e487b7160e01b600052603160045260246000fd5b6001900381819060005260206000200160009055905550505050565b60006134808361199f565b6001600160a01b039093166000908152600860209081526040808320868452825280832085905593825260099052919091209190915550565b6134c4838383612670565b600081815260126020526040808220549051839260008051602061446d833981519152926134f89290918291600290614022565b60405180910390a2505050565b60006001600160e01b031982166380ac58cd60e01b148061353657506001600160e01b03198216635b5e139f60e01b145b80610e155750610e158261399d565b6060600061355483600261431c565b61355f906002614205565b67ffffffffffffffff81111561358557634e487b7160e01b600052604160045260246000fd5b6040519080825280601f01601f1916602001820160405280156135af576020820181803683370190505b509050600360fc1b816000815181106135d857634e487b7160e01b600052603260045260246000fd5b60200101906001600160f81b031916908160001a905350600f60fb1b8160018151811061361557634e487b7160e01b600052603260045260246000fd5b60200101906001600160f81b031916908160001a905350600061363984600261431c565b613644906001614205565b90505b60018111156136d8576f181899199a1a9b1b9c1cb0b131b232b360811b85600f166010811061368657634e487b7160e01b600052603260045260246000fd5b1a60f81b8282815181106136aa57634e487b7160e01b600052603260045260246000fd5b60200101906001600160f81b031916908160001a90535060049490941c936136d18161437e565b9050613647565b508315611d7e5760405162461bcd60e51b815260206004820181905260248201527f537472696e67733a20686578206c656e67746820696e73756666696369656e746044820152606401610b7a565b6137318282611d85565b1561121f576000828152602081815260408083206001600160a01b0385168085529252808320805460ff1916905551339285917ff6391f5c32d9c69d2a47ea670b442974b53935d1edc7fd64eb21e047a839171b9190a45050565b6000611d7e836001600160a01b0384166139c2565b806001600160a01b03166137b48361176f565b6001600160a01b03161461121f5760405162461bcd60e51b815260206004820152604760248201527f506f6c796d6f7270685769746847656e654368616e6765723a2063616e6e6f7460448201527f206368616e67652067656e6f6d65206f6620746f6b656e2074686174206973206064820152663737ba1037bbb760c91b608482015260a401610b7a565b6000611d7e82846143eb565b6000611d7e828461421d565b600082600001828154811061387d57634e487b7160e01b600052603260045260246000fd5b9060005260206000200154905092915050565b60006001600160a01b0384163b1561399257604051630a85bd0160e11b81526001600160a01b0385169063150b7a02906138d4903390899088908890600401613fe5565b602060405180830381600087803b1580156138ee57600080fd5b505af192505050801561391e575060408051601f3d908101601f1916820190925261391b91810190613e3d565b60015b613978573d80801561394c576040519150601f19603f3d011682016040523d82523d6000602084013e613951565b606091505b5080516139705760405162461bcd60e51b8152600401610b7a90614097565b805181602001fd5b6001600160e01b031916630a85bd0160e11b149050612a7d565b506001949350505050565b60006001600160e01b03198216635a05180f60e01b1480610e155750610e1582613adf565b60008181526001830160205260408120548015613ad55760006139e660018361433b565b85549091506000906139fa9060019061433b565b9050818114613a7b576000866000018281548110613a2857634e487b7160e01b600052603260045260246000fd5b9060005260206000200154905080876000018481548110613a5957634e487b7160e01b600052603260045260246000fd5b6000918252602080832090910192909255918252600188019052604090208390555b8554869080613a9a57634e487b7160e01b600052603160045260246000fd5b600190038181906000526020600020016000905590558560010160008681526020019081526020016000206000905560019350505050610e15565b6000915050610e15565b60006001600160e01b03198216637965db0b60e01b1480610e1557506301ffc9a760e01b6001600160e01b0319831614610e15565b828054613b2090614395565b90600052602060002090601f016020900481019282613b425760008555613b88565b82601f10613b5b57805160ff1916838001178555613b88565b82800160010185558215613b88579182015b82811115613b88578251825591602001919060010190613b6d565b50613b94929150613b98565b5090565b5b80821115613b945760008155600101613b99565b600067ffffffffffffffff80841115613bc857613bc861442b565b604051601f8501601f19908116603f01168101908282118183101715613bf057613bf061442b565b81604052809350858152868686011115613c0957600080fd5b858560208301376000602087830101525050509392505050565b80358015158114613c3357600080fd5b919050565b600060208284031215613c49578081fd5b8135611d7e81614441565b600060208284031215613c65578081fd5b8151611d7e81614441565b60008060408385031215613c82578081fd5b8235613c8d81614441565b91506020830135613c9d81614441565b809150509250929050565b600080600060608486031215613cbc578081fd5b8335613cc781614441565b92506020840135613cd781614441565b929592945050506040919091013590565b60008060008060808587031215613cfd578081fd5b8435613d0881614441565b93506020850135613d1881614441565b925060408501359150606085013567ffffffffffffffff811115613d3a578182fd5b8501601f81018713613d4a578182fd5b613d5987823560208401613bad565b91505092959194509250565b60008060408385031215613d77578182fd5b8235613d8281614441565b9150613d9060208401613c23565b90509250929050565b60008060408385031215613dab578182fd5b8235613db681614441565b946020939093013593505050565b600060208284031215613dd5578081fd5b5035919050565b60008060408385031215613dee578182fd5b823591506020830135613c9d81614441565b60008060408385031215613e12578182fd5b50508035926020909101359150565b600060208284031215613e32578081fd5b8135611d7e81614456565b600060208284031215613e4e578081fd5b8151611d7e81614456565b600060208284031215613e6a578081fd5b813567ffffffffffffffff811115613e80578182fd5b8201601f81018413613e90578182fd5b612a7d84823560208401613bad565b600060208284031215613eb0578081fd5b5051919050565b60008060008060808587031215613ecc578182fd5b8435935060208501359250613ee360408601613c23565b9396929550929360600135925050565b60008151808452613f0b816020860160208601614352565b601f01601f19169290920160200192915050565b60038110613f3d57634e487b7160e01b600052602160045260246000fd5b9052565b60008351613f53818460208801614352565b835190830190613f67818360208801614352565b01949350505050565b7f416363657373436f6e74726f6c3a206163636f756e7420000000000000000000815260008351613fa8816017850160208801614352565b7001034b99036b4b9b9b4b733903937b6329607d1b6017918401918201528351613fd9816028840160208801614352565b01602801949350505050565b6001600160a01b038581168252841660208201526040810183905260806060820181905260009061401890830184613ef3565b9695505050505050565b8481526020810184905260408101839052608081016140446060830184613f1f565b95945050505050565b602081526000611d7e6020830184613ef3565b60208082526018908201527f4661696c656420746f2072657475726e206578636573732e0000000000000000604082015260600190565b60208082526032908201527f4552433732313a207472616e7366657220746f206e6f6e20455243373231526560408201527131b2b4bb32b91034b6b83632b6b2b73a32b960711b606082015260800190565b60208082526017908201527f4e6f742063616c6c65642066726f6d207468652064616f000000000000000000604082015260600190565b6020808252603a908201527f416464726573733a20756e61626c6520746f2073656e642076616c75652c207260408201527f6563697069656e74206d61792068617665207265766572746564000000000000606082015260800190565b60208082526031908201527f4552433732313a207472616e736665722063616c6c6572206973206e6f74206f6040820152701ddb995c881b9bdc88185c1c1c9bdd9959607a1b606082015260800190565b6020808252601f908201527f5265656e7472616e637947756172643a207265656e7472616e742063616c6c00604082015260600190565b60008219821115614218576142186143ff565b500190565b60008261422c5761422c614415565b500490565b600181815b8085111561426c578160001904821115614252576142526143ff565b8085161561425f57918102915b93841c9390800290614236565b509250929050565b6000611d7e838360008261428a57506001610e15565b8161429757506000610e15565b81600181146142ad57600281146142b7576142d3565b6001915050610e15565b60ff8411156142c8576142c86143ff565b50506001821b610e15565b5060208310610133831016604e8410600b84101617156142f6575081810a610e15565b6143008383614231565b8060001904821115614314576143146143ff565b029392505050565b6000816000190483118215151615614336576143366143ff565b500290565b60008282101561434d5761434d6143ff565b500390565b60005b8381101561436d578181015183820152602001614355565b838111156120675750506000910152565b60008161438d5761438d6143ff565b506000190190565b600181811c908216806143a957607f821691505b602082108114156143ca57634e487b7160e01b600052602260045260246000fd5b50919050565b60006000198214156143e4576143e46143ff565b5060010190565b6000826143fa576143fa614415565b500690565b634e487b7160e01b600052601160045260246000fd5b634e487b7160e01b600052601260045260246000fd5b634e487b7160e01b600052604160045260246000fd5b6001600160a01b038116811461135d57600080fd5b6001600160e01b03198116811461135d57600080fdfe8c0bdd7bca83c4e0c810cbecf44bc544a9dc0b9f265664e31ce0ce85f07a052ba2646970667358221220e3b6c00bc3708391cc69075b7b5c559b6c7c989ffdb37f8bf70b36f7c1ffdd5364736f6c63430008040033","abi":[{"inputs":[{"components":[{"internalType":"string","name":"name","type":"string"},{"internalType":"string","name":"symbol","type":"string"},{"internalType":"string","name":"baseURI","type":"string"},{"internalType":"address payable","name":"_daoAddress","type":"address"},{"internalType":"uint256","name":"premintedTokensCount","type":"uint256"},{"internalType":"uint256","name":"_baseGenomeChangePrice","type":"uint256"},{"internalType":"uint256","name":"_polymorphPrice","type":"uint256"},{"internalType":"uint256","name":"_maxSupply","type":"uint256"},{"internalType":"uint256","name":"_randomizeGenomePrice","type":"uint256"},{"internalType":"uint256","name":"_bulkBuyLimit","type":"uint256"},{"internalType":"string","name":"_arweaveAssetsJSON","type":"string"},{"internalType":"address","name":"_polymorphV1Address","type":"address"}],"internalType":"struct PolymorphRoot.Params","name":"params","type":"tuple"}],"stateMutability":"nonpayable","type":"constructor"},{"anonymous":false,"inputs":[{"indexed":true,"internalType":"address","name":"owner","type":"address"},{"indexed":true,"internalType":"address","name":"approved","type":"address"},{"indexed":true,"internalType":"uint256","name":"tokenId","type":"uint256"}],"name":"Approval","type":"event"},{"anonymous":false,"inputs":[{"indexed":true,"internalType":"address","name":"owner","type":"address"},{"indexed":true,"internalType":"address","name":"operator","type":"address"},{"indexed":false,"internalType":"bool","name":"approved","type":"bool"}],"name":"ApprovalForAll","type":"event"},{"anonymous":false,"inputs":[{"indexed":false,"internalType":"string","name":"arweaveAssetsJSON","type":"string"}],"name":"ArweaveAssetsJSONChanged","type":"event"},{"anonymous":false,"inputs":[{"indexed":false,"internalType":"uint256","name":"newGenomeChange","type":"uint256"}],"name":"BaseGenomeChangePriceChanged","type":"event"},{"anonymous":false,"inputs":[{"indexed":false,"internalType":"string","name":"baseURI","type":"string"}],"name":"BaseURIChanged","type":"event"},{"anonymous":false,"inputs":[{"indexed":false,"internalType":"uint256","name":"newBulkBuyLimit","type":"uint256"}],"name":"BulkBuyLimitChanged","type":"event"},{"anonymous":false,"inputs":[{"indexed":false,"internalType":"uint256","name":"newMaxSupply","type":"uint256"}],"name":"MaxSupplyChanged","type":"event"},{"anonymous":false,"inputs":[{"indexed":false,"internalType":"address","name":"account","type":"address"}],"name":"Paused","type":"event"},{"anonymous":false,"inputs":[{"indexed":false,"internalType":"uint256","name":"newPolymorphPrice","type":"uint256"}],"name":"PolymorphPriceChanged","type":"event"},{"anonymous":false,"inputs":[{"indexed":false,"internalType":"uint256","name":"newRandomizeGenomePriceChange","type":"uint256"}],"name":"RandomizeGenomePriceChanged","type":"event"},{"anonymous":false,"inputs":[{"indexed":true,"internalType":"bytes32","name":"role","type":"bytes32"},{"indexed":true,"internalType":"bytes32","name":"previousAdminRole","type":"bytes32"},{"indexed":true,"internalType":"bytes32","name":"newAdminRole","type":"bytes32"}],"name":"RoleAdminChanged","type":"event"},{"anonymous":false,"inputs":[{"indexed":true,"internalType":"bytes32","name":"role","type":"bytes32"},{"indexed":true,"internalType":"address","name":"account","type":"address"},{"indexed":true,"internalType":"address","name":"sender","type":"address"}],"name":"RoleGranted","type":"event"},{"anonymous":false,"inputs":[{"indexed":true,"internalType":"bytes32","name":"role","type":"bytes32"},{"indexed":true,"internalType":"address","name":"account","type":"address"},{"indexed":true,"internalType":"address","name":"sender","type":"address"}],"name":"RoleRevoked","type":"event"},{"anonymous":false,"inputs":[{"indexed":true,"internalType":"uint256","name":"oldTokenId","type":"uint256"},{"indexed":true,"internalType":"uint256","name":"newTokenId","type":"uint256"},{"indexed":false,"internalType":"uint256","name":"gene","type":"uint256"}],"name":"TokenBurnedAndMinted","type":"event"},{"anonymous":false,"inputs":[{"indexed":true,"internalType":"uint256","name":"tokenId","type":"uint256"},{"indexed":false,"internalType":"uint256","name":"newGene","type":"uint256"}],"name":"TokenMinted","type":"event"},{"anonymous":false,"inputs":[{"indexed":true,"internalType":"uint256","name":"tokenId","type":"uint256"},{"indexed":false,"internalType":"uint256","name":"oldGene","type":"uint256"},{"indexed":false,"internalType":"uint256","name":"newGene","type":"uint256"},{"indexed":false,"internalType":"uint256","name":"price","type":"uint256"},{"indexed":false,"internalType":"enum Polymorph.PolymorphEventType","name":"eventType","type":"uint8"}],"name":"TokenMorphed","type":"event"},{"anonymous":false,"inputs":[{"indexed":true,"internalType":"address","name":"from","type":"address"},{"indexed":true,"internalType":"address","name":"to","type":"address"},{"indexed":true,"internalType":"uint256","name":"tokenId","type":"uint256"}],"name":"Transfer","type":"event"},{"anonymous":false,"inputs":[{"indexed":false,"internalType":"address","name":"account","type":"address"}],"name":"Unpaused","type":"event"},{"inputs":[],"name":"DEFAULT_ADMIN_ROLE","outputs":[{"internalType":"bytes32","name":"","type":"bytes32"}],"stateMutability":"view","type":"function"},{"inputs":[],"name":"MINTER_ROLE","outputs":[{"internalType":"bytes32","name":"","type":"bytes32"}],"stateMutability":"view","type":"function"},{"inputs":[],"name":"PAUSER_ROLE","outputs":[{"internalType":"bytes32","name":"","type":"bytes32"}],"stateMutability":"view","type":"function"},{"inputs":[{"internalType":"address","name":"to","type":"address"},{"internalType":"uint256","name":"tokenId","type":"uint256"}],"name":"approve","outputs":[],"stateMutability":"nonpayable","type":"function"},{"inputs":[],"name":"arweaveAssetsJSON","outputs":[{"internalType":"string","name":"","type":"string"}],"stateMutability":"view","type":"function"},{"inputs":[{"internalType":"address","name":"owner","type":"address"}],"name":"balanceOf","outputs":[{"internalType":"uint256","name":"","type":"uint256"}],"stateMutability":"view","type":"function"},{"inputs":[],"name":"baseGenomeChangePrice","outputs":[{"internalType":"uint256","name":"","type":"uint256"}],"stateMutability":"view","type":"function"},{"inputs":[],"name":"baseURI","outputs":[{"internalType":"string","name":"","type":"string"}],"stateMutability":"view","type":"function"},{"inputs":[{"internalType":"uint256","name":"amount","type":"uint256"}],"name":"bulkBuy","outputs":[],"stateMutability":"payable","type":"function"},{"inputs":[],"name":"bulkBuyLimit","outputs":[{"internalType":"uint256","name":"","type":"uint256"}],"stateMutability":"view","type":"function"},{"inputs":[{"internalType":"uint256","name":"tokenId","type":"uint256"}],"name":"burn","outputs":[],"stateMutability":"nonpayable","type":"function"},{"inputs":[{"internalType":"uint256","name":"tokenId","type":"uint256"}],"name":"burnAndMintNewPolymorph","outputs":[],"stateMutability":"nonpayable","type":"function"},{"inputs":[{"internalType":"uint256","name":"newGenomeChangePrice","type":"uint256"}],"name":"changeBaseGenomeChangePrice","outputs":[],"stateMutability":"nonpayable","type":"function"},{"inputs":[{"internalType":"uint256","name":"newRandomizeGenomePrice","type":"uint256"}],"name":"changeRandomizeGenomePrice","outputs":[],"stateMutability":"nonpayable","type":"function"},{"inputs":[],"name":"daoAddress","outputs":[{"internalType":"address payable","name":"","type":"address"}],"stateMutability":"view","type":"function"},{"inputs":[{"internalType":"uint256","name":"tokenId","type":"uint256"}],"name":"geneOf","outputs":[{"internalType":"uint256","name":"gene","type":"uint256"}],"stateMutability":"view","type":"function"},{"inputs":[{"internalType":"uint256","name":"tokenId","type":"uint256"}],"name":"genomeChanges","outputs":[{"internalType":"uint256","name":"genomeChnages","type":"uint256"}],"stateMutability":"view","type":"function"},{"inputs":[{"internalType":"uint256","name":"tokenId","type":"uint256"}],"name":"getApproved","outputs":[{"internalType":"address","name":"","type":"address"}],"stateMutability":"view","type":"function"},{"inputs":[{"internalType":"bytes32","name":"role","type":"bytes32"}],"name":"getRoleAdmin","outputs":[{"internalType":"bytes32","name":"","type":"bytes32"}],"stateMutability":"view","type":"function"},{"inputs":[{"internalType":"bytes32","name":"role","type":"bytes32"},{"internalType":"uint256","name":"index","type":"uint256"}],"name":"getRoleMember","outputs":[{"internalType":"address","name":"","type":"address"}],"stateMutability":"view","type":"function"},{"inputs":[{"internalType":"bytes32","name":"role","type":"bytes32"}],"name":"getRoleMemberCount","outputs":[{"internalType":"uint256","name":"","type":"uint256"}],"stateMutability":"view","type":"function"},{"inputs":[{"internalType":"bytes32","name":"role","type":"bytes32"},{"internalType":"address","name":"account","type":"address"}],"name":"grantRole","outputs":[],"stateMutability":"nonpayable","type":"function"},{"inputs":[{"internalType":"bytes32","name":"role","type":"bytes32"},{"internalType":"address","name":"account","type":"address"}],"name":"hasRole","outputs":[{"internalType":"bool","name":"","type":"bool"}],"stateMutability":"view","type":"function"},{"inputs":[{"internalType":"address","name":"owner","type":"address"},{"internalType":"address","name":"operator","type":"address"}],"name":"isApprovedForAll","outputs":[{"internalType":"bool","name":"","type":"bool"}],"stateMutability":"view","type":"function"},{"inputs":[{"internalType":"uint256","name":"","type":"uint256"}],"name":"isNotVirgin","outputs":[{"internalType":"bool","name":"","type":"bool"}],"stateMutability":"view","type":"function"},{"inputs":[],"name":"lastTokenId","outputs":[{"internalType":"uint256","name":"tokenId","type":"uint256"}],"stateMutability":"view","type":"function"},{"inputs":[],"name":"maxSupply","outputs":[{"internalType":"uint256","name":"","type":"uint256"}],"stateMutability":"view","type":"function"},{"inputs":[],"name":"mint","outputs":[],"stateMutability":"payable","type":"function"},{"inputs":[{"internalType":"address","name":"to","type":"address"}],"name":"mint","outputs":[],"stateMutability":"pure","type":"function"},{"inputs":[{"internalType":"uint256","name":"tokenId","type":"uint256"},{"internalType":"uint256","name":"genePosition","type":"uint256"}],"name":"morphGene","outputs":[],"stateMutability":"payable","type":"function"},{"inputs":[],"name":"name","outputs":[{"internalType":"string","name":"","type":"string"}],"stateMutability":"view","type":"function"},{"inputs":[{"internalType":"uint256","name":"tokenId","type":"uint256"}],"name":"ownerOf","outputs":[{"internalType":"address","name":"","type":"address"}],"stateMutability":"view","type":"function"},{"inputs":[],"name":"pause","outputs":[],"stateMutability":"nonpayable","type":"function"},{"inputs":[],"name":"paused","outputs":[{"internalType":"bool","name":"","type":"bool"}],"stateMutability":"view","type":"function"},{"inputs":[],"name":"polymorphPrice","outputs":[{"internalType":"uint256","name":"","type":"uint256"}],"stateMutability":"view","type":"function"},{"inputs":[],"name":"polymorphV1Contract","outputs":[{"internalType":"contract Polymorph","name":"","type":"address"}],"stateMutability":"view","type":"function"},{"inputs":[{"internalType":"uint256","name":"tokenId","type":"uint256"}],"name":"priceForGenomeChange","outputs":[{"internalType":"uint256","name":"price","type":"uint256"}],"stateMutability":"view","type":"function"},{"inputs":[{"internalType":"uint256","name":"tokenId","type":"uint256"}],"name":"randomizeGenome","outputs":[],"stateMutability":"payable","type":"function"},{"inputs":[],"name":"randomizeGenomePrice","outputs":[{"internalType":"uint256","name":"","type":"uint256"}],"stateMutability":"view","type":"function"},{"inputs":[{"internalType":"bytes32","name":"role","type":"bytes32"},{"internalType":"address","name":"account","type":"address"}],"name":"renounceRole","outputs":[],"stateMutability":"nonpayable","type":"function"},{"inputs":[{"internalType":"bytes32","name":"role","type":"bytes32"},{"internalType":"address","name":"account","type":"address"}],"name":"revokeRole","outputs":[],"stateMutability":"nonpayable","type":"function"},{"inputs":[{"internalType":"address","name":"from","type":"address"},{"internalType":"address","name":"to","type":"address"},{"internalType":"uint256","name":"tokenId","type":"uint256"}],"name":"safeTransferFrom","outputs":[],"stateMutability":"nonpayable","type":"function"},{"inputs":[{"internalType":"address","name":"from","type":"address"},{"internalType":"address","name":"to","type":"address"},{"internalType":"uint256","name":"tokenId","type":"uint256"},{"internalType":"bytes","name":"_data","type":"bytes"}],"name":"safeTransferFrom","outputs":[],"stateMutability":"nonpayable","type":"function"},{"inputs":[{"internalType":"address","name":"operator","type":"address"},{"internalType":"bool","name":"approved","type":"bool"}],"name":"setApprovalForAll","outputs":[],"stateMutability":"nonpayable","type":"function"},{"inputs":[{"internalType":"string","name":"_arweaveAssetsJSON","type":"string"}],"name":"setArweaveAssetsJSON","outputs":[],"stateMutability":"nonpayable","type":"function"},{"inputs":[{"internalType":"string","name":"_baseURI","type":"string"}],"name":"setBaseURI","outputs":[],"stateMutability":"nonpayable","type":"function"},{"inputs":[{"internalType":"uint256","name":"_bulkBuyLimit","type":"uint256"}],"name":"setBulkBuyLimit","outputs":[],"stateMutability":"nonpayable","type":"function"},{"inputs":[{"internalType":"uint256","name":"_maxSupply","type":"uint256"}],"name":"setMaxSupply","outputs":[],"stateMutability":"nonpayable","type":"function"},{"inputs":[{"internalType":"uint256","name":"newPolymorphPrice","type":"uint256"}],"name":"setPolymorphPrice","outputs":[],"stateMutability":"nonpayable","type":"function"},{"inputs":[{"internalType":"bytes4","name":"interfaceId","type":"bytes4"}],"name":"supportsInterface","outputs":[{"internalType":"bool","name":"","type":"bool"}],"stateMutability":"view","type":"function"},{"inputs":[],"name":"symbol","outputs":[{"internalType":"string","name":"","type":"string"}],"stateMutability":"view","type":"function"},{"inputs":[{"internalType":"uint256","name":"index","type":"uint256"}],"name":"tokenByIndex","outputs":[{"internalType":"uint256","name":"","type":"uint256"}],"stateMutability":"view","type":"function"},{"inputs":[{"internalType":"address","name":"owner","type":"address"},{"internalType":"uint256","name":"index","type":"uint256"}],"name":"tokenOfOwnerByIndex","outputs":[{"internalType":"uint256","name":"","type":"uint256"}],"stateMutability":"view","type":"function"},{"inputs":[{"internalType":"uint256","name":"tokenId","type":"uint256"}],"name":"tokenURI","outputs":[{"internalType":"string","name":"","type":"string"}],"stateMutability":"view","type":"function"},{"inputs":[],"name":"totalBurnedV1","outputs":[{"internalType":"uint256","name":"","type":"uint256"}],"stateMutability":"view","type":"function"},{"inputs":[],"name":"totalSupply","outputs":[{"internalType":"uint256","name":"","type":"uint256"}],"stateMutability":"view","type":"function"},{"inputs":[{"internalType":"address","name":"from","type":"address"},{"internalType":"address","name":"to","type":"address"},{"internalType":"uint256","name":"tokenId","type":"uint256"}],"name":"transferFrom","outputs":[],"stateMutability":"nonpayable","type":"function"},{"inputs":[],"name":"unpause","outputs":[],"stateMutability":"nonpayable","type":"function"},{"inputs":[{"internalType":"address","name":"bridgeAddress","type":"address"},{"internalType":"bool","name":"status","type":"bool"}],"name":"whitelistBridgeAddress","outputs":[],"stateMutability":"nonpayable","type":"function"},{"inputs":[{"internalType":"address","name":"","type":"address"}],"name":"whitelistTunnelAddresses","outputs":[{"internalType":"bool","name":"","type":"bool"}],"stateMutability":"view","type":"function"},{"inputs":[{"internalType":"uint256","name":"tokenId","type":"uint256"},{"internalType":"uint256","name":"gene","type":"uint256"},{"internalType":"bool","name":"isVirgin","type":"bool"},{"internalType":"uint256","name":"genomeChangesCount","type":"uint256"}],"name":"wormholeUpdateGene","outputs":[],"stateMutability":"nonpayable","type":"function"},{"stateMutability":"payable","type":"receive"}]}