{"address":"0xD43e3ecCe4430dE35bb01461dB8474CBf3CCd917","bytecode":"0x608060405234801561001057600080fd5b50604051610c42380380610c4283398101604081905261002f91610060565b600080546001600160a01b039384166001600160a01b031991821617909155600280549290931691161790556100b1565b60008060408385031215610072578182fd5b825161007d81610099565b602084015190925061008e81610099565b809150509250929050565b6001600160a01b03811681146100ae57600080fd5b50565b610b82806100c06000396000f3fe608060405234801561001057600080fd5b50600436106100a95760003560e01c8063888370941161007157806388837094146101345780639a7c4b7114610149578063af57513f1461015c578063c8509ec21461016f578063d928a25214610182578063e6a8e7451461019557600080fd5b8063142bc2ae146100ae5780632131c68c146100cc578063450d11f0146100f75780635a319df91461010a5780637f1e9cb014610121575b600080fd5b6100b66101a8565b6040516100c39190610aa6565b60405180910390f35b6002546100df906001600160a01b031681565b6040516001600160a01b0390911681526020016100c3565b6000546100df906001600160a01b031681565b61011360045481565b6040519081526020016100c3565b6001546100df906001600160a01b031681565b610147610142366004610947565b610236565b005b610147610157366004610a22565b6102c9565b61014761016a3660046109a0565b610374565b61014761017d366004610947565b610676565b6003546100df906001600160a01b031681565b6005546100df906001600160a01b031681565b600680546101b590610af9565b80601f01602080910402602001604051908101604052809291908181526020018280546101e190610af9565b801561022e5780601f106102035761010080835404028352916020019161022e565b820191906000526020600020905b81548152906001019060200180831161021157829003601f168201915b505050505081565b6001546001600160a01b0316156102a75760405162461bcd60e51b815260206004820152602a60248201527f4678426173654368696c6454756e6e656c3a20524f4f545f54554e4e454c5f4160448201526913149150511657d4d15560b21b60648201526084015b60405180910390fd5b600180546001600160a01b0319166001600160a01b0392909216919091179055565b6000546001600160a01b0316331461032d5760405162461bcd60e51b815260206004820152602160248201527f4678426173654368696c6454756e6e656c3a20494e56414c49445f53454e44456044820152602960f91b606482015260840161029e565b61036e848484848080601f0160208091040260200160405190810160405280939291908181526020018383808284376000920191909152506106f292505050565b50505050565b6003546040516331a9108f60e11b815260048101839052829133916001600160a01b0390911690636352211e9060240160206040518083038186803b1580156103bc57600080fd5b505afa1580156103d0573d6000803e3d6000fd5b505050506040513d601f19601f820116820180604052508101906103f4919061096a565b6001600160a01b03161461044a5760405162461bcd60e51b815260206004820152601d60248201527f4f6e6c79206f776e65722063616e206d6f766520706f6c796d6f727068000000604482015260640161029e565b60035460405163352df34360e11b8152600481018490526000916001600160a01b031690636a5be6869060240160206040518083038186803b15801561048f57600080fd5b505afa1580156104a3573d6000803e3d6000fd5b505050506040513d601f19601f820116820180604052508101906104c791906109b8565b6003546040516326fbba0b60e11b8152600481018690529192506000916001600160a01b0390911690634df774169060240160206040518083038186803b15801561051157600080fd5b505afa158015610525573d6000803e3d6000fd5b505050506040513d601f19601f820116820180604052508101906105499190610986565b6003546040516311e4683d60e11b8152600481018790529192506000916001600160a01b03909116906323c8d07a9060240160206040518083038186803b15801561059357600080fd5b505afa1580156105a7573d6000803e3d6000fd5b505050506040513d601f19601f820116820180604052508101906105cb91906109b8565b600354604051630852cd8d60e31b8152600481018890529192506001600160a01b0316906342966c6890602401600060405180830381600087803b15801561061257600080fd5b505af1158015610626573d6000803e3d6000fd5b50506040805160208101899052339181019190915260608101869052841515608082015260a0810184905261066f925060c0019050604051602081830303815290604052610831565b5050505050565b6002546001600160a01b031633146106d05760405162461bcd60e51b815260206004820152601760248201527f4e6f742063616c6c65642066726f6d207468652064616f000000000000000000604482015260640161029e565b600380546001600160a01b0319166001600160a01b0392909216919091179055565b6004839055600580546001600160a01b0319166001600160a01b0384161790558051610725906006906020840190610899565b5060008060008060006107378661086b565b600354604051634a1ff7f960e11b8152600481018790526001600160a01b03808716602483015260448201869052969b509499509297509095509350919091169063943feff290606401600060405180830381600087803b15801561079b57600080fd5b505af11580156107af573d6000803e3d6000fd5b5050600354604051631a8700f760e21b815260048101899052602481018790528515156044820152606481018590526001600160a01b039091169250636a1c03dc9150608401600060405180830381600087803b15801561080f57600080fd5b505af1158015610823573d6000803e3d6000fd5b505050505050505050505050565b7f8c5261668696ce22758910d05bab8f186d6eb247ceac2af2e82c7dc17669b036816040516108609190610aa6565b60405180910390a150565b60008060008060008580602001905181019061088791906109d0565b939a9299509097509550909350915050565b8280546108a590610af9565b90600052602060002090601f0160209004810192826108c7576000855561090d565b82601f106108e057805160ff191683800117855561090d565b8280016001018555821561090d579182015b8281111561090d5782518255916020019190600101906108f2565b5061091992915061091d565b5090565b5b80821115610919576000815560010161091e565b8051801515811461094257600080fd5b919050565b600060208284031215610958578081fd5b813561096381610b34565b9392505050565b60006020828403121561097b578081fd5b815161096381610b34565b600060208284031215610997578081fd5b61096382610932565b6000602082840312156109b1578081fd5b5035919050565b6000602082840312156109c9578081fd5b5051919050565b600080600080600060a086880312156109e7578081fd5b8551945060208601516109f981610b34565b60408701519094509250610a0f60608701610932565b9150608086015190509295509295909350565b60008060008060608587031215610a37578384fd5b843593506020850135610a4981610b34565b9250604085013567ffffffffffffffff80821115610a65578384fd5b818701915087601f830112610a78578384fd5b813581811115610a86578485fd5b886020828501011115610a97578485fd5b95989497505060200194505050565b6000602080835283518082850152825b81811015610ad257858101830151858201604001528201610ab6565b81811115610ae35783604083870101525b50601f01601f1916929092016040019392505050565b600181811c90821680610b0d57607f821691505b60208210811415610b2e57634e487b7160e01b600052602260045260246000fd5b50919050565b6001600160a01b0381168114610b4957600080fd5b5056fea264697066735822122003eee7caf5343bdd21ad5d616c288664ab4fac26758717e3af8e469256cf832464736f6c63430008040033","abi":[{"inputs":[{"internalType":"address","name":"_fxChild","type":"address"},{"internalType":"address payable","name":"_daoAddress","type":"address"}],"stateMutability":"nonpayable","type":"constructor"},{"anonymous":false,"inputs":[{"indexed":false,"internalType":"bytes","name":"message","type":"bytes"}],"name":"MessageSent","type":"event"},{"inputs":[],"name":"daoAddress","outputs":[{"internalType":"address payable","name":"","type":"address"}],"stateMutability":"view","type":"function"},{"inputs":[],"name":"fxChild","outputs":[{"internalType":"address","name":"","type":"address"}],"stateMutability":"view","type":"function"},{"inputs":[],"name":"fxRootTunnel","outputs":[{"internalType":"address","name":"","type":"address"}],"stateMutability":"view","type":"function"},{"inputs":[],"name":"latestData","outputs":[{"internalType":"bytes","name":"","type":"bytes"}],"stateMutability":"view","type":"function"},{"inputs":[],"name":"latestRootMessageSender","outputs":[{"internalType":"address","name":"","type":"address"}],"stateMutability":"view","type":"function"},{"inputs":[],"name":"latestStateId","outputs":[{"internalType":"uint256","name":"","type":"uint256"}],"stateMutability":"view","type":"function"},{"inputs":[{"internalType":"uint256","name":"tokenId","type":"uint256"}],"name":"moveThroughWormhole","outputs":[],"stateMutability":"nonpayable","type":"function"},{"inputs":[],"name":"polymorphContract","outputs":[{"internalType":"contract PolymorphChild","name":"","type":"address"}],"stateMutability":"view","type":"function"},{"inputs":[{"internalType":"uint256","name":"stateId","type":"uint256"},{"internalType":"address","name":"rootMessageSender","type":"address"},{"internalType":"bytes","name":"data","type":"bytes"}],"name":"processMessageFromRoot","outputs":[],"stateMutability":"nonpayable","type":"function"},{"inputs":[{"internalType":"address","name":"_fxRootTunnel","type":"address"}],"name":"setFxRootTunnel","outputs":[],"stateMutability":"nonpayable","type":"function"},{"inputs":[{"internalType":"address payable","name":"contractAddress","type":"address"}],"name":"setPolymorphContract","outputs":[],"stateMutability":"nonpayable","type":"function"}]}