{"address":"0x2d16C6825D2377b2B87D378F359130B17C727367","bytecode":"0x60806040523480156200001157600080fd5b50604051620041db380380620041db833981016040819052620000349162000520565b86868686868686868686868481858585828281600290805190602001906200005e929190620003aa565b50805162000074906003906020840190620003aa565b5050600c805460ff191690555080516200009690600e906020840190620003aa565b50620000a4600033620001a3565b620000d07f9f2df0fed2c77648de5860a4cc508cd0818c85b8b8a1ab4ceeef8d981c8956a633620001a3565b620000fc7f65d7a28e3265b37a6474929f336521b332c1681b933f6cb9f3376673440d862a33620001a3565b50506001600f5550601080546001600160a01b0319166001600160a01b0392909216919091179055805162000139906013906020840190620003aa565b5050506017959095555050506018555050601080546001600160a01b0319166001600160a01b038916179055505081516200017d91506013906020840190620003aa565b50620001956011620001b360201b62001c651760201c565b505050505050505062000671565b620001af828262000255565b5050565b600033325a845442438040620001cb606483620005fa565b6040516001600160601b03196060998a1b811660208301529790981b909616603488015260488701949094526068860192909252608885015260a884015260c88301524060e88201526101080160408051601f198184030181528282528051602091820120908301520160408051601f198184030181529190528051602090910120918290555090565b6200026c82826200029860201b62001d0a1760201c565b60008281526001602090815260409091206200029391839062001d8e62000338821b17901c565b505050565b6000828152602081815260408083206001600160a01b038516845290915290205460ff16620001af576000828152602081815260408083206001600160a01b03851684529091529020805460ff19166001179055620002f43390565b6001600160a01b0316816001600160a01b0316837f2f8788117e7eff1d82e926ec794901d17c78024a50270940304540a733656f0d60405160405180910390a45050565b60006200034f836001600160a01b03841662000358565b90505b92915050565b6000818152600183016020526040812054620003a15750815460018181018455600084815260208082209093018490558454848252828601909352604090209190915562000352565b50600062000352565b828054620003b8906200061e565b90600052602060002090601f016020900481019282620003dc576000855562000427565b82601f10620003f757805160ff191683800117855562000427565b8280016001018555821562000427579182015b82811115620004275782518255916020019190600101906200040a565b506200043592915062000439565b5090565b5b808211156200043557600081556001016200043a565b80516001600160a01b03811681146200046857600080fd5b919050565b600082601f8301126200047e578081fd5b81516001600160401b03808211156200049b576200049b6200065b565b604051601f8301601f19908116603f01168101908282118183101715620004c657620004c66200065b565b81604052838152602092508683858801011115620004e2578485fd5b8491505b83821015620005055785820183015181830184015290820190620004e6565b838211156200051657848385830101525b9695505050505050565b600080600080600080600060e0888a0312156200053b578283fd5b87516001600160401b038082111562000552578485fd5b620005608b838c016200046d565b985060208a015191508082111562000576578485fd5b620005848b838c016200046d565b975060408a01519150808211156200059a578485fd5b620005a88b838c016200046d565b9650620005b860608b0162000450565b955060808a0151945060a08a0151935060c08a0151915080821115620005dc578283fd5b50620005eb8a828b016200046d565b91505092959891949750929550565b6000828210156200061957634e487b7160e01b81526011600452602481fd5b500390565b600181811c908216806200063357607f821691505b602082108114156200065557634e487b7160e01b600052602260045260246000fd5b50919050565b634e487b7160e01b600052604160045260246000fd5b613b5a80620006816000396000f3fe60806040526004361061031a5760003560e01c80636a627842116101ab578063ab39a3c8116100f7578063d539139311610095578063e985e9c51161006f578063e985e9c51461097e578063ec9c074c146109c7578063f528a627146109dd578063f84ddf0b146109f257600080fd5b8063d5391393146108f6578063d547741f1461092a578063e63ab1e91461094a57600080fd5b8063ca15c873116100d1578063ca15c87314610870578063cccb6d0d14610890578063ce14617d146108c0578063d45351e5146108d657600080fd5b8063ab39a3c814610810578063b88d4fde14610830578063c87b56dd1461085057600080fd5b806391d148541161016457806398c5c0781161013e57806398c5c078146107a85780639e7bb467146107c8578063a217fddf146107db578063a22cb465146107f057600080fd5b806391d1485414610753578063943feff21461077357806395d89b411461079357600080fd5b80636a627842146106a95780636c0360eb146106c957806370a08231146106de5780638456cb59146106fe57806387087e61146107135780639010d07c1461073357600080fd5b806336568abe1161026a57806355f804b3116102235780635c975abb116101fd5780635c975abb146106245780636352211e1461063c5780636a1c03dc1461065c5780636a5be6861461067c57600080fd5b806355f804b3146105d157806356a5c926146105f157806356b1b3001461060457600080fd5b806336568abe1461050c5780633f4ba83a1461052c57806342842e0e1461054157806342966c68146105615780634df77416146105815780634f6ccce7146105b157600080fd5b806323b872dd116102d757806324ae3fb5116102b157806324ae3fb51461048c578063289ea0a9146104ac5780632f2ff15d146104cc5780632f745c59146104ec57600080fd5b806323b872dd1461040f57806323c8d07a1461042f578063248a9ca31461045c57600080fd5b806301ffc9a71461031f57806306fdde0314610354578063081812fc14610376578063095ea7b3146103ae57806318160ddd146103d05780632131c68c146103ef575b600080fd5b34801561032b57600080fd5b5061033f61033a366004613546565b610a07565b60405190151581526020015b60405180910390f35b34801561036057600080fd5b50610369610a18565b60405161034b9190613755565b34801561038257600080fd5b506103966103913660046134eb565b610aaa565b6040516001600160a01b03909116815260200161034b565b3480156103ba57600080fd5b506103ce6103c93660046134a6565b610b44565b005b3480156103dc57600080fd5b50600a545b60405190815260200161034b565b3480156103fb57600080fd5b50601054610396906001600160a01b031681565b34801561041b57600080fd5b506103ce61042a3660046133bc565b610c5a565b34801561043b57600080fd5b506103e161044a3660046134eb565b60009081526015602052604090205490565b34801561046857600080fd5b506103e16104773660046134eb565b60009081526020819052604090206001015490565b34801561049857600080fd5b50601954610396906001600160a01b031681565b3480156104b857600080fd5b506103ce6104c73660046134eb565b610c8c565b3480156104d857600080fd5b506103ce6104e7366004613503565b610cf2565b3480156104f857600080fd5b506103e16105073660046134a6565b610d18565b34801561051857600080fd5b506103ce610527366004613503565b610dae565b34801561053857600080fd5b506103ce610e2c565b34801561054d57600080fd5b506103ce61055c3660046133bc565b610ed4565b34801561056d57600080fd5b506103ce61057c3660046134eb565b610eef565b34801561058d57600080fd5b5061033f61059c3660046134eb565b60166020526000908152604090205460ff1681565b3480156105bd57600080fd5b506103e16105cc3660046134eb565b610f69565b3480156105dd57600080fd5b506103ce6105ec36600461357e565b61100a565b6103ce6105ff366004613525565b61106c565b34801561061057600080fd5b506103ce61061f36600461357e565b6112e0565b34801561063057600080fd5b50600c5460ff1661033f565b34801561064857600080fd5b506103966106573660046134eb565b61134d565b34801561066857600080fd5b506103ce6106773660046135e8565b6113c4565b34801561068857600080fd5b506103e16106973660046134eb565b60009081526012602052604090205490565b3480156106b557600080fd5b506103ce6106c4366004613370565b6114b3565b3480156106d557600080fd5b50610369611506565b3480156106ea57600080fd5b506103e16106f9366004613370565b611515565b34801561070a57600080fd5b506103ce61159c565b34801561071f57600080fd5b506103ce61072e366004613370565b611640565b34801561073f57600080fd5b5061039661074e366004613525565b61168c565b34801561075f57600080fd5b5061033f61076e366004613503565b6116ab565b34801561077f57600080fd5b506103ce61078e3660046135c4565b6116d4565b34801561079f57600080fd5b506103696117a9565b3480156107b457600080fd5b506103ce6107c33660046134eb565b6117b8565b6103ce6107d63660046134eb565b611817565b3480156107e757600080fd5b506103e1600081565b3480156107fc57600080fd5b506103ce61080b366004613470565b6119fe565b34801561081c57600080fd5b506103ce61082b366004613470565b611a09565b34801561083c57600080fd5b506103ce61084b3660046133f7565b611a5e565b34801561085c57600080fd5b5061036961086b3660046134eb565b611a96565b34801561087c57600080fd5b506103e161088b3660046134eb565b611b70565b34801561089c57600080fd5b5061033f6108ab366004613370565b60146020526000908152604090205460ff1681565b3480156108cc57600080fd5b506103e160175481565b3480156108e257600080fd5b506103e16108f13660046134eb565b611b87565b34801561090257600080fd5b506103e17f9f2df0fed2c77648de5860a4cc508cd0818c85b8b8a1ab4ceeef8d981c8956a681565b34801561093657600080fd5b506103ce610945366004613503565b611ba6565b34801561095657600080fd5b506103e17f65d7a28e3265b37a6474929f336521b332c1681b933f6cb9f3376673440d862a81565b34801561098a57600080fd5b5061033f61099936600461338a565b6001600160a01b03918216600090815260076020908152604080832093909416825291909152205460ff1690565b3480156109d357600080fd5b506103e160185481565b3480156109e957600080fd5b50610369611bcc565b3480156109fe57600080fd5b506103e1611c5a565b6000610a1282611da3565b92915050565b606060028054610a2790613a34565b80601f0160208091040260200160405190810160405280929190818152602001828054610a5390613a34565b8015610aa05780601f10610a7557610100808354040283529160200191610aa0565b820191906000526020600020905b815481529060010190602001808311610a8357829003601f168201915b5050505050905090565b6000818152600460205260408120546001600160a01b0316610b285760405162461bcd60e51b815260206004820152602c60248201527f4552433732313a20617070726f76656420717565727920666f72206e6f6e657860448201526b34b9ba32b73a103a37b5b2b760a11b60648201526084015b60405180910390fd5b506000908152600660205260409020546001600160a01b031690565b6000610b4f8261134d565b9050806001600160a01b0316836001600160a01b03161415610bbd5760405162461bcd60e51b815260206004820152602160248201527f4552433732313a20617070726f76616c20746f2063757272656e74206f776e656044820152603960f91b6064820152608401610b1f565b336001600160a01b0382161480610bd95750610bd98133610999565b610c4b5760405162461bcd60e51b815260206004820152603860248201527f4552433732313a20617070726f76652063616c6c6572206973206e6f74206f7760448201527f6e6572206e6f7220617070726f76656420666f7220616c6c00000000000000006064820152608401610b1f565b610c558383611dc8565b505050565b610c65335b82611e36565b610c815760405162461bcd60e51b8152600401610b1f906137f1565b610c55838383611f2d565b6010546001600160a01b03163314610cb65760405162461bcd60e51b8152600401610b1f906137ba565b60178190556040518181527fb1d78271daba9a366098d40b64d642a1399cabaa22c5234bacc87e92cef82ae6906020015b60405180910390a150565b600082815260208190526040902060010154610d0e81336120d4565b610c558383612138565b6000610d2383611515565b8210610d855760405162461bcd60e51b815260206004820152602b60248201527f455243373231456e756d657261626c653a206f776e657220696e646578206f7560448201526a74206f6620626f756e647360a81b6064820152608401610b1f565b506001600160a01b03919091166000908152600860209081526040808320938352929052205490565b6001600160a01b0381163314610e1e5760405162461bcd60e51b815260206004820152602f60248201527f416363657373436f6e74726f6c3a2063616e206f6e6c792072656e6f756e636560448201526e103937b632b9903337b91039b2b63360891b6064820152608401610b1f565b610e28828261215a565b5050565b610e567f65d7a28e3265b37a6474929f336521b332c1681b933f6cb9f3376673440d862a336116ab565b610eca576040805162461bcd60e51b81526020600482015260248101919091527f4552433732315072657365744d696e7465725061757365724175746f49643a2060448201527f6d75737420686176652070617573657220726f6c6520746f20756e70617573656064820152608401610b1f565b610ed261217c565b565b610c5583838360405180602001604052806000815250611a5e565b610ef833610c5f565b610f5d5760405162461bcd60e51b815260206004820152603060248201527f4552433732314275726e61626c653a2063616c6c6572206973206e6f74206f7760448201526f1b995c881b9bdc88185c1c1c9bdd995960821b6064820152608401610b1f565b610f668161220f565b50565b6000610f74600a5490565b8210610fd75760405162461bcd60e51b815260206004820152602c60248201527f455243373231456e756d657261626c653a20676c6f62616c20696e646578206f60448201526b7574206f6620626f756e647360a01b6064820152608401610b1f565b600a8281548110610ff857634e487b7160e01b600052603260045260246000fd5b90600052602060002001549050919050565b6010546001600160a01b031633146110345760405162461bcd60e51b8152600401610b1f906137ba565b61103d816122b6565b7f5411e8ebf1636d9e83d5fc4900bf80cbac82e8790da2a4c94db4895e889eedf681604051610ce79190613755565b6002600f54141561108f5760405162461bcd60e51b8152600401610b1f90613842565b6002600f55806110e15760405162461bcd60e51b815260206004820152601c60248201527f4261736520636861726163746572206e6f74206d6f72706861626c65000000006044820152606401610b1f565b6110ea826122c9565b60006110f583611b87565b6019546010546040516323b872dd60e01b81523360048201526001600160a01b0391821660248201526044810184905292935016906323b872dd90606401602060405180830381600087803b15801561114d57600080fd5b505af1158015611161573d6000803e3d6000fd5b505050506040513d601f19601f8201168201806040525081019061118591906134cf565b50341561122157604051600090339034908381818185875af1925050503d80600081146111ce576040519150601f19603f3d011682016040523d82523d6000602084013e6111d3565b606091505b505090508061121f5760405162461bcd60e51b81526020600482015260186024820152772330b4b632b2103a37903932ba3ab9371032bc31b2b9b99760411b6044820152606401610b1f565b505b60008381526012602052604081205490606461123d6011611c65565b6112479190613a8a565b905061125482828661237d565b6000868152601260209081526040808320939093556015905290812080549161127c83613a6f565b90915550506000858152601660209081526040808320805460ff191660019081179091556012909252918290205491518792600080516020613b05833981519152926112cc928792918991613879565b60405180910390a250506001600f55505050565b6010546001600160a01b0316331461130a5760405162461bcd60e51b8152600401610b1f906137ba565b805161131d906013906020840190613245565b507f4a826ca029d05af64e411551e15f7ee1e70af0b9bc43a31154ace86a863397b481604051610ce79190613755565b6000818152600460205260408120546001600160a01b031680610a125760405162461bcd60e51b815260206004820152602960248201527f4552433732313a206f776e657220717565727920666f72206e6f6e657869737460448201526832b73a103a37b5b2b760b91b6064820152608401610b1f565b6002600f5414156113e75760405162461bcd60e51b8152600401610b1f90613842565b6002600f553360009081526014602052604090205460ff1661144b5760405162461bcd60e51b815260206004820152601a60248201527f4e6f742063616c6c65642066726f6d207468652074756e6e656c0000000000006044820152606401610b1f565b6000848152601260208181526040808420805488825560168452828620805460ff1916891515179055601584529190942085905591905290548590600080516020613b058339815191529083906114a184611b87565b60016040516112cc9493929190613879565b60405162461bcd60e51b815260206004820152602260248201527f4d696e74696e672069732064697361626c6564206f6e207369646520636861696044820152616e7360f01b6064820152608401610b1f565b606061151061248a565b905090565b60006001600160a01b0382166115805760405162461bcd60e51b815260206004820152602a60248201527f4552433732313a2062616c616e636520717565727920666f7220746865207a65604482015269726f206164647265737360b01b6064820152608401610b1f565b506001600160a01b031660009081526005602052604090205490565b6115c67f65d7a28e3265b37a6474929f336521b332c1681b933f6cb9f3376673440d862a336116ab565b6116385760405162461bcd60e51b815260206004820152603e60248201527f4552433732315072657365744d696e7465725061757365724175746f49643a2060448201527f6d75737420686176652070617573657220726f6c6520746f20706175736500006064820152608401610b1f565b610ed2612499565b6010546001600160a01b0316331461166a5760405162461bcd60e51b8152600401610b1f906137ba565b601980546001600160a01b0319166001600160a01b0392909216919091179055565b60008281526001602052604081206116a49083612514565b9392505050565b6000918252602082815260408084206001600160a01b0393909316845291905290205460ff1690565b6002600f5414156116f75760405162461bcd60e51b8152600401610b1f90613842565b6002600f553360009081526014602052604090205460ff1661175b5760405162461bcd60e51b815260206004820152601a60248201527f4e6f742063616c6c65642066726f6d207468652074756e6e656c0000000000006044820152606401610b1f565b6117658284612520565b827f5f7666687319b40936f33c188908d86aea154abd3f4127b4fa0a3f04f303c7da8260405161179791815260200190565b60405180910390a250506001600f5550565b606060038054610a2790613a34565b6010546001600160a01b031633146117e25760405162461bcd60e51b8152600401610b1f906137ba565b60188190556040518181527fff4da8d01e7184cc8c9d6c57d64b336b1de6d676b6215408967bd071c8da7e3d90602001610ce7565b6002600f54141561183a5760405162461bcd60e51b8152600401610b1f90613842565b6002600f55611848816122c9565b6019546010546018546040516323b872dd60e01b81523360048201526001600160a01b03928316602482015260448101919091529116906323b872dd90606401602060405180830381600087803b1580156118a257600080fd5b505af11580156118b6573d6000803e3d6000fd5b505050506040513d601f19601f820116820180604052508101906118da91906134cf565b50341561197657604051600090339034908381818185875af1925050503d8060008114611923576040519150601f19603f3d011682016040523d82523d6000602084013e611928565b606091505b50509050806119745760405162461bcd60e51b81526020600482015260186024820152772330b4b632b2103a37903932ba3ab9371032bc31b2b9b99760411b6044820152606401610b1f565b505b60008181526012602052604090205461198f6011611c65565b6000838152601260208181526040808420948555601582528084208490556016825292839020805460ff19166001908117909155919052915460185491518593600080516020613b05833981519152936119ed938793909290613879565b60405180910390a250506001600f55565b610e2833838361266e565b6010546001600160a01b03163314611a335760405162461bcd60e51b8152600401610b1f906137ba565b6001600160a01b03919091166000908152601460205260409020805460ff1916911515919091179055565b611a683383611e36565b611a845760405162461bcd60e51b8152600401610b1f906137f1565b611a908484848461273d565b50505050565b6000818152600460205260409020546060906001600160a01b0316611b155760405162461bcd60e51b815260206004820152602f60248201527f4552433732314d657461646174613a2055524920717565727920666f72206e6f60448201526e3732bc34b9ba32b73a103a37b5b2b760891b6064820152608401610b1f565b6000611b1f61248a565b90506000815111611b3f57604051806020016040528060008152506116a4565b80611b4984612770565b604051602001611b5a929190613674565b6040516020818303038152906040529392505050565b6000818152600160205260408120610a129061288a565b6000818152601560205260408120546017546116a4906001831b612894565b600082815260208190526040902060010154611bc281336120d4565b610c55838361215a565b60138054611bd990613a34565b80601f0160208091040260200160405190810160405280929190818152602001828054611c0590613a34565b8015611c525780601f10611c2757610100808354040283529160200191611c52565b820191906000526020600020905b815481529060010190602001808311611c3557829003601f168201915b505050505081565b6000611510600d5490565b600033325a845442438040611c7b6064836139da565b6040516bffffffffffffffffffffffff196060998a1b811660208301529790981b909616603488015260488701949094526068860192909252608885015260a884015260c88301524060e88201526101080160408051601f198184030181528282528051602091820120908301520160408051601f198184030181529190528051602090910120918290555090565b611d1482826116ab565b610e28576000828152602081815260408083206001600160a01b03851684529091529020805460ff19166001179055611d4a3390565b6001600160a01b0316816001600160a01b0316837f2f8788117e7eff1d82e926ec794901d17c78024a50270940304540a733656f0d60405160405180910390a45050565b60006116a4836001600160a01b0384166128a0565b60006001600160e01b0319821663780e9d6360e01b1480610a125750610a12826128ef565b600081815260066020526040902080546001600160a01b0319166001600160a01b0384169081179091558190611dfd8261134d565b6001600160a01b03167f8c5be1e5ebec7d5bd14f71427d1e84f3dd0314c0f7b2291e5b200ac8c7c3b92560405160405180910390a45050565b6000818152600460205260408120546001600160a01b0316611eaf5760405162461bcd60e51b815260206004820152602c60248201527f4552433732313a206f70657261746f7220717565727920666f72206e6f6e657860448201526b34b9ba32b73a103a37b5b2b760a11b6064820152608401610b1f565b6000611eba8361134d565b9050806001600160a01b0316846001600160a01b03161480611ef55750836001600160a01b0316611eea84610aaa565b6001600160a01b0316145b80611f2557506001600160a01b0380821660009081526007602090815260408083209388168352929052205460ff165b949350505050565b826001600160a01b0316611f408261134d565b6001600160a01b031614611fa45760405162461bcd60e51b815260206004820152602560248201527f4552433732313a207472616e736665722066726f6d20696e636f72726563742060448201526437bbb732b960d91b6064820152608401610b1f565b6001600160a01b0382166120065760405162461bcd60e51b8152602060048201526024808201527f4552433732313a207472616e7366657220746f20746865207a65726f206164646044820152637265737360e01b6064820152608401610b1f565b61201183838361292f565b61201c600082611dc8565b6001600160a01b03831660009081526005602052604081208054600192906120459084906139da565b90915550506001600160a01b03821660009081526005602052604081208054600192906120739084906138a4565b909155505060008181526004602052604080822080546001600160a01b0319166001600160a01b0386811691821790925591518493918716917fddf252ad1be2c89b69c2b068fc378daa952ba7f163c4a11628f55a4df523b3ef91a4505050565b6120de82826116ab565b610e28576120f6816001600160a01b0316601461297b565b61210183602061297b565b6040516020016121129291906136a3565b60408051601f198184030181529082905262461bcd60e51b8252610b1f91600401613755565b6121428282611d0a565b6000828152600160205260409020610c559082611d8e565b6121648282612b5d565b6000828152600160205260409020610c559082612bc2565b600c5460ff166121c55760405162461bcd60e51b815260206004820152601460248201527314185d5cd8589b194e881b9bdd081c185d5cd95960621b6044820152606401610b1f565b600c805460ff191690557f5db9ee0a495bf2e6ff9c91a7834c1ba4fdd244a5e8aa4e537bd38aeae4b073aa335b6040516001600160a01b03909116815260200160405180910390a1565b600061221a8261134d565b90506122288160008461292f565b612233600083611dc8565b6001600160a01b038116600090815260056020526040812080546001929061225c9084906139da565b909155505060008281526004602052604080822080546001600160a01b0319169055518391906001600160a01b038416907fddf252ad1be2c89b69c2b068fc378daa952ba7f163c4a11628f55a4df523b3ef908390a45050565b8051610e2890600e906020840190613245565b333b156123185760405162461bcd60e51b815260206004820152601b60248201527f43616c6c65722063616e6e6f74206265206120636f6e747261637400000000006044820152606401610b1f565b3332146123735760405162461bcd60e51b8152602060048201526024808201527f4d73672073656e6465722073686f756c64206265206f726967696e616c206361604482015263363632b960e11b6064820152608401610b1f565b610f668133612bd7565b6000602682106123c35760405162461bcd60e51b81526020600482015260116024820152702130b21033b2b732903837b9b4ba34b7b760791b6044820152606401610b1f565b600082156123ee576123eb6123d98460026139bb565b6123e490600a613913565b8690612c76565b90505b60006124456123fe8560016138a4565b6124099060026139bb565b61241490600a613913565b61243f6124228760016138a4565b61242d9060026139bb565b61243890600a613913565b8990612c82565b90612894565b905060006124548560026139bb565b61245f90600a613913565b61246990876139bb565b905061247f836124798484612c8e565b90612c8e565b979650505050505050565b6060600e8054610a2790613a34565b600c5460ff16156124df5760405162461bcd60e51b815260206004820152601060248201526f14185d5cd8589b194e881c185d5cd95960821b6044820152606401610b1f565b600c805460ff191660011790557f62e78cea01bee320cd4e420270b5ea74000d11b0c9f74754ebdbfc544b05a2586121f23390565b60006116a48383612c9a565b6001600160a01b0382166125765760405162461bcd60e51b815260206004820181905260248201527f4552433732313a206d696e7420746f20746865207a65726f20616464726573736044820152606401610b1f565b6000818152600460205260409020546001600160a01b0316156125db5760405162461bcd60e51b815260206004820152601c60248201527f4552433732313a20746f6b656e20616c7265616479206d696e746564000000006044820152606401610b1f565b6125e76000838361292f565b6001600160a01b03821660009081526005602052604081208054600192906126109084906138a4565b909155505060008181526004602052604080822080546001600160a01b0319166001600160a01b03861690811790915590518392907fddf252ad1be2c89b69c2b068fc378daa952ba7f163c4a11628f55a4df523b3ef908290a45050565b816001600160a01b0316836001600160a01b031614156126d05760405162461bcd60e51b815260206004820152601960248201527f4552433732313a20617070726f766520746f2063616c6c6572000000000000006044820152606401610b1f565b6001600160a01b03838116600081815260076020908152604080832094871680845294825291829020805460ff191686151590811790915591519182527f17307eab39ab6107e8899845ad3d59bd9653f200f220920489ca2b5937696c31910160405180910390a3505050565b612748848484611f2d565b61275484848484612cd2565b611a905760405162461bcd60e51b8152600401610b1f90613768565b6060816127945750506040805180820190915260018152600360fc1b602082015290565b8160005b81156127be57806127a881613a6f565b91506127b79050600a836138bc565b9150612798565b60008167ffffffffffffffff8111156127e757634e487b7160e01b600052604160045260246000fd5b6040519080825280601f01601f191660200182016040528015612811576020820181803683370190505b5090505b8415611f25576128266001836139da565b9150612833600a86613a8a565b61283e9060306138a4565b60f81b81838151811061286157634e487b7160e01b600052603260045260246000fd5b60200101906001600160f81b031916908160001a905350612883600a866138bc565b9450612815565b6000610a12825490565b60006116a482846139bb565b60008181526001830160205260408120546128e757508154600181810184556000848152602080822090930184905584548482528286019093526040902091909155610a12565b506000610a12565b60006001600160e01b031982166380ac58cd60e01b148061292057506001600160e01b03198216635b5e139f60e01b145b80610a125750610a1282612ddf565b61293a838383612e04565b6000818152601260205260408082205490518392600080516020613b058339815191529261296e9290918291600290613879565b60405180910390a2505050565b6060600061298a8360026139bb565b6129959060026138a4565b67ffffffffffffffff8111156129bb57634e487b7160e01b600052604160045260246000fd5b6040519080825280601f01601f1916602001820160405280156129e5576020820181803683370190505b509050600360fc1b81600081518110612a0e57634e487b7160e01b600052603260045260246000fd5b60200101906001600160f81b031916908160001a905350600f60fb1b81600181518110612a4b57634e487b7160e01b600052603260045260246000fd5b60200101906001600160f81b031916908160001a9053506000612a6f8460026139bb565b612a7a9060016138a4565b90505b6001811115612b0e576f181899199a1a9b1b9c1cb0b131b232b360811b85600f1660108110612abc57634e487b7160e01b600052603260045260246000fd5b1a60f81b828281518110612ae057634e487b7160e01b600052603260045260246000fd5b60200101906001600160f81b031916908160001a90535060049490941c93612b0781613a1d565b9050612a7d565b5083156116a45760405162461bcd60e51b815260206004820181905260248201527f537472696e67733a20686578206c656e67746820696e73756666696369656e746044820152606401610b1f565b612b6782826116ab565b15610e28576000828152602081815260408083206001600160a01b0385168085529252808320805460ff1916905551339285917ff6391f5c32d9c69d2a47ea670b442974b53935d1edc7fd64eb21e047a839171b9190a45050565b60006116a4836001600160a01b038416612e0f565b806001600160a01b0316612bea8361134d565b6001600160a01b031614610e285760405162461bcd60e51b815260206004820152604760248201527f506f6c796d6f7270685769746847656e654368616e6765723a2063616e6e6f7460448201527f206368616e67652067656e6f6d65206f6620746f6b656e2074686174206973206064820152663737ba1037bbb760c91b608482015260a401610b1f565b60006116a48284613a8a565b60006116a482846138bc565b60006116a482846138a4565b6000826000018281548110612cbf57634e487b7160e01b600052603260045260246000fd5b9060005260206000200154905092915050565b60006001600160a01b0384163b15612dd457604051630a85bd0160e11b81526001600160a01b0385169063150b7a0290612d16903390899088908890600401613718565b602060405180830381600087803b158015612d3057600080fd5b505af1925050508015612d60575060408051601f3d908101601f19168201909252612d5d91810190613562565b60015b612dba573d808015612d8e576040519150601f19603f3d011682016040523d82523d6000602084013e612d93565b606091505b508051612db25760405162461bcd60e51b8152600401610b1f90613768565b805181602001fd5b6001600160e01b031916630a85bd0160e11b149050611f25565b506001949350505050565b60006001600160e01b03198216635a05180f60e01b1480610a125750610a1282612f2c565b610c55838383612f61565b60008181526001830160205260408120548015612f22576000612e336001836139da565b8554909150600090612e47906001906139da565b9050818114612ec8576000866000018281548110612e7557634e487b7160e01b600052603260045260246000fd5b9060005260206000200154905080876000018481548110612ea657634e487b7160e01b600052603260045260246000fd5b6000918252602080832090910192909255918252600188019052604090208390555b8554869080612ee757634e487b7160e01b600052603160045260246000fd5b600190038181906000526020600020016000905590558560010160008681526020019081526020016000206000905560019350505050610a12565b6000915050610a12565b60006001600160e01b03198216637965db0b60e01b1480610a1257506301ffc9a760e01b6001600160e01b0319831614610a12565b612f6c838383612fd3565b600c5460ff1615610c555760405162461bcd60e51b815260206004820152602b60248201527f4552433732315061757361626c653a20746f6b656e207472616e73666572207760448201526a1a1a5b19481c185d5cd95960aa1b6064820152608401610b1f565b6001600160a01b03831661302e5761302981600a80546000838152600b60205260408120829055600182018355919091527fc65a7bb8d6351c1cf70c95a316cc6a92839c986682d98bc35f958f4883f9d2a80155565b613051565b816001600160a01b0316836001600160a01b03161461305157613051838261308b565b6001600160a01b03821661306857610c5581613128565b826001600160a01b0316826001600160a01b031614610c5557610c558282613201565b6000600161309884611515565b6130a291906139da565b6000838152600960205260409020549091508082146130f5576001600160a01b03841660009081526008602090815260408083208584528252808320548484528184208190558352600990915290208190555b5060009182526009602090815260408084208490556001600160a01b039094168352600881528383209183525290812055565b600a5460009061313a906001906139da565b6000838152600b6020526040812054600a805493945090928490811061317057634e487b7160e01b600052603260045260246000fd5b9060005260206000200154905080600a838154811061319f57634e487b7160e01b600052603260045260246000fd5b6000918252602080832090910192909255828152600b9091526040808220849055858252812055600a8054806131e557634e487b7160e01b600052603160045260246000fd5b6001900381819060005260206000200160009055905550505050565b600061320c83611515565b6001600160a01b039093166000908152600860209081526040808320868452825280832085905593825260099052919091209190915550565b82805461325190613a34565b90600052602060002090601f01602090048101928261327357600085556132b9565b82601f1061328c57805160ff19168380011785556132b9565b828001600101855582156132b9579182015b828111156132b957825182559160200191906001019061329e565b506132c59291506132c9565b5090565b5b808211156132c557600081556001016132ca565b600067ffffffffffffffff808411156132f9576132f9613aca565b604051601f8501601f19908116603f0116810190828211818310171561332157613321613aca565b8160405280935085815286868601111561333a57600080fd5b858560208301376000602087830101525050509392505050565b80356001600160a01b038116811461336b57600080fd5b919050565b600060208284031215613381578081fd5b6116a482613354565b6000806040838503121561339c578081fd5b6133a583613354565b91506133b360208401613354565b90509250929050565b6000806000606084860312156133d0578081fd5b6133d984613354565b92506133e760208501613354565b9150604084013590509250925092565b6000806000806080858703121561340c578081fd5b61341585613354565b935061342360208601613354565b925060408501359150606085013567ffffffffffffffff811115613445578182fd5b8501601f81018713613455578182fd5b613464878235602084016132de565b91505092959194509250565b60008060408385031215613482578182fd5b61348b83613354565b9150602083013561349b81613ae0565b809150509250929050565b600080604083850312156134b8578182fd5b6134c183613354565b946020939093013593505050565b6000602082840312156134e0578081fd5b81516116a481613ae0565b6000602082840312156134fc578081fd5b5035919050565b60008060408385031215613515578182fd5b823591506133b360208401613354565b60008060408385031215613537578182fd5b50508035926020909101359150565b600060208284031215613557578081fd5b81356116a481613aee565b600060208284031215613573578081fd5b81516116a481613aee565b60006020828403121561358f578081fd5b813567ffffffffffffffff8111156135a5578182fd5b8201601f810184136135b5578182fd5b611f25848235602084016132de565b6000806000606084860312156135d8578081fd5b833592506133e760208501613354565b600080600080608085870312156135fd578182fd5b8435935060208501359250604085013561361681613ae0565b9396929550929360600135925050565b6000815180845261363e8160208601602086016139f1565b601f01601f19169290920160200192915050565b6003811061367057634e487b7160e01b600052602160045260246000fd5b9052565b600083516136868184602088016139f1565b83519083019061369a8183602088016139f1565b01949350505050565b7f416363657373436f6e74726f6c3a206163636f756e74200000000000000000008152600083516136db8160178501602088016139f1565b7001034b99036b4b9b9b4b733903937b6329607d1b601791840191820152835161370c8160288401602088016139f1565b01602801949350505050565b6001600160a01b038581168252841660208201526040810183905260806060820181905260009061374b90830184613626565b9695505050505050565b6020815260006116a46020830184613626565b60208082526032908201527f4552433732313a207472616e7366657220746f206e6f6e20455243373231526560408201527131b2b4bb32b91034b6b83632b6b2b73a32b960711b606082015260800190565b60208082526017908201527f4e6f742063616c6c65642066726f6d207468652064616f000000000000000000604082015260600190565b60208082526031908201527f4552433732313a207472616e736665722063616c6c6572206973206e6f74206f6040820152701ddb995c881b9bdc88185c1c1c9bdd9959607a1b606082015260800190565b6020808252601f908201527f5265656e7472616e637947756172643a207265656e7472616e742063616c6c00604082015260600190565b84815260208101849052604081018390526080810161389b6060830184613652565b95945050505050565b600082198211156138b7576138b7613a9e565b500190565b6000826138cb576138cb613ab4565b500490565b600181815b8085111561390b5781600019048211156138f1576138f1613a9e565b808516156138fe57918102915b93841c93908002906138d5565b509250929050565b60006116a4838360008261392957506001610a12565b8161393657506000610a12565b816001811461394c576002811461395657613972565b6001915050610a12565b60ff84111561396757613967613a9e565b50506001821b610a12565b5060208310610133831016604e8410600b8410161715613995575081810a610a12565b61399f83836138d0565b80600019048211156139b3576139b3613a9e565b029392505050565b60008160001904831182151516156139d5576139d5613a9e565b500290565b6000828210156139ec576139ec613a9e565b500390565b60005b83811015613a0c5781810151838201526020016139f4565b83811115611a905750506000910152565b600081613a2c57613a2c613a9e565b506000190190565b600181811c90821680613a4857607f821691505b60208210811415613a6957634e487b7160e01b600052602260045260246000fd5b50919050565b6000600019821415613a8357613a83613a9e565b5060010190565b600082613a9957613a99613ab4565b500690565b634e487b7160e01b600052601160045260246000fd5b634e487b7160e01b600052601260045260246000fd5b634e487b7160e01b600052604160045260246000fd5b8015158114610f6657600080fd5b6001600160e01b031981168114610f6657600080fdfe8c0bdd7bca83c4e0c810cbecf44bc544a9dc0b9f265664e31ce0ce85f07a052ba2646970667358221220da208f93b50fbe825362f69d9e95d0c31c318cf7ee1807cbe59169be96db84a364736f6c63430008040033","abi":[{"inputs":[{"internalType":"string","name":"name","type":"string"},{"internalType":"string","name":"symbol","type":"string"},{"internalType":"string","name":"baseURI","type":"string"},{"internalType":"address payable","name":"_daoAddress","type":"address"},{"internalType":"uint256","name":"_baseGenomeChangePrice","type":"uint256"},{"internalType":"uint256","name":"_randomizeGenomePrice","type":"uint256"},{"internalType":"string","name":"_arweaveAssetsJSON","type":"string"}],"stateMutability":"nonpayable","type":"constructor"},{"anonymous":false,"inputs":[{"indexed":true,"internalType":"address","name":"owner","type":"address"},{"indexed":true,"internalType":"address","name":"approved","type":"address"},{"indexed":true,"internalType":"uint256","name":"tokenId","type":"uint256"}],"name":"Approval","type":"event"},{"anonymous":false,"inputs":[{"indexed":true,"internalType":"address","name":"owner","type":"address"},{"indexed":true,"internalType":"address","name":"operator","type":"address"},{"indexed":false,"internalType":"bool","name":"approved","type":"bool"}],"name":"ApprovalForAll","type":"event"},{"anonymous":false,"inputs":[{"indexed":false,"internalType":"string","name":"arweaveAssetsJSON","type":"string"}],"name":"ArweaveAssetsJSONChanged","type":"event"},{"anonymous":false,"inputs":[{"indexed":false,"internalType":"uint256","name":"newGenomeChange","type":"uint256"}],"name":"BaseGenomeChangePriceChanged","type":"event"},{"anonymous":false,"inputs":[{"indexed":false,"internalType":"string","name":"baseURI","type":"string"}],"name":"BaseURIChanged","type":"event"},{"anonymous":false,"inputs":[{"indexed":false,"internalType":"address","name":"account","type":"address"}],"name":"Paused","type":"event"},{"anonymous":false,"inputs":[{"indexed":false,"internalType":"uint256","name":"newRandomizeGenomePriceChange","type":"uint256"}],"name":"RandomizeGenomePriceChanged","type":"event"},{"anonymous":false,"inputs":[{"indexed":true,"internalType":"bytes32","name":"role","type":"bytes32"},{"indexed":true,"internalType":"bytes32","name":"previousAdminRole","type":"bytes32"},{"indexed":true,"internalType":"bytes32","name":"newAdminRole","type":"bytes32"}],"name":"RoleAdminChanged","type":"event"},{"anonymous":false,"inputs":[{"indexed":true,"internalType":"bytes32","name":"role","type":"bytes32"},{"indexed":true,"internalType":"address","name":"account","type":"address"},{"indexed":true,"internalType":"address","name":"sender","type":"address"}],"name":"RoleGranted","type":"event"},{"anonymous":false,"inputs":[{"indexed":true,"internalType":"bytes32","name":"role","type":"bytes32"},{"indexed":true,"internalType":"address","name":"account","type":"address"},{"indexed":true,"internalType":"address","name":"sender","type":"address"}],"name":"RoleRevoked","type":"event"},{"anonymous":false,"inputs":[{"indexed":true,"internalType":"uint256","name":"oldTokenId","type":"uint256"},{"indexed":true,"internalType":"uint256","name":"newTokenId","type":"uint256"},{"indexed":false,"internalType":"uint256","name":"gene","type":"uint256"}],"name":"TokenBurnedAndMinted","type":"event"},{"anonymous":false,"inputs":[{"indexed":true,"internalType":"uint256","name":"tokenId","type":"uint256"},{"indexed":false,"internalType":"uint256","name":"newGene","type":"uint256"}],"name":"TokenMinted","type":"event"},{"anonymous":false,"inputs":[{"indexed":true,"internalType":"uint256","name":"tokenId","type":"uint256"},{"indexed":false,"internalType":"uint256","name":"oldGene","type":"uint256"},{"indexed":false,"internalType":"uint256","name":"newGene","type":"uint256"},{"indexed":false,"internalType":"uint256","name":"price","type":"uint256"},{"indexed":false,"internalType":"enum Polymorph.PolymorphEventType","name":"eventType","type":"uint8"}],"name":"TokenMorphed","type":"event"},{"anonymous":false,"inputs":[{"indexed":true,"internalType":"address","name":"from","type":"address"},{"indexed":true,"internalType":"address","name":"to","type":"address"},{"indexed":true,"internalType":"uint256","name":"tokenId","type":"uint256"}],"name":"Transfer","type":"event"},{"anonymous":false,"inputs":[{"indexed":false,"internalType":"address","name":"account","type":"address"}],"name":"Unpaused","type":"event"},{"inputs":[],"name":"DEFAULT_ADMIN_ROLE","outputs":[{"internalType":"bytes32","name":"","type":"bytes32"}],"stateMutability":"view","type":"function"},{"inputs":[],"name":"MINTER_ROLE","outputs":[{"internalType":"bytes32","name":"","type":"bytes32"}],"stateMutability":"view","type":"function"},{"inputs":[],"name":"PAUSER_ROLE","outputs":[{"internalType":"bytes32","name":"","type":"bytes32"}],"stateMutability":"view","type":"function"},{"inputs":[{"internalType":"address","name":"to","type":"address"},{"internalType":"uint256","name":"tokenId","type":"uint256"}],"name":"approve","outputs":[],"stateMutability":"nonpayable","type":"function"},{"inputs":[],"name":"arweaveAssetsJSON","outputs":[{"internalType":"string","name":"","type":"string"}],"stateMutability":"view","type":"function"},{"inputs":[{"internalType":"address","name":"owner","type":"address"}],"name":"balanceOf","outputs":[{"internalType":"uint256","name":"","type":"uint256"}],"stateMutability":"view","type":"function"},{"inputs":[],"name":"baseGenomeChangePrice","outputs":[{"internalType":"uint256","name":"","type":"uint256"}],"stateMutability":"view","type":"function"},{"inputs":[],"name":"baseURI","outputs":[{"internalType":"string","name":"","type":"string"}],"stateMutability":"view","type":"function"},{"inputs":[{"internalType":"uint256","name":"tokenId","type":"uint256"}],"name":"burn","outputs":[],"stateMutability":"nonpayable","type":"function"},{"inputs":[{"internalType":"uint256","name":"newGenomeChangePrice","type":"uint256"}],"name":"changeBaseGenomeChangePrice","outputs":[],"stateMutability":"nonpayable","type":"function"},{"inputs":[{"internalType":"uint256","name":"newRandomizeGenomePrice","type":"uint256"}],"name":"changeRandomizeGenomePrice","outputs":[],"stateMutability":"nonpayable","type":"function"},{"inputs":[],"name":"daoAddress","outputs":[{"internalType":"address payable","name":"","type":"address"}],"stateMutability":"view","type":"function"},{"inputs":[{"internalType":"uint256","name":"tokenId","type":"uint256"}],"name":"geneOf","outputs":[{"internalType":"uint256","name":"gene","type":"uint256"}],"stateMutability":"view","type":"function"},{"inputs":[{"internalType":"uint256","name":"tokenId","type":"uint256"}],"name":"genomeChanges","outputs":[{"internalType":"uint256","name":"genomeChnages","type":"uint256"}],"stateMutability":"view","type":"function"},{"inputs":[{"internalType":"uint256","name":"tokenId","type":"uint256"}],"name":"getApproved","outputs":[{"internalType":"address","name":"","type":"address"}],"stateMutability":"view","type":"function"},{"inputs":[{"internalType":"bytes32","name":"role","type":"bytes32"}],"name":"getRoleAdmin","outputs":[{"internalType":"bytes32","name":"","type":"bytes32"}],"stateMutability":"view","type":"function"},{"inputs":[{"internalType":"bytes32","name":"role","type":"bytes32"},{"internalType":"uint256","name":"index","type":"uint256"}],"name":"getRoleMember","outputs":[{"internalType":"address","name":"","type":"address"}],"stateMutability":"view","type":"function"},{"inputs":[{"internalType":"bytes32","name":"role","type":"bytes32"}],"name":"getRoleMemberCount","outputs":[{"internalType":"uint256","name":"","type":"uint256"}],"stateMutability":"view","type":"function"},{"inputs":[{"internalType":"bytes32","name":"role","type":"bytes32"},{"internalType":"address","name":"account","type":"address"}],"name":"grantRole","outputs":[],"stateMutability":"nonpayable","type":"function"},{"inputs":[{"internalType":"bytes32","name":"role","type":"bytes32"},{"internalType":"address","name":"account","type":"address"}],"name":"hasRole","outputs":[{"internalType":"bool","name":"","type":"bool"}],"stateMutability":"view","type":"function"},{"inputs":[{"internalType":"address","name":"owner","type":"address"},{"internalType":"address","name":"operator","type":"address"}],"name":"isApprovedForAll","outputs":[{"internalType":"bool","name":"","type":"bool"}],"stateMutability":"view","type":"function"},{"inputs":[{"internalType":"uint256","name":"","type":"uint256"}],"name":"isNotVirgin","outputs":[{"internalType":"bool","name":"","type":"bool"}],"stateMutability":"view","type":"function"},{"inputs":[],"name":"lastTokenId","outputs":[{"internalType":"uint256","name":"tokenId","type":"uint256"}],"stateMutability":"view","type":"function"},{"inputs":[],"name":"maticWETH","outputs":[{"internalType":"contract IERC20","name":"","type":"address"}],"stateMutability":"view","type":"function"},{"inputs":[{"internalType":"address","name":"to","type":"address"}],"name":"mint","outputs":[],"stateMutability":"pure","type":"function"},{"inputs":[{"internalType":"uint256","name":"tokenId","type":"uint256"},{"internalType":"address","name":"ownerAddress","type":"address"},{"internalType":"uint256","name":"gene","type":"uint256"}],"name":"mintPolymorphWithInfo","outputs":[],"stateMutability":"nonpayable","type":"function"},{"inputs":[{"internalType":"uint256","name":"tokenId","type":"uint256"},{"internalType":"uint256","name":"genePosition","type":"uint256"}],"name":"morphGene","outputs":[],"stateMutability":"payable","type":"function"},{"inputs":[],"name":"name","outputs":[{"internalType":"string","name":"","type":"string"}],"stateMutability":"view","type":"function"},{"inputs":[{"internalType":"uint256","name":"tokenId","type":"uint256"}],"name":"ownerOf","outputs":[{"internalType":"address","name":"","type":"address"}],"stateMutability":"view","type":"function"},{"inputs":[],"name":"pause","outputs":[],"stateMutability":"nonpayable","type":"function"},{"inputs":[],"name":"paused","outputs":[{"internalType":"bool","name":"","type":"bool"}],"stateMutability":"view","type":"function"},{"inputs":[{"internalType":"uint256","name":"tokenId","type":"uint256"}],"name":"priceForGenomeChange","outputs":[{"internalType":"uint256","name":"price","type":"uint256"}],"stateMutability":"view","type":"function"},{"inputs":[{"internalType":"uint256","name":"tokenId","type":"uint256"}],"name":"randomizeGenome","outputs":[],"stateMutability":"payable","type":"function"},{"inputs":[],"name":"randomizeGenomePrice","outputs":[{"internalType":"uint256","name":"","type":"uint256"}],"stateMutability":"view","type":"function"},{"inputs":[{"internalType":"bytes32","name":"role","type":"bytes32"},{"internalType":"address","name":"account","type":"address"}],"name":"renounceRole","outputs":[],"stateMutability":"nonpayable","type":"function"},{"inputs":[{"internalType":"bytes32","name":"role","type":"bytes32"},{"internalType":"address","name":"account","type":"address"}],"name":"revokeRole","outputs":[],"stateMutability":"nonpayable","type":"function"},{"inputs":[{"internalType":"address","name":"from","type":"address"},{"internalType":"address","name":"to","type":"address"},{"internalType":"uint256","name":"tokenId","type":"uint256"}],"name":"safeTransferFrom","outputs":[],"stateMutability":"nonpayable","type":"function"},{"inputs":[{"internalType":"address","name":"from","type":"address"},{"internalType":"address","name":"to","type":"address"},{"internalType":"uint256","name":"tokenId","type":"uint256"},{"internalType":"bytes","name":"_data","type":"bytes"}],"name":"safeTransferFrom","outputs":[],"stateMutability":"nonpayable","type":"function"},{"inputs":[{"internalType":"address","name":"operator","type":"address"},{"internalType":"bool","name":"approved","type":"bool"}],"name":"setApprovalForAll","outputs":[],"stateMutability":"nonpayable","type":"function"},{"inputs":[{"internalType":"string","name":"_arweaveAssetsJSON","type":"string"}],"name":"setArweaveAssetsJSON","outputs":[],"stateMutability":"nonpayable","type":"function"},{"inputs":[{"internalType":"string","name":"_baseURI","type":"string"}],"name":"setBaseURI","outputs":[],"stateMutability":"nonpayable","type":"function"},{"inputs":[{"internalType":"address","name":"_maticWETHAddress","type":"address"}],"name":"setMaticWETHContract","outputs":[],"stateMutability":"nonpayable","type":"function"},{"inputs":[{"internalType":"bytes4","name":"interfaceId","type":"bytes4"}],"name":"supportsInterface","outputs":[{"internalType":"bool","name":"","type":"bool"}],"stateMutability":"view","type":"function"},{"inputs":[],"name":"symbol","outputs":[{"internalType":"string","name":"","type":"string"}],"stateMutability":"view","type":"function"},{"inputs":[{"internalType":"uint256","name":"index","type":"uint256"}],"name":"tokenByIndex","outputs":[{"internalType":"uint256","name":"","type":"uint256"}],"stateMutability":"view","type":"function"},{"inputs":[{"internalType":"address","name":"owner","type":"address"},{"internalType":"uint256","name":"index","type":"uint256"}],"name":"tokenOfOwnerByIndex","outputs":[{"internalType":"uint256","name":"","type":"uint256"}],"stateMutability":"view","type":"function"},{"inputs":[{"internalType":"uint256","name":"tokenId","type":"uint256"}],"name":"tokenURI","outputs":[{"internalType":"string","name":"","type":"string"}],"stateMutability":"view","type":"function"},{"inputs":[],"name":"totalSupply","outputs":[{"internalType":"uint256","name":"","type":"uint256"}],"stateMutability":"view","type":"function"},{"inputs":[{"internalType":"address","name":"from","type":"address"},{"internalType":"address","name":"to","type":"address"},{"internalType":"uint256","name":"tokenId","type":"uint256"}],"name":"transferFrom","outputs":[],"stateMutability":"nonpayable","type":"function"},{"inputs":[],"name":"unpause","outputs":[],"stateMutability":"nonpayable","type":"function"},{"inputs":[{"internalType":"address","name":"bridgeAddress","type":"address"},{"internalType":"bool","name":"status","type":"bool"}],"name":"whitelistBridgeAddress","outputs":[],"stateMutability":"nonpayable","type":"function"},{"inputs":[{"internalType":"address","name":"","type":"address"}],"name":"whitelistTunnelAddresses","outputs":[{"internalType":"bool","name":"","type":"bool"}],"stateMutability":"view","type":"function"},{"inputs":[{"internalType":"uint256","name":"tokenId","type":"uint256"},{"internalType":"uint256","name":"gene","type":"uint256"},{"internalType":"bool","name":"isVirgin","type":"bool"},{"internalType":"uint256","name":"genomeChangesCount","type":"uint256"}],"name":"wormholeUpdateGene","outputs":[],"stateMutability":"nonpayable","type":"function"}]}