{
  "_format": "hh-sol-artifact-1",
  "contractName": "Polymorph",
  "sourceName": "contracts/Polymorph.sol",
  "abi": [
    {
      "inputs": [
        {
          "internalType": "string",
          "name": "name",
          "type": "string"
        },
        {
          "internalType": "string",
          "name": "symbol",
          "type": "string"
        },
        {
          "internalType": "string",
          "name": "baseURI",
          "type": "string"
        },
        {
          "internalType": "address payable",
          "name": "_daoAddress",
          "type": "address"
        },
        {
          "internalType": "uint256",
          "name": "premintedTokensCount",
          "type": "uint256"
        },
        {
          "internalType": "uint256",
          "name": "_polymorphPrice",
          "type": "uint256"
        },
        {
          "internalType": "uint256",
          "name": "totalSupply",
          "type": "uint256"
        },
        {
          "internalType": "uint256",
          "name": "_bulkBuyLimit",
          "type": "uint256"
        },
        {
          "internalType": "string",
          "name": "_arweaveAssetsJSON",
          "type": "string"
        }
      ],
      "stateMutability": "nonpayable",
      "type": "constructor"
    },
    {
      "anonymous": false,
      "inputs": [
        {
          "indexed": true,
          "internalType": "address",
          "name": "owner",
          "type": "address"
        },
        {
          "indexed": true,
          "internalType": "address",
          "name": "approved",
          "type": "address"
        },
        {
          "indexed": true,
          "internalType": "uint256",
          "name": "tokenId",
          "type": "uint256"
        }
      ],
      "name": "Approval",
      "type": "event"
    },
    {
      "anonymous": false,
      "inputs": [
        {
          "indexed": true,
          "internalType": "address",
          "name": "owner",
          "type": "address"
        },
        {
          "indexed": true,
          "internalType": "address",
          "name": "operator",
          "type": "address"
        },
        {
          "indexed": false,
          "internalType": "bool",
          "name": "approved",
          "type": "bool"
        }
      ],
      "name": "ApprovalForAll",
      "type": "event"
    },
    {
      "anonymous": false,
      "inputs": [
        {
          "indexed": false,
          "internalType": "string",
          "name": "baseURI",
          "type": "string"
        }
      ],
      "name": "BaseURIChanged",
      "type": "event"
    },
    {
      "anonymous": false,
      "inputs": [
        {
          "indexed": false,
          "internalType": "uint256",
          "name": "newBulkBuyLimit",
          "type": "uint256"
        }
      ],
      "name": "BulkBuyLimitChanged",
      "type": "event"
    },
    {
      "anonymous": false,
      "inputs": [
        {
          "indexed": false,
          "internalType": "address",
          "name": "account",
          "type": "address"
        }
      ],
      "name": "Paused",
      "type": "event"
    },
    {
      "anonymous": false,
      "inputs": [
        {
          "indexed": false,
          "internalType": "uint256",
          "name": "newPolymorphPrice",
          "type": "uint256"
        }
      ],
      "name": "PolymorphPriceChanged",
      "type": "event"
    },
    {
      "anonymous": false,
      "inputs": [
        {
          "indexed": true,
          "internalType": "bytes32",
          "name": "role",
          "type": "bytes32"
        },
        {
          "indexed": true,
          "internalType": "bytes32",
          "name": "previousAdminRole",
          "type": "bytes32"
        },
        {
          "indexed": true,
          "internalType": "bytes32",
          "name": "newAdminRole",
          "type": "bytes32"
        }
      ],
      "name": "RoleAdminChanged",
      "type": "event"
    },
    {
      "anonymous": false,
      "inputs": [
        {
          "indexed": true,
          "internalType": "bytes32",
          "name": "role",
          "type": "bytes32"
        },
        {
          "indexed": true,
          "internalType": "address",
          "name": "account",
          "type": "address"
        },
        {
          "indexed": true,
          "internalType": "address",
          "name": "sender",
          "type": "address"
        }
      ],
      "name": "RoleGranted",
      "type": "event"
    },
    {
      "anonymous": false,
      "inputs": [
        {
          "indexed": true,
          "internalType": "bytes32",
          "name": "role",
          "type": "bytes32"
        },
        {
          "indexed": true,
          "internalType": "address",
          "name": "account",
          "type": "address"
        },
        {
          "indexed": true,
          "internalType": "address",
          "name": "sender",
          "type": "address"
        }
      ],
      "name": "RoleRevoked",
      "type": "event"
    },
    {
      "anonymous": false,
      "inputs": [
        {
          "indexed": true,
          "internalType": "uint256",
          "name": "tokenId",
          "type": "uint256"
        },
        {
          "indexed": false,
          "internalType": "uint256",
          "name": "newGene",
          "type": "uint256"
        }
      ],
      "name": "TokenMinted",
      "type": "event"
    },
    {
      "anonymous": false,
      "inputs": [
        {
          "indexed": true,
          "internalType": "uint256",
          "name": "tokenId",
          "type": "uint256"
        },
        {
          "indexed": false,
          "internalType": "uint256",
          "name": "oldGene",
          "type": "uint256"
        },
        {
          "indexed": false,
          "internalType": "uint256",
          "name": "newGene",
          "type": "uint256"
        },
        {
          "indexed": false,
          "internalType": "uint256",
          "name": "price",
          "type": "uint256"
        },
        {
          "indexed": false,
          "internalType": "enum Polymorph.PolymorphEventType",
          "name": "eventType",
          "type": "uint8"
        }
      ],
      "name": "TokenMorphed",
      "type": "event"
    },
    {
      "anonymous": false,
      "inputs": [
        {
          "indexed": false,
          "internalType": "uint256",
          "name": "newTotalSupply",
          "type": "uint256"
        }
      ],
      "name": "TotalSupplyChanged",
      "type": "event"
    },
    {
      "anonymous": false,
      "inputs": [
        {
          "indexed": true,
          "internalType": "address",
          "name": "from",
          "type": "address"
        },
        {
          "indexed": true,
          "internalType": "address",
          "name": "to",
          "type": "address"
        },
        {
          "indexed": true,
          "internalType": "uint256",
          "name": "tokenId",
          "type": "uint256"
        }
      ],
      "name": "Transfer",
      "type": "event"
    },
    {
      "anonymous": false,
      "inputs": [
        {
          "indexed": false,
          "internalType": "address",
          "name": "account",
          "type": "address"
        }
      ],
      "name": "Unpaused",
      "type": "event"
    },
    {
      "anonymous": false,
      "inputs": [
        {
          "indexed": false,
          "internalType": "string",
          "name": "arweaveAssetsJSON",
          "type": "string"
        }
      ],
      "name": "arweaveAssetsJSONChanged",
      "type": "event"
    },
    {
      "inputs": [],
      "name": "DEFAULT_ADMIN_ROLE",
      "outputs": [
        {
          "internalType": "bytes32",
          "name": "",
          "type": "bytes32"
        }
      ],
      "stateMutability": "view",
      "type": "function"
    },
    {
      "inputs": [],
      "name": "MINTER_ROLE",
      "outputs": [
        {
          "internalType": "bytes32",
          "name": "",
          "type": "bytes32"
        }
      ],
      "stateMutability": "view",
      "type": "function"
    },
    {
      "inputs": [],
      "name": "PAUSER_ROLE",
      "outputs": [
        {
          "internalType": "bytes32",
          "name": "",
          "type": "bytes32"
        }
      ],
      "stateMutability": "view",
      "type": "function"
    },
    {
      "inputs": [
        {
          "internalType": "address",
          "name": "to",
          "type": "address"
        },
        {
          "internalType": "uint256",
          "name": "tokenId",
          "type": "uint256"
        }
      ],
      "name": "approve",
      "outputs": [],
      "stateMutability": "nonpayable",
      "type": "function"
    },
    {
      "inputs": [],
      "name": "arweaveAssetsJSON",
      "outputs": [
        {
          "internalType": "string",
          "name": "",
          "type": "string"
        }
      ],
      "stateMutability": "view",
      "type": "function"
    },
    {
      "inputs": [
        {
          "internalType": "address",
          "name": "owner",
          "type": "address"
        }
      ],
      "name": "balanceOf",
      "outputs": [
        {
          "internalType": "uint256",
          "name": "",
          "type": "uint256"
        }
      ],
      "stateMutability": "view",
      "type": "function"
    },
    {
      "inputs": [],
      "name": "baseURI",
      "outputs": [
        {
          "internalType": "string",
          "name": "",
          "type": "string"
        }
      ],
      "stateMutability": "view",
      "type": "function"
    },
    {
      "inputs": [
        {
          "internalType": "uint256",
          "name": "amount",
          "type": "uint256"
        }
      ],
      "name": "bulkBuy",
      "outputs": [],
      "stateMutability": "payable",
      "type": "function"
    },
    {
      "inputs": [],
      "name": "bulkBuyLimit",
      "outputs": [
        {
          "internalType": "uint256",
          "name": "",
          "type": "uint256"
        }
      ],
      "stateMutability": "view",
      "type": "function"
    },
    {
      "inputs": [
        {
          "internalType": "uint256",
          "name": "tokenId",
          "type": "uint256"
        }
      ],
      "name": "burn",
      "outputs": [],
      "stateMutability": "nonpayable",
      "type": "function"
    },
    {
      "inputs": [],
      "name": "daoAddress",
      "outputs": [
        {
          "internalType": "address payable",
          "name": "",
          "type": "address"
        }
      ],
      "stateMutability": "view",
      "type": "function"
    },
    {
      "inputs": [
        {
          "internalType": "uint256",
          "name": "tokenId",
          "type": "uint256"
        }
      ],
      "name": "geneOf",
      "outputs": [
        {
          "internalType": "uint256",
          "name": "gene",
          "type": "uint256"
        }
      ],
      "stateMutability": "view",
      "type": "function"
    },
    {
      "inputs": [
        {
          "internalType": "uint256",
          "name": "tokenId",
          "type": "uint256"
        }
      ],
      "name": "getApproved",
      "outputs": [
        {
          "internalType": "address",
          "name": "",
          "type": "address"
        }
      ],
      "stateMutability": "view",
      "type": "function"
    },
    {
      "inputs": [
        {
          "internalType": "bytes32",
          "name": "role",
          "type": "bytes32"
        }
      ],
      "name": "getRoleAdmin",
      "outputs": [
        {
          "internalType": "bytes32",
          "name": "",
          "type": "bytes32"
        }
      ],
      "stateMutability": "view",
      "type": "function"
    },
    {
      "inputs": [
        {
          "internalType": "bytes32",
          "name": "role",
          "type": "bytes32"
        },
        {
          "internalType": "uint256",
          "name": "index",
          "type": "uint256"
        }
      ],
      "name": "getRoleMember",
      "outputs": [
        {
          "internalType": "address",
          "name": "",
          "type": "address"
        }
      ],
      "stateMutability": "view",
      "type": "function"
    },
    {
      "inputs": [
        {
          "internalType": "bytes32",
          "name": "role",
          "type": "bytes32"
        }
      ],
      "name": "getRoleMemberCount",
      "outputs": [
        {
          "internalType": "uint256",
          "name": "",
          "type": "uint256"
        }
      ],
      "stateMutability": "view",
      "type": "function"
    },
    {
      "inputs": [
        {
          "internalType": "bytes32",
          "name": "role",
          "type": "bytes32"
        },
        {
          "internalType": "address",
          "name": "account",
          "type": "address"
        }
      ],
      "name": "grantRole",
      "outputs": [],
      "stateMutability": "nonpayable",
      "type": "function"
    },
    {
      "inputs": [
        {
          "internalType": "bytes32",
          "name": "role",
          "type": "bytes32"
        },
        {
          "internalType": "address",
          "name": "account",
          "type": "address"
        }
      ],
      "name": "hasRole",
      "outputs": [
        {
          "internalType": "bool",
          "name": "",
          "type": "bool"
        }
      ],
      "stateMutability": "view",
      "type": "function"
    },
    {
      "inputs": [
        {
          "internalType": "address",
          "name": "owner",
          "type": "address"
        },
        {
          "internalType": "address",
          "name": "operator",
          "type": "address"
        }
      ],
      "name": "isApprovedForAll",
      "outputs": [
        {
          "internalType": "bool",
          "name": "",
          "type": "bool"
        }
      ],
      "stateMutability": "view",
      "type": "function"
    },
    {
      "inputs": [],
      "name": "lastTokenId",
      "outputs": [
        {
          "internalType": "uint256",
          "name": "tokenId",
          "type": "uint256"
        }
      ],
      "stateMutability": "view",
      "type": "function"
    },
    {
      "inputs": [],
      "name": "mint",
      "outputs": [],
      "stateMutability": "payable",
      "type": "function"
    },
    {
      "inputs": [
        {
          "internalType": "address",
          "name": "to",
          "type": "address"
        }
      ],
      "name": "mint",
      "outputs": [],
      "stateMutability": "nonpayable",
      "type": "function"
    },
    {
      "inputs": [],
      "name": "name",
      "outputs": [
        {
          "internalType": "string",
          "name": "",
          "type": "string"
        }
      ],
      "stateMutability": "view",
      "type": "function"
    },
    {
      "inputs": [
        {
          "internalType": "uint256",
          "name": "tokenId",
          "type": "uint256"
        }
      ],
      "name": "ownerOf",
      "outputs": [
        {
          "internalType": "address",
          "name": "",
          "type": "address"
        }
      ],
      "stateMutability": "view",
      "type": "function"
    },
    {
      "inputs": [],
      "name": "pause",
      "outputs": [],
      "stateMutability": "nonpayable",
      "type": "function"
    },
    {
      "inputs": [],
      "name": "paused",
      "outputs": [
        {
          "internalType": "bool",
          "name": "",
          "type": "bool"
        }
      ],
      "stateMutability": "view",
      "type": "function"
    },
    {
      "inputs": [],
      "name": "polymorphPrice",
      "outputs": [
        {
          "internalType": "uint256",
          "name": "",
          "type": "uint256"
        }
      ],
      "stateMutability": "view",
      "type": "function"
    },
    {
      "inputs": [
        {
          "internalType": "bytes32",
          "name": "role",
          "type": "bytes32"
        },
        {
          "internalType": "address",
          "name": "account",
          "type": "address"
        }
      ],
      "name": "renounceRole",
      "outputs": [],
      "stateMutability": "nonpayable",
      "type": "function"
    },
    {
      "inputs": [
        {
          "internalType": "bytes32",
          "name": "role",
          "type": "bytes32"
        },
        {
          "internalType": "address",
          "name": "account",
          "type": "address"
        }
      ],
      "name": "revokeRole",
      "outputs": [],
      "stateMutability": "nonpayable",
      "type": "function"
    },
    {
      "inputs": [
        {
          "internalType": "address",
          "name": "from",
          "type": "address"
        },
        {
          "internalType": "address",
          "name": "to",
          "type": "address"
        },
        {
          "internalType": "uint256",
          "name": "tokenId",
          "type": "uint256"
        }
      ],
      "name": "safeTransferFrom",
      "outputs": [],
      "stateMutability": "nonpayable",
      "type": "function"
    },
    {
      "inputs": [
        {
          "internalType": "address",
          "name": "from",
          "type": "address"
        },
        {
          "internalType": "address",
          "name": "to",
          "type": "address"
        },
        {
          "internalType": "uint256",
          "name": "tokenId",
          "type": "uint256"
        },
        {
          "internalType": "bytes",
          "name": "_data",
          "type": "bytes"
        }
      ],
      "name": "safeTransferFrom",
      "outputs": [],
      "stateMutability": "nonpayable",
      "type": "function"
    },
    {
      "inputs": [
        {
          "internalType": "address",
          "name": "operator",
          "type": "address"
        },
        {
          "internalType": "bool",
          "name": "approved",
          "type": "bool"
        }
      ],
      "name": "setApprovalForAll",
      "outputs": [],
      "stateMutability": "nonpayable",
      "type": "function"
    },
    {
      "inputs": [
        {
          "internalType": "string",
          "name": "_arweaveAssetsJSON",
          "type": "string"
        }
      ],
      "name": "setArweaveAssetsJSON",
      "outputs": [],
      "stateMutability": "nonpayable",
      "type": "function"
    },
    {
      "inputs": [
        {
          "internalType": "string",
          "name": "_baseURI",
          "type": "string"
        }
      ],
      "name": "setBaseURI",
      "outputs": [],
      "stateMutability": "nonpayable",
      "type": "function"
    },
    {
      "inputs": [
        {
          "internalType": "uint256",
          "name": "_bulkBuyLimit",
          "type": "uint256"
        }
      ],
      "name": "setBulkBuyLimit",
      "outputs": [],
      "stateMutability": "nonpayable",
      "type": "function"
    },
    {
      "inputs": [
        {
          "internalType": "uint256",
          "name": "newPolymorphPrice",
          "type": "uint256"
        }
      ],
      "name": "setPolymorphPrice",
      "outputs": [],
      "stateMutability": "nonpayable",
      "type": "function"
    },
    {
      "inputs": [
        {
          "internalType": "uint256",
          "name": "totalSupply",
          "type": "uint256"
        }
      ],
      "name": "setTotalSupply",
      "outputs": [],
      "stateMutability": "nonpayable",
      "type": "function"
    },
    {
      "inputs": [
        {
          "internalType": "bytes4",
          "name": "interfaceId",
          "type": "bytes4"
        }
      ],
      "name": "supportsInterface",
      "outputs": [
        {
          "internalType": "bool",
          "name": "",
          "type": "bool"
        }
      ],
      "stateMutability": "view",
      "type": "function"
    },
    {
      "inputs": [],
      "name": "symbol",
      "outputs": [
        {
          "internalType": "string",
          "name": "",
          "type": "string"
        }
      ],
      "stateMutability": "view",
      "type": "function"
    },
    {
      "inputs": [
        {
          "internalType": "uint256",
          "name": "index",
          "type": "uint256"
        }
      ],
      "name": "tokenByIndex",
      "outputs": [
        {
          "internalType": "uint256",
          "name": "",
          "type": "uint256"
        }
      ],
      "stateMutability": "view",
      "type": "function"
    },
    {
      "inputs": [
        {
          "internalType": "address",
          "name": "owner",
          "type": "address"
        },
        {
          "internalType": "uint256",
          "name": "index",
          "type": "uint256"
        }
      ],
      "name": "tokenOfOwnerByIndex",
      "outputs": [
        {
          "internalType": "uint256",
          "name": "",
          "type": "uint256"
        }
      ],
      "stateMutability": "view",
      "type": "function"
    },
    {
      "inputs": [
        {
          "internalType": "uint256",
          "name": "tokenId",
          "type": "uint256"
        }
      ],
      "name": "tokenURI",
      "outputs": [
        {
          "internalType": "string",
          "name": "",
          "type": "string"
        }
      ],
      "stateMutability": "view",
      "type": "function"
    },
    {
      "inputs": [],
      "name": "totalSupply",
      "outputs": [
        {
          "internalType": "uint256",
          "name": "",
          "type": "uint256"
        }
      ],
      "stateMutability": "view",
      "type": "function"
    },
    {
      "inputs": [
        {
          "internalType": "address",
          "name": "from",
          "type": "address"
        },
        {
          "internalType": "address",
          "name": "to",
          "type": "address"
        },
        {
          "internalType": "uint256",
          "name": "tokenId",
          "type": "uint256"
        }
      ],
      "name": "transferFrom",
      "outputs": [],
      "stateMutability": "nonpayable",
      "type": "function"
    },
    {
      "inputs": [],
      "name": "unpause",
      "outputs": [],
      "stateMutability": "nonpayable",
      "type": "function"
    },
    {
      "stateMutability": "payable",
      "type": "receive"
    }
  ],
  "bytecode": "0x60806040523480156200001157600080fd5b506040516200642a3803806200642a83398181016040526101208110156200003857600080fd5b81019080805160405193929190846401000000008211156200005957600080fd5b838201915060208201858111156200007057600080fd5b82518660018202830111640100000000821117156200008e57600080fd5b8083526020830192505050908051906020019080838360005b83811015620000c4578082015181840152602081019050620000a7565b50505050905090810190601f168015620000f25780820380516001836020036101000a031916815260200191505b50604052602001805160405193929190846401000000008211156200011657600080fd5b838201915060208201858111156200012d57600080fd5b82518660018202830111640100000000821117156200014b57600080fd5b8083526020830192505050908051906020019080838360005b838110156200018157808201518184015260208101905062000164565b50505050905090810190601f168015620001af5780820380516001836020036101000a031916815260200191505b5060405260200180516040519392919084640100000000821115620001d357600080fd5b83820191506020820185811115620001ea57600080fd5b82518660018202830111640100000000821117156200020857600080fd5b8083526020830192505050908051906020019080838360005b838110156200023e57808201518184015260208101905062000221565b50505050905090810190601f1680156200026c5780820380516001836020036101000a031916815260200191505b50604052602001805190602001909291908051906020019092919080519060200190929190805190602001909291908051906020019092919080516040519392919084640100000000821115620002c257600080fd5b83820191506020820185811115620002d957600080fd5b8251866001820283011164010000000082111715620002f757600080fd5b8083526020830192505050908051906020019080838360005b838110156200032d57808201518184015260208101905062000310565b50505050905090810190601f1680156200035b5780820380516001836020036101000a031916815260200191505b5060405250505088888882826200037f6301ffc9a760e01b6200057f60201b60201c565b81600790805190602001906200039792919062000ef1565b508060089080519060200190620003b092919062000ef1565b50620003c96380ac58cd60e01b6200057f60201b60201c565b620003e1635b5e139f60e01b6200057f60201b60201c565b620003f963780e9d6360e01b6200057f60201b60201c565b50506000600b60006101000a81548160ff0219169083151502179055506200043a6000801b6200042e6200068860201b60201c565b6200069060201b60201c565b6200047b7f9f2df0fed2c77648de5860a4cc508cd0818c85b8b8a1ab4ceeef8d981c8956a66200046f6200068860201b60201c565b6200069060201b60201c565b620004bc7f65d7a28e3265b37a6474929f336521b332c1681b933f6cb9f3376673440d862a620004b06200068860201b60201c565b6200069060201b60201c565b620004cd81620006a660201b60201c565b5050506001600d8190555085600f60006101000a81548173ffffffffffffffffffffffffffffffffffffffff021916908373ffffffffffffffffffffffffffffffffffffffff16021790555083601081905550826011819055508160128190555080601390805190602001906200054692919062000ef1565b506200055e600e620006c260201b620033081760201c565b5062000570856200079b60201b60201c565b50505050505050505062000f97565b63ffffffff60e01b817bffffffffffffffffffffffffffffffffffffffffffffffffffffffff191614156200061c576040517f08c379a000000000000000000000000000000000000000000000000000000000815260040180806020018281038252601c8152602001807f4552433136353a20696e76616c696420696e746572666163652069640000000081525060200191505060405180910390fd5b6001806000837bffffffffffffffffffffffffffffffffffffffffffffffffffffffff19167bffffffffffffffffffffffffffffffffffffffffffffffffffffffff1916815260200190815260200160002060006101000a81548160ff02191690831515021790555050565b600033905090565b620006a282826200083b60201b60201c565b5050565b80600a9080519060200190620006be92919062000ef1565b5050565b600033325a8460000154424343406064430340604051602001808973ffffffffffffffffffffffffffffffffffffffff1660601b81526014018873ffffffffffffffffffffffffffffffffffffffff1660601b81526014018781526020018681526020018581526020018481526020018381526020018281526020019850505050505050505060405160208183030381529060405280519060200120604051602001808281526020019150506040516020818303038152906040528051906020012060001c826000018190555081600001549050919050565b60005b818110156200083757620007be600c620008de60201b620033e11760201c565b6000620007d7600c620008f460201b620033f71760201c565b9050620007f0600e620006c260201b620033081760201c565b6014600083815260200190815260200160002081905550620008286200081b6200068860201b60201c565b826200090260201b60201c565b5080806001019150506200079e565b5050565b620008698160008085815260200190815260200160002060000162000b1660201b620034051790919060201c565b15620008da576200087f6200068860201b60201c565b73ffffffffffffffffffffffffffffffffffffffff168173ffffffffffffffffffffffffffffffffffffffff16837f2f8788117e7eff1d82e926ec794901d17c78024a50270940304540a733656f0d60405160405180910390a45b5050565b6001816000016000828254019250508190555050565b600081600001549050919050565b600073ffffffffffffffffffffffffffffffffffffffff168273ffffffffffffffffffffffffffffffffffffffff161415620009a6576040517f08c379a00000000000000000000000000000000000000000000000000000000081526004018080602001828103825260208152602001807f4552433732313a206d696e7420746f20746865207a65726f206164647265737381525060200191505060405180910390fd5b620009b78162000b4e60201b60201c565b1562000a2b576040517f08c379a000000000000000000000000000000000000000000000000000000000815260040180806020018281038252601c8152602001807f4552433732313a20746f6b656e20616c7265616479206d696e7465640000000081525060200191505060405180910390fd5b62000a3f6000838362000b7260201b60201c565b62000a9781600260008573ffffffffffffffffffffffffffffffffffffffff1673ffffffffffffffffffffffffffffffffffffffff16815260200190815260200160002062000c1360201b620034351790919060201c565b5062000ab58183600362000c3560201b6200344f179092919060201c565b50808273ffffffffffffffffffffffffffffffffffffffff16600073ffffffffffffffffffffffffffffffffffffffff167fddf252ad1be2c89b69c2b068fc378daa952ba7f163c4a11628f55a4df523b3ef60405160405180910390a45050565b600062000b46836000018373ffffffffffffffffffffffffffffffffffffffff1660001b62000c7260201b60201c565b905092915050565b600062000b6b82600362000cec60201b620034841790919060201c565b9050919050565b62000b8a83838362000d0e60201b6200349e1760201c565b807f8c0bdd7bca83c4e0c810cbecf44bc544a9dc0b9f265664e31ce0ce85f07a052b60146000848152602001908152602001600020546014600085815260200190815260200160002054600060026040518085815260200184815260200183815260200182600281111562000bfb57fe5b815260200194505050505060405180910390a2505050565b600062000c2d836000018360001b62000c7260201b60201c565b905092915050565b600062000c69846000018460001b8473ffffffffffffffffffffffffffffffffffffffff1660001b62000d2b60201b60201c565b90509392505050565b600062000c86838362000e0a60201b60201c565b62000ce157826000018290806001815401808255809150506001900390600052602060002001600090919091909150558260000180549050836001016000848152602001908152602001600020819055506001905062000ce6565b600090505b92915050565b600062000d06836000018360001b62000e2d60201b60201c565b905092915050565b62000d2683838362000e5060201b620034ae1760201c565b505050565b600080846001016000858152602001908152602001600020549050600081141562000dd45784600001604051806040016040528086815260200185815250908060018154018082558091505060019003906000526020600020906002020160009091909190915060008201518160000155602082015181600101555050846000018054905085600101600086815260200190815260200160002081905550600191505062000e03565b8285600001600183038154811062000de857fe5b90600052602060002090600202016001018190555060009150505b9392505050565b600080836001016000848152602001908152602001600020541415905092915050565b600080836001016000848152602001908152602001600020541415905092915050565b62000e6883838362000ed560201b6200351c1760201c565b62000e7862000eda60201b60201c565b1562000ed0576040517f08c379a000000000000000000000000000000000000000000000000000000000815260040180806020018281038252602b815260200180620063ff602b913960400191505060405180910390fd5b505050565b505050565b6000600b60009054906101000a900460ff16905090565b828054600181600116156101000203166002900490600052602060002090601f016020900481019282601f1062000f3457805160ff191683800117855562000f65565b8280016001018555821562000f65579182015b8281111562000f6457825182559160200191906001019062000f47565b5b50905062000f74919062000f78565b5090565b5b8082111562000f9357600081600090555060010162000f79565b5090565b6154588062000fa76000396000f3fe6080604052600436106102765760003560e01c80636a5be6861161014f578063a49bccca116100c1578063d5a83d3e1161007a578063d5a83d3e146110f8578063e63ab1e914611126578063e985e9c514611151578063f528a627146111d8578063f7ea7a3d14611268578063f84ddf0b146112a357610285565b8063a49bccca14610e32578063b88d4fde14610e5d578063c87b56dd14610f6f578063ca15c87314611023578063d539139314611072578063d547741f1461109d57610285565b80638456cb59116101135780638456cb5914610c235780639010d07c14610c3a57806391d1485414610ca957806395d89b4114610d1a578063a217fddf14610daa578063a22cb46514610dd557610285565b80636a5be68614610a635780636a62784214610ab25780636c0360eb14610b03578063704ec03614610b9357806370a0823114610bbe57610285565b80632f745c59116101e85780634f6ccce7116101ac5780634f6ccce7146107b757806355f804b31461080657806356b1b300146108ce5780635c975abb146109965780635e468dfd146109c35780636352211e146109fe57610285565b80632f745c591461062057806336568abe1461068f5780633f4ba83a146106ea57806342842e0e1461070157806342966c681461077c57610285565b80631249c58b1161023a5780631249c58b1461048557806318160ddd1461048f5780632131c68c146104ba57806323b872dd146104fb578063248a9ca3146105765780632f2ff15d146105c557610285565b8063017f1e341461028a57806301ffc9a7146102c557806306fdde0314610335578063081812fc146103c5578063095ea7b31461042a57610285565b36610285576102836112ce565b005b600080fd5b34801561029657600080fd5b506102c3600480360360208110156102ad57600080fd5b81019080803590602001909291905050506116cd565b005b3480156102d157600080fd5b5061031d600480360360208110156102e857600080fd5b8101908080357bffffffffffffffffffffffffffffffffffffffffffffffffffffffff191690602001909291905050506117d1565b60405180821515815260200191505060405180910390f35b34801561034157600080fd5b5061034a611839565b6040518080602001828103825283818151815260200191508051906020019080838360005b8381101561038a57808201518184015260208101905061036f565b50505050905090810190601f1680156103b75780820380516001836020036101000a031916815260200191505b509250505060405180910390f35b3480156103d157600080fd5b506103fe600480360360208110156103e857600080fd5b81019080803590602001909291905050506118db565b604051808273ffffffffffffffffffffffffffffffffffffffff16815260200191505060405180910390f35b34801561043657600080fd5b506104836004803603604081101561044d57600080fd5b81019080803573ffffffffffffffffffffffffffffffffffffffff16906020019092919080359060200190929190505050611976565b005b61048d6112ce565b005b34801561049b57600080fd5b506104a4611aba565b6040518082815260200191505060405180910390f35b3480156104c657600080fd5b506104cf611ac4565b604051808273ffffffffffffffffffffffffffffffffffffffff16815260200191505060405180910390f35b34801561050757600080fd5b506105746004803603606081101561051e57600080fd5b81019080803573ffffffffffffffffffffffffffffffffffffffff169060200190929190803573ffffffffffffffffffffffffffffffffffffffff16906020019092919080359060200190929190505050611aea565b005b34801561058257600080fd5b506105af6004803603602081101561059957600080fd5b8101908080359060200190929190505050611b60565b6040518082815260200191505060405180910390f35b3480156105d157600080fd5b5061061e600480360360408110156105e857600080fd5b8101908080359060200190929190803573ffffffffffffffffffffffffffffffffffffffff169060200190929190505050611b7f565b005b34801561062c57600080fd5b506106796004803603604081101561064357600080fd5b81019080803573ffffffffffffffffffffffffffffffffffffffff16906020019092919080359060200190929190505050611c08565b6040518082815260200191505060405180910390f35b34801561069b57600080fd5b506106e8600480360360408110156106b257600080fd5b8101908080359060200190929190803573ffffffffffffffffffffffffffffffffffffffff169060200190929190505050611c63565b005b3480156106f657600080fd5b506106ff611cfc565b005b34801561070d57600080fd5b5061077a6004803603606081101561072457600080fd5b81019080803573ffffffffffffffffffffffffffffffffffffffff169060200190929190803573ffffffffffffffffffffffffffffffffffffffff16906020019092919080359060200190929190505050611d8c565b005b34801561078857600080fd5b506107b56004803603602081101561079f57600080fd5b8101908080359060200190929190505050611dac565b005b3480156107c357600080fd5b506107f0600480360360208110156107da57600080fd5b8101908080359060200190929190505050611e1e565b6040518082815260200191505060405180910390f35b34801561081257600080fd5b506108cc6004803603602081101561082957600080fd5b810190808035906020019064010000000081111561084657600080fd5b82018360208201111561085857600080fd5b8035906020019184600183028401116401000000008311171561087a57600080fd5b91908080601f016020809104026020016040519081016040528093929190818152602001838380828437600081840152601f19601f820116905080830192505050505050509192919290505050611e41565b005b3480156108da57600080fd5b50610994600480360360208110156108f157600080fd5b810190808035906020019064010000000081111561090e57600080fd5b82018360208201111561092057600080fd5b8035906020019184600183028401116401000000008311171561094257600080fd5b91908080601f016020809104026020016040519081016040528093929190818152602001838380828437600081840152601f19601f820116905080830192505050505050509192919290505050611fac565b005b3480156109a257600080fd5b506109ab612125565b60405180821515815260200191505060405180910390f35b3480156109cf57600080fd5b506109fc600480360360208110156109e657600080fd5b810190808035906020019092919050505061213c565b005b348015610a0a57600080fd5b50610a3760048036036020811015610a2157600080fd5b8101908080359060200190929190505050612240565b604051808273ffffffffffffffffffffffffffffffffffffffff16815260200191505060405180910390f35b348015610a6f57600080fd5b50610a9c60048036036020811015610a8657600080fd5b8101908080359060200190929190505050612277565b6040518082815260200191505060405180910390f35b348015610abe57600080fd5b50610b0160048036036020811015610ad557600080fd5b81019080803573ffffffffffffffffffffffffffffffffffffffff169060200190929190505050612294565b005b348015610b0f57600080fd5b50610b18612302565b6040518080602001828103825283818151815260200191508051906020019080838360005b83811015610b58578082015181840152602081019050610b3d565b50505050905090810190601f168015610b855780820380516001836020036101000a031916815260200191505b509250505060405180910390f35b348015610b9f57600080fd5b50610ba86123a4565b6040518082815260200191505060405180910390f35b348015610bca57600080fd5b50610c0d60048036036020811015610be157600080fd5b81019080803573ffffffffffffffffffffffffffffffffffffffff1690602001909291905050506123aa565b6040518082815260200191505060405180910390f35b348015610c2f57600080fd5b50610c3861247f565b005b348015610c4657600080fd5b50610c7d60048036036040811015610c5d57600080fd5b81019080803590602001909291908035906020019092919050505061250f565b604051808273ffffffffffffffffffffffffffffffffffffffff16815260200191505060405180910390f35b348015610cb557600080fd5b50610d0260048036036040811015610ccc57600080fd5b8101908080359060200190929190803573ffffffffffffffffffffffffffffffffffffffff169060200190929190505050612540565b60405180821515815260200191505060405180910390f35b348015610d2657600080fd5b50610d2f612571565b6040518080602001828103825283818151815260200191508051906020019080838360005b83811015610d6f578082015181840152602081019050610d54565b50505050905090810190601f168015610d9c5780820380516001836020036101000a031916815260200191505b509250505060405180910390f35b348015610db657600080fd5b50610dbf612613565b6040518082815260200191505060405180910390f35b348015610de157600080fd5b50610e3060048036036040811015610df857600080fd5b81019080803573ffffffffffffffffffffffffffffffffffffffff16906020019092919080351515906020019092919050505061261a565b005b348015610e3e57600080fd5b50610e476127d0565b6040518082815260200191505060405180910390f35b348015610e6957600080fd5b50610f6d60048036036080811015610e8057600080fd5b81019080803573ffffffffffffffffffffffffffffffffffffffff169060200190929190803573ffffffffffffffffffffffffffffffffffffffff1690602001909291908035906020019092919080359060200190640100000000811115610ee757600080fd5b820183602082011115610ef957600080fd5b80359060200191846001830284011164010000000083111715610f1b57600080fd5b91908080601f016020809104026020016040519081016040528093929190818152602001838380828437600081840152601f19601f8201169050808301925050505050505091929192905050506127d6565b005b348015610f7b57600080fd5b50610fa860048036036020811015610f9257600080fd5b810190808035906020019092919050505061284e565b6040518080602001828103825283818151815260200191508051906020019080838360005b83811015610fe8578082015181840152602081019050610fcd565b50505050905090810190601f1680156110155780820380516001836020036101000a031916815260200191505b509250505060405180910390f35b34801561102f57600080fd5b5061105c6004803603602081101561104657600080fd5b8101908080359060200190929190505050612b1f565b6040518082815260200191505060405180910390f35b34801561107e57600080fd5b50611087612b45565b6040518082815260200191505060405180910390f35b3480156110a957600080fd5b506110f6600480360360408110156110c057600080fd5b8101908080359060200190929190803573ffffffffffffffffffffffffffffffffffffffff169060200190929190505050612b69565b005b6111246004803603602081101561110e57600080fd5b8101908080359060200190929190505050612bf2565b005b34801561113257600080fd5b5061113b61309d565b6040518082815260200191505060405180910390f35b34801561115d57600080fd5b506111c06004803603604081101561117457600080fd5b81019080803573ffffffffffffffffffffffffffffffffffffffff169060200190929190803573ffffffffffffffffffffffffffffffffffffffff1690602001909291905050506130c1565b60405180821515815260200191505060405180910390f35b3480156111e457600080fd5b506111ed613155565b6040518080602001828103825283818151815260200191508051906020019080838360005b8381101561122d578082015181840152602081019050611212565b50505050905090810190601f16801561125a5780820380516001836020036101000a031916815260200191505b509250505060405180910390f35b34801561127457600080fd5b506112a16004803603602081101561128b57600080fd5b81019080803590602001909291905050506131f3565b005b3480156112af57600080fd5b506112b86132f7565b6040518082815260200191505060405180910390f35b6002600d541415611347576040517f08c379a000000000000000000000000000000000000000000000000000000000815260040180806020018281038252601f8152602001807f5265656e7472616e637947756172643a207265656e7472616e742063616c6c0081525060200191505060405180910390fd5b6002600d8190555060115461135c600c6133f7565b106113cf576040517f08c379a00000000000000000000000000000000000000000000000000000000081526004018080602001828103825260148152602001807f546f74616c20737570706c79207265616368656400000000000000000000000081525060200191505060405180910390fd5b6113d9600c6133e1565b60006113e5600c6133f7565b90506113f1600e613308565b60146000838152602001908152602001600020819055506000600f60009054906101000a900473ffffffffffffffffffffffffffffffffffffffff1673ffffffffffffffffffffffffffffffffffffffff1660105460405180600001905060006040518083038185875af1925050503d806000811461148c576040519150601f19603f3d011682016040523d82523d6000602084013e611491565b606091505b50509050806114eb576040517f08c379a000000000000000000000000000000000000000000000000000000000815260040180806020018281038252603a815260200180615124603a913960400191505060405180910390fd5b60006115026010543461352190919063ffffffff16565b905060008111156115f25760006115176135a4565b73ffffffffffffffffffffffffffffffffffffffff168260405180600001905060006040518083038185875af1925050503d8060008114611574576040519150601f19603f3d011682016040523d82523d6000602084013e611579565b606091505b50509050806115f0576040517f08c379a00000000000000000000000000000000000000000000000000000000081526004018080602001828103825260188152602001807f4661696c656420746f2072657475726e206578636573732e000000000000000081525060200191505060405180910390fd5b505b6116036115fd6135a4565b846135ac565b827f5f7666687319b40936f33c188908d86aea154abd3f4127b4fa0a3f04f303c7da60146000868152602001908152602001600020546040518082815260200191505060405180910390a2827f8c0bdd7bca83c4e0c810cbecf44bc544a9dc0b9f265664e31ce0ce85f07a052b600060146000878152602001908152602001600020546010546000604051808581526020018481526020018381526020018260028111156116ad57fe5b815260200194505050505060405180910390a25050506001600d81905550565b600f60009054906101000a900473ffffffffffffffffffffffffffffffffffffffff1673ffffffffffffffffffffffffffffffffffffffff163373ffffffffffffffffffffffffffffffffffffffff1614611790576040517f08c379a00000000000000000000000000000000000000000000000000000000081526004018080602001828103825260178152602001807f4e6f742063616c6c65642066726f6d207468652064616f00000000000000000081525060200191505060405180910390fd5b806010819055507f6a08b3bba14e54ee218389c7c7444e619f3897465dc06757938cfd01a6957f6c816040518082815260200191505060405180910390a150565b600060016000837bffffffffffffffffffffffffffffffffffffffffffffffffffffffff19167bffffffffffffffffffffffffffffffffffffffffffffffffffffffff1916815260200190815260200160002060009054906101000a900460ff169050919050565b606060078054600181600116156101000203166002900480601f0160208091040260200160405190810160405280929190818152602001828054600181600116156101000203166002900480156118d15780601f106118a6576101008083540402835291602001916118d1565b820191906000526020600020905b8154815290600101906020018083116118b457829003601f168201915b5050505050905090565b60006118e6826137a0565b61193b576040517f08c379a000000000000000000000000000000000000000000000000000000000815260040180806020018281038252602c8152602001806152ae602c913960400191505060405180910390fd5b6005600083815260200190815260200160002060009054906101000a900473ffffffffffffffffffffffffffffffffffffffff169050919050565b600061198182612240565b90508073ffffffffffffffffffffffffffffffffffffffff168373ffffffffffffffffffffffffffffffffffffffff161415611a08576040517f08c379a00000000000000000000000000000000000000000000000000000000081526004018080602001828103825260218152602001806153326021913960400191505060405180910390fd5b8073ffffffffffffffffffffffffffffffffffffffff16611a276135a4565b73ffffffffffffffffffffffffffffffffffffffff161480611a565750611a5581611a506135a4565b6130c1565b5b611aab576040517f08c379a00000000000000000000000000000000000000000000000000000000081526004018080602001828103825260388152602001806151e06038913960400191505060405180910390fd5b611ab583836137bd565b505050565b6000601154905090565b600f60009054906101000a900473ffffffffffffffffffffffffffffffffffffffff1681565b611afb611af56135a4565b82613876565b611b50576040517f08c379a00000000000000000000000000000000000000000000000000000000081526004018080602001828103825260318152602001806153536031913960400191505060405180910390fd5b611b5b83838361396a565b505050565b6000806000838152602001908152602001600020600201549050919050565b611ba560008084815260200190815260200160002060020154611ba06135a4565b612540565b611bfa576040517f08c379a000000000000000000000000000000000000000000000000000000000815260040180806020018281038252602f815260200180615037602f913960400191505060405180910390fd5b611c048282613bad565b5050565b6000611c5b82600260008673ffffffffffffffffffffffffffffffffffffffff1673ffffffffffffffffffffffffffffffffffffffff168152602001908152602001600020613c4090919063ffffffff16565b905092915050565b611c6b6135a4565b73ffffffffffffffffffffffffffffffffffffffff168173ffffffffffffffffffffffffffffffffffffffff1614611cee576040517f08c379a000000000000000000000000000000000000000000000000000000000815260040180806020018281038252602f8152602001806153f4602f913960400191505060405180910390fd5b611cf88282613c5a565b5050565b611d2d7f65d7a28e3265b37a6474929f336521b332c1681b933f6cb9f3376673440d862a611d286135a4565b612540565b611d82576040517f08c379a00000000000000000000000000000000000000000000000000000000081526004018080602001828103825260408152602001806153b46040913960400191505060405180910390fd5b611d8a613ced565b565b611da7838383604051806020016040528060008152506127d6565b505050565b611dbd611db76135a4565b82613876565b611e12576040517f08c379a00000000000000000000000000000000000000000000000000000000081526004018080602001828103825260308152602001806153846030913960400191505060405180910390fd5b611e1b81613dd8565b50565b600080611e35836003613f1290919063ffffffff16565b50905080915050919050565b600f60009054906101000a900473ffffffffffffffffffffffffffffffffffffffff1673ffffffffffffffffffffffffffffffffffffffff163373ffffffffffffffffffffffffffffffffffffffff1614611f04576040517f08c379a00000000000000000000000000000000000000000000000000000000081526004018080602001828103825260178152602001807f4e6f742063616c6c65642066726f6d207468652064616f00000000000000000081525060200191505060405180910390fd5b611f0d81613f3e565b7f5411e8ebf1636d9e83d5fc4900bf80cbac82e8790da2a4c94db4895e889eedf6816040518080602001828103825283818151815260200191508051906020019080838360005b83811015611f6f578082015181840152602081019050611f54565b50505050905090810190601f168015611f9c5780820380516001836020036101000a031916815260200191505b509250505060405180910390a150565b600f60009054906101000a900473ffffffffffffffffffffffffffffffffffffffff1673ffffffffffffffffffffffffffffffffffffffff163373ffffffffffffffffffffffffffffffffffffffff161461206f576040517f08c379a00000000000000000000000000000000000000000000000000000000081526004018080602001828103825260178152602001807f4e6f742063616c6c65642066726f6d207468652064616f00000000000000000081525060200191505060405180910390fd5b8060139080519060200190612085929190614f04565b507fe1ea6e62a0b360acc613f2021ab3c5d36492a25bce6d0d9940a6b497c87363df816040518080602001828103825283818151815260200191508051906020019080838360005b838110156120e85780820151818401526020810190506120cd565b50505050905090810190601f1680156121155780820380516001836020036101000a031916815260200191505b509250505060405180910390a150565b6000600b60009054906101000a900460ff16905090565b600f60009054906101000a900473ffffffffffffffffffffffffffffffffffffffff1673ffffffffffffffffffffffffffffffffffffffff163373ffffffffffffffffffffffffffffffffffffffff16146121ff576040517f08c379a00000000000000000000000000000000000000000000000000000000081526004018080602001828103825260178152602001807f4e6f742063616c6c65642066726f6d207468652064616f00000000000000000081525060200191505060405180910390fd5b806012819055507fa0e0113404674c6f545b966e8ec54db3066a6c720a0054f0bc4b0c900cfff243816040518082815260200191505060405180910390a150565b600061227082604051806060016040528060298152602001615242602991396003613f589092919063ffffffff16565b9050919050565b600060146000838152602001908152602001600020549050919050565b6040517f08c379a00000000000000000000000000000000000000000000000000000000081526004018080602001828103825260178152602001807f53686f756c64206e6f74207573652074686973206f6e6500000000000000000081525060200191505060405180910390fd5b6060600a8054600181600116156101000203166002900480601f01602080910402602001604051908101604052809291908181526020018280546001816001161561010002031660029004801561239a5780601f1061236f5761010080835404028352916020019161239a565b820191906000526020600020905b81548152906001019060200180831161237d57829003601f168201915b5050505050905090565b60105481565b60008073ffffffffffffffffffffffffffffffffffffffff168273ffffffffffffffffffffffffffffffffffffffff161415612431576040517f08c379a000000000000000000000000000000000000000000000000000000000815260040180806020018281038252602a815260200180615218602a913960400191505060405180910390fd5b612478600260008473ffffffffffffffffffffffffffffffffffffffff1673ffffffffffffffffffffffffffffffffffffffff168152602001908152602001600020613f77565b9050919050565b6124b07f65d7a28e3265b37a6474929f336521b332c1681b933f6cb9f3376673440d862a6124ab6135a4565b612540565b612505576040517f08c379a000000000000000000000000000000000000000000000000000000000815260040180806020018281038252603e815260200180615098603e913960400191505060405180910390fd5b61250d613f8c565b565b60006125388260008086815260200190815260200160002060000161407890919063ffffffff16565b905092915050565b60006125698260008086815260200190815260200160002060000161409290919063ffffffff16565b905092915050565b606060088054600181600116156101000203166002900480601f0160208091040260200160405190810160405280929190818152602001828054600181600116156101000203166002900480156126095780601f106125de57610100808354040283529160200191612609565b820191906000526020600020905b8154815290600101906020018083116125ec57829003601f168201915b5050505050905090565b6000801b81565b6126226135a4565b73ffffffffffffffffffffffffffffffffffffffff168273ffffffffffffffffffffffffffffffffffffffff1614156126c3576040517f08c379a00000000000000000000000000000000000000000000000000000000081526004018080602001828103825260198152602001807f4552433732313a20617070726f766520746f2063616c6c65720000000000000081525060200191505060405180910390fd5b80600660006126d06135a4565b73ffffffffffffffffffffffffffffffffffffffff1673ffffffffffffffffffffffffffffffffffffffff16815260200190815260200160002060008473ffffffffffffffffffffffffffffffffffffffff1673ffffffffffffffffffffffffffffffffffffffff16815260200190815260200160002060006101000a81548160ff0219169083151502179055508173ffffffffffffffffffffffffffffffffffffffff1661277d6135a4565b73ffffffffffffffffffffffffffffffffffffffff167f17307eab39ab6107e8899845ad3d59bd9653f200f220920489ca2b5937696c318360405180821515815260200191505060405180910390a35050565b60125481565b6127e76127e16135a4565b83613876565b61283c576040517f08c379a00000000000000000000000000000000000000000000000000000000081526004018080602001828103825260318152602001806153536031913960400191505060405180910390fd5b612848848484846140c2565b50505050565b6060612859826137a0565b6128ae576040517f08c379a000000000000000000000000000000000000000000000000000000000815260040180806020018281038252602f815260200180615303602f913960400191505060405180910390fd5b6060600960008481526020019081526020016000208054600181600116156101000203166002900480601f0160208091040260200160405190810160405280929190818152602001828054600181600116156101000203166002900480156129575780601f1061292c57610100808354040283529160200191612957565b820191906000526020600020905b81548152906001019060200180831161293a57829003601f168201915b505050505090506060612968612302565b905060008151141561297e578192505050612b1a565b600082511115612a4f5780826040516020018083805190602001908083835b602083106129c0578051825260208201915060208101905060208303925061299d565b6001836020036101000a03801982511681845116808217855250505050505090500182805190602001908083835b60208310612a1157805182526020820191506020810190506020830392506129ee565b6001836020036101000a0380198251168184511680821785525050505050509050019250505060405160208183030381529060405292505050612b1a565b80612a5985614134565b6040516020018083805190602001908083835b60208310612a8f5780518252602082019150602081019050602083039250612a6c565b6001836020036101000a03801982511681845116808217855250505050505090500182805190602001908083835b60208310612ae05780518252602082019150602081019050602083039250612abd565b6001836020036101000a03801982511681845116808217855250505050505090500192505050604051602081830303815290604052925050505b919050565b6000612b3e60008084815260200190815260200160002060000161427b565b9050919050565b7f9f2df0fed2c77648de5860a4cc508cd0818c85b8b8a1ab4ceeef8d981c8956a681565b612b8f60008084815260200190815260200160002060020154612b8a6135a4565b612540565b612be4576040517f08c379a00000000000000000000000000000000000000000000000000000000081526004018080602001828103825260308152602001806151b06030913960400191505060405180910390fd5b612bee8282613c5a565b5050565b6002600d541415612c6b576040517f08c379a000000000000000000000000000000000000000000000000000000000815260040180806020018281038252601f8152602001807f5265656e7472616e637947756172643a207265656e7472616e742063616c6c0081525060200191505060405180910390fd5b6002600d81905550601254811115612cce576040517f08c379a000000000000000000000000000000000000000000000000000000000815260040180806020018281038252602a8152602001806150fa602a913960400191505060405180910390fd5b601154612ced82612cdf600c6133f7565b61429090919063ffffffff16565b1115612d61576040517f08c379a00000000000000000000000000000000000000000000000000000000081526004018080602001828103825260148152602001807f546f74616c20737570706c79207265616368656400000000000000000000000081525060200191505060405180910390fd5b6000600f60009054906101000a900473ffffffffffffffffffffffffffffffffffffffff1673ffffffffffffffffffffffffffffffffffffffff16612db18360105461431890919063ffffffff16565b60405180600001905060006040518083038185875af1925050503d8060008114612df7576040519150601f19603f3d011682016040523d82523d6000602084013e612dfc565b606091505b5050905080612e56576040517f08c379a000000000000000000000000000000000000000000000000000000000815260040180806020018281038252603a815260200180615124603a913960400191505060405180910390fd5b6000612e7f612e708460105461431890919063ffffffff16565b3461352190919063ffffffff16565b90506000811115612f6f576000612e946135a4565b73ffffffffffffffffffffffffffffffffffffffff168260405180600001905060006040518083038185875af1925050503d8060008114612ef1576040519150601f19603f3d011682016040523d82523d6000602084013e612ef6565b606091505b5050905080612f6d576040517f08c379a00000000000000000000000000000000000000000000000000000000081526004018080602001828103825260188152602001807f4661696c656420746f2072657475726e206578636573732e000000000000000081525060200191505060405180910390fd5b505b60005b8381101561308f57612f84600c6133e1565b6000612f90600c6133f7565b9050612f9c600e613308565b6014600083815260200190815260200160002081905550612fc4612fbe6135a4565b826135ac565b807f5f7666687319b40936f33c188908d86aea154abd3f4127b4fa0a3f04f303c7da60146000848152602001908152602001600020546040518082815260200191505060405180910390a2807f8c0bdd7bca83c4e0c810cbecf44bc544a9dc0b9f265664e31ce0ce85f07a052b6000601460008581526020019081526020016000205460105460006040518085815260200184815260200183815260200182600281111561306e57fe5b815260200194505050505060405180910390a2508080600101915050612f72565b5050506001600d8190555050565b7f65d7a28e3265b37a6474929f336521b332c1681b933f6cb9f3376673440d862a81565b6000600660008473ffffffffffffffffffffffffffffffffffffffff1673ffffffffffffffffffffffffffffffffffffffff16815260200190815260200160002060008373ffffffffffffffffffffffffffffffffffffffff1673ffffffffffffffffffffffffffffffffffffffff16815260200190815260200160002060009054906101000a900460ff16905092915050565b60138054600181600116156101000203166002900480601f0160208091040260200160405190810160405280929190818152602001828054600181600116156101000203166002900480156131eb5780601f106131c0576101008083540402835291602001916131eb565b820191906000526020600020905b8154815290600101906020018083116131ce57829003601f168201915b505050505081565b600f60009054906101000a900473ffffffffffffffffffffffffffffffffffffffff1673ffffffffffffffffffffffffffffffffffffffff163373ffffffffffffffffffffffffffffffffffffffff16146132b6576040517f08c379a00000000000000000000000000000000000000000000000000000000081526004018080602001828103825260178152602001807f4e6f742063616c6c65642066726f6d207468652064616f00000000000000000081525060200191505060405180910390fd5b806011819055507fc8b17f75f53401f272e9ee7fa431e81ba33779363238896180425a422420c8f7816040518082815260200191505060405180910390a150565b6000613303600c6133f7565b905090565b600033325a8460000154424343406064430340604051602001808973ffffffffffffffffffffffffffffffffffffffff1660601b81526014018873ffffffffffffffffffffffffffffffffffffffff1660601b81526014018781526020018681526020018581526020018481526020018381526020018281526020019850505050505050505060405160208183030381529060405280519060200120604051602001808281526020019150506040516020818303038152906040528051906020012060001c826000018190555081600001549050919050565b6001816000016000828254019250508190555050565b600081600001549050919050565b600061342d836000018373ffffffffffffffffffffffffffffffffffffffff1660001b61439e565b905092915050565b6000613447836000018360001b61439e565b905092915050565b600061347b846000018460001b8473ffffffffffffffffffffffffffffffffffffffff1660001b61440e565b90509392505050565b6000613496836000018360001b6144ea565b905092915050565b6134a98383836134ae565b505050565b6134b983838361351c565b6134c1612125565b15613517576040517f08c379a000000000000000000000000000000000000000000000000000000000815260040180806020018281038252602b81526020018061500c602b913960400191505060405180910390fd5b505050565b505050565b600082821115613599576040517f08c379a000000000000000000000000000000000000000000000000000000000815260040180806020018281038252601e8152602001807f536166654d6174683a207375627472616374696f6e206f766572666c6f77000081525060200191505060405180910390fd5b818303905092915050565b600033905090565b600073ffffffffffffffffffffffffffffffffffffffff168273ffffffffffffffffffffffffffffffffffffffff16141561364f576040517f08c379a00000000000000000000000000000000000000000000000000000000081526004018080602001828103825260208152602001807f4552433732313a206d696e7420746f20746865207a65726f206164647265737381525060200191505060405180910390fd5b613658816137a0565b156136cb576040517f08c379a000000000000000000000000000000000000000000000000000000000815260040180806020018281038252601c8152602001807f4552433732313a20746f6b656e20616c7265616479206d696e7465640000000081525060200191505060405180910390fd5b6136d76000838361450d565b61372881600260008573ffffffffffffffffffffffffffffffffffffffff1673ffffffffffffffffffffffffffffffffffffffff16815260200190815260200160002061343590919063ffffffff16565b5061373f8183600361344f9092919063ffffffff16565b50808273ffffffffffffffffffffffffffffffffffffffff16600073ffffffffffffffffffffffffffffffffffffffff167fddf252ad1be2c89b69c2b068fc378daa952ba7f163c4a11628f55a4df523b3ef60405160405180910390a45050565b60006137b682600361348490919063ffffffff16565b9050919050565b816005600083815260200190815260200160002060006101000a81548173ffffffffffffffffffffffffffffffffffffffff021916908373ffffffffffffffffffffffffffffffffffffffff160217905550808273ffffffffffffffffffffffffffffffffffffffff1661383083612240565b73ffffffffffffffffffffffffffffffffffffffff167f8c5be1e5ebec7d5bd14f71427d1e84f3dd0314c0f7b2291e5b200ac8c7c3b92560405160405180910390a45050565b6000613881826137a0565b6138d6576040517f08c379a000000000000000000000000000000000000000000000000000000000815260040180806020018281038252602c815260200180615184602c913960400191505060405180910390fd5b60006138e183612240565b90508073ffffffffffffffffffffffffffffffffffffffff168473ffffffffffffffffffffffffffffffffffffffff16148061395057508373ffffffffffffffffffffffffffffffffffffffff16613938846118db565b73ffffffffffffffffffffffffffffffffffffffff16145b80613961575061396081856130c1565b5b91505092915050565b8273ffffffffffffffffffffffffffffffffffffffff1661398a82612240565b73ffffffffffffffffffffffffffffffffffffffff16146139f6576040517f08c379a00000000000000000000000000000000000000000000000000000000081526004018080602001828103825260298152602001806152da6029913960400191505060405180910390fd5b600073ffffffffffffffffffffffffffffffffffffffff168273ffffffffffffffffffffffffffffffffffffffff161415613a7c576040517f08c379a00000000000000000000000000000000000000000000000000000000081526004018080602001828103825260248152602001806150d66024913960400191505060405180910390fd5b613a8783838361450d565b613a926000826137bd565b613ae381600260008673ffffffffffffffffffffffffffffffffffffffff1673ffffffffffffffffffffffffffffffffffffffff1681526020019081526020016000206145a090919063ffffffff16565b50613b3581600260008573ffffffffffffffffffffffffffffffffffffffff1673ffffffffffffffffffffffffffffffffffffffff16815260200190815260200160002061343590919063ffffffff16565b50613b4c8183600361344f9092919063ffffffff16565b50808273ffffffffffffffffffffffffffffffffffffffff168473ffffffffffffffffffffffffffffffffffffffff167fddf252ad1be2c89b69c2b068fc378daa952ba7f163c4a11628f55a4df523b3ef60405160405180910390a4505050565b613bd48160008085815260200190815260200160002060000161340590919063ffffffff16565b15613c3c57613be16135a4565b73ffffffffffffffffffffffffffffffffffffffff168173ffffffffffffffffffffffffffffffffffffffff16837f2f8788117e7eff1d82e926ec794901d17c78024a50270940304540a733656f0d60405160405180910390a45b5050565b6000613c4f83600001836145ba565b60001c905092915050565b613c818160008085815260200190815260200160002060000161463d90919063ffffffff16565b15613ce957613c8e6135a4565b73ffffffffffffffffffffffffffffffffffffffff168173ffffffffffffffffffffffffffffffffffffffff16837ff6391f5c32d9c69d2a47ea670b442974b53935d1edc7fd64eb21e047a839171b60405160405180910390a45b5050565b613cf5612125565b613d67576040517f08c379a00000000000000000000000000000000000000000000000000000000081526004018080602001828103825260148152602001807f5061757361626c653a206e6f742070617573656400000000000000000000000081525060200191505060405180910390fd5b6000600b60006101000a81548160ff0219169083151502179055507f5db9ee0a495bf2e6ff9c91a7834c1ba4fdd244a5e8aa4e537bd38aeae4b073aa613dab6135a4565b604051808273ffffffffffffffffffffffffffffffffffffffff16815260200191505060405180910390a1565b6000613de382612240565b9050613df18160008461450d565b613dfc6000836137bd565b60006009600084815260200190815260200160002080546001816001161561010002031660029004905014613e4b57600960008381526020019081526020016000206000613e4a9190614f84565b5b613e9c82600260008473ffffffffffffffffffffffffffffffffffffffff1673ffffffffffffffffffffffffffffffffffffffff1681526020019081526020016000206145a090919063ffffffff16565b50613eb182600361466d90919063ffffffff16565b5081600073ffffffffffffffffffffffffffffffffffffffff168273ffffffffffffffffffffffffffffffffffffffff167fddf252ad1be2c89b69c2b068fc378daa952ba7f163c4a11628f55a4df523b3ef60405160405180910390a45050565b600080600080613f258660000186614687565b915091508160001c8160001c9350935050509250929050565b80600a9080519060200190613f54929190614f04565b5050565b6000613f6b846000018460001b84614720565b60001c90509392505050565b6000613f8582600001614816565b9050919050565b613f94612125565b15614007576040517f08c379a00000000000000000000000000000000000000000000000000000000081526004018080602001828103825260108152602001807f5061757361626c653a207061757365640000000000000000000000000000000081525060200191505060405180910390fd5b6001600b60006101000a81548160ff0219169083151502179055507f62e78cea01bee320cd4e420270b5ea74000d11b0c9f74754ebdbfc544b05a25861404b6135a4565b604051808273ffffffffffffffffffffffffffffffffffffffff16815260200191505060405180910390a1565b600061408783600001836145ba565b60001c905092915050565b60006140ba836000018373ffffffffffffffffffffffffffffffffffffffff1660001b614827565b905092915050565b6140cd84848461396a565b6140d98484848461484a565b61412e576040517f08c379a00000000000000000000000000000000000000000000000000000000081526004018080602001828103825260328152602001806150666032913960400191505060405180910390fd5b50505050565b6060600082141561417c576040518060400160405280600181526020017f30000000000000000000000000000000000000000000000000000000000000008152509050614276565b600082905060005b600082146141a6578080600101915050600a828161419e57fe5b049150614184565b60608167ffffffffffffffff811180156141bf57600080fd5b506040519080825280601f01601f1916602001820160405280156141f25781602001600182028036833780820191505090505b50905060006001830390508593505b6000841461426e57600a848161421357fe5b0660300160f81b8282806001900393508151811061422d57fe5b60200101907effffffffffffffffffffffffffffffffffffffffffffffffffffffffffffff1916908160001a905350600a848161426657fe5b049350614201565b819450505050505b919050565b600061428982600001614816565b9050919050565b60008082840190508381101561430e576040517f08c379a000000000000000000000000000000000000000000000000000000000815260040180806020018281038252601b8152602001807f536166654d6174683a206164646974696f6e206f766572666c6f77000000000081525060200191505060405180910390fd5b8091505092915050565b60008083141561432b5760009050614398565b600082840290508284828161433c57fe5b0414614393576040517f08c379a000000000000000000000000000000000000000000000000000000000815260040180806020018281038252602181526020018061528d6021913960400191505060405180910390fd5b809150505b92915050565b60006143aa8383614827565b614403578260000182908060018154018082558091505060019003906000526020600020016000909190919091505582600001805490508360010160008481526020019081526020016000208190555060019050614408565b600090505b92915050565b60008084600101600085815260200190815260200160002054905060008114156144b5578460000160405180604001604052808681526020018581525090806001815401808255809150506001900390600052602060002090600202016000909190919091506000820151816000015560208201518160010155505084600001805490508560010160008681526020019081526020016000208190555060019150506144e3565b828560000160018303815481106144c857fe5b90600052602060002090600202016001018190555060009150505b9392505050565b600080836001016000848152602001908152602001600020541415905092915050565b61451883838361349e565b807f8c0bdd7bca83c4e0c810cbecf44bc544a9dc0b9f265664e31ce0ce85f07a052b60146000848152602001908152602001600020546014600085815260200190815260200160002054600060026040518085815260200184815260200183815260200182600281111561458857fe5b815260200194505050505060405180910390a2505050565b60006145b2836000018360001b614a63565b905092915050565b60008183600001805490501161461b576040517f08c379a0000000000000000000000000000000000000000000000000000000008152600401808060200182810382526022815260200180614fea6022913960400191505060405180910390fd5b82600001828154811061462a57fe5b9060005260206000200154905092915050565b6000614665836000018373ffffffffffffffffffffffffffffffffffffffff1660001b614a63565b905092915050565b600061467f836000018360001b614b4b565b905092915050565b600080828460000180549050116146e9576040517f08c379a000000000000000000000000000000000000000000000000000000000815260040180806020018281038252602281526020018061526b6022913960400191505060405180910390fd5b60008460000184815481106146fa57fe5b906000526020600020906002020190508060000154816001015492509250509250929050565b600080846001016000858152602001908152602001600020549050600081141583906147e7576040517f08c379a00000000000000000000000000000000000000000000000000000000081526004018080602001828103825283818151815260200191508051906020019080838360005b838110156147ac578082015181840152602081019050614791565b50505050905090810190601f1680156147d95780820380516001836020036101000a031916815260200191505b509250505060405180910390fd5b508460000160018203815481106147fa57fe5b9060005260206000209060020201600101549150509392505050565b600081600001805490509050919050565b600080836001016000848152602001908152602001600020541415905092915050565b600061486b8473ffffffffffffffffffffffffffffffffffffffff16614c64565b6148785760019050614a5b565b60606149e263150b7a0260e01b61488d6135a4565b888787604051602401808573ffffffffffffffffffffffffffffffffffffffff1681526020018473ffffffffffffffffffffffffffffffffffffffff16815260200183815260200180602001828103825283818151815260200191508051906020019080838360005b838110156149115780820151818401526020810190506148f6565b50505050905090810190601f16801561493e5780820380516001836020036101000a031916815260200191505b5095505050505050604051602081830303815290604052907bffffffffffffffffffffffffffffffffffffffffffffffffffffffff19166020820180517bffffffffffffffffffffffffffffffffffffffffffffffffffffffff8381831617835250505050604051806060016040528060328152602001615066603291398773ffffffffffffffffffffffffffffffffffffffff16614c779092919063ffffffff16565b905060008180602001905160208110156149fb57600080fd5b8101908080519060200190929190505050905063150b7a0260e01b7bffffffffffffffffffffffffffffffffffffffffffffffffffffffff1916817bffffffffffffffffffffffffffffffffffffffffffffffffffffffff191614925050505b949350505050565b60008083600101600084815260200190815260200160002054905060008114614b3f5760006001820390506000600186600001805490500390506000866000018281548110614aae57fe5b9060005260206000200154905080876000018481548110614acb57fe5b9060005260206000200181905550600183018760010160008381526020019081526020016000208190555086600001805480614b0357fe5b60019003818190600052602060002001600090559055866001016000878152602001908152602001600020600090556001945050505050614b45565b60009150505b92915050565b60008083600101600084815260200190815260200160002054905060008114614c585760006001820390506000600186600001805490500390506000866000018281548110614b9657fe5b9060005260206000209060020201905080876000018481548110614bb657fe5b9060005260206000209060020201600082015481600001556001820154816001015590505060018301876001016000836000015481526020019081526020016000208190555086600001805480614c0957fe5b6001900381819060005260206000209060020201600080820160009055600182016000905550509055866001016000878152602001908152602001600020600090556001945050505050614c5e565b60009150505b92915050565b600080823b905060008111915050919050565b6060614c868484600085614c8f565b90509392505050565b606082471015614cea576040517f08c379a000000000000000000000000000000000000000000000000000000000815260040180806020018281038252602681526020018061515e6026913960400191505060405180910390fd5b614cf385614c64565b614d65576040517f08c379a000000000000000000000000000000000000000000000000000000000815260040180806020018281038252601d8152602001807f416464726573733a2063616c6c20746f206e6f6e2d636f6e747261637400000081525060200191505060405180910390fd5b600060608673ffffffffffffffffffffffffffffffffffffffff1685876040518082805190602001908083835b60208310614db55780518252602082019150602081019050602083039250614d92565b6001836020036101000a03801982511681845116808217855250505050505090500191505060006040518083038185875af1925050503d8060008114614e17576040519150601f19603f3d011682016040523d82523d6000602084013e614e1c565b606091505b5091509150614e2c828286614e38565b92505050949350505050565b60608315614e4857829050614efd565b600083511115614e5b5782518084602001fd5b816040517f08c379a00000000000000000000000000000000000000000000000000000000081526004018080602001828103825283818151815260200191508051906020019080838360005b83811015614ec2578082015181840152602081019050614ea7565b50505050905090810190601f168015614eef5780820380516001836020036101000a031916815260200191505b509250505060405180910390fd5b9392505050565b828054600181600116156101000203166002900490600052602060002090601f016020900481019282601f10614f4557805160ff1916838001178555614f73565b82800160010185558215614f73579182015b82811115614f72578251825591602001919060010190614f57565b5b509050614f809190614fcc565b5090565b50805460018160011615610100020316600290046000825580601f10614faa5750614fc9565b601f016020900490600052602060002090810190614fc89190614fcc565b5b50565b5b80821115614fe5576000816000905550600101614fcd565b509056fe456e756d657261626c655365743a20696e646578206f7574206f6620626f756e64734552433732315061757361626c653a20746f6b656e207472616e73666572207768696c6520706175736564416363657373436f6e74726f6c3a2073656e646572206d75737420626520616e2061646d696e20746f206772616e744552433732313a207472616e7366657220746f206e6f6e20455243373231526563656976657220696d706c656d656e7465724552433732315072657365744d696e7465725061757365724175746f49643a206d75737420686176652070617573657220726f6c6520746f2070617573654552433732313a207472616e7366657220746f20746865207a65726f206164647265737343616e6e6f742062756c6b20627579206d6f7265207468616e2074686520707265736574206c696d6974416464726573733a20756e61626c6520746f2073656e642076616c75652c20726563697069656e74206d61792068617665207265766572746564416464726573733a20696e73756666696369656e742062616c616e636520666f722063616c6c4552433732313a206f70657261746f7220717565727920666f72206e6f6e6578697374656e7420746f6b656e416363657373436f6e74726f6c3a2073656e646572206d75737420626520616e2061646d696e20746f207265766f6b654552433732313a20617070726f76652063616c6c6572206973206e6f74206f776e6572206e6f7220617070726f76656420666f7220616c6c4552433732313a2062616c616e636520717565727920666f7220746865207a65726f20616464726573734552433732313a206f776e657220717565727920666f72206e6f6e6578697374656e7420746f6b656e456e756d657261626c654d61703a20696e646578206f7574206f6620626f756e6473536166654d6174683a206d756c7469706c69636174696f6e206f766572666c6f774552433732313a20617070726f76656420717565727920666f72206e6f6e6578697374656e7420746f6b656e4552433732313a207472616e73666572206f6620746f6b656e2074686174206973206e6f74206f776e4552433732314d657461646174613a2055524920717565727920666f72206e6f6e6578697374656e7420746f6b656e4552433732313a20617070726f76616c20746f2063757272656e74206f776e65724552433732313a207472616e736665722063616c6c6572206973206e6f74206f776e6572206e6f7220617070726f7665644552433732314275726e61626c653a2063616c6c6572206973206e6f74206f776e6572206e6f7220617070726f7665644552433732315072657365744d696e7465725061757365724175746f49643a206d75737420686176652070617573657220726f6c6520746f20756e7061757365416363657373436f6e74726f6c3a2063616e206f6e6c792072656e6f756e636520726f6c657320666f722073656c66a2646970667358221220a2f9efda880783711a90e101c0150ce97aa28b872791febc56e2ce97ab158cc464736f6c634300070300334552433732315061757361626c653a20746f6b656e207472616e73666572207768696c6520706175736564",
  "linkReferences": {},
  "deployedLinkReferences": {}
}